:020000040800F2
:2000000048090020C90000086909000879060008000000000000000000000000000000009D
:20002000000000000000000000000000E90C00080000000000000000810A0008ED0E00082D
:20004000D912000800000000550B0008AD030008F90A0008ED0200080D0300082D0300083B
:20006000000000008D020008AD020008CD0200087D010008711000089110000800000000A3
:20008000B1100008D110000800000000F10F00081110000831100008511000089906000824
:2000A000B9060008A90C0008C90C000819110008391100080348854600F04EF80048004780
:2000C00035170008480900200448804704480047FEE7FEE7FEE7FEE7FEE7FEE7950F0008AB
:2000E000B500000830B50B46014600202022012409E00D46D5409D4205D31D469540491B9B
:200100002546954040191546521E002DF1DC30BD03460B439B0703D009E008C9121F08C0D5
:20012000042AFAD203E00B78491C0370401C521EF9D27047D2B201E00270401C491EFBD2D2
:2001400070470022F6E710B513460A4604461946FFF7F0FF204610BD064C0125064E05E009
:200160002046E36807C82B4398471034B442F7D3FFF7A4FF70180008901800080448807B8E
:20018000482804D103480449006B086000477047001C0008402000083000002000B587B0E9
:2001A00018216846FFF7CDFF0A480078AA280FD118226946084801F011FB68460749008A5C
:2001C0000860074A0599116000F008F90549086007B000BD00000020001C000828000020B0
:2001E0002C0000202000002010B500231A4602E0845CE318521C8A42FAD30448806983426D
:2002000001D0002010BD012010BD00001400002030B589B0044620216846FFF792FFA17906
:20022000607A09064018E179227A0904120289184518214620220E316846FFF769FFA17A59
:20024000607B09064018E17A227B09041202891840180B49086035208002854209D80949BD
:2002600028460D6000F0BAF807490860012009B030BD0521062000F0C3FB0020F7E700008A
:200280002C00002028000020200000200448807B482804D103480449406A08600047704756
:2002A000001C000840200008300000200448807B482804D103480449806A086000477047EE
:2002C000001C000840200008300000200448807B482804D103480449C06A0860004770478E
:2002E000001C000840200008300000200448807B482804D1034804494069086000477047EF
:20030000001C000840200008300000200448807B482804D10348044980690860004770478E
:20032000001C000840200008300000200448807B482804D103480449C0690860004770472E
:20034000001C00084020000830000020F0B50B2706463F04384600F099F804280FD1084CFC
:20036000206902252843206166612069402108432061384600F08AF82169A9432161F0BDCF
:200380000020024008490420CA68D20701D001207047CA68D20601D502207047C968490798
:2003A000FBD5032070470000002002400448807B482804D103480449C0680860004770477F
:2003C000001C000840200008300000200248016980221143016170470020024001B50098CE
:2003E0008105800A002900D0401C08BDF0B50B2706463F040D46384600F048F804280CD163
:20040000064C20690121084320613580384600F03DF82169490849002161F0BD0020024006
:20042000F8B5064600200B273F0400900D46384600F02CF8042815D10B4C2069012108435A
:2004400020613580384600F021F8042806D1B61C280C00963080384600F018F82169490837
:2004600049002161F8BD00000020024004480169090603D50349416003494160704700006C
:200480000020024023016745AB89EFCD00B50346FFF778FF02E0FFF775FF5B1E012803D00E
:2004A000002B00D1052000BD002BF4D1FAE7000070B50546094C0020A060A8420CD2217847
:2004C000042909D16188414360680818FFF73EFF2070A068401CEFE770BD00001400002062
:2004E00000B587B00091002101910291039101210491694600F036F907B000BD00B587B0C0
:200500000091002101220291039101920492694600F028F907B000BD10B50120400400F068
:2005200009F90120800400F005F900F0E1FD00F001FA00F0FAFF01F0CFF810BDF0B58DB01D
:2005400034216846FFF7FDFD6421002000F012FB00280BDB012424046D46902807D0454ED6
:20056000032816D078282DD04E286AD07FE00126A819214600F020FB002803D1761CF6B22E
:20058000082EF5D368464078042870D1002106203DE00127E819214600F00EFB002803D1A1
:2005A0007F1CFFB20A2FF5D36846407802285ED16846807803285AD1472000F0A5FB01201B
:2005C000307049E00126A819214600F0F5FA002803D1761CF6B2032EF5D3684640788028E7
:2005E00004D0852838D0962814D040E0032607E0A819214600F0E0FA002806D1761CF6B275
:2006000068468078001DB042F2D80021084600F0F7F921E0032607E0A819214600F0CCFA1D
:20062000002806D1761CF6B268468078001DB042F2D86846FFF7ECFD002800D001200DB09F
:20064000F0BD3078002807D00126A819214600F0B3FA002806D101E00220F0E7761CF6B247
:20066000842EF2D3684600F08FF90128E7D00020E5E70000100000200448807B482804D155
:2006800003480449C068086000477047001C000800200008300000200448807B482804D10C
:2006A00003480449C069086000477047001C000880200008300000200448807B482804D16B
:2006C00003480449006A086000477047001C0008802000083000002010B586B018216846B4
:2006E000FFF72FFD0F4C18226946204601F076F8A07B482802D04820694688730020694691
:2007000048731821684601F083F872B606494868064A1060064A1060096881F308888047E8
:2007200006B010BD001C0008002000080C0000200800002008B504494A6902434A61496937
:200740000140009108BD00000010024008B504498A6902438A6189690140009108BD0000FA
:2007600000100240F0B500243EE001232A46A3401A4038D04F680668134653435D005D1980
:20078000AE435F433E4306604E68012E01D0022E05D18F6886685F43AE433E4386600F69CC
:2007A000C668AE431D467D432E43C6604D68022D19D1FF2A0AD84E69056A534353431A011A
:2007C000D21A954373431D4305620CE0130A1A465A435A435A4313019E1A4D69436A6A43BC
:2007E000B34313434362641C0A681546E240BCD14A68012A01D0022A06D1CB6841682A460F
:2008000091435A43114341600120F0BD0069814301D0002070470120704710B5044600F0F8
:2008200059F9206000F03CF9606000F047F9A06010BD0000014610B5002000290FD1104976
:200840000A6B9207920F012A0AD0022A11D0032A09D000F03FF900F023F900F02FF910BDB8
:2008600000F038F910BD09688907C90FFAD0054810BD096A8907C90FFAD00120C00310BD77
:200880000010024000127A00FEB5044600680D460026C007C00F43D1E9686868AA69084373
:2008A00029691143084321681E4A114008432060A968606803221203904308436060696937
:2008C000A068121190430843A0601748844203D10020FFF7AFFF06E01448844220D168466B
:2008E000FFF79BFF029800281AD02968002917D00126AA69F3039A420CD140004A08801808
:20090000FFF7F0FB81B20A4808400907490F0143E16005E04A081018FFF7E4FB80B2E06096
:200920003046FEBDF369FFFF0038014000440040F0FF0000F8B50120C004FFF7FBFE01249A
:20094000074D640221462846FFF7D8FD054F260131463846FFF7D2FDAC62BE62F8BD000025
:2009600000040048000800480448807B482804D1034804498068086000477047001C000845
:20098000002000083000002010B586B0044614216846FFF7D6FB0120694606E00B18203BBC
:2009A000401CC0B2DA77142802D2225C002AF5D1091800222039CA772018817842780802C8
:2009C000352110438902884210D821784F2907D109490860FFF702FD08490860FFF768FD85
:2009E000442000F091F9012006B010BD462000F08BF90020F8E70000280000202000002014
:200A000030B58BB00D46044614216846FFF799FB182105A8FFF795FB78230120002C12D076
:200A2000062C0ED16A46137054709070D5700421684600F09FFD6A4610710521684600F015
:200A400031FC0BB030BD69460B704C7009228A700222CA700A71487100208871C871087258
:200A600045204872522088723120C8720C21684600F080FD694608730D216846DFE700004C
:200A80000448807B482804D103480449806B086000477047001C0008002000083000002045
:200AA00004494968F0221140034A0909515CC8407047000000100240581800080349496843
:200AC000034A4905490F515CC8407047001002406818000810B5064841680C200140054867
:200AE00005D0042903D0082901D100F015F810BD0010024000127A000448807B482804D1EA
:200B0000034804490069086000477047001C0008402000083000002010B50C4C6168012289
:200B200012040B48114002D0891A00D14000E16A0907090F491CFFF7D5FA61680F22920448
:200B40001140890C891C484310BD00000010024000093D000448807B482804D103480449F6
:200B60008068086000477047001C0008402000083000002010B50D4A0D480E4B10E0C46964
:200B8000A406E40F03D0808CAA21C0B206E0DC69A406E40F04D0988CBB21C0B2117010BD40
:200BA000491EECD20020C04310BD000000000020003801400044004070B50C46054604E05D
:200BC000284600F0FDF8012804D0641EF8D20020C04370BD002070BDF7B582B00446039819
:200BE0000021016068460499FFF7E6FF00284AD168460078042813D004DC012806D00228CC
:200C000041D105E006280ED078283CD1802501E00125AD022070782808D001266F1D27E007
:200C2000002005B0F0BD0220C043FAE70126A0190499FFF7C1FF002825D1761CB6B2032EB0
:200C4000F5D3032607E0A0190499FFF7B5FF002819D1761CB6B2A078001DB042F3D809E0D5
:200C6000A0190499FFF7A8FF00280CD1761CB6B2BE42F5D32078782808D0A0786178FF2298
:200C8000504081420AD00020C043CAE7A078C01CC1B2204600F07BFC002802D00398056025
:200CA000BEE70120C043BCE70448807B482804D103480449406A086000477047001C000870
:200CC00080200008300000200448807B482804D103480449806A086000477047001C000884
:200CE00080200008300000200448807B482804D103480449C06A086000477047001C000824
:200D0000002000083000002010B500F075F8002010BD0000F8B522492048224C086020785E
:200D2000AA2802D0BB2804D011E000210620FFF767FE1D4800F0E0FA002802DDFFF7CCFCD1
:200D4000F8BD801C03D104210620FFF759FEAA202070164C0025164E164F25706088401C53
:200D600080B26080B04202D1658000F0C7FCFFF7E5FB0128E4D00228F0D000F07FFC0028D4
:200D8000ECD03878CC28E9D1BFF34F8F0B490A48C860BFF34F8F00BFFDE700000020000880
:200DA0001800002000000020340000201000002070170000010000200400FA0500ED00E0DF
:200DC0000A4A00211278BB2A02D0AA2A02D002E0074900E00749CA699206D20F03D0898CC1
:200DE00001700120704700207047000000000020004400400038014009490978BB2908D027
:200E0000AA2905D107490885C8694006C00FFBD0704705490885C8694006C00FFBD07047E1
:200E200000000020003801400044004070B5002204781346302C2FD14478782C01D0582C68
:200E40002AD18278002A25D00224025D002A11D01546413D052D06D91646613E052E02D9FB
:200E60003136092E13D81E011346303B092B04D81A4607E001200B600AE0052D01D8373ABD
:200E800000E0573AB318641C0B2CDED302E000200B2C00D3002070BD845C002C04D06B2CDE
:200EA00004D04B2C02D007E00B6003E0002A03D0980208E0012015E06D2C01D04D2C04D193
:200EC000002A02D018050860F4E72546303D092D07D80A256B43303BE318521C0B2ADBD335
:200EE000D8E700200B2AD5D270BD00000448807B482804D103480449C06B08600047704755
:200F0000001C000800200008300000201F48012102688A430A43026000681D480168F82276
:200F20009143802211430160016801221143016001688907C90FFBD005224168D2043D23A3
:200F40001B04994311434160C16A09090901C1620168012212061143016001688901C90F13
:200F6000FBD04168F022914341604168072212029143416042680221920892000A43426033
:200F80000C22416811400829FBD1704700200240001002401348016801221143016041687C
:200FA000114A114041600168104A114001600168012292049143016041683F221204914324
:200FC0004160C16A09090901C162016BFF22143291430163416B490849004163002181600F
:200FE00070470000001002400CB8FF08FFFFF6FE0448807B482804D103480449C068086077
:2010000000477047001C000880200008300000200448807B482804D10348044900690860C1
:2010200000477047001C000880200008300000200448807B482804D1034804494069086061
:2010400000477047001C000880200008300000200448807B482804D1034804498069086001
:2010600000477047001C000880200008300000200448807B482804D103480449406B08601F
:2010800000477047001C000840200008300000200448807B482804D103480449806B0860FF
:2010A00000477047001C000840200008300000200448807B482804D1034804490068086062
:2010C00000477047001C000880200008300000200448807B482804D10348044940680860C2
:2010E00000477047001C0008802000083000002010B50924E40680212046FFF7FFF92021C4
:201100002046FFF7FBF910212046FFF7E9F98020A0622020A06210BD0448807B482804D1D3
:2011200003480449C06A086000477047001C000880200008300000200448807B482804D1DF
:2011400003480449006B086000477047001C0008802000083000002086B018216846FEF7F8
:20116000F0FF11480F494160491441803520FFF79FF9182269460D4800F030FB6846407B6B
:20118000002806D00020694648731821684600F03FFBBFF34F8F07490548C860BFF34F8FD1
:2011A00000BFFDE70020000814000020001C00080400FA0500ED00E0F0B501208DB08003B6
:2011C000FFF7C4FA0120012540020226032704956A46C1C200240920694605950394C006C1
:2011E000FFF7C0FAA80204956A46C1C20920694605950394C006FFF7B5FAE120400206907C
:201200000794089409940B940C940C20054C0A9006A92046FFF738FB2068284320600DB036
:20122000F0BD000000380140F0B51C480121C2698FB049040A43C261C069012508400D9002
:2012400004200226032704956A46C1C200240920694605950394C006FFF784FA0820049524
:201260006A46C1C20920694605950394C006FFF779FAE120400206900794089409940B94B7
:201280000C940C20064C0A9006A92046FFF7FCFA2068284320600FB0F0BD00000010024064
:2012A0000044004030B50022094B0A4C0DE0DD696D06ED0FFBD0855C1D85E5696D06ED0F4C
:2012C000FBD0855C2585521CD2B28A42EFD330BD00440040003801400448807B482804D1C2
:2012E000034804490068086000477047001C00084020000830000020F0B5FFB0FFB08DB06C
:201300000646812103ADC9002846FEF71AFF0021FFA80162C1620F460191002400F0EEF9BA
:201320000122FFA9120518312846FFF755FCC01C0AD001280DD003280FD0042879D07F1CF7
:20134000012F77DDFFF708FF01207FB07FB00DB0F0BD6849CC200870C7E0FFA882690027AE
:20136000531C0ED0012B10D06846007B782814D06846407BE1B2884246D01520FFF73CFD27
:20138000CCE70620FFF738FDDCE70620FFF734FDFFA8C06A0028C0D094E00198002803D1A7
:2013A0005548C068FFF784F8FFA88269E91C3046FEF7AEFE5049FFA80E61806900F01CF9AB
:2013C0000028BFD16946C873012001906846807B041949484069844214D347484169474844
:2013E000FEF702FF002805D003210620FFF708FB2046AAE704210620FFF702FB3D49CC2010
:2014000008709FE7002171E0002C14D0E91C3046FEF77EFE38480661FFA8806900F0ECF815
:2014200000288FD10620FFF7E7FC641C0120019074E74AE04EE06846C07B00283FD0002000
:20144000E91C03E02E4B491C1A54401C0A78002A01D0FF28F6DD2A4B00221A54491CFF33E9
:20146000104601330A78202A06D0002A04D01A54491C401C1028F5DB00211954FFA9203184
:201480002048FFF7D3FCFFA8006A35218902884208DD1820FFF7B0FC1820FFF7ADFC0020AD
:2014A000C04352E714494861FEF798FF1249C860FEF7FEFF0620FFF79FFC4320B3E706200F
:2014C000FFF79AFCFFA8006A3FE71820FFF794FC182057E70C480078BB2802D14320FFF73A
:2014E0008BFC09480078AA28A2D101210620FFF787FA13E701000020140000200020000821
:2015000034040020340500200000002002E008C8121F08C1002AFAD170477047002001E0EA
:2015200001C1121F002AFBD1704770B5FF2509240135E40629462046FEF7E0FFE90020467D
:20154000FEF7CEFFA56170BD00B587B018216846FEF7F7FD18226946044800F03FF96846CF
:201560000349407B0870012007B000BD001C00080000002010B5002343541A4603E0845C71
:20158000E318521CD2B28A42F9D3D8B210BD10B500231A4604E0845CE318521C9BB2D2B229
:2015A0008A42F8D3405CDAB2904201D0002010BD012010BDFEF75AFF012008494002886103
:2015C000074900018862FFF72FFEFFF7F5FDFEF7E5FD00F0F7F8FFF79DFBFCE70004004852
:2015E0000008004800B50348FEF7B0FE042800D0FEE700BD001C0008F8B506460024124DBA
:20160000124F18E029690968FEF70AFF6B68286919680268914208D01820FFF7EDFB182028
:20162000FFF7EAFB0120C043F8BD1B1D001D241D6B60E4B22861B44204DA69696868C9191E
:201640008842DFD30020F8BD140000200020000810B586B0044618216846FEF772FD182213
:201660006946054800F0BAF868468473182100F0CFF806B010BD0000001C0008F8B5802142
:201680001148FFF7C3F8002816D101240F4E104F2546641CB44206D1002480210A48FFF78B
:2016A000B5F8002808D16D1CBD42F2D380210648FFF7ACF8002801D00020F8BD0549CC209E
:2016C00008700120F8BD000000040048400D030080B14F010100002000B587B08020009062
:2016E00000200190029003900120049069460248FFF738F807B000BD0004004810B508486B
:20170000094A41780A4BC9430C06240E44700548064902D09062996210BD9061996110BD84
:20172000100000200020000000080048000200000004004810B51D480168890889000160AD
:201740000120FFF703F8FFF7E1FBFEF7E5FEFFF7FBFE0120164940028861FFF78FFF154C4E
:2017600015482178AA2910D0BB290ED06178CC290BD012490968124A11400122520791428D
:201780000BD1FEF7A9FF002010BD807B482802D10020FFF75DFFFFF70DFF807B482802D1F3
:2017A0000020FFF755FFCC206070F4E7000001400004004800000020001C0008002000082F
:2017C0000000FF2F04480349416049144180042101707047002000081400002070B5012491
:2017E000A40200230419520807E0A04203D20588801C5E008D535B1CDBB29A42F5D870BDCA
:2018000000B5FEF7F3FD042800D0FEE700BD0000F3B50E460D4DFEF729FE0D493420C8604C
:20182000FFF7E0FE00240B4F76080AE0BD4206D200986100415A2846FFF7E2FFAD1C641CF5
:20184000E4B2A642F2D8FEF7C1FDFCBD001C00080020024000200008000000000000000026
:20186000010203040607080900000000010203049018000800000020340000000C15000809
:20188000C418000834000020140900001C15000800000000000000000000000000000000BA
:2018A000000000000000000000000000000000000000000000000000000000000000000028
:0418C0000000000024
:20200000E8080020C9200008453D0008D53600080000000000000000000000000000000022
:202020000000000000000000000000009143000800000000000000003541000809440008F1
:20204000DB20000800000000CD410008DB200008DB200008DB200008DB200008953400088A
:202060000000000085330008873300088F330008DB20000819450008DB20000800000000A8
:20208000354500085D45000800000000F9440008DB200008DB200008DB200008DB200008C3
:2020A000DB200008DB200008DB2000082D460008494600080348854600F034FC0048004740
:2020C000395C0008E80800200448804704480047FEE7FEE7FEE7FEE7FEE7FEE79D44000866
:2020E000B520000830B50B46014600202022012409E00D46D5409D4205D31D469540491B5B
:202100002546954040191546521E002DF1DC30BD03460B439B0703D009E008C9121F08C0B5
:20212000042AFAD203E00B78491C0370401C521EF9D27047D2B201E00270401C491EFBD2B2
:2021400070470022F6E710B513460A4604461946FFF7F0FF204610BD30B504460020034602
:2021600000E05B1C934203D2E05CCD5C401BF8D030BD30B505460020034600E05B1C934224
:2021800005D2EC5CC85C201A01D1002CF6D130BDF8B502464A40D40F42004B0052085B0864
:2021A0009A4202D20246084611464A0023D0C30D4A00DDB2120EAD1A202D35DA49020126E7
:2021C000490AF6058A19002C00D0524220214F1B1146B9402A411018C20D9A4221D0002C28
:2021E00017D0012D08DCDA05801AD20F8019D207DBB200F0FDFAF8BDDA05801A0123400014
:202200001B06C01880185A428018CA0F1043490007E04908C2071143DA05801A80194008D5
:20222000801800F0DDFAF8BD61000122511A001BF7E70122D2075140AAE70122D2075040F8
:20224000A6E7024670B54A40D30FDB0740002DD04A002AD0010E140E091900021202400A02
:20226000520A8418E50104465443000A120A2E045043A4194219200CC543AA18120C012562
:202280007F39521CAD0352191204240400D0521C104301D44000491EC2B20C06C00920182B
:2022A000401C4008802A02D003E0002070BD40084000002900DA0020184370BD70B502462E
:2022C0004A40D50F40004A00ED0740085208002814D0002A12D0C40DD30D41020120C0057E
:2022E0005202490A520AE41A091812187D34914201D3641C00E04900002C01DA002070BD3D
:202300000023914201D3891A0343400849000028F7D100290AD0914202D10121C90705E009
:20232000914201D2012101E00121C943E005C018401900F055FA70BDF0B50746084658406C
:2023400087B0C00F049048000E46590040084908BC1A884105D2384631461E4617460B46D8
:20236000024658004008104303D13846314607B0F0BD300D039040055900400D490D05904F
:20238000401A029040286DDA18030121000B09050843019004980092002805D00199524217
:2023A0000020884100920190029840210A1A0199009800F0E1F905460C46684607C800F0EC
:2023C000FCF9C0197141039A0E0D0023D71756401A467A40164340D0049A002A29D0029A3E
:2023E000012A039A11DC1205C01A914101263605001C7141D20F059ED2070093019202961A
:202400002A46234600F03BFAB1E71605224A0F46B218C01AB74101210905001C4F410018BA
:202420007F41114618187941E20F10436D19644113E0E2076D0815436408C2071443039A5A
:2024400001261205C01A91413605001C7141CE07400830434908C01851412A46234600F075
:2024600001FA84E7049801224000C117121A00238B4104983146C417381AA141EFE730B428
:202480000124E407634030BC56E730B40124E407614030BC50E700000000E0FFF0B51FB451
:2024A00088B00B990998002448400999C00F490049080991C0070B990090490049080B911D
:2024C00009990898A646084303D00B990A98084303D1002001460DB0F0BD09980124400074
:2024E000420D4800410D099824050003000B204309900B980003000B20430B9050181A49A9
:202500004018002201901446104601E0032801DA034600E003239C46C11A0AAE0AE05F000C
:2025200008ADED5B4F00F75B7D430027AA187C415B1E491C6145F2DD410004AB5A52210483
:20254000120C0A43240C401C0828DFDB019802900099704601910090059B049A0799069882
:2025600000F08DF9B7E700000DFCFFFFF0B50C465C4085B0E40FE40703944C000026640825
:2025800059009446490802460296224321D062460A431ED06200570D4A000E032303550DF5
:2025A000012402462C492405781B1B0B360B401823432643614600901C46501AB44103D321
:2025C0000098401C009002E0921800985B41002803DA0020014605B0F0BD00200121090599
:2025E0000746864611E064461D46141BB54106D36546521BB341744607430C43A646CD07A7
:2026000040084908284392185B4105460D43EAD11046184313D060461946504071400843F5
:2026200003D100220123DB0709E06046101AB34102D20122002302E00122D24353100098C2
:2026400074460105381C6141029C039D0019694100F008F9BFE70000FD03000070B54B00BC
:202660005B0803430BD04B005C0D002633466542B341D417AD1AA34102DB0020014670BDE1
:2026800012053018514170BD10B500229623114600F0AEF810BD00000EB5054902910021FD
:2026A00000910A460B46019100F0E9F803B000BD33040000410040020122400AD205090E00
:2026C00080187F2901DA00207047962903DC9622511AC84070479639884070474A000903E4
:2026E0000123090B1B051943094B10B5520D9A4201DA002010BD064B34339A4203DC9A1AE3
:2027000000F04AF810BD03495118884010BD0000FF030000CDFBFFFFC20FD2074000400876
:202720000BD0C10D0723DB01C91840020905400A1143C208400711437047002001467047E1
:20274000CB0FDB07490010B5490802460A4307D00A0D07240903E401090B121B002A01DC77
:20276000002010BDC900440F0C43C100E018D205801800F035F810BD10B5202A04DB0146BA
:20278000203A9140002010BD914020239C1A0346E3401943904010BD10B5202A04DB0846B6
:2027A000203AD040002110BD0B46D340D0402024A21A91400843194610BD10B5202A06DB15
:2027C000CB170846203A1041C1170B4306E00B461341D0402024A21A91400843194610BD15
:2027E000002904DA401C490001D140084000704770B40024050C05D11024000402D10029B9
:2028000022D01124050E01D108340002050F01D1241D0001850F01D1A41C8000002801DB9C
:20282000641C4000002908D020252E1B0D46F540A14000D00121294308431B1B0106DB1D02
:20284000000A002B02DA002070BC7047DB05181880180029F8DA401C4900F5D170BC4008E2
:202860004000704710B5002B08DA0024401C614192185B411A4301D14008400010BDF0B5FE
:202880001FB482B005460C0003D0084602F03EF902E002F03BF9203002460090214628468D
:2028A000FFF76AFF049B059A04460F4618431143084303D12046394607B0F0BD1846104314
:2028C00017D0009840210A1A18460599FFF764FF05460E46009A05990498FFF74DFF08439F
:2028E00001D0012000E00020C11705430E432C43374300990E986305401A7905E40A0A30E5
:2029000000220C43FD0A002802DA00200146D3E70105101969410C9C0D9D00196941FFF736
:20292000A1FFC9E7064C0125064E05E02046E36807C82B4398471034B442F7D3FFF7BEFB16
:20294000E46F00080470000810B50C4B00219A681724A2435C0522439A600F231B03826847
:20296000491CD20FD207994201D0002AF7D18168002901DB006C10BD002010BD0024014021
:2029800010B500F005F800F01DF800F029FD10BD00B50B480121826987B049020A438261D6
:2029A00080690840069001200090032001900020049009206946C00600F098FF07B000BD9E
:2029C0000010024030B51B4C0125A562E06818218843E060E068611488430843E060E06845
:2029E000032189028843E060E06820218843E060E068042188430843E06061690520C90806
:202A0000C900014361612046FFF79EFF2560E168032081430143E160A16807480140491CB6
:202A2000A1602168C907C90FFBD0A1680140091DA16030BD00240140E8FFFF7F70B5C47810
:202A4000857846782C400D7875406C401C708C78C5786C4045782C435C70847845780678C1
:202A60006C400D7875402C439C70C47805782C4045786C408D782C43DC70082A62D00C2A0D
:202A80005FD142788478C57822400C786C4062401A70C278047922404C78624044782243B5
:202AA0005A7082784478457962408C786C4022439A70C2784478224044796240CC782243B7
:202AC000DA7042798479C57922400C796C4062401A71C279047A22404C7962404479224352
:202AE0005A718279C479457A62408C796C4022439A71C279047A2240447A6240CC7922432C
:202B0000DA71427A847AC57A22400C7A6C4062401A72C27A047822404C7A6240447A22430A
:202B20005A72827AC47A457862400C786C4022439A72C27A047840782240424088780243F6
:202B4000DA7270BD4479C2790D79224065406A401A710279C47922408C796240447922435F
:202B60005A718279447905796240CC796C4022439A71C27904798079224042408879024376
:202B8000DA7170BD70B50C784578C6786C40857875406C401C7044784D7806786C40C5789B
:202BA00075406C405C7084784578C6786C408D7875406C409C70C4784578CE786C4005786B
:202BC00075406C40DC70082A62D00C2A5FD10A784478C578624084786C4062401A704278D3
:202BE0004C7805796240C4786C4062405A7082784478457962408C786C4062409A70C278F1
:202C00004478CD78624044796C406240DA700A794479C579624084796C4062401A7142790B
:202C20004C79057A6240C4796C4062405A718279C479457A62408C796C4062409A71C27926
:202C4000047ACD796240447A6C406240DA710A7A447AC57A6240847A6C4062401A72427A00
:202C60004C7A6240C47A05786C4062405A72827AC47A457862400C786C4062409A72C27A64
:202C8000047840788978624048404240DA7270BD0A794479C579624084796C4062401A71E4
:202CA00042794C7985786240C4796C4062405A718279C479C57862408C796C4062409A712A
:202CC000C279047940790979624048404240DA7170BD70B50C784578C6782C40857875401B
:202CE0006C401C704C78C57806782C40457875406C405C7044788D78C6786C4085783543A7
:202D00002C439C70C4784578CE786C40057875402C43DC70082A62D00C2A5FD10A78447858
:202D2000C578224084786C4062401A704A78C4780579224044786C4062405A7042788C78B0
:202D40004579624084782C4322439A70C2784478CD78624044796C402243DA70427984798C
:202D6000C57922400C796C4062401A71C279047A22404C796240447922435A718279C479AE
:202D800022408C796240447A22439A71C279047ACD796240447A6C402243DA71427A847A87
:202DA000C57A22400C7A6C4062401A72427A4C7A6240C47A05782C4022435A72827AC47A5C
:202DC000457822400C786C4062409A7202784478C07A8978224048404240DA7270BD4279E5
:202DE0008479C57922400C796C4062401A71C279847822404C796240447922435A718279F0
:202E0000C47922408C796240C47822439A71C279047940788978624048400243DA7170BD68
:202E200070B50C784578C6782C40857875406C401C708478C57806792C404D7875406C404E
:202E40005C70C478057946796C408D7835432C439C70CC78057986796C40457975402C433A
:202E6000DC70082A60D00C2A5DD10A784478C578224084786C4062401A708278C4780579DB
:202E800022404C786C4062405A70C2780479457962408C782C4322439A70CA78047985793E
:202EA000624044796C402243DA704A798479C579224004796C4062401A71C279047A224087
:202EC0008C796240447922435A718279CC79A243447A22439A71C2790C7A857A6240447AEB
:202EE0006C402243DA71427A8C7AC57A2240047A6C4062401A72427A847A05786240CC7A9C
:202F00002C4022435A72827AC47A457822400C786C4062409A72027849780A40C17A807825
:202F200041404A40DA7270BD4A798479C579224004796C4062401A71C279047922408C7938
:202F40006240447922435A718279CC79A243C47822439A71C27909794A4041798079414096
:202F60000A43DA7170BD70B50C784578C6782C408D7835406C401C708C78C5780E792C4096
:202F8000457875406C405C70CC780D79C6786C40857835432C439C70CD78047886782C1B9D
:202FA0006E403443DC70082A60D00C2A5DD10A784478C57822408C782C4062401A708A785F
:202FC000C4780D79224044786C4062405A70CA780C794579624084782C4322439A70CA78B6
:202FE00004798D79121B44796C402243DA7042798C79C57922400C796C4062401A71C27910
:203000000C7A22408C796240447922435A718279CC79A2434C7A22439A71CA79047A857A19
:20302000121B4C7A6C402243DA714A7A847ACD7A2240047A6C4062401A724A7A847A05783F
:203040006240CC7A2C4022435A728A7AC47A457822400C786C4062409A72C27A0C78407834
:20306000121B024088784240DA7270BD42798C79C57922400C796C4062401A71C2790C7A67
:2030800022408C796240447922435A718279CC79A2434C7A22439A71CA79C478497A4079E4
:2030A000121B41400A43DA7170BD000010B50549054802F031FD03490448C03102F02CFD79
:2030C00010BD00003FFF00000004004800140048F0B58FB00026142274A10AA8FFF718F830
:2030E00077A207CA01AB07C378A207CA04AB07C379A207CA07AB07C302F060F908287AD0DF
:20310000784D58280BD028684008400028604B20C00101F0A7FAFF20913003F0F7FC724CAD
:20312000C82700F074FA714801F0B4FC70A003F073FC6E490246891D6DA0FFF71AF8002894
:203140000AD06DA003F068FC024668496AA0FFF710F800281CD00BE0644803F05DFC0246F1
:203160006249022001F024F932216048FEF7E9FF20880028D5D127800AA803F04DFC01464A
:203180000AA803F095FD032E0ED2761CF6B2C8E7564803F041FC02465449022001F008F937
:2031A00032215248FEF7CDFF32215048FEF7C9FF00202080064600F02AFA4C4801F06AFCAE
:2031C0004DA003F029FC024648494BA0FEF7D1FF002811D020880028EDD1C820208001A899
:2031E00003F01AFC014601A803F062FD032E0FD2761CF6B2DFE757E03C4803F00DFC024673
:203200003A49022001F0D4F832213848FEF799FF002727803E46354801F03CFC36A003F02B
:20322000FBFB0246314934A0FEF7A3FF002810D020880028EFD1C820208004A803F0ECFBC5
:20324000014604A803F034FD032E0ED2761CF6B2E1E7264803F0E0FB02462449022001F040
:20326000A7F832212148FEF76CFF278007A803F0D3FB014607A803F01BFD28684008400063
:203280002860E120400201F0EDF9FF20913003F03DFCFF2401340925ED06AC62642003F082
:2032A00035FCAC6103F0AAF80FB0F0BD41542B4E414D455A592D413632310D0A000000001D
:2032C00041542B524F4C45300D0A000041542B42415544380D0A000041542B524553455447
:2032E0000D0A000000380140FC000020B40400205A592D41363231004F4B000070B588B099
:20330000044620216846FEF71CFFA179607A09064018E179227A0904120289184618A17AD8
:20332000607B09064018E17A227B0904120289184518214620220E316846FEF7E9FE0EA014
:2033400003F06AFB024669460BA0FEF712FF00220B49002808D135208002864204D84D60CE
:20336000B1B2AA2002F0ECFA0A700421062000F06FFE08B070BD0000413632314300000024
:2033800044010020704710B500F016F810BD10B501F046FA10BD10B502F0CAFD01F0E8F86F
:2033A00000F032FC01F0BEFE03F0E2F802F09CFB02F0D0FB10BD000010B5084C02212046C0
:2033C00000F0C6F920206060102060600221204600F0B2F900F0D4FF10BD00000000024058
:2033E00038B52648012142690A4342614069244C084025490090CB7F2148224A08341A5190
:203400001F4BCC7F214A0C33E2500124CB7F021D9D582D0C2D0425439D50CA7F83581C4C4D
:2034200023408350CB7FC25803242403A243C250CB7FC2584024A243C250CC7F02598023A5
:203440009A431A430251CB7F8415C25803252D02AA432243C250CA7F04158358AD00AB434F
:2034600023438350CC7F025920239A431A430251C97F425801231A43425038BD0010024061
:203480000000024040240140DC6E0008D0000020EFBFFFFF10B50A48802142690A40802A00
:2034A00008D0426910210A40102A02D1416103F03BFC10BD8021416103F022F810BD00004B
:2034C0000004014010B50178782906D14178802904D0962901D1FFF711FF10BD00210846E8
:2034E00000F0B6FD10BD000008B5012002F040FA0B490020487008700A480121C2690907FF
:203500000A43C261C069084001210090084600F0C7F800F07BFF002002F02AFA08BD0000B6
:203520003601002000100240F0B50B2706463F04384600F05BF804280FD1084C20690225AB
:203540002843206166612069402108432061384600F04CF82169A9432161F0BD0020024049
:2035600008490420CA68D20701D001207047CA68D20601D502207047C9684907FBD50320F5
:20358000704700000020024002480169802211430161704700200240F0B50B2706463F0487
:2035A0000D46384600F022F804280CD1064C20690121084320613580384600F017F82169A2
:2035C000490849002161F0BD0020024004480169090603D503494160034941607047000092
:2035E0000020024023016745AB89EFCD00B50346FFF7B6FF02E0FFF7B3FF5B1E012803D001
:20360000002B00D1052000BD002BF4D1FAE7704700B587B000910021019102910391049158
:20362000694600F063F907B000BD00B587B00091002101220291039101920492694600F06B
:2036400055F907B000BD00000A48017800290FD0C17E094B491CCAB201214902C276022A90
:2036600001D2996100E09962142A01D10021C17670470000D80000200004004806490028C8
:2036800002D001200870704700200870012003494002886270470000D800002000040048DC
:2036A0000A4B1A689208920002431A6008480369042213430361012906D040BF20BF20BFEF
:2036C000016991430161704730BFF9E70070004000ED00E0FEE7000008B504494A69024360
:2036E0004A6149690140009108BD00000010024008B504494A6902434A6149690140009153
:2037000008BD00000010024008B504494A6902434A6149690140009108BD0000001002404A
:2037200008B50449CA690243CA61C9690140009108BD000000100240044A51182039C97F69
:20374000425852085200425070470000F66E0008044A51182039C97F425802239A434250E8
:2037600070470000F66E0008044A51182039C97F425801231A43425070470000F66E0008FE
:20378000044A51182039C97F425801231A43425070470000CA6F0008044A51182039C97FD4
:2037A000425802231A43425070470000F66E0008034A51182039C97F001D085880B270477B
:2037C000F66E0008054B10B559182039C97F435803242403A3431343435010BDF66E000865
:2037E000054B59182039C97F001D0B581B0C1B0413430B5070470000F66E0008054B59180C
:203800002039C97F001D0B581B0C1B0413430B5070470000CA6F0008054B10B559182039B9
:20382000C97F4358034C23401343435010BD0000F66E0008EFBFFFFF034B59182039C97FC5
:203840000C300A5070470000F66E0008054B10B559182039C97F43588024A343134343507A
:2038600010BD0000F66E0008054B10B559182039C97F43580324A402A3431343435010BDE4
:20388000F66E0008054B10B559182039C97F43582024A3431343435010BD0000F66E0008AE
:2038A000034B59182039C97F08300A5070470000F66E0008054B10B559182039C97F435831
:2038C0004024A3431343435010BD0000F66E0008054B10B559182039C97F4358032424026D
:2038E000A3431343435010BDF66E0008F0B500243EE001232A46A3401A4038D04F680668DB
:20390000134653435D005D19AE435F433E4306604E68012E01D0022E05D18F6886685F4328
:20392000AE433E4386600F69C668AE431D467D432E43C6604D68022D19D1FF2A0AD84E694E
:20394000056A534353431A01D21A954373431D4305620CE0130A1A465A435A435A4313011C
:203960009E1A4D69436A6A43B34313434362641C0A681546E240BCD14A68012A01D0022AB8
:2039800006D1CB6841682A4691435A43114341600120F0BD0069814301D0002070470120DA
:2039A00070470069814301D0002070470120704710B5044600F0DAFB206000F0BDFB6060E7
:2039C00000F0C8FBA06010BD014610B5002000290FD110490A6B9207920F012A0AD0022AF9
:2039E00011D0032A09D000F0C1FB00F0A5FB00F0B1FB10BD00F0BAFB10BD09688907C90FF0
:203A0000FAD0054810BD096A8907C90FFAD00120C00310BD0010024000127A000A06930DDE
:203A2000054A10B59B189A68090C0F248C40A243884002439A6010BD00000140F0B50268A0
:203A4000194B1A4C984201D0A04203D17025AA434D682A43164D174E174F98420AD0A042D3
:203A600008D0164CA04205D0A84203D0B04201D0B84204D103242402A243CC6822430260D9
:203A80008A68C2620A888262984205D0A84203D0B04201D0B84201D1097C016341690122E9
:203AA000114341611046F0BD002C014000040040004001400044014000480140002000406D
:203AC00001290AD004290AD010290AD040290AD0CA1FF93A09D104210EE000210CE001214D
:203AE0000AE0022108E0032106E001229202914201D1052100E00621064A1830525C054BA8
:203B00001018DB1D5B5C0821026899400A43026070470000E86E0008034610B50020012946
:203B20000DD0102910D0FF39013912D00F242402091B03D11146184600F050FA10BD1146D7
:203B4000184600F071F910BD1146184600F0B2F910BD1146184600F0F5F910BDFEB5044666
:203B600000680D460026C007C00F43D1E9686868AA69084329691143084321681E4A1140C8
:203B800008432060A9686068032212039043084360606969A068121190430843A0601748EF
:203BA000844203D10020FFF70FFF06E01448844220D16846FFF7FCFE029800281AD0296873
:203BC000002917D00126AA69F3039A420CD140004A088018FEF786FA81B20A480840090770
:203BE000490F0143E16005E04A081018FEF77AFA80B2E0603046FEBDF369FFFF00380140AA
:203C000000440040F0FF0000F8B50120C004FFF77BFD0124074D640221462846FFF705FD85
:203C2000054F260131463846FFF7FFFCAC62BE62F8BD0000000400480008004810B50022BD
:203C400004E09300C458521C24BAC4508A42F8D310BD0000F0B595B00220FFF761FD00218C
:203C6000102000F07BF80125294928040860FF20F530694608800026264C029001960396B0
:203C80002046FFF7DBFE206880210843206049012046FFF715FF602005A961C1FA2008903F
:203CA0000220C102099005AA2046FFF735FF1A48184980791831184A4018D21D9279042763
:203CC0003B460168934099430160A1142046FFF7F7FE2068802108432060606C09020843CE
:203CE00060642068B84338432060E0682843E06002200D900E9003200F9011950DA910966E
:203D000012950648FFF7F2FD02F00CF915B0F0BD00E100E000040040E86E000800040048B1
:203D200010B5E120400200F09DFC00F0EBFC00F02DFD10BD10B500F055FE00F0AFFD00F0A0
:203D400001FE10BD70470000C106C90E01208840014908607047000000E100E08307FF2284
:203D6000DB0E9A408907090E994000280BDA0007000F0838830808489B001B18D8699043E0
:203D80000843D8617047830804489B001B181868904308431860704700ED00E000E400E0E5
:203DA0008307FF22DB0E9A408907090E994000280BDA0007000F0838830808489B001B1809
:203DC000D86990430843D8617047830804489B001B181868904308431860704700ED00E055
:203DE00000E400E08307FF22DB0E9A408907090E994000280BDA0007000F083883080848D3
:203E00009B001B18D86990430843D8617047830804489B001B181868904308431860704713
:203E200000ED00E000E400E030B5026A520852000262026A436884697025A408A400AC43B8
:203E40000D682C430225AA430D692A4352084D6852002A43134DA84208D0134DA84205D078
:203E6000124DA84202D0124DA84214D10825AA434D69AD002A430425AA438D68AD002A43EA
:203E8000FF250135AB438D692B4301256D02AB43CD696D002B4343608461C9684163026221
:203EA000012030BD002C014000400140004401400048014070B5026A1025AA430262026A75
:203EC0004368846973263602B4430E68360234432026B2430E6936013243AA434D682D012F
:203EE0002A43144DA84208D0134DA84205D0134DA84202D0124DA84215D18025AA434D6980
:203F0000AD012A434025AA438D68AD012A430125AD02AB438D69AD002B430125ED02AB434D
:203F2000CD69ED002B4343608461C96881630262012070BD002C014000400140004401402E
:203F40000048014070B5026AFF250135AA430262026A4368C4697026A408A400B4430E6805
:203F600034436E00B2430E6936023243AA434D682D022A43154DA84208D0154DA84205D0C0
:203F8000144DA84202D0144DA84217D10125ED02AA434D69AD022A430125AD02AA438D6846
:203FA000AD022A4301252D03AB438D692D012B4301256D03AB43CD696D012B434360C461B1
:203FC000C968C1630262012070BD0000002C014000400140004401400048014070B5026A4D
:203FE00001252D03AA430262026A4468C36973263602B3430E68360233436E00B2430E6911
:2040000036033243AA434D682D032A430C4DA84208D00C4DA84205D00B4DA84202D00B4D14
:20402000A84205D10125AD03AC438D69AD012C434460C361C96801640262012070BD0000D8
:20404000002C01400040014000440140004801401FB5002278240123009201920292039260
:20406000002812D006280FD16A46147050709370D1706946042001F093F96A461071052248
:204080006946012000F094F91FBD69460C704870092088700220C87008714B710620887145
:2040A000C8710A7245204872522088723120C8720C2001F075F9694608730D22E1E7000089
:2040C00070B5002202F0B2F9002829D1174DE87A002825D12B466E3316205043C018007DC6
:2040E00000281ED0082A1BD200F05AF916204243D4180E48227DAA7221460C38FEF708F8F0
:20410000AA7A0B4D02212846FFF76AFB02212846FFF742FB02212846FFF726FB0020207516
:2041200070BD521CD2B2082AD6D370BDC4010020000002407047000004494968F022114019
:20414000034A0909515CC8407047000000100240D06E000803494968034A4905490F515C5F
:20416000C840704700100240E06E000810B5064841680C200140054805D0042903D008295C
:2041800001D100F005F810BD0010024000127A0010B50C4C6168012212040B48114002D020
:2041A000891A00D14000E16A0907090F491CFDF799FF61680F2292041140890C891C484341
:2041C00010BD00000010024000093D000548C16880221140FF398239C16003499002486176
:2041E000704700000028004000040140F8B5554D0646E87C002876D0002068850127FFF7C3
:2042000006FAF01984B20D2C0BD8601CFEF73CFA4D49FEF716F84D49FEF750F801464C4855
:204220006DE0132C0BD8601CFEF72EFA4649FEF708F84649FEF742F8014646485FE0192CDB
:204240000BD8601CFEF720FA3F49FDF7FAFF3F49FEF734F80146404851E0262C0BD8601C21
:20426000FEF712FA3849FDF7ECFF3849FEF726F801463A4843E02B2C0BD8601CFEF704FAB4
:204280003149FDF7DEFF3149FEF718F80146344835E03D2C0BD8601CFEF7F6F92A49FDF769
:2042A000D0FF2A49FEF70AF801462E4827E04B2C0BD8601CFEF7E8F92349FDF7C2FF2349C8
:2042C000FDF7FCFF0146284819E05B2C0CD8601CFEF7DAF91C49FDF7B4FF1C49FDF7EEFF3E
:2042E000014622480BE027E0601CFEF7CDF91649FDF7A7FF1549FDF7E1FF01461C48FDF71A
:20430000DDFF0090688DFEF7BFF90099FDF740FFFEF7D0F96885FF2C04D87F1CFFB2FF2F97
:2043200000D26CE780B264306885A879002804D0A878002800D12E73F8BDFF20287301F06E
:204340004DFEF8BDD80000200080FA4300803B470000C8420000A0420000704200002042A6
:2043600000000C420000F0410000A041000070410000E04001480021817170479C0100203C
:204380000248002101723221C1727047C4010020704700000148FF21817170479C01002097
:2043A0000248FF2101721421C1727047C401002070B5134C1546012812D002280FD11148CF
:2043C000FDF7A6FE2A4604212046FFF709FA04212046FFF7E1F904212046FFF7C5F970BD8A
:2043E00008485738FDF794FE2A4602212046FFF7F7F902212046FFF7CFF90221ECE700003C
:20440000000002400F020020704700002148012102688A430A4302600068084038D01E48E3
:204420000168012212041143016001688903C90FFBD0016849084900016041683D2212040B
:2044400091432922120411434160C16A0122090909011143C16201681206114301600168B2
:204460008901C90FFBD04168F022914341604168072212029143416042680221920892008B
:204480000A4342600C22416811400829FBD17047FEE70000002002400010024013480168F4
:2044A0000122114301604168114A114041600168104A114001600168012292049143016062
:2044C00041683F22120491434160C16A09090901C162016BFF22143291430163416B4908D5
:2044E000490041630021816070470000001002400CB8FF08FFFFF6FE10B501200549C043D0
:20450000086100F0A1FB02F0DBFA01F0BBFF01F0A5FF10BD0020004010B505480169C90726
:20452000C90F04D00121C943016101F0B5FE10BD002C014010B501200749C043086100F0CF
:204540003DF801F0A9FE02F017FA00F04DFB00F063FD01F0FDF810BD0004004010B5012026
:204560000249C0430861FFF76FF810BD0010004010B501210448FFF758F809200221C0067F
:20458000FFF753F810BD0000000400480A4810B50246837851699269002B02D0914204D806
:2045A00001E0914201D9FF2100E000214170C8B201F092FC10BD0000800400200549087D5E
:2045C000022805D10120087503494A6902434A6170470000D800002000040040FFB583B074
:2045E000174600220C9E0D980092019202920D4A800015580C481C4605606B46224638463E
:20460000A847012E03D1A1086846FFF717FB224669460398FDF7A0FD002800D0012007B036
:20462000F0BD0000D06F00084001002010B50548C169C906C90F03D01021016202F0E2FA0D
:2046400010BD00000038014010B50548C169C906C90F03D01021016202F024FB10BD0000EC
:2046600000440040F1B52548012182698EB089030A4382618069012508400D904811022627
:20468000032704956A46C1C200240920694605950394C006FFF72AF9A80204956A46C1C2A2
:2046A0000920694605950394C006FFF71FF900211B20FFF775FB1B20FFF746FB0E980690AD
:2046C0000794089409940B940C940C200C4C0A9006A92046FFF742FAA06840210843A060AE
:2046E000A06880210843A060206828432060102020622168014321600FB0F0BD0010024095
:204700000038014010B50120FEF7F2FF1D4C1C4A03212046FFF7C4F81B4A03212046FFF764
:204720008BF8322203212046FFF75AF8002203212046FFF771F80122520303212046FFF7CD
:2047400041F8002203212046FFF7B4F8802203212046FFF77BF8002203212046FFF7B8F8EB
:20476000002203212046FFF77FF8002203212046FFF788F803212046FEF7F6FF10BD0000BD
:2047800024380140000002407001002010B50120FEF7AEFF204C1F4A02212046FFF780F855
:2047A0001E4A02212046FFF747F8322202212046FFF716F8102202212046FFF72DF80122F9
:2047C000520302212046FEF7FDFF002202212046FFF770F8802202212046FFF737F800228F
:2047E00002212046FFF774F8002202212046FFF73BF8002202212046FFF744F8202060601D
:204800001020606000210A20FFF7CAFA0A20FFF79BFA10BD2838014000000240B801002065
:2048200010B5084C04212046FEF792FF0120400360604010606004212046FEF77DFF00F02E
:2048400077F810BD0000024001482821417570471B02002070B50E4E05213046FEF7A8FFE5
:204860001E25281A01060B4C090E61720ED005213046FEF761FF08480168490849000160E8
:20488000607A1E2800D9657200F0A6F870BD000000000240F10100200044004010B50120CF
:2048A000FEF726FF1D4C1C4A05212046FEF7F8FF1B4A05212046FEF7BFFF1E220521204627
:2048C000FEF78EFF002205212046FEF7A5FF0122520305212046FEF775FF002205212046F4
:2048E000FEF7E8FF802205212046FEF7AFFF002205212046FEF7ECFF002205212046FEF7DA
:20490000B3FF002205212046FEF7BCFF05212046FEF72AFF10BD0000244400400000024026
:20492000E50100200148002101727047F101002000B5034800218174FFF786FF00BD00007D
:204940001B02002070B50120FEF7D2FE204C1F4A04212046FEF7A4FF1E4A04212046FEF72F
:204960006BFF1E2204212046FEF73AFF102204212046FEF751FF01256D032A460421204641
:20498000FEF720FF002204212046FEF793FF802204212046FEF75AFF002204212046FEF7B2
:2049A00097FF002204212046FEF75EFF002204212046FEF767FF6560A014606000210B20D5
:2049C000FFF7EEF90B20FFF7BFF970BD28440040000002400F0200200148FF210172704742
:2049E000F1010020F0B526480121C2698FB049040A43C261C069012508400D9004200226C9
:204A0000032704956A46C1C200240920694605950394C006FEF76AFF082004956A46C1C25B
:204A20000920694605950394C006FEF75FFF00211C20FFF7B5F91C20FFF786F9E12040025F
:204A400006900794089409940B940C940C200D4C0A9006A92046FFF781F8A0684021084356
:204A6000A060A06880210843A060206828432060102020622168014321600FB0F0BD000063
:204A800000100240004400400148007A70470000F101002010B5044601F0CEFC002817D0DB
:204AA000FFF768FC0B480146C2792C392046FDF72FFB09480168012211430160074C3222A5
:204AC00003212046FEF79AFE03212046FEF758FE10BD00009C0100200038014000000240A5
:204AE00010B50848C07801F091FF80B20649FF2802D2FF22CA7402E00022CA748A70FFF7DB
:204B000075FB10BD80040020D80000202021020C01D010211046020A01D008391046020996
:204B200001D0091F1046820801D0891E1046420801D0881E7047081A704702E008C8121F9A
:204B400008C1002AFAD170477047002001E001C1121F002AFBD1704770B51A4D1A4CE87A34
:204B600000281CD0012821D101F058FA0220E872206AA061616900F061F8FF21F53100263D
:204B8000E061884213D9AE73FF210C2001F0F8F8FFF7A6FFFF20A070FFF7F8FC0FE001F03C
:204BA0003DFA0120E87209486061206270BD00210C2001F0E5F8EE72A6612662E66101F040
:204BC0002DFA70BDD800002080040020FFFFFF7F10B50449487001F07FF9642001F002FFC0
:204BE00010BD00008004002030B5124D287C00280ED01148446983694278016A2846C08B86
:204C00009C4209D9241AA14211D01818814208D030BD0220A87030BD9C42FCD22418A14228
:204C200002D1002AF7D0F4E7181A8142F3D1FF2AEFD130BDD800002080040020814201D90D
:204C4000081A7047401A704705488188002901D0491E8180C188002901D0491EC180704710
:204C6000C80000201249888B0F2801D8642002E0132802D85020C8707047192801D83C207E
:204C8000F9E7262801D82820F5E72B2801D82320F1E73D2801D81E20EDE74B2801D81420D2
:204CA000E9E75B2801D80F20E5E70720E3E70000D800002000B51D4A907B012834D15178C6
:204CC000002931D09078814201D000282CD1D078002829D116480023C078022902D001299F
:204CE00014D01FE001F092FE918B884201D9491C12E053709078022803D09079002802D06E
:204D000010E011730EE001F089F90BE001F07EFE918B884205D2491E88B2908301F05EF9AD
:204D200000E05370FFF79EFF00BD0000D800002080040020F1B54D4D0020E8830126FEF7FD
:204D400066FC009884190D2C0BD8601CFDF79CFC4749FDF776FA4749FDF7B0FA01464648A1
:204D60006CE0132C0BD8601CFDF78EFC4049FDF768FA4049FDF7A2FA014640485EE0192C81
:204D80000BD8601CFDF780FC3949FDF75AFA3949FDF794FA01463A4850E0262C0BD8601CCC
:204DA000FDF772FC3249FDF74CFA3249FDF786FA0146344842E02B2C0BD8601CFDF764FCFE
:204DC0002B49FDF73EFA2B49FDF778FA01462E4834E03D2C0BD8601CFDF756FC2449FDF719
:204DE00030FA2449FDF76AFA0146284826E04B2C0BD8601CFDF748FC1D49FDF722FA1D491D
:204E0000FDF75CFA0146224818E05B2C0BD8601CFDF73AFC1649FDF714FA1649FDF74EFA93
:204E200001461C480AE0601CFDF72EFC1049FDF708FA1049FDF742FA01461748FDF73EFA99
:204E40000746E88BFDF720FC3946FDF7A1F9FDF731FCE883FF2C04D8761CF6B2FF2E00D2A9
:204E60006DE780B26430E883F8BD0000D80000200080FA4300803B470000C8420000A04255
:204E8000000070420000204200000C420000F0410000A041000070410000E040F8B55A4E78
:204EA0005A4C30467378C278012700258078216C932B10D0032B0DD101284AD004286FD087
:204EC00005286ED006286DD0072803D1012A01D101F086F9F8BD012808D0022836D003287B
:204EE00034D0042805D005281ED02FE001F04AFB2CE0002A2AD0F5702771E573E07A012845
:204F000002D002280DD101E0E5720AE04048C069002806D000210B2000F032FFA17B03203A
:204F200012E0FF210B200FE0012A0FD13079012802D0022803D009E0FF20E07306E0E57300
:204F4000A07A002802D1092000F01AFF7570B570F8BD2E48012A807B10D0022A23D0032A83
:204F6000F6D1062806D00620A073A564A57201F055F8A571012000F061FCF8BD012808D095
:204F8000A77301F04BF8FF2022490130886225746575E571A57225722564E5750020EAE7D3
:204FA00020E022E026E0022810D00220A073A5642574A56516486572408A884200D82564D4
:204FC00001F02CF800F0C8FE00F0DAFB012000F035FC00F035FD0920216C00F0D1FE2576CD
:204FE000A571F8BDA6210E2001E000210F2000F0C7FEF8BD002AFCD001F010F8A573A57139
:20500000E571A572F8BD00004C010020D80000208004002000040048F8B5284CA07B0328B2
:205020000CD0274DFF2728466A69A969006A00268A4204D9884206D9904208D2F8BD8A4298
:20504000FCD2884201D3AF7002E09042F6D8AE70FFF79CFA6670207C002805D02674A6707A
:2050600000F0DCFF17482084A07B012803D1A178002900D066702979002909D00128DDD1E7
:20508000687900280FD000F0C9FFA6716675F8BD0128FCD1A67100F0C1FF002000F0CEFB33
:2050A00066756670F8BDE07C0028FBD0A0790028F8D00120A0702773F8BD0000D8000020BA
:2050C00080040020E903000010B5114811490068114C884216DBFDF7ACF8FF218905884238
:2050E00012DCFDF719FB00220C4BFDF73FFA00220B4BFDF7D3F9FDF7F1FA0006000E01D018
:205100000A2801D8FF2000E00020207010BD0000280100200000D040C80000200000F83F90
:205120000000594070B5FF2509240135E40629462046FEF77AFAE9002046FEF769FAA56155
:2051400070BD10B500F002F810BD000070B501F079F9284D0122FA215203274B274CA84247
:2051600010D9E08C00280CD1E184607EC0430006000E607601D0002015E09A610020FEF7AF
:205180007DFA70BD1E480078002810D0FF28F8D1E08C0028F5D1E184607EC0430006000EE1
:2051A0006076EAD00120FEF769FA9A6270BDA07A0028FBD101210920C902C006FEF7EAFBF9
:2051C000002805D00120FEF759FA0020607670BDE08C0028FBD17D20C000E084607EC04344
:2051E0000006000E607600D00120FEF747FAFF20207670BD2823000000080048D800002029
:20520000C800002070B586B0044614216846FCF798FF1F4D2878002837D020784E2802D079
:2052200001221CA12EE00120694606E00B18203B401CC0B2DA77142802D2225C002AF5D1AF
:20524000091800262039CE772018817840780C02044311A001F0E0FB024669460EA0FCF716
:2052600088FF002803D02E7001220DA10AE03520800284422E7003D82146BB2000F060FBB0
:20528000012208A10220FFF793F806B070BD000044010020470000004136323143000000F3
:2052A0004E00000046000000F8B5094D094C0A4E0A4F3089FDF7E8F92146FCF7C2FF084957
:2052C000FCF7FCFF2946FCF7BCFFB842F1DBF8BDF628B04000404E3FC80000200000404005
:2052E00000007A4430B5164A9079002811D010469378858B4178007B002B14D00024022996
:2053000008D001290BD0022903D1022B01D19083947030BD012BF8D1A842F8D801E0012BF2
:20532000F7D1547030BD0229FCD18542FAD20548407901F06BFB117B8842F3D9918330BDE9
:20534000D80000204C01002010B50178032922D1417802291FD1817803291CD1C17804293F
:2053600019D10179052916D14179062913D18179072910D1C17908290DD1017A09290AD10B
:20538000407A0A2807D1012003490246087003A10220FFF70DF810BD4401002047000000E2
:2053A00010B500230B541A4604E08C5CE318521C9BB2D2B28242F8D3D8B210BDFEB535A2D0
:2053C00007CA6B4607C3002635460120FEF756F9FF20913001F09AFB314CC827FEF717F9A4
:2053E00001F02AF800280ED02E48FFF753FB2EA001F012FB2B490246891D2BA0FCF7B9FE37
:20540000002810D0582520880028E7D12780684601F002FB0146684601F04AFC032E03D20A
:20542000761CF6B2DAE70825002020800646002D2DD11F4801684908490001604B20C00116
:20544000FFF710F9FF20913001F060FBFEF7DFF81448FFF71FFB14A001F0DEFA11490246CA
:20546000891D11A0FCF785FE00280FD020880028ECD12780684601F0CFFA0146684601F0D6
:2054800017FC032E03D2761CF6B2DFE704252846FEBD000041542B4E414D450D0A000000A9
:2054A000FC000020B40400205A592D41363231000038014010B503488078002801D0FEF7CF
:2054C00013F810BD3601002000B50BA207CA85B002AB07C302210020019100900C2302AA7E
:2054E00008490948FFF77AF8002802D0FEF78FF8FCE705B000BD000000020406080A0C0E9F
:2055000010121416ACF7FF1F00F8000810B50C4C606CFDF7B9F8616DFCF78FFEA16DFCF7A1
:2055200037FE7F21C905A065884205DD01226272FCF77FFEA06510BD0020607210BD00001F
:20554000D800002010B51648817A002927D0817D002924D0018D7D22491C89B2D2000185D5
:2055600091421CD300210185817C002902D0491E81740DE0417C3B22002902D0491E417450
:2055800005E0418C002903D0491E418442748274C17B002903D1016C092000F0F1FB10BD0D
:2055A000D800002070B51C4CE07A022821D31B4D688A00281DD0E0790026002821D001F0F6
:2055C0003FFC688A216C884203D826722664A665667200F063FA207A00280BD0012807D17C
:2055E000A879002801D0022002E000F00BFD207AA07270BD00F020FD0028FAD100F0FCF9D7
:2056000070BDA07A2072FF200549A6720130886200F004FD70BD0000D80000208004002057
:205620000004004810B50E483C22017AE1235143C2791B015A438918427A3C238A180949EE
:20564000E1240A63C27A24015A43837A007B6343D21810187D22D20048635043C86210BD04
:2056600080040020D8000020F8B501F071FA354CE079002853D0A07A002850D0FF260136A2
:205680000025022817D0304F032829D0042846D1E16BA06B814242D3788A216C884245D849
:2056A000A57200F0BBFCE571012000F0C7F8E07B002835D038E0E16CE06B88422FD3216C75
:2056C000491C2164E07B002802D1092000F058FB1E4886610120FDF7D1FF0320E5632AE077
:2056E000E16AE06B88421AD3FFF710FF0420E563A072164886620020FDF7C0FF788A216C32
:2057000088420AD8A57200F089FCA571E571012000F094F82564E57506E00120A075F8BD94
:205720000920216C00F02CFB2572F8BDE563B879002802D00220A072EFE70120A07200F0B0
:2057400061FCEAE7D8000020800400200004004800B50A4A907A01280ED1906C401C9064CC
:20576000537A516CC918814206D800F057FC022090720020D063906400BD0000D8000020BA
:20578000F8B5294C7D20656BC000454300F0ACFC264E274FB17900293FD04019FF30F530A1
:2057A000244988420DD32448401BFCF76DFF00F015FA00F099FCB179002931D04019FF304C
:2057C000F5307D22216BD2005143814224D21146FCF788FC002900D0401CE12109010746DE
:2057E0002063FCF77FFCF07105463C213846FCF779FC014628463C225043081A30725043CC
:20580000391AE122284612015043081A7072012000F014F80020E075F8BD4019C019BFE7FB
:205820004019C019CDE70000D800002080040020DC05000098C7A400BCC1A400FEB53D4DA4
:205840000024162060434019007D002803D0641CE4B2032CF5D3032C6AD0374F3748B97BCB
:2058600003798678022907D03A469279029201291FD006292DD055E01621614302224919B2
:205880004A70427A8A70027ACA70C2790A71027B4A71C27A8A71827ACA71428A0A72120A22
:2058A0004A728B728079C8720E73F87948730E200DE016216143012249194A70C2788A70E6
:2058C000CB70407908714E71029888710720087528E0162262430D2157197970C189B97086
:2058E000090AF970018A0091E12109010098FCF7F9FBB87101903C210098FCF7F3FB01995B
:205900003C225143401A787150430099E122091A019812015043081A3871FE710298387243
:2059200009203875162103204C432855FEF78CFFFEBD000032020020D80000208004002000
:2059400072B601F05DFABFF34F8F04490248C860BFF34F8F00BFFDE70400FA0500ED00E085
:2059600000B5FDF7E1FD042800D0FEE700BD000070B51C4C8025002828D009220220D2068B
:20598000906200F0EDFD184960148861011117488162491081629162FDF788FB21681020CA
:2059A00081432160E1688143E16011490120FEF735F82168802001432160E1680143E160FB
:2059C00000210720FEF70EFA0A4808E02168802081432160E1688143E16006488030056029
:2059E00070BD000000040140000800480004004801000C0000E100E010B50F4CA07B022866
:205A000018D1572000F0E4FAFF200C49013088610120FDF733FE216C491C2164E07B00288A
:205A200002D1092000F0ACF90020E0630320A0720120A07510BD0000D800002000040048F6
:205A400070B5144CE07D002823D1FF20E0751248408A00281DD0216B401E4843616B4618FC
:205A6000E12109013046FCF73DFB608405463C213046FCF737FB014628463C225043081A8A
:205A800060745043311AE122284612015043081AA07470BDD80000208004002070B55720A2
:205AA00000F096FA00F020FB0D4C05467D21606BC9004843E062FFF7C3FF7D21206BC9000E
:205AC000484308498979002907D00021401B401AE164E16A401AA06370BD7D21C900F5E7B5
:205AE000D80000208004002010B501208005FDF70BFE054C80212046FDF78AFD4021204608
:205B0000FDF786FD10BD00000014004801490120087070473401002000B587B00091002158
:205B20000291012202210491019203926946FDF7DDFE07B000BD00000549802009698843B2
:205B400003D00020C043C0B270470120FAE700000004004800B587B080200090002001900B
:205B6000029003900120049069460248FDF7BEFE07B000BD0004004870B500F06BFB154C06
:205B800000252089012802D12581FFF793FCA088002818D10420A080FFF7CEFF217888426D
:205BA00011D0E178491CC9B2E17003290BD3E5702070C0076178C00F884204D06070002886
:205BC00002D00548E08070BDE5802581FFF772FC70BD000036010020E903000070B5134DB5
:205BE00006465720EC6900F011FF401CFCF754FD00220F4BFCF752FC00220E4BFCF7B6FC10
:205C0000FCF79EFD01463046FCF758FB06462046FCF73AFD3146FCF751FBFCF74BFDC0B2B4
:205C2000801C68820120FFF709FE70BD8004002000507F400070E74086B062B60121414850
:205C400082690A438261806908400090FEF7DEFB01256D042846FDF73FFD6800FDF73CFDD0
:205C6000FDF799FB00F05EF9FCF78AFEFDF7F2FF1020FDF755FD02211120FEF76FF8324855
:205C800001240560002568460580314E2F4F01956946304602970395FDF7D0FE306820437C
:205CA0003060F0682043F0602002FDF739FD01211320FEF753F82448E10401606846078081
:205CC00001950395234D694602942846FDF7B6FE286820432860E8682043E860FEF72AF83E
:205CE000FEF71EF801F06EF801F01EF8642000F00DFFFFF7D9FAFFF7E7FB00F0FBF8FDF743
:205D0000E7F901F05FF801F05DF801F099F801F00BF800F0E3FA01F055F8FFF72DFFFEF77D
:205D2000C9FF00F01BF900F0C5FB00F015F900F029FAFFF799FCFFF704FA00F02DFFFEF746
:205D4000BFF9E6E70010024000E100E0BF5D0000001000400020004010B5084CA079002885
:205D60000AD10A21E069FCF7BDF9618A814200D960820120FFF762FD10BD000080040020DB
:205D8000FEB54E4D06460024162060434019007D002803D0641CE4B2032CF5D3032C7DD012
:205DA000474A1079C00779D0CFB2082E0ED00804010E092E10D00A2E1CD00B2E20D00C2E6B
:205DC0002AD00E2E28D00F2E2BD062E02046162148432E5440191CE0162060434019467034
:205DE0008770C170917C0171517C4171518C817107214DE01620604340194670877005E095
:205E0000162060434019467087700121C17004213EE0877003213BE01620604340194670EF
:205E2000F7E7106D27490190884211DBFCF774FC254A264BFCF723FB0022D243FCF70EFCC8
:205E40000022234BFCF72AFBFCF77AFC014600E00021162060434019009046700846FCF730
:205E600029FC0146009881700198FCF723FC01460098C17017490198FCF7E3F9FCF71AFCA1
:205E800080B26421FCF72EF900980171009805210175032016214C43285500E00CE0032E90
:205EA00008D1002028556019467001218170C77004210175FEF7C8FCFEBD00003202002090
:205EC000D80000209A99B9403333333333331740000059400000C8420449002802D001200A
:205EE000886170470120886270470000000400487047000010B500F08FF900F08FF8FFF793
:205F000091FBFFF79DFD0548002141718171C07800F07CFD0249888310BD000080040020EB
:205F2000D800002010B500F079F8FFF7E1FF10BD10B50924E40680212046FDF776FB202117
:205F40002046FDF772FB10212046FDF761FB00F007FB00F0CDFE10BD7047000000B51A4A49
:205F6000907B01282ED1D07C00282BD09078002828D05178884225D0D178002922D1002347
:205F8000022802D001280DD01AE0107BFF2802D2401CC0B20FE093709079002810D100F0BD
:205FA0003DF80DE00948C07800F030FD117B884205D2491EC8B2107300F010F800E09370AD
:205FC00000F0A6FA00BD0000D80000208004002000B500F01BFD00F001F800BD074988623B
:205FE000074A107D002804D0012801D10220107570474869012210434861704700040040A3
:20600000D80000200348026801210A43026002480175704700040040D8000020044801689A
:206020004908490001600349002008757047000000040040D800002010B510490024887946
:20604000002801D0002010BD4A69086A904202D18A6990420ED08A78FF20002A0CD00022A4
:206060004A70074A012410744878FFF735FF642000F0B8FC204610BD4870F2E780040020F2
:20608000D800002070B5134DC820EC897D2144431148C9004464288A48432146FCF722F886
:2060A000FCF7F2FA0D49FCF7CCF80D49FCF706F97F21C905FCF7BDF8FCF7FCFA0F2801D2A3
:2060C0000F202C82074988624A6901231A434A6170BD000080040020D800002000803B47FF
:2060E0000080FA4300040040F8B522480027C2693C46002A19D0418A002900D04C1E5720FC
:20610000009200F083FC401CFCF7C6FA00221A4BFCF7C4F90022194BFCF728FA05461548F5
:206120000E468079002802D022E00020F8BD002C1AD02046FCF7A8FA04460098FCF7A4FABD
:206140002146FCF7BBF80E4C07466065FCF7B2FA60643846FCF7E0FA2A463346FCF79EF9A5
:20616000FCF7BCFA074603E005480021416441653846F8BD8004002000507F400070E74010
:20618000D800002070B500F05DF9124909250026ED06114C884207D92670FFF73FFF00F039
:2061A000DFF90220A86270BD00F04CF900280ED000F048F909498842F5D220780028F2D1DC
:2061C000FF20207000F0B0FD0220A86170BD267070BD0000282300003501002098210000FE
:2061E0000C48FF2141706422C27001710021F022016242824171C1710172032242728172D3
:20620000C1720122027381717D21C900C1812321018270478004002010B534220A490B4835
:2062200000F0CEF80848017870290BD0002141617D210901816170210170FFF7D1FF044909
:206240000120087010BD00008004002000FC00083401002010B50D48C188012914D1002148
:20626000C180817800290BD00021817072B6BFF34F8F08490648C860BFF34F8F00BFFDE71C
:20628000FF218170FDF730F910BD0000360100200400FA0500ED00E00748C07A002809D052
:2062A00006494A780846006A002A01D0401E00E0401C086270470000D800002080040020C3
:2062C00005484178012905D1818B0C2900D901730021417070470000D8000020FEB50020D6
:2062E00000902D4801902D488188002950D14678002E29D07D21C90081802848284C008986
:20630000FCF7C2F92146FBF79CFF2649FBF7D6FF254F05463124A000C1194039C96B3950E1
:206320000098FBF735FF641E24060090240EF2D129463D60FBF72CFF1C49FBF7BFFF174CCD
:206340000025002E02D00AE01421D5E7A178491CC9B2A17032291BD9A57001216170019942
:20636000FBF76FFF124A56689660116803C27200120E0DD0FBF70CFF3146FBF709FF0D493C
:20638000FBF79CFF0C4908600C49884201DA2570FEBDFEF799FEFEBDF628B040C80000202C
:2063A00000404E3F00007A44E4020020000048427404002000004040280100209A99A94045
:2063C00070B504460E461546D00701D0551CEDB2FDF71DF90120800200222018690807E088
:2063E000844203D22388A41C55007353521CD2B29142F5D8FDF70BF970BD000010B5FDF70C
:20640000B9FF08480168012211430160064C322203212046FDF7F2F903212046FDF7B0F9FD
:2064200010BD000000380140000002400148007A70470000C401002001488079704700007C
:206440009C0100200148C06870470000C80000200148406870470000440100200848818809
:20646000002901D0491E8180C188012901D9491EC1800189012901D9491E01817047000097
:20648000360100200949C87A002801D0401EC87206495731487D002801D0401E4875044983
:2064A0000878002801D0401E08707047C4010020C400002000B51149887B01281CD08A78E4
:2064C000002A19D0C878002816D108460023007B022A02D0012A04D00CE0FF2809D2401C27
:2064E00002E00D2805D9401EC0B20873FFF776FD00E08B7000F00CF800BD0000D80000206F
:206500000249014808817047D1070000360100201249087B0D2801D8642002E0132802D811
:206520005020C8707047192801D83C20F9E7262801D82820F5E72B2801D82320F1E73D28AF
:2065400001D81E20EDE74B2801D81420E9E75B2801D80F20E5E70720E3E70000D8000020C0
:2065600080210920C0068162202181627047000010B5FF2101310248FDF757F810BD00005C
:2065800000040048F8B5F74F00263846FB780179F54DF64C4079012B18D07A1C022B6FD0D8
:2065A000032B6ED0042B10D101296BD002296AD0032969D0042908D1A07100287CD0012084
:2065C000A072FFF75FFDFFF71DFDF8BDE74A0129927811D0FF2702293FD003296DD0042956
:2065E0006CD00529F1D100F02BFCE869002874D0E17A022971D187E06428E6D8002A01D027
:20660000002039E1A179002920D0E978FEF716FB012817D96078002808D0787900F0F6F9E5
:20662000A18B88420AD30BE060700FE0E87800F0EDF9A0837879E978884201D90120F3E793
:206640000220F1E766707879FFF7C2FC7879E870FEF746FAFEF746FE6BE16979002948D09F
:20666000C1496B69AA69096A934204D9994204D291420CD90DE0994207D8FF28A5D008E070
:2066800080E018E150E157E163E1914201D300289BD000F0D5FBB3484079A870FDF776FFC5
:2066A000B0488079FF280AD000288ED1E07C00281BD00220A0701AE04FE120E021E0E07C39
:2066C00000280BD0607D002804D1677538462773FFF784FC0120A07003E08CE0E878FFF79D
:2066E00077FCFFF78FFCA771F8BDFFF797FCA671F8BD002AFCD1A870FDF748FFF8BD2871EC
:20670000F8BD68716675F8BDFF21F531884272D368790028934808D04279FF200130944962
:20672000002A2AD08861012029E04079A071002802D000F031FBF8BDE07C002802D0022015
:20674000A07004E06078002801D1FFF767FC60780128F0D1A078022803D0FFF75FFC66701C
:20676000F8BDA08BFF2801D2207304E027730020A070FFF753FC6670F1E788620020FCF70E
:206780007DFFF8BD794B0129DB7910D0022933D003295AD0042964D005296AD00629F0D169
:2067A000E869002877D0E17A022974D16FE0002B61D100F0C3F979796972B87928723C23FF
:2067C0005843FA79E123EA711B015A438018401868492063884206D90220E8713B20287256
:2067E000687221632DE0FEF7CBFF00F01FF9FFF78DF9E675F8BD4EE0002B3CD100F09EF9EE
:2068000079792973B879E8723C235843FA79E123AA721B015A438018401856496063891E20
:20682000884207D90220A8723B20E87239202873616306E00028D6D1AE72EE720120287314
:2068400060630120FEF7FAFFCDE7002B13D100F075F950791179000208436882FFF77CFA4F
:20686000C1E7A8710028C5D1FEF78AFF00F0DEF8C0E7002B03D00120FEF7E0FFBAE7A978F9
:206880008142B7D000F05AF97879A870B2E7FF21F531884208D2E6726E61AE61FF210B205E
:2068A0002E62FFF76DFAA5E700F0CAFA7879E071FEF778FE9EE7A07B032809D00320A07324
:2068C000FFF7ACFBA671E671E6726E61AE612E62387901280AD002281CD003288AD004286C
:2068E00088D1E6726E61AE612E6283E77879012808D00228BCD1B879002808D00020FEF720
:2069000067F977E7B879002801D0FF20F7E7FFF785FB6FE7E07A022803D1E6726E61AE6138
:206920002E62FEF719F965E75079117900020843E881FFF7EBF85DE7B9793C225143FA79B7
:20694000E1231B015A43891808182882FFF79AFBEFE76870FFF7C0FA4CE7FFF75FFBA6728B
:2069600048E700004C01002080040020D8000020000400482F2A000030B51848817B0129CF
:2069800017D18179002914D015494A79002A10D1C27C002A0DD04D698C694B780A6A01466E
:2069A000498DA5420BD96D1AAA4213D061188A420AD030BD02218170FFF782FC30BDA54278
:2069C000FCD26D18AA4202D1002BF7D0F2E7611A8A42F3D1FF2BEDD130BD0000D800002002
:2069E0008004002010B500F011F8C0B2FEF7A2F9054BFF201873FFF7F1FA01209870FFF739
:206A000001FBFFF785FD10BDD800002001494000085A7047006F0008002102E0491CC9B240
:206A2000401C0278002AF9D108467047F8B5214D0024162060434019007D002803D0641C1E
:206A4000E4B2032CF5D3032C33D01B48408A00282FD01A49401E0A6B496B50434618E12146
:206A600009013046FBF73EFB07463C213046FBF739FB014638463C2250430A1A3C2050435C
:206A8000311AE12338461B015843081A16214C43092361194B70094B1B6C8B701B0ACB70F3
:206AA00008714A718F710720087503202855FDF7CBFEF8BD3202002080040020D8000020FC
:206AC00010B51148818C002901D0491E8184C178002901D0491EC170C18C002901D0491EAC
:206AE000C184018C012901D9491E0184817A012904D9C16B4A1C01D0491CC163FEF722FDD2
:206B000000F032F810BD0000D800002010B5044CA08401E0FCF77BFDA08C0028FAD110BD25
:206B2000D80000200021002200E0521C8242FCD3491CC9B26429F6D37047000003480021E0
:206B40008164417201640172C1637047D800002010B50448018C012903D100210184FEF7BB
:206B60004BFF10BDD80000200A48827A0146C96B022A05D0032A08D0042A05D1826B05E061
:206B8000C26C03E0002181757047C26A9142F9D270470000D800002070B5FFF74DFC002811
:206BA00029D0FDF7E7FB1448C479014622462C395038FBF7ADFA114801680122114301609E
:206BC0000F4D322203212846FCF70AFE03212846FCF7CAFD0849224650390220FDF7E8FBF1
:206BE00005485038FCF76EFCFEF758F9024821465038FBF7A6FA70BD9C01002000380140EF
:206C00000000024070B50E4E03213046FCF7D0FD3225281A01060B4C090EE1710ED00321F5
:206C20003046FCF789FD08480168490849000160E079322800D9E571FDF7ACFB70BD000007
:206C4000000002409C0100200038014010B5FDF71BFF00281FD0FDF765FE0F480146427A21
:206C60000C39A538FBF754FA0C4801680122114301600B4C1E2205212046FCF7B1FD052133
:206C80002046FCF771FD0448A538FEF7BBFA0248A538FEF759FB10BDF10100200044004087
:206CA0000000024010B5FDF7D5FDFFF7CFFF10BD10B50C4C0A46A172014620460C38FBF713
:206CC00027FAA27A084C02212046FCF797FD0748C07F215802221143215011462046FCF773
:206CE0004FFD10BDC401002000000240AC6F000810B501210020FCF791FE094810210268BC
:206D00000A430260C2680A43C26082680A43826000210720FDF766F802498020086010BD58
:206D20000004014000E100E070B50924E40610212046FCF736FEFF25FF212D35F53100285F
:206D400008460ED0FFF7EEFE10212046FCF729FE00281ED08020A0622846FFF7E3FE202037
:206D600016E0FFF7DFFE10212046FCF71AFE00280FD1FFF767FB00280BD0FFF763FB0549A3
:206D8000884206D82020A0622846FFF7CBFE8020A06170BD2823000010B500F051F8074876
:206DA000C17C002902D00121817003E00448C078FFF70EF9FFF726F910BD0000D80000204A
:206DC0008004002070B50C4C0A4DE08800280FD11420E080094E2089FBF756FC3146FBF78A
:206DE00030FA2946FBF72DFAFBF764FC80B2E06070BD0000F628B040C800002000404E3F2D
:206E000070B586B00C46054618216846FBF799F90A4E182269463046FFF7D2FA6846457330
:206E20000482A6214182FFF713FB059018226946304600F021F806B070BD0000001C00083A
:206E400010B506480178002906D00021017034220349044800F010F810BD0000340100200D
:206E60008004002000FC000800B5FCF795FB042800D0FEE700BD0000F7B506461546D0076A
:206E800001D0551CEDB2FCF7A1FB10493420C8603046FEF765FDFCF7BAFB01218902002467
:206EA00077186D080AE0BE4206D201986100415A3046FFF7D9FFB61C641CE4B2A542F2D89A
:206EC000FCF7A5FBFCF760FBFEBD000000200240000000000000000001020304060708098C
:206EE00000000000010203040000000004040400000800000008081C304458081C3044588C
:206F00008813A5086C083408FD07C70792075E072B07F906C806980669063B060E06E20561
:206F2000B7058D0564053C051505EF04CA04A60483046104400420040104E303C603AB031E
:206F40008F0375035C0343032A031203FB02E402D202C002AE029C028A02780266025402B5
:206F60004302320221021002FF01EE01DD01CC01BB01AA01990188017801680158014901BA
:206F80003A012B011D010F010101F300E600D900CD00C100B500AA009F0094008A0080007E
:206FA00076006D0064005B0053004B0044003D00370031002B00260021001D0019001600EA
:206FC000130011000F000D000C00081C304458003D2A0008852B0008D32C0008212E0008F0
:206FE000672F000804700008C4000020880000003A4B00088C7000084C0100209C0700006A
:207000004A4B000800000000000000000000000000000000000000000000000000000000D3
:20702000000000000000000000000000000000000000000000000000000000000000000050
:20704000000000000000000000000000000000000000000000000000000000000000000030
