:020000040800F2
:1000000048090020C90000086909000879060008AD
:1000100000000000000000000000000000000000E0
:10002000000000000000000000000000E90C0008D3
:100030000000000000000000810A0008ED0E00082A
:10004000D912000800000000550B0008AD0300089D
:10005000F90A0008ED0200080D0300082D0300084E
:10006000000000008D020008AD020008CD0200086B
:100070007D010008711000089110000800000000C8
:10008000B1100008D110000800000000F10F0008B6
:1000900011100008311000085110000899060008DE
:1000A000B9060008A90C0008C90C000819110008BD
:1000B000391100080348854600F04EF80048004713
:1000C00035170008480900200448804704480047C5
:1000D000FEE7FEE7FEE7FEE7FEE7FEE7950F000816
:1000E000B500000830B50B4601460020202201244F
:1000F00009E00D46D5409D4205D31D469540491B5C
:100100002546954040191546521E002DF1DC30BDA4
:1001100003460B439B0703D009E008C9121F08C020
:10012000042AFAD203E00B78491C0370401C521ECB
:10013000F9D27047D2B201E00270401C491EFBD2D6
:1001400070470022F6E710B513460A4604461946E2
:10015000FFF7F0FF204610BD064C0125064E05E0D6
:100160002046E36807C82B4398471034B442F7D3BE
:10017000FFF7A4FF70180008901800080448807B5F
:10018000482804D103480449006B086000477047C1
:10019000001C0008402000083000002000B587B097
:1001A00018216846FFF7CDFF0A480078AA280FD12A
:1001B00018226946084801F011FB68460749008A81
:1001C0000860074A0599116000F008F905490860C0
:1001D00007B000BD00000020001C0008280000201F
:1001E0002C0000202000002010B500231A4602E059
:1001F000845CE318521C8A42FAD304488069834223
:1002000001D0002010BD012010BD0000140000200E
:1002100030B589B0044620216846FFF792FFA179E6
:10022000607A09064018E179227A090412028918D5
:100230004518214620220E316846FFF769FFA17A52
:10024000607B09064018E17A227B090412028918B2
:1002500040180B49086035208002854209D80949B9
:1002600028460D6000F0BAF807490860012009B07F
:1002700030BD0521062000F0C3FB0020F7E7000099
:100280002C00002028000020200000200448807B53
:10029000482804D103480449406A08600047704771
:1002A000001C000840200008300000200448807B2B
:1002B000482804D103480449806A08600047704711
:1002C000001C000840200008300000200448807B0B
:1002D000482804D103480449C06A086000477047B1
:1002E000001C000840200008300000200448807BEB
:1002F000482804D103480449406908600047704712
:10030000001C000840200008300000200448807BCA
:10031000482804D1034804498069086000477047B1
:10032000001C000840200008300000200448807BAA
:10033000482804D103480449C06908600047704751
:10034000001C00084020000830000020F0B50B27FA
:1003500006463F04384600F099F804280FD1084CAF
:1003600020690225284320616661206940210843F5
:100370002061384600F08AF82169A9432161F0BD67
:100380000020024008490420CA68D20701D0012099
:100390007047CA68D20601D502207047C96849076C
:1003A000FBD5032070470000002002400448807BFA
:1003B000482804D103480449C068086000477047D2
:1003C000001C00084020000830000020024801699D
:1003D00080221143016170470020024001B500985E
:1003E0008105800A002900D0401C08BDF0B50B270C
:1003F00006463F040D46384600F048F804280CD164
:10040000064C20690121084320613580384600F000
:100410003DF82169490849002161F0BD00200240F2
:10042000F8B5064600200B273F0400900D463846DD
:1004300000F02CF8042815D10B4C20690121084349
:1004400020613580384600F021F8042806D1B61C1A
:10045000280C00963080384600F018F821694908C9
:1004600049002161F8BD00000020024004480169F4
:10047000090603D503494160034941607047000004
:100480000020024023016745AB89EFCD00B503464C
:10049000FFF778FF02E0FFF775FF5B1E012803D02E
:1004A000002B00D1052000BD002BF4D1FAE700009D
:1004B00070B50546094C0020A060A8420CD22178F6
:1004C000042909D16188414360680818FFF73EFF9D
:1004D0002070A068401CEFE770BD000014000020F1
:1004E00000B587B000910021019102910391012193
:1004F0000491694600F036F907B000BD00B587B039
:100500000091002101220291039101920492694617
:1005100000F028F907B000BD10B50120400400F03C
:1005200009F90120800400F005F900F0E1FD00F078
:1005300001FA00F0FAFF01F0CFF810BDF0B58DB070
:1005400034216846FFF7FDFD6421002000F012FB16
:1005500000280BDB012424046D46902807D0454E6B
:10056000032816D078282DD04E286AD07FE00126A7
:10057000A819214600F020FB002803D1761CF6B212
:10058000082EF5D368464078042870D10021062053
:100590003DE00127E819214600F00EFB002803D1B9
:1005A0007F1CFFB20A2FF5D36846407802285ED13F
:1005B0006846807803285AD1472000F0A5FB012027
:1005C000307049E00126A819214600F0F5FA00280C
:1005D00003D1761CF6B2032EF5D368464078802806
:1005E00004D0852838D0962814D040E0032607E0B0
:1005F000A819214600F0E0FA002806D1761CF6B2D0
:1006000068468078001DB042F2D80021084600F00C
:10061000F7F921E0032607E0A819214600F0CCFAFB
:10062000002806D1761CF6B268468078001DB042DC
:10063000F2D86846FFF7ECFD002800D001200DB08D
:10064000F0BD3078002807D00126A819214600F017
:10065000B3FA002806D101E00220F0E7761CF6B2DA
:10066000842EF2D3684600F08FF90128E7D00020ED
:10067000E5E70000100000200448807B482804D1F2
:1006800003480449C068086000477047001C000820
:1006900000200008300000200448807B482804D156
:1006A00003480449C069086000477047001C0008FF
:1006B00080200008300000200448807B482804D1B6
:1006C00003480449006A086000477047001C00089E
:1006D000802000083000002010B586B01821684640
:1006E000FFF72FFD0F4C18226946204601F076F8DF
:1006F000A07B482802D048206946887300206946BC
:1007000048731821684601F083F872B606494868B4
:10071000064A1060064A1060096881F3088880471D
:1007200006B010BD001C0008002000080C000020CE
:100730000800002008B504494A6902434A61496932
:100740000140009108BD00000010024008B50449B6
:100750008A6902438A6189690140009108BD0000ED
:1007600000100240F0B500243EE001232A46A340D9
:100770001A4038D04F680668134653435D005D1930
:10078000AE435F433E4306604E68012E01D0022E09
:1007900005D18F6886685F43AE433E4386600F692C
:1007A000C668AE431D467D432E43C6604D68022D8C
:1007B00019D1FF2A0AD84E69056A534353431A01D7
:1007C000D21A954373431D4305620CE0130A1A467F
:1007D0005A435A435A4313019E1A4D69436A6A4366
:1007E000B34313434362641C0A681546E240BCD11C
:1007F0004A68012A01D0022A06D1CB6841682A46FC
:1008000091435A43114341600120F0BD0069814387
:1008100001D0002070470120704710B5044600F059
:1008200059F9206000F03CF9606000F047F9A060E1
:1008300010BD0000014610B5002000290FD110495D
:100840000A6B9207920F012A0AD0022A11D0032ABA
:1008500009D000F03FF900F023F900F02FF910BDA6
:1008600000F038F910BD09688907C90FFAD00548AA
:1008700010BD096A8907C90FFAD00120C00310BD55
:100880000010024000127A00FEB5044600680D46D2
:100890000026C007C00F43D1E9686868AA69084309
:1008A00029691143084321681E4A1140084320600A
:1008B000A968606803221203904308436060696975
:1008C000A068121190430843A0601748844203D1E6
:1008D0000020FFF7AFFF06E01448844220D16846AD
:1008E000FFF79BFF029800281AD02968002917D02B
:1008F0000126AA69F3039A420CD140004A088018E5
:10090000FFF7F0FB81B20A4808400907490F01438D
:10091000E16005E04A081018FFF7E4FB80B2E060F0
:100920003046FEBDF369FFFF00380140004400403F
:10093000F0FF0000F8B50120C004FFF7FBFE012422
:10094000074D640221462846FFF7D8FD054F2601D2
:1009500031463846FFF7D2FDAC62BE62F8BD0000FA
:1009600000040048000800480448807B482804D15F
:10097000034804498068086000477047001C00086D
:10098000002000083000002010B586B00446142175
:100990006846FFF7D6FB0120694606E00B18203BAE
:1009A000401CC0B2DA77142802D2225C002AF5D1AA
:1009B000091800222039CA77201881784278080265
:1009C000352110438902884210D821784F2907D158
:1009D00009490860FFF702FD08490860FFF768FD54
:1009E000442000F091F9012006B010BD462000F02F
:1009F0008BF90020F8E700002800002020000020EC
:100A000030B58BB00D46044614216846FFF799FBBC
:100A1000182105A8FFF795FB78230120002C12D0A0
:100A2000062C0ED16A46137054709070D570042154
:100A3000684600F09FFD6A4610710521684600F087
:100A400031FC0BB030BD69460B704C7009228A70C6
:100A50000222CA700A71487100208871C871087238
:100A600045204872522088723120C8720C21684695
:100A700000F080FD694608730D216846DFE700003D
:100A80000448807B482804D103480449806B0860EF
:100A900000477047001C00080020000830000020BC
:100AA00004494968F0221140034A0909515CC840D1
:100AB00070470000001002405818000803494968B8
:100AC000034A4905490F515CC84070470010024075
:100AD0006818000810B5064841680C200140054818
:100AE00005D0042903D0082901D100F015F810BD64
:100AF0000010024000127A000448807B482804D18C
:100B0000034804490069086000477047001C00085A
:100B1000402000083000002010B50C4C6168012214
:100B200012040B48114002D0891A00D14000E16A3A
:100B30000907090F491CFFF7D5FA61680F229204D3
:100B40001140890C891C484310BD00000010024070
:100B500000093D000448807B482804D1034804492B
:100B60008068086000477047001C000840200008AB
:100B70003000002010B50D4A0D480E4B10E0C4693E
:100B8000A406E40F03D0808CAA21C0B206E0DC6981
:100B9000A406E40F04D0988CBB21C0B2117010BD24
:100BA000491EECD20020C04310BD00000000002010
:100BB000003801400044004070B50C46054604E092
:100BC000284600F0FDF8012804D0641EF8D2002069
:100BD000C04370BD002070BDF7B582B004460398D5
:100BE0000021016068460499FFF7E6FF00284AD11A
:100BF00068460078042813D004DC012806D00228B7
:100C000041D105E006280ED078283CD1802501E0AE
:100C10000125AD022070782808D001266F1D27E03D
:100C2000002005B0F0BD0220C043FAE70126A0195C
:100C30000499FFF7C1FF002825D1761CB6B2032E18
:100C4000F5D3032607E0A0190499FFF7B5FF0028A4
:100C500019D1761CB6B2A078001DB042F3D809E0D5
:100C6000A0190499FFF7A8FF00280CD1761CB6B292
:100C7000BE42F5D32078782808D0A0786178FF228A
:100C8000504081420AD00020C043CAE7A078C01C6F
:100C9000C1B2204600F07BFC002802D0039805601A
:100CA000BEE70120C043BCE70448807B482804D14C
:100CB00003480449406A086000477047001C000868
:100CC00080200008300000200448807B482804D1A0
:100CD00003480449806A086000477047001C000808
:100CE00080200008300000200448807B482804D180
:100CF00003480449C06A086000477047001C0008A8
:100D0000002000083000002010B500F075F8002029
:100D100010BD0000F8B522492048224C0860207818
:100D2000AA2802D0BB2804D011E000210620FFF73A
:100D300067FE1D4800F0E0FA002802DDFFF7CCFC5A
:100D4000F8BD801C03D104210620FFF759FEAA201C
:100D50002070164C0025164E164F25706088401CDA
:100D600080B26080B04202D1658000F0C7FCFFF71E
:100D7000E5FB0128E4D00228F0D000F07FFC002839
:100D8000ECD03878CC28E9D1BFF34F8F0B490A4813
:100D9000C860BFF34F8F00BFFDE7000000200008D0
:100DA0001800002000000020340000201000002067
:100DB00070170000010000200400FA0500ED00E0BB
:100DC0000A4A00211278BB2A02D0AA2A02D002E0E5
:100DD000074900E00749CA699206D20F03D0898CFF
:100DE00001700120704700207047000000000020C3
:100DF000004400400038014009490978BB2908D067
:100E0000AA2905D107490885C8694006C00FFBD04B
:100E1000704705490885C8694006C00FFBD0704778
:100E200000000020003801400044004070B500225E
:100E300004781346302C2FD14478782C01D0582CCC
:100E40002AD18278002A25D00224025D002A11D0FE
:100E50001546413D052D06D91646613E052E02D99F
:100E60003136092E13D81E011346303B092B04D806
:100E70001A4607E001200B600AE0052D01D8373A39
:100E800000E0573AB318641C0B2CDED302E00020BC
:100E90000B2C00D3002070BD845C002C04D06B2C84
:100EA00004D04B2C02D007E00B6003E0002A03D0F3
:100EB000980208E0012015E06D2C01D04D2C04D1E2
:100EC000002A02D018050860F4E72546303D092DB8
:100ED00007D80A256B43303BE318521C0B2ADBD39F
:100EE000D8E700200B2AD5D270BD00000448807BD3
:100EF000482804D103480449C06B08600047704784
:100F0000001C000800200008300000201F480121BC
:100F100002688A430A43026000681D480168F8229B
:100F20009143802211430160016801221143016055
:100F300001688907C90FFBD005224168D2043D230F
:100F40001B04994311434160C16A09090901C16247
:100F50000168012212061143016001688901C90F6D
:100F6000FBD04168F02291434160416807221202A0
:100F70009143416042680221920892000A43426014
:100F80000C22416811400829FBD170470020024023
:100F900000100240134801680122114301604168BA
:100FA000114A114041600168104A11400160016816
:100FB000012292049143016041683F22120491434F
:100FC0004160C16A09090901C162016BFF22143243
:100FD00091430163416B49084900416300218160ED
:100FE00070470000001002400CB8FF08FFFFF6FE3B
:100FF0000448807B482804D103480449C06808603D
:1010000000477047001C00088020000830000020C6
:101010000448807B482804D10348044900690860DB
:1010200000477047001C00088020000830000020A6
:101030000448807B482804D103480449406908607B
:1010400000477047001C0008802000083000002086
:101050000448807B482804D103480449806908601B
:1010600000477047001C0008802000083000002066
:101070000448807B482804D103480449406B086039
:1010800000477047001C0008402000083000002086
:101090000448807B482804D103480449806B0860D9
:1010A00000477047001C0008402000083000002066
:1010B0000448807B482804D103480449006808603C
:1010C00000477047001C0008802000083000002006
:1010D0000448807B482804D10348044940680860DC
:1010E00000477047001C00088020000830000020E6
:1010F00010B50924E40680212046FFF7FFF92021DE
:101100002046FFF7FBF910212046FFF7E9F9802080
:10111000A0622020A06210BD0448807B482804D132
:1011200003480449C06A086000477047001C000873
:1011300080200008300000200448807B482804D12B
:1011400003480449006B086000477047001C000812
:10115000802000083000002086B018216846FEF785
:10116000F0FF11480F494160491441803520FFF7D5
:101170009FF9182269460D4800F030FB6846407B15
:10118000002806D00020694648731821684600F000
:101190003FFBBFF34F8F07490548C860BFF34F8F30
:1011A00000BFFDE70020000814000020001C00081C
:1011B0000400FA0500ED00E0F0B501208DB08003D9
:1011C000FFF7C4FA012001254002022603270495F7
:1011D0006A46C1C200240920694605950394C006E9
:1011E000FFF7C0FAA80204956A46C1C20920694601
:1011F00005950394C006FFF7B5FAE120400206907A
:101200000794089409940B940C940C20054C0A90B4
:1012100006A92046FFF738FB2068284320600DB060
:10122000F0BD000000380140F0B51C480121C26942
:101230008FB049040A43C261C069012508400D907E
:1012400004200226032704956A46C1C2002409200F
:10125000694605950394C006FFF784FA08200495B3
:101260006A46C1C20920694605950394C006FFF786
:1012700079FAE120400206900794089409940B94AF
:101280000C940C20064C0A9006A92046FFF7FCFAA5
:101290002068284320600FB0F0BD0000001002401D
:1012A0000044004030B50022094B0A4C0DE0DD69D6
:1012B0006D06ED0FFBD0855C1D85E5696D06ED0FB4
:1012C000FBD0855C2585521CD2B28A42EFD330BD5B
:1012D00000440040003801400448807B482804D185
:1012E000034804490068086000477047001C000874
:1012F0004020000830000020F0B5FFB0FFB08DB0F6
:101300000646812103ADC9002846FEF71AFF0021D9
:10131000FFA80162C1620F460191002400F0EEF9BE
:101320000122FFA9120518312846FFF755FCC01C01
:101330000AD001280DD003280FD0042879D07F1CB3
:10134000012F77DDFFF708FF01207FB07FB00DB0E0
:10135000F0BD6849CC200870C7E0FFA8826900276B
:10136000531C0ED0012B10D06846007B782814D077
:101370006846407BE1B2884246D01520FFF73CFD2D
:10138000CCE70620FFF738FDDCE70620FFF734FD49
:10139000FFA8C06A0028C0D094E00198002803D1BB
:1013A0005548C068FFF784F8FFA88269E91C3046F9
:1013B000FEF7AEFE5049FFA80E61806900F01CF9EF
:1013C0000028BFD16946C873012001906846807B20
:1013D000041949484069844214D347484169474841
:1013E000FEF702FF002805D003210620FFF708FBC7
:1013F0002046AAE704210620FFF702FB3D49CC2046
:1014000008709FE7002171E0002C14D0E91C3046E1
:10141000FEF77EFE38480661FFA8806900F0ECF810
:1014200000288FD10620FFF7E7FC641C0120019003
:1014300074E74AE04EE06846C07B00283FD00020B9
:10144000E91C03E02E4B491C1A54401C0A78002A60
:1014500001D0FF28F6DD2A4B00221A54491CFF3325
:10146000104601330A78202A06D0002A04D01A54E4
:10147000491C401C1028F5DB00211954FFA920311C
:101480002048FFF7D3FCFFA8006A35218902884273
:1014900008DD1820FFF7B0FC1820FFF7ADFC002096
:1014A000C04352E714494861FEF798FF1249C860EB
:1014B000FEF7FEFF0620FFF79FFC4320B3E7062060
:1014C000FFF79AFCFFA8006A3FE71820FFF794FC9B
:1014D000182057E70C480078BB2802D14320FFF7BB
:1014E0008BFC09480078AA28A2D101210620FFF729
:1014F00087FA13E7010000201400002000200008F4
:1015000034040020340500200000002002E008C858
:10151000121F08C1002AFAD170477047002001E06D
:1015200001C1121F002AFBD1704770B5FF250924A5
:101530000135E40629462046FEF7E0FFE900204693
:10154000FEF7CEFFA56170BD00B587B018216846D3
:10155000FEF7F7FD18226946044800F03FF9684697
:101560000349407B0870012007B000BD001C000843
:101570000000002010B5002343541A4603E0845CA9
:10158000E318521CD2B28A42F9D3D8B210BD10B5BA
:1015900000231A4604E0845CE318521C9BB2D2B2CA
:1015A0008A42F8D3405CDAB2904201D0002010BDEC
:1015B000012010BDFEF75AFF012008494002886152
:1015C000074900018862FFF72FFEFFF7F5FDFEF7E0
:1015D000E5FD00F0F7F8FFF79DFBFCE7000400488D
:1015E0000008004800B50348FEF7B0FE042800D00C
:1015F000FEE700BD001C0008F8B506460024124DA9
:10160000124F18E029690968FEF70AFF6B6828691C
:1016100019680268914208D01820FFF7EDFB1820E6
:10162000FFF7EAFB0120C043F8BD1B1D001D241D70
:101630006B60E4B22861B44204DA69696868C91968
:101640008842DFD30020F8BD1400002000200008ED
:1016500010B586B0044618216846FEF772FD1822C0
:101660006946054800F0BAF868468473182100F00E
:10167000CFF806B010BD0000001C0008F8B58021AE
:101680001148FFF7C3F8002816D101240F4E104F60
:101690002546641CB44206D1002480210A48FFF785
:1016A000B5F8002808D16D1CBD42F2D38021064850
:1016B000FFF7ACF8002801D00020F8BD0549CC2088
:1016C00008700120F8BD000000040048400D030030
:1016D00080B14F010100002000B587B0802000904C
:1016E0000020019002900390012004906946024876
:1016F000FFF738F807B000BD0004004810B50848EF
:10170000094A41780A4BC9430C06240E4470054827
:10171000064902D09062996210BD9061996110BD36
:101720001000002000200000000800480002000017
:101730000004004810B51D4801688908890001604F
:101740000120FFF703F8FFF7E1FBFEF7E5FEFFF7E7
:10175000FBFE0120164940028861FFF78FFF154C00
:1017600015482178AA2910D0BB290ED06178CC2940
:101770000BD012490968124A1140012252079142C6
:101780000BD1FEF7A9FF002010BD807B482802D1B5
:101790000020FFF75DFFFFF70DFF807B482802D197
:1017A0000020FFF755FFCC206070F4E700000140F7
:1017B0000004004800000020001C00080020000871
:1017C0000000FF2F0448034941604914418004216F
:1017D00001707047002000081400002070B501243B
:1017E000A40200230419520807E0A04203D205888E
:1017F000801C5E008D535B1CDBB29A42F5D870BD35
:1018000000B5FEF7F3FD042800D0FEE700BD0000A0
:10181000F3B50E460D4DFEF729FE0D493420C86084
:10182000FFF7E0FE00240B4F76080AE0BD4206D227
:1018300000986100415A2846FFF7E2FFAD1C641C86
:10184000E4B2A642F2D8FEF7C1FDFCBD001C0008C0
:1018500000200240002000080000000000000000FE
:101860000102030406070809000000000102030446
:101870009018000800000020340000000C1500083B
:10188000C418000834000020140900001C150008CA
:101890000000000000000000000000000000000048
:1018A0000000000000000000000000000000000038
:1018B0000000000000000000000000000000000028
:0418C0000000000024
:04000005080000B53A
:00000001FF
