:020000040800F2
:10200000D8180020C9200008F94F0008E542000850
:1020100000000000000000000000000000000000C0
:10202000000000000000000000000000515A0008FD
:102030000000000000000000E95600080D680008DC
:10204000DB2000080000000065580008DB200008C5
:10205000DB200008DB200008DB200008813D0008B1
:102060000000000075340008773400087F34000851
:10207000DB20000879690008DB2000080000000070
:102080007D690008A569000800000000416900089A
:10209000DB200008DB200008DB200008DB20000834
:1020A000DB200008DB200008DB200008BD6A0008F8
:1020B000D96A00080348854600F03CFC0048004708
:1020C000BD840008D8180020044880470448004711
:1020D000FEE7FEE7FEE7FEE7FEE7FEE7E56800084D
:1020E000B520000830B50B4601460020202201240F
:1020F00009E00D46D5409D4205D31D469540491B3C
:102100002546954040191546521E002DF1DC30BD84
:1021100003460B439B0703D009E008C9121F08C000
:10212000042AFAD203E00B78491C0370401C521EAB
:10213000F9D27047D2B201E00270401C491EFBD2B6
:1021400070470022F6E710B513460A4604461946C2
:10215000FFF7F0FF204610BD30B5044600200346CF
:1021600000E05B1C934203D2E05CCD5C401BF8D0E6
:1021700030BD30B505460020034600E05B1C9342AD
:1021800005D2EC5CC85C201A01D1002CF6D130BD20
:10219000F8B502464A40D40F42004B0052085B0893
:1021A0009A4202D20246084611464A0023D0C30D85
:1021B0004A00DDB2120EAD1A202D35DA4902012691
:1021C000490AF6058A19002C00D0524220214F1BE3
:1021D0001146B9402A411018C20D9A4221D0002C54
:1021E00017D0012D08DCDA05801AD20F8019D2072A
:1021F000DBB200F005FBF8BDDA05801A01234000D0
:102200001B06C01880185A428018CA0F1043490094
:1022100007E04908C2071143DA05801A801940080F
:10222000801800F0E5FAF8BD61000122511A001B88
:10223000F7E70122D2075140AAE70122D207504016
:10224000A6E7024670B54A40D30FDB0740002DD009
:102250004A002AD0010E140E091900021202400A87
:10226000520A8418E50104465443000A120A2E0457
:102270005043A4194219200CC543AA18120C012579
:102280007F39521CAD0352191204240400D0521C91
:10229000104301D44000491EC2B20C06C0092018E8
:1022A000401C4008802A02D003E0002070BD400896
:1022B0004000002900DA0020184370BD70B50246C6
:1022C0004A40D50F40004A00ED0740085208002858
:1022D00014D0002A12D0C40DD30D41020120C00534
:1022E0005202490A520AE41A091812187D3491421E
:1022F00001D3641C00E04900002C01DA002070BD0D
:102300000023914201D3891A034340084900002861
:10231000F7D100290AD0914202D10121C90705E075
:10232000914201D2012101E00121C943E005C01819
:10233000401900F05DFA70BDF0B5074608465840F8
:1023400087B0C00F049048000E4659004008490865
:10235000BC1A884105D2384631461E4617460B4600
:10236000024658004008104303D13846314607B0B2
:10237000F0BD300D039040055900400D490D05900A
:10238000401A029040286DDA18030121000B09055C
:102390000843019004980092002805D00199524208
:1023A0000020884100920190029840210A1A019968
:1023B000009800F0E9F905460C46684607C800F0A9
:1023C00004FAC0197141039A0E0D0023D717564025
:1023D0001A467A40164340D0049A002A29D0029A1D
:1023E000012A039A11DC1205C01A91410126360513
:1023F000001C7141D20F059ED207009301920296F4
:102400002A46234600F043FAB1E71605224A0F4652
:10241000B218C01AB74101210905001C4F4100182C
:102420007F41114618187941E20F10436D1964413C
:1024300013E0E2076D0815436408C2071443039ACA
:1024400001261205C01A91413605001C7141CE07C4
:10245000400830434908C01851412A46234600F03D
:1024600009FA84E7049801224000C117121A0023D8
:102470008B4104983146C417381AA141EFE730B4B4
:102480000124E407634030BC56E730B40124E4077C
:10249000614030BC50E700000000E0FFF0B51FB421
:1024A00088B00B990998002448400999C00F490049
:1024B00049080991C0070B990090490049080B9100
:1024C00009990898A646084303D00B990A9808432F
:1024D00003D1002001460DB0F0BD09980124400051
:1024E000420D4800410D099824050003000B2043CC
:1024F00009900B980003000B20430B9050181A49C9
:102500004018002201901446104601E0032801DA29
:10251000034600E003239C46C11A0AAE0AE05F00AE
:1025200008ADED5B4F00F75B7D430027AA187C41A7
:102530005B1E491C6145F2DD410004AB5A52210487
:10254000120C0A43240C401C0828DFDB019802907F
:102550000099704601910090059B049A079906988E
:1025600000F095F9B7E700000DFCFFFFF0B50C4651
:102570005C4085B0E40FE40703944C000026640837
:1025800059009446490802460296224321D06246E9
:102590000A431ED06200570D4A000E032303550D57
:1025A000012402462C492405781B1B0B360B4018CE
:1025B00023432643614600901C46501AB44103D37E
:1025C0000098401C009002E0921800985B4100289F
:1025D00003DA0020014605B0F0BD00200121090505
:1025E0000746864611E064461D46141BB54106D3D6
:1025F0006546521BB341744607430C43A646CD07BC
:1026000040084908284392185B4105460D43EAD12A
:102610001046184313D06046194650407140084395
:1026200003D100220123DB0709E06046101AB34101
:1026300002D20122002302E00122D243531000986B
:1026400074460105381C6141029C039D00196941D3
:1026500000F010F9BFE70000FD03000010B50022F4
:102660009623114600F0CCF810BD00000EB5C2173D
:10267000C10F5040CA0740180021054B0293019238
:1026800000910A460B4600F002F903B000BD0000BD
:10269000330400000EB505490291002100910A465D
:1026A0000B46019100F0F3F803B000BD33040000C5
:1026B000410040020122400AD205090E80187F29FC
:1026C00001DA00207047962903DC9622511AC8408F
:1026D00070479639884070474A0009030123090B67
:1026E0001B051943094B10B5520D9A4201DA00201F
:1026F00010BD064B34339A4203DC9A1A00F054F8AA
:1027000010BD03495118884010BD0000FF030000B0
:10271000CDFBFFFFC20FD207400040080BD0C10D18
:102720000723DB01C91840020905400A1143C2080A
:10273000400711437047002001467047CB0FDB076D
:10274000490010B5490802460A4307D00A0D07247C
:102750000903E401090B121B002A01DC002010BD53
:10276000C900440F0C43C100E018D205801800F0E6
:102770003FF810BD0122D207002800DB101A002903
:1027800000DB511A8142704710B5202A04DB014654
:10279000203A9140002010BD914020239C1A03460E
:1027A000E3401943904010BD10B5202A04DB0846D1
:1027B000203AD040002110BD0B46D340D040202409
:1027C000A21A91400843194610BD10B5202A06DB15
:1027D000CB170846203A1041C1170B4306E00B46C1
:1027E0001341D0402024A21A91400843194610BD3D
:1027F000002904DA401C490001D14008400070471C
:1028000070B40024050C05D11024000402D1002965
:1028100022D01124050E01D108340002050F01D188
:10282000241D0001850F01D1A41C8000002801DBBC
:10283000641C4000002908D020252E1B0D46F540C1
:10284000A14000D00121294308431B1B0106DB1DC9
:10285000000A002B02DA002070BC7047DB05181854
:1028600080180029F8DA401C4900F5D170BC4008F6
:102870004000704710B5002B08DA0024401C61416D
:1028800092185B411A4301D14008400010BDF0B5D9
:102890001FB482B005460C0003D0084605F046F888
:1028A00002E005F043F82030024600902146284619
:1028B000FFF76AFF049B059A04460F46184311432D
:1028C000084303D12046394607B0F0BD18461043EF
:1028D00017D0009840210A1A18460599FFF764FF9F
:1028E00005460E46009A05990498FFF74DFF0843E8
:1028F00001D0012000E00020C11705430E432C4306
:10290000374300990E986305401A7905E40A0A30A6
:1029100000220C43FD0A002802DA00200146D3E71A
:102920000105101969410C9C0D9D00196941FFF7C3
:10293000A1FFC9E7064C0125064E05E02046E368E5
:1029400007C82B4398471034B442F7D3FFF7B6FBC0
:10295000B4990008D499000810B50C4B00219A686E
:102960001724A2435C0522439A600F231B0382684D
:10297000491CD20FD207994201D0002AF7D18168B1
:10298000002901DB006C10BD002010BD00240140B7
:1029900010B512488168124B4907C90F042903D1A9
:1029A00081681940103181608168C906C90FFBD167
:1029B0000C490122CC6852021443CC6084681C404C
:1029C000A41C84608368DB07DB0FFBD183685B0793
:1029D000DB0FFBD1C8681043C86010BD0024014064
:1029E000E8FFFF7F0010024010B500F00BF800F088
:1029F00023F801F06BF910BD884201D9401A7047E5
:102A0000081A704700B50B480121826987B0490256
:102A10000A438261806908400690012000900320EB
:102A200001900020049009206946C00601F09AFD3B
:102A300007B000BD0010024030B51B4C0125A56257
:102A4000E06818218843E060E06861148843084327
:102A5000E060E068032189028843E060E0682021AB
:102A60008843E060E068042188430843E0606169CE
:102A700007208143014361612046FFF76DFF256018
:102A8000E168032081430143E160A16807480140F8
:102A9000491CA1602168C907C90FFBD0A16801408A
:102AA000091DA16030BD000000240140E8FFFF7F48
:102AB00070B5C478857846782C400D7875406C40A8
:102AC0001C708C78C5786C4045782C435C70847899
:102AD000457806786C400D7875402C439C70C4781E
:102AE00005782C4045786C408D782C43DC70082AA2
:102AF00062D00C2A5FD142788478C57822400C7865
:102B00006C4062401A70C278047922404C7862406E
:102B1000447822435A7082784478457962408C78B0
:102B20006C4022439A70C2784478224044796240D3
:102B3000CC782243DA7042798479C57922400C79C5
:102B40006C4062401A71C279047A22404C7962402A
:102B5000447922435A718279C479457A62408C79EA
:102B60006C4022439A71C279047A2240447A6240CE
:102B7000CC792243DA71427A847AC57A22400C7A7F
:102B80006C4062401A72C27A047822404C7A6240E9
:102B9000447A22435A72827AC47A457862400C7829
:102BA0006C4022439A72C27A0478407822404240B4
:102BB00088780243DA7270BD4479C2790D79224077
:102BC00065406A401A710279C47922408C7962406A
:102BD000447922435A718279447905796240CC79EB
:102BE0006C4022439A71C279047980792240424034
:102BF00088790243DA7170BD70B50C784578C67873
:102C00006C40857875406C401C7044784D7806782F
:102C10006C40C57875406C405C7084784578C678A7
:102C20006C408D7875406C409C70C4784578CE7847
:102C30006C40057875406C40DC70082A62D00C2A24
:102C40005FD10A784478C578624084786C406240ED
:102C50001A7042784C7805796240C4786C406240C2
:102C60005A7082784478457962408C786C40624032
:102C70009A70C2784478CD78624044796C40624062
:102C8000DA700A794479C579624084796C4062408F
:102C90001A7142794C79057A6240C4796C4062407D
:102CA0005A718279C479457A62408C796C4062406D
:102CB0009A71C279047ACD796240447A6C4062405C
:102CC000DA710A7A447AC57A6240847A6C4062404A
:102CD0001A72427A4C7A6240C47A05786C4062403B
:102CE0005A72827AC47A457862400C786C406240AD
:102CF0009A72C27A047840788978624048404240AB
:102D0000DA7270BD0A794479C579624084796C4081
:102D100062401A7142794C7985786240C4796C407E
:102D200062405A718279C479C57862408C796C406E
:102D300062409A71C27904794079097962404840C9
:102D40004240DA7170BD70B50C784578C6782C4079
:102D5000857875406C401C704C78C57806782C409E
:102D6000457875406C405C7044788D78C6786C40CE
:102D7000857835432C439C70C4784578CE786C4078
:102D8000057875402C43DC70082A62D00C2A5FD18C
:102D90000A784478C578224084786C4062401A7082
:102DA0004A78C4780579224044786C4062405A7071
:102DB00042788C784579624084782C4322439A701B
:102DC000C2784478CD78624044796C402243DA700E
:102DD00042798479C57922400C796C4062401A713D
:102DE000C279047A22404C796240447922435A7174
:102DF0008279C47922408C796240447A22439A7164
:102E0000C279047ACD796240447A6C402243DA7107
:102E1000427A847AC57A22400C7A6C4062401A72F7
:102E2000427A4C7A6240C47A05782C4022435A7226
:102E3000827AC47A457822400C786C4062409A725B
:102E400002784478C07A8978224048404240DA7259
:102E500070BD42798479C57922400C796C4062401A
:102E60001A71C279847822404C79624044792243B5
:102E70005A718279C47922408C796240C4782243A5
:102E80009A71C27904794078897862404840024357
:102E9000DA7170BD70B50C784578C6782C408578AD
:102EA00075406C401C708478C57806792C404D784C
:102EB00075406C405C70C478057946796C408D78BB
:102EC00035432C439C70CC78057986796C404579E4
:102ED00075402C43DC70082A60D00C2A5DD10A783A
:102EE0004478C578224084786C4062401A708278B9
:102EF000C478057922404C786C4062405A70C278A0
:102F00000479457962408C782C4322439A70CA78C0
:102F100004798579624044796C402243DA704A79B9
:102F20008479C579224004796C4062401A71C27973
:102F3000047A22408C796240447922435A71827922
:102F4000CC79A243447A22439A71C2790C7A857A69
:102F50006240447A6C402243DA71427A8C7AC57AB4
:102F60002240047A6C4062401A72427A847A057870
:102F70006240CC7A2C4022435A72827AC47A4578D5
:102F800022400C786C4062409A72027849780A407C
:102F9000C17A807841404A40DA7270BD4A798479BA
:102FA000C579224004796C4062401A71C279047973
:102FB00022408C796240447922435A718279CC79DB
:102FC000A243C47822439A71C27909794A4041796F
:102FD000807941400A43DA7170BD70B50C7845784C
:102FE000C6782C408D7835406C401C708C78C57844
:102FF0000E792C40457875406C405C70CC780D792A
:10300000C6786C40857835432C439C70CD78047825
:1030100086782C1B6E403443DC70082A60D00C2A62
:103020005DD10A784478C57822408C782C40624083
:103030001A708A78C4780D79224044786C406240D6
:103040005A70CA780C794579624084782C432243BF
:103050009A70CA7804798D79121B44796C402243A6
:10306000DA7042798C79C57922400C796C406240E3
:103070001A71C2790C7A22408C79624044792243D9
:103080005A718279CC79A2434C7A22439A71CA79D7
:10309000047A857A121B4C7A6C402243DA714A7AA0
:1030A000847ACD7A2240047A6C4062401A724A7A5D
:1030B000847A05786240CC7A2C4022435A728A7A0C
:1030C000C47A457822400C786C4062409A72C27A89
:1030D0000C784078121B024088784240DA7270BD4A
:1030E00042798C79C57922400C796C4062401A7122
:1030F000C2790C7A22408C796240447922435A7119
:103100008279CC79A2434C7A22439A71CA79C478E5
:10311000497A4079121B41400A43DA7170BD10B5FB
:10312000012002F087FA002002F084FA012004F066
:10313000A7F9002004F0A4F9012000F0F1FA002022
:1031400000F0EEFA10BD00003EB50025244C0095BD
:10315000019502952178012903D0022901D009297E
:1031600033D1002802D0207900282ED060790028A1
:103170002BD1C82060711B48012927D0022928D0F3
:103180001849A0794968002827D01748FFF734FC70
:10319000FFF780FA636B226BFFF780F9FFF79CFA69
:1031A000092269460A7008234B708A702278CA7017
:1031B0000D714D718871000AC871184604F0B6FD92
:1031C00069460872092002F0F3F93EBD816807489C
:1031D00001E0C1680648006AD8E70120C007D5E7CA
:1031E000E0000020A40E002001F40180F412002071
:1031F0005C140020F8B50126092500247602ED06AE
:10320000FF272D3707E0AE620A2006F019F8641C8C
:10321000A4B2BC4206D80121C902284601F0F6F941
:103220000028F0D0AE61F8BD07480178002909D127
:1032300001210170FF212D314180012080020921EF
:10324000C9068862704700002A01002007480178FB
:10325000002909D041880A2906D8002101700120DF
:1032600080020921C9068861704700002A010020F8
:10327000FEB54DA103C9002700904D4C019140209F
:103280003E46A0623946052001F099FF2221062022
:1032900001F095FF0521684601F02AFF05226946E5
:1032A000002001F019FF05F0A1F8012002F0C6FA94
:1032B0004020A0613F4D00F0F6FD3F4801F0E2FEE6
:1032C000002824D03C494878CC2820D1887802288E
:1032D0001DD10F460522C91C3848FEF719FF374893
:1032E000397AC01E817004F0FBFF06F0C7FABB20DC
:1032F0006870A87001272F49032004F025FD28706D
:10330000032068764020A062002002F097FA2C4843
:1033100041880029CFD1C821418005F067F8761C8B
:10332000F6B20F2E14D2002FC5D0002002F086FA7C
:10333000697E204801F0E6FE4020A062012005F0F1
:103340007FFF012002F07AFA4020A0610A2EB2D35A
:103350004020A062012005F073FFFF21E12001F071
:103360002EFFFF21072001F02AFF144E0520F61E34
:10337000B17801F024FF2721062001F020FF05216C
:10338000F01C01F0B5FE0522F11C002001F0A4FEA6
:10339000012002F053FA4020A0610020687601204D
:1033A000084940038861FEBD0200000000000000E3
:1033B00000040048580200209C0100200D08002055
:1033C000DA00002000080048F0B585B0044614215A
:1033D0006846FEF7B6FE192C00D318241C4B0720B4
:1033E0001979082900D3187109216A46117000263D
:1033F00056709170D0701D79D020164968434018DE
:10340000E10041184F8917713F0A57710F7C97717E
:10341000D6710E7B16724E7B56728E7B9672C030C2
:10342000867CD672C67C16731B7A53739473D573DD
:10343000497C1174C07D50741146122004F076FC52
:103440006A4690746946132002F0B2F805B0F0BDE8
:10345000580100200A080020014600201B22424398
:103460005218527E002A04D0401CC0B21B28F5D34B
:10347000FF207047704710B500F014FC10BD10B568
:1034800003F03EFB10BD000070B510480078022824
:103490001BD10F4DE878022817D12C462034E07B51
:1034A000022812D1A08A00280FD100F0E1F90120F2
:1034B00000F0DEF90020E8700649E0730860064974
:1034C0000220087005490120C87070BDE00000208E
:1034D0009C14002024010020E20000207001002044
:1034E00070B526490978022937D100211E25244CC0
:1034F000012810D06034E07B00282ED0A27B002A67
:103500002BD0607B002828D12046007B022A25D0C2
:10351000012A28D030E04034E07800281DD0A2787D
:10352000002A1AD06078002817D11548403000785A
:10353000022A02D0012A06D00EE0114AD28F904210
:1035400009D2401C02E0052805D9401EC0B22070F7
:1035500005F0D8F800E0A170657070BD62899042F6
:1035600009D2401C02E0052805D9401EC0B22073D4
:1035700005F00EF900E0A173657370BDE000002056
:103580005C140020F8B5012823D1134FF8780028E7
:103590001FD0384640381149427E04460025104E5F
:1035A000C9686034002A15D0FF2A12D1406A8142CE
:1035B0000FD105F0CDF8B570F58035700220F870A8
:1035C000E17B022901D0002903D17D21C900A1821C
:1035D000E073F8BD006AEAE79C140020A40E002006
:1035E0000601002030B5012820D11249886A002840
:1035F0001CD008464030C078002817D00E4882788A
:10360000002A13D04D7E0D4902230C780246002D6E
:10361000D288C968074D04D06D6A002C07D0AA185B
:1036200001E02D6AF9E78A4200D1037030BDAA1A81
:10363000F9E700005C14002006010020A40E002021
:1036400070B5084D0A21A86AFEF74CFD04460A2110
:10365000686DFEF747FD844201D9286170BD2C6179
:1036600070BD00005C14002070B51748002400787D
:10367000022823D1154A906A00281BD01449567E8F
:103680000023FF25C868002E02D0FF2E13D010E0C3
:10369000126A11E00D7000E00B700C4801244030FC
:1036A000C470087804F0ECFF012005F079FA02F00C
:1036B00042F9204670BD526A904201D1002070BD8F
:1036C0009042E9D9E6E70000E00000205C14002009
:1036D000A40E002070B501281BD10E48C078002828
:1036E00017D10D488178002913D00A4D0B4E403D6B
:1036F0007168EA6991420CD100248470C48004701E
:1037000005F026F8286AF0606C716C76012000F0F4
:10371000AFF870BD9C14002006010020A40E00200C
:1037200030B52349097802291DD1224A01281BD02E
:10373000002818D110466030C07B002813D11E48E5
:103740008378002B0FD0D26C002A0CD01B4A1B4B65
:103750001578184A5B68946C0246D288002D22D0F6
:10376000A2189A421DD230BD12484030C0780028BD
:10377000F9D113488378002BF5D0126A002AF2D0D1
:10378000104A15780B4A002DD4690246D3880D4A99
:10379000526803D0E318934203D230BDE31A934238
:1037A000FBD8017030BDA21A9A42FAD930BD000090
:1037B000E00000205C14002018010020CC0F002045
:1037C00006010020A40E002010B50279411C244CF3
:1037D000012A18D0022A25D0032A33D0062A3AD04B
:1037E000052A0FD11F49897900290BD141796176CA
:1037F0004179204640304171002000F039F8012025
:1038000000F036F810BD4879097900020843E080DD
:10381000002000F0EBF8E0887D21C9004843124900
:10382000886010BD48790979000208430F4920815A
:10383000884201D9218103E0002801D101202081A3
:10384000002005E04879097900020843E060012082
:1038500000F0CCF810BD4079207004F069FB10BD79
:103860005C140020F412002070010020DE03000030
:1038700010B50D490978022914D1012812D10B483D
:10388000437E426A016A0A48002B02D0914204D862
:1038900001E0914201D9FF2100E000210170C8B28E
:1038A00004F0EEFE10BD0000E00000205C140020DB
:1038B000A40E0020F8B52148007802283CD1204C05
:1038C0007D25606D6D02FF260027002818D01D4859
:1038D000A16C42688A4213D08A4203D9511AA94284
:1038E00005D802E0891AA94201D9067000E00770E4
:1038F000007804F041FF002005F052F902F01BF8B7
:10390000A06A002818D01048E2694168914213D09B
:10391000914203D9891AA94205D802E0511AA94255
:1039200001D9067000E00770007804F0A9FE0120BC
:1039300005F036F901F0FFFFF8BD0000E0000020BF
:103940005C140020CC0F0020A40E00200A490020A7
:103950000870087640310871084988700870084975
:10396000887008700749087007490870024960317B
:10397000C8738873704700005C1400201801002091
:1039800006010020E20000202001002070B5124C4A
:10399000207E01281ED120464030C078002819D151
:1039A00020466030C07B002814D10C488078002865
:1039B00010D10B4D2869401C2861216B814209D828
:1039C00004F0C6FE00202861064A2076022111700C
:1039D0000549086070BD00005C140020060100204D
:1039E00070010020E2000020F4000020F8B500285B
:1039F0001FD0114CA76A002F1BD0E068FEF74AFECB
:103A000005460E463846FEF745FE2A463346FEF783
:103A1000ADFDFEF793FEA063FEF74AFE2063FEF7BE
:103A20001DFE0649FEF70DFCFEF742FE3C216183B8
:103A3000606100F071F8F8BD5C140020F4FD223FD5
:103A4000F8B5324C324D334E607001281FD0022839
:103A500027D1E968206AFEF7CFFF07463046C168E4
:103A6000E06CFEF7C9FF0646012001F095FDFEF768
:103A700033FEB84216D9012001F08EFDFEF72CFE70
:103A8000B0420FD900206070A062606539E06868BC
:103A9000E0617068A0640120C0072062E860E06413
:103AA000F060F8BD03206070012001F075FDFEF7A5
:103AB00013FEB84202D2E868A7626062012001F0FA
:103AC0006BFDFEF709FEB04203D21248C06866657E
:103AD0002065B420E06001202081E080FF200B49B8
:103AE00060716076403148710120FFF7C1FE00200F
:103AF000FFF7BEFEFFF7A4FD0120FFF777FF00F000
:103B00000BF80121084602F06DF8F8BD5C140020A6
:103B1000A40E0020CC0F0020FEB50026214C0096FC
:103B200001960296E088218940187D21C90048430A
:103B30006169C83040182067E2685043451A7D210A
:103B4000C9002846FEF7CEFA002903D016492846B8
:103B5000FEF7C8FAE12107460901FEF7C3FAC5B22C
:103B6000E120000168433F1A25713C213846FEF7E9
:103B7000B9FA0246E0703C205043381AA07009237D
:103B800069460B7006244C708B70CE7008714A71B8
:103B90008D71072004F0CAF86946C871082001F049
:103BA00007FDFEBD5C140020E903000070B5324A39
:103BB0001278072A36D1314E0C2812D00D2831D177
:103BC0002F4D2879082800D32A712879D022504314
:103BD0008019C030827D192A01D3182282750C46C3
:103BE0002BE0284D287A082800D32A720C460AE0D8
:103BF000D020604380190146D8310830D022FEF72A
:103C000087FA641CE4B2287AA042F1D8D020444359
:103C1000A0190830D021FEF794FA287A002801D0A4
:103C2000401E287270BDE1004018014612310A3072
:103C30000822FEF76DFA641CE4B22879D0214843CB
:103C40008019D621095CA142EDD82979C030D02253
:103C5000807D51438919C00008180A300821FEF7F9
:103C600070FA2879D02148438119C031887D002815
:103C7000D8D0401E887570BDE00000200A080020E2
:103C8000580100208A0E002010B504F0B5FD02F0A6
:103C900093FE00F005FE03F0ADFE04F0B3FF04F068
:103CA00043FB10BD10B5084C0221204600F096FBE6
:103CB00020206060102060600221204600F082FB1E
:103CC00001F03EFE10BD00000000024038B526485D
:103CD000012142690A4342614069244C0840254958
:103CE0000090CB7F2148224A08341A511F4BCC7FC9
:103CF000214A0C33E2500124CB7F021D9D582D0C2C
:103D00002D0425439D50CA7F83581C4C234083506B
:103D1000CB7FC25803242403A243C250CB7FC25896
:103D20004024A243C250CC7F025980239A431A43B5
:103D30000251CB7F8415C25803252D02AA4322438A
:103D4000C250CA7F04158358AD00AB432343835050
:103D5000CC7F025920239A431A430251C97F42580B
:103D600001231A43425038BD0010024000000240B7
:103D7000402401408D99000840010020EFBFFFFF63
:103D800010B50A4C802061690140802905D0616925
:103D900010200140102903D004E004F011FF01E0DD
:103DA00005F0E8FA9020606110BD000000040140B9
:103DB000F0B50B2706463F04384600F063F80428A8
:103DC00013D10A4C206902252843206166612069CD
:103DD00040210843206100BF00BF00BF00BF38463C
:103DE00000F050F82169A9432161F0BD0020024094
:103DF00008490420CA68D20701D001207047CA6868
:103E0000D20601D502207047C9684907FBD50320B7
:103E100070470000002002400248016980221143DF
:103E20000161704700200240F0B50B2706463F04B1
:103E30000D46384600F026F8042810D1084C2069B9
:103E4000012108432061358000BF00BF00BF00BFD3
:103E5000384600F017F82169490849002161F0BD92
:103E60000020024004480169090603D50349416066
:103E7000034941607047000000200240230167456C
:103E8000AB89EFCD00B50346FFF7B2FF02E0FFF7C5
:103E9000AFFF5B1E012803D0002B00D1052000BD21
:103EA000002BF4D1FAE7704770B51B4CA17A20467D
:103EB000C07A02292BD0002928D1022826D100253A
:103EC000A572E572207A002820D02079082801D335
:103ED00007202071C0B2D021484310494018104932
:103EE000C030808A0968884210D904220DA10220BE
:103EF00002F040FCFF200D4901308861FFF794F982
:103F00000B48052101760B480560657270BD0228DB
:103F1000D5D00028D3D070BD580100200A08002059
:103F200024010020464646460000000000040048E8
:103F3000F40E0020F400002000B587B000910021AD
:103F40000191029103910491694600F00BFB07B0C7
:103F500000BD00B587B000910021012202910391BC
:103F600001920492694600F0FDFA07B000BD00001E
:103F7000F8B505460078902826D16878002814D135
:103F8000E878012821D0022823D0042825D006284B
:103F900027D0072829D0032816D1287901282FD027
:103FA000022811D1687901F057FE69780F228B4EF3
:103FB00000248B48042928D0062950D009296FD025
:103FC0000B2901D100F02EFEF8BD864802F0DAFF81
:103FD000EBE78448FFF7F8FBE7E7824802F082FB53
:103FE000E3E7804802F0E0F8DFE728790128EBD129
:103FF00068790328E8D87C49487204F071F9D4E75D
:10400000A979687901F046FECFE7A9780929DBD1C3
:10401000E9780129D8D105460078002800D12A7016
:1040200001F018FD2878022801D1FFF775FD2878E6
:104030000928C9D17168C007814201D1AC7101E082
:104040003178A97169494A68824201D1EC7101E075
:104050000878E8716C710020FFF776F8F8BDE97810
:10406000634F01291DD0634D02292FD0042947D069
:1040700005295AD006295CD003295ED007295ED0D5
:1040800008296DD0092975D00A29E7D109210170C5
:10409000054601207168C00781427FD1AC717FE085
:1040A00091E001780129D9D00121017001F0D2FC01
:1040B0004F487C703C74A0300477012005F088F9EB
:1040C000002005F085F903F033F9F8BD01780229E5
:1040D0000ED00221017047486C716C7640304471FB
:1040E0000120FFF7C5FB0020FFF7C2FBFFF7E2FB53
:1040F00001F0B0FC68780028E7D0FFF70DFDF8BDAF
:104100000321017004F059FB04F022FB04F098FF36
:1041100003F048FAFFF71AFC04F0C6FD05F0AEFB09
:104120002F48203044710471F8BD2E4802F0DAFAAD
:10413000F8BD2C4805F0ECF9F8BD0270F8BD017827
:104140000729FBD00721017001F05AFF01F0AEFAF8
:1041500001F080FC012002F09DF901F00BFCF8BD9C
:1041600001780429FBD00421017001F09FFAF8BD09
:1041700000E013E00078012807D00228F7D16C7026
:10418000AC626C65EC61AC64F1E71948BC62C030AC
:10419000194944610C754460BC61E8E73178A97144
:1041A00012494A68824201D1EC7101E00878E87155
:1041B00000F004FC01F04EFC012028716C71FEF748
:1041C000C3FF2C71D3E704F065FE03F0A9FE05F0F0
:1041D00093F904F085F805F051FBC8E7A40E002020
:1041E000E0000020B50100208A0E0020CC0F002046
:1041F000F41200205C140020B40F002003498888CA
:10420000002801D0401E888070470000C6000020B2
:104210000A48017800290FD08178094B491CCAB29D
:10422000012149028270022A01D2996100E099625B
:10423000642A01D10021817070470000C60000206F
:10424000000400480649002802D001200870704789
:104250000020087001200349400288627047000076
:10426000C6000020000400480A4B1A689208920019
:1042700002431A60084803690422134303610129B9
:1042800006D040BF20BF20BF016991430161704744
:1042900030BFF9E70070004000ED00E070B50E4956
:1042A000002001254A68ED070C4C0346AA4210D0B5
:1042B0000B48FF25824201D20D7002E0824200D9F4
:1042C0000B70087804F0DCF901F044FE6570012001
:1042D00070BD637070BD0000A40E0020540F00205C
:1042E00000FA0080FEE7000010B5134C607800284B
:1042F0000BD0124801214068C907884206D104F05A
:1043000027FA0020607004F0D3FD10BD0A4AA03ADD
:10431000126D531809499842097805D1FF29F4D143
:10432000022004F08FFC10BD054B9A1A9042FAD17E
:104330000029F5D010BD0000540F0020A40E00206D
:1043400001F4018010B5074C0A2060700648008C0B
:1043500004F0D8F90120607104F03AFC04F0E6F9A9
:1043600010BD000035010020B40E002010B5012161
:1043700009200903C006FFF7DFFD10BD08B5044999
:104380004A6902434A6149690140009108BD000041
:104390000010024008B504494A6902434A6149696C
:1043A0000140009108BD00000010024008B504491A
:1043B000CA690243CA61C9690140009108BD000091
:1043C00000100240044A51182039C97F425852084F
:1043D000520042507047000092990008044A511858
:1043E0002039C97F425802239A4342507047000047
:1043F00092990008044A51182039C97F4258012374
:104400001A4342507047000092990008044A51181C
:104410002039C97F425802231A4342507047000096
:1044200092990008034A51182039C97F001D085885
:1044300080B2704792990008054B10B55918203981
:10444000C97F435803242403A3431343435010BD9F
:1044500092990008054B59182039C97F001D0B5847
:104460001B0C1B0413430B5070470000929900086B
:10447000054B10B559182039C97F4358034C2340C8
:104480001343435010BD000092990008EFBFFFFF97
:10449000034B59182039C97F0C300A50704700006F
:1044A00092990008054B10B559182039C97F435817
:1044B0008024A3431343435010BD00009299000889
:1044C000054B10B559182039C97F43580324A4025D
:1044D000A3431343435010BD92990008054B10B5F8
:1044E00059182039C97F43582024A343134343500C
:1044F00010BD000092990008034B59182039C97F5C
:1045000008300A507047000092990008054B10B51A
:1045100059182039C97F43584024A34313434350BB
:1045200010BD000092990008054B10B559182039AC
:10453000C97F435803242402A3431343435010BDAF
:10454000929900080249CA680243CA607047000095
:104550000004014002490A6802430A6070470000F3
:1045600000040140F0B500243EE001232A46A340A8
:104570001A4038D04F680668134653435D005D19F2
:10458000AE435F433E4306604E68012E01D0022ECB
:1045900005D18F6886685F43AE433E4386600F69EE
:1045A000C668AE431D467D432E43C6604D68022D4E
:1045B00019D1FF2A0AD84E69056A534353431A0199
:1045C000D21A954373431D4305620CE0130A1A4641
:1045D0005A435A435A4313019E1A4D69436A6A4328
:1045E000B34313434362641C0A681546E240BCD1DE
:1045F0004A68012A01D0022A06D1CB6841682A46BE
:1046000091435A43114341600120F0BD0069814349
:1046100001D000207047012070470069814301D01C
:10462000002070470120704710B57D21C900FDF7BB
:1046300059FD0449401E4861002088610520086139
:1046400010BD000000E000E010B5044601F068F87D
:10465000206001F04BF8606001F056F8A06010BDDA
:10466000014610B5002000290FD110490A6B9207AE
:10467000920F012A0AD0022A11D0032A09D001F090
:104680004FF801F033F801F03FF810BD01F048F8A1
:1046900010BD09688907C90FFAD0054810BD096A1D
:1046A0008907C90FFAD00120C00310BD00100240D5
:1046B00000127A000A06930D054A10B59B189A68F5
:1046C000090C0F248C40A243884002439A6010BD1D
:1046D00000000140F0B50268194B1A4C984201D015
:1046E000A04203D17025AA434D682A43164D174EA8
:1046F000174F98420AD0A04208D0164CA04205D0CD
:10470000A84203D0B04201D0B84204D1032424020D
:10471000A243CC68224302608A68C2620A8882622D
:10472000984205D0A84203D0B04201D0B84201D18E
:10473000097C016341690122114341611046F0BDCA
:10474000002C0140000400400040014000440140B2
:10475000004801400020004001290AD004290AD065
:1047600010290AD040290AD0CA1FF93A09D10421D8
:104770000EE000210CE001210AE0022108E0032103
:1047800006E001229202914201D1052100E00621BA
:10479000064A1830525C054B1018DB1D5B5C082183
:1047A000026899400A43026070470000849900083B
:1047B000034610B5002001290DD0102910D0FF3973
:1047C000013912D00F242402091B03D111461846C7
:1047D00000F0A8FE10BD1146184600F0C9FD10BD3E
:1047E0001146184600F00AFE10BD1146184600F0AA
:1047F0004DFE10BDFEB5044600680D460026C007FC
:10480000C00F43D1E9686868AA6908432969114360
:10481000084321681E4A114008432060A968606867
:10482000032212039043084360606969A068121173
:1048300090430843A0601748844203D10020FFF74B
:104840000FFF06E01448844220D16846FFF7FCFEC3
:10485000029800281AD02968002917D00126AA69D1
:10486000F3039A420CD140004A088018FDF73AFC45
:1048700081B20A4808400907490F0143E16005E099
:104880004A081018FDF72EFC80B2E0603046FEBDED
:10489000F369FFFF0038014000440040F0FF0000D2
:1048A00070B5012149020648FFF753FB0125054C6D
:1048B0006D0329462046FFF74CFBA56270BD000042
:1048C000000400480008004810B5002204E09300EE
:1048D000C458521C24BAC4508A42F8D310BD0000F8
:1048E000F0B595B00220FFF761FD0021102000F027
:1048F000C9FC0125284928040860FF20F5306946D5
:1049000008800026254C0290019603962046FFF76A
:10491000E1FE206880210843206049012046FFF71E
:104920001BFF702005A961C1FA2008900220C10276
:10493000099005AA2046FFF73BFF194817498079DF
:104940001831174A4018D21D927904273B46016856
:10495000934099430160A1142046FFF7FDFE2068B3
:10496000802108432060606C09020843606420686D
:10497000B84338432060E0682843E06002200D908F
:104980000E9003200F9011950DA9109612950548D1
:10499000FFF7E8FD15B0F0BD00E100E000040040C5
:1049A000849900080004004810B5E120400202F09C
:1049B00075F902F0DDF802F027F910BDF8B5FF2512
:1049C0006935284600F0E8FD02460B4600203749CD
:1049D000FDF7CCFDFDF7B2FEFDF79CFE344E002244
:1049E0003346FDF75BFD334F00223B46FDF7BEFD2E
:1049F0000022314BFDF743FDFDF76EFE2F4CE070BA
:104A0000284600F0C9FD02460B4600202C49FDF760
:104A1000ADFDFDF793FEFDF77DFE00223346FDF769
:104A20003DFD00223B46FDF7A1FD0022224BFDF794
:104A300026FDFDF751FEA070284600F0ADFD0246B0
:104A40000B4600201F49FDF791FDFDF777FEFDF7AE
:104A500061FE00223346FDF721FD00223B46FDF7B3
:104A600085FD0022144BFDF70AFDFDF735FE607051
:104A7000284600F091FD02460B4600201249FDF742
:104A800075FDFDF75BFEFDF745FE00223346FDF7A1
:104A900005FD00223B46FDF769FD0022064BFDF7B0
:104AA000EEFCFDF719FE2070F8BD000000D4B74001
:104AB0000070E74000507F400000F03FEC00002015
:104AC000009BD44080A0E14080F3E84000220B49E5
:104AD000FF23012807D0002804D1094800780028C6
:104AE00009D0CB71704707480078002801D08B713E
:104AF00070478A717047CA7170470000E00000205B
:104B0000CC0F0020A40E002070B5224D2878092873
:104B100005D00F2803D0012801D0022838D11D4923
:104B200020314A79002A33D0CB78002B30D10928A4
:104B300009D005231748002420304078012A0BD0E3
:104B4000022A13D021E01448407A431E042B1FD2BE
:104B5000104B0B33C35CEDE7984205D9401EC0B241
:104B6000487003F0CFFD10E04C710EE0782805D2BC
:104B7000401CC0B2487003F0C5FD03E04C7103F067
:104B8000E7FD6C710020FEF7DFFA012003F036FD2F
:104B900070BD0000E00000208A0E00200A490A785B
:104BA000092A08D1D207022806D008484368934250
:104BB00001D1007888717047054843689342FAD163
:104BC0000078C87170470000E0000020A40E0020AB
:104BD000CC0F002000B507480078092808D1064806
:104BE00001214068C907884202D10120FFF76EFF0A
:104BF00000BD0000E0000020A40E002010B5012838
:104C00000AD1074A002908D078205070012151713B
:104C100003F078FD03F08AFD10BD0220507110BD35
:104C20000001002010B506480078072805D0FEF7DF
:104C3000FBFA012003F038F810BD01F02FFA10BD87
:104C4000E0000020F0B504468DB0401CFDF722FDC9
:104C5000404D00222B46FDF721FC3F4E00223346FB
:104C6000FDF784FC089007912046FDF713FD002214
:104C70002B46FDF713FC00223346FDF777FC059128
:104C8000069037493548C97B0991427B3C235A43FA
:104C9000837BE12424016343007BD218304C161837
:104CA0007D20A56AC00080344643278A002903D0AE
:104CB0006069361A78002D1A059B069A079908989C
:104CC000FDF7DDFB089001912846FDF7E3FC059B0D
:104CD000069AFDF7E3FB05910A903046FDF7DAFCF2
:104CE000059B0A9AFDF7CBFB019B089AFDF73EFC5A
:104CF000FDF7F2FC7D21C900691A884200D300202B
:104D00001749099E0A6A00230125496A002E0AD024
:104D1000002816D065638A4215D9121AD21BC91908
:104D2000E26208180AE000280BD065638A4202D9C3
:104D3000121AE262F5E71218081AE26220630DB057
:104D4000F0BD6363FBE7D2191218081AC01BE262B8
:104D5000F4E7000000507F400070E740B40F0020EF
:104D6000F4120020F8B5274DAE6A002E48D0264830
:104D70003C22417BE1235143827B1B015A43007B50
:104D800089180F187D20C0004743204C3046FDF79E
:104D900065FC2146FDF755FAFDF78AFC2C46803468
:104DA000874217D8FF20E87305260121304602F01C
:104DB0000BFFB84203D9E661782E04D205E0761CD9
:104DC000B6B2782EF1D37820E061207F012102F085
:104DD00097FC06E03146384601F00AFEE06100200B
:104DE000E873208AA96A4000814205D2384601F062
:104DF000FFFDE0610020E873A08B80B2FFF722FF87
:104E0000F8BD0000F4120020B40F0020F0A7A13F6D
:104E1000F0B504468DB0401CFDF73CFC434D00222C
:104E20002B46FDF73BFB424E00223346FDF79EFB2F
:104E3000089007912046FDF72DFC00222B46FDF738
:104E40002DFB00223346FDF791FB059106903A4970
:104E50003848C97E0991427B3C235A43837BE12435
:104E600024016343007BD21816187D20C000324C09
:104E70004643A03CD4200559FF203D30075BFF345A
:104E80004134002903D02068361A78002D1A059B7A
:104E9000069A07990898FDF7F2FA089001912846BA
:104EA000FDF7F8FB059B069AFDF7F8FA05910A90C5
:104EB0003046FDF7EFFB059B0A9AFDF7E0FA019BF0
:104EC000089AFDF753FBFDF707FC7D21C900691A1D
:104ED000884200D300201849099E2031CA68002367
:104EE00001250969002E0AD0002816D025628A42C1
:104EF00015D9121AD21BC919A26108180AE0002894
:104F00000BD025628A4202D9121AA261F5E7121863
:104F1000081AA261E0610DB0F0BD2362FBE7D2196F
:104F20001218081AC01BA261F4E7000000507F406D
:104F30000070E740B40F002094130020F8B52B4810
:104F400000904669002E4FD029483C22417BE12346
:104F50005143827B1B015A43007B89180F187D2027
:104F6000C0004743234C3046FDF778FB2146FDF750
:104F700068F9FDF79DFB1D4CC03C2546FF34A0356C
:104F80004134874217D8FF20E876052600213046B5
:104F900002F01AFEB84203D9A660782E04D205E0CA
:104FA000761CB6B2782EF1D37820A060207A00214A
:104FB00002F0A6FB06E03146384601F019FDA0607C
:104FC0000020E8760098416908486030808B4000F6
:104FD000814205D2384601F00BFDA0600020E87642
:104FE000208980B2FFF714FFF8BD0000B413002041
:104FF000B40F0020F0A7A13F7047F8B5702108401A
:10500000074600F034F80125ED030926F6060446AC
:10501000B562272003F088F83846204303F084F86F
:10502000B56100F024F8F8BDF7B501250927ED03B7
:10503000FF061646BD6203F077F8002406E0FF2065
:1050400003F072F801990855641CE4B2B442F6D337
:10505000BD61FEBD70B501240925E403ED06AC6217
:1050600003F062F8FF2003F05FF8AC6170BD70B52B
:105070000124E4030925ED06AC62072003F054F88F
:10508000AC6170BD70B50546012109200903C00659
:10509000FFF7C3FA00281BD10E4940208862072081
:1050A000FFF7D8FF04460146072000F088F86006A5
:1050B0000ED56020FFF7CEFF044602462946612048
:1050C000FFF7B2FFFF21E22000F079F8204670BD23
:1050D000002070BD0004004810B5052A00D9052243
:1050E000052800D905200A30C0B200F051F810BDE3
:1050F00010B5052900D905210A460146102000F007
:1051000047F810BDF3B501260024F603092581B048
:10511000ED060F46AE62E12003F006F8AE611A4ECE
:105120004020B0623A46A020019900F031F84020BA
:10513000B061164E87010BE0FEF7B5FE0720FFF7C2
:1051400089FFC0060AD42046641CA4B2B04205D030
:1051500039462846FFF761FA0028EDD10720FFF70E
:1051600079FF04460146072000F029F8E00605D53E
:10517000FF21E12000F023F81020FEBDA00601D59C
:105180002020FEBDFF20FEBD00040048FFFF000000
:10519000F7B50125ED030927FF061646BD6220215C
:1051A000084302F0C1FF002405E00198005D02F011
:1051B000BBFF641CE4B2B442F7D3BD61FEBD70B561
:1051C0000124E4030925ED060E46AC6220210843C4
:1051D00002F0AAFF304602F0A7FFAC6170BD0000EC
:1051E000F0B585B014A103C9009000200126760314
:1051F000019102906C4602AD37110390FEF753FE09
:10520000052269461020FFF7C3FF052202A91020DE
:10521000FFF70AFF0020215C2A5C914203D1401C69
:10522000C0B20528F7D3052804D005488661054893
:105230008762E3E705B0F0BDA5A5A5A5A500000020
:105240000008004800040048C106C90E012088403B
:10525000014908607047000080E100E0C106C90E06
:1052600001208840014908607047000000E100E02B
:10527000C106C90E0120884001490860704700003E
:1052800000E100E08307FF22DB0E9A408907090E48
:10529000994000280BDA0007000F083883080848F7
:1052A0009B001B18D86990430843D8617047830856
:1052B00004489B001B181868904308431860704707
:1052C00000ED00E000E400E08307FF22DB0E9A40DF
:1052D0008907090E994000280BDA0007000F0838EB
:1052E000830808489B001B18D86990430843D8617D
:1052F0007047830804489B001B18186890430843B4
:105300001860704700ED00E000E400E08307FF2232
:10531000DB0E9A408907090E994000280BDA000736
:10532000000F0838830808489B001B18D869904371
:105330000843D8617047830804489B001B1818680D
:10534000904308431860704700ED00E000E400E07F
:1053500010B500F015FAFFF743FF00F02DFA012019
:1053600000F06CFA01494020886110BD000400483B
:1053700030B5026A520852000262026A43688469C8
:105380007025A408A400AC430D682C430225AA4351
:105390000D692A4352084D6852002A43134DA84212
:1053A00008D0134DA84205D0124DA84202D0124D8C
:1053B000A84214D10825AA434D69AD002A4304250B
:1053C000AA438D68AD002A43FF250135AB438D69A3
:1053D0002B4301256D02AB43CD696D002B43436028
:1053E0008461C96841630262012030BD002C014024
:1053F00000400140004401400048014070B5026A8D
:105400001025AA430262026A436884697326360241
:10541000B4430E68360234432026B2430E69360187
:105420003243AA434D682D012A43144DA84208D0A7
:10543000134DA84205D0134DA84202D0124DA842E8
:1054400015D18025AA434D69AD012A434025AA43C1
:105450008D68AD012A430125AD02AB438D69AD00D6
:105460002B430125ED02AB43CD69ED002B43436097
:105470008461C96881630262012070BD002C014013
:1054800000400140004401400048014070B5026AFC
:10549000FF250135AA430262026A4368C469702687
:1054A000A408A400B4430E6834436E00B2430E69EE
:1054B00036023243AA434D682D022A43154DA842B5
:1054C00008D0154DA84205D0144DA84202D0144D65
:1054D000A84217D10125ED02AA434D69AD022A4326
:1054E0000125AD02AA438D68AD022A4301252D0393
:1054F000AB438D692D012B4301256D03AB43CD6972
:105500006D012B434360C461C968C163026201201D
:1055100070BD0000002C01400040014000440140EB
:105520000048014070B5026A01252D03AA430262BA
:10553000026A4468C36973263602B3430E683602B2
:1055400033436E00B2430E6936033243AA434D68BB
:105550002D032A430C4DA84208D00C4DA84205D07B
:105560000B4DA84202D00B4DA84205D10125AD0339
:10557000AC438D69AD012C434460C361C9680164CB
:105580000262012070BD0000002C0140004001407B
:10559000004401400048014010B5FDF77BF8034B83
:1055A0001A6B5B6BFCF7E2FF10BD0000E00000200F
:1055B00070B505460B460948FDF74EFFFF280BD096
:1055C0001B21484305492A46441819462046FCF742
:1055D0009FFD657601F08EFA70BD00003105002058
:1055E00003494888002801D0401E488070470000C9
:1055F000DA00002070B5012817D10C4CA0780028E3
:1056000013D00B48012102780025C9074068002A01
:1056100001D0FF2A09D1884207D103F099F8A5707B
:105620002570E580002000F0BFFA70BD0601002063
:10563000A40E002070B517490978042905D0052962
:1056400003D0062901D0072914D10221124C8D075D
:10565000012810D000280DD110488278002A09D0E6
:105660000F4A167853680246D288002E0CD0521981
:1056700093420CD970BD0B488278002AFAD00A4AAE
:10568000167853680246EFE7A21A9342F2D30170EC
:1056900070BD0000E000002001F40180180100202E
:1056A000CC0F002006010020A40E002010B50C48ED
:1056B00001224168D207914211D00A4A914201D297
:1056C000FF2102E0914201D900210170007802F02F
:1056D000D7FF012003F064FA012000F065FA10BD45
:1056E000A40E002000FA00807047000004494968B9
:1056F000F0221140034A0909515CC840704700007C
:10570000001002406C99000803494968034A4905A2
:10571000490F515CC8407047001002407C99000856
:1057200010B5064841680C200140054805D0042901
:1057300003D0082901D100F005F810BD0010024087
:1057400000127A0010B50C4C6168012212040B485B
:10575000114002D0891A00D14000E16A0907090FFF
:10576000491CFCF7BFFC61680F2292041140890CB0
:10577000891C484310BD00000010024000093D0094
:1057800010B50C4C08212046FEF7E3FB20212046F3
:10579000FEF7DFFB10212046FEF7CEFBFEF7E6FD0D
:1057A00009206101C006FEF7D4FB40212046FEF728
:1057B000D0FB10BD0004004810B51E4C4020A06175
:1057C0007020FFF71AFC01211C20FFF7F8FC0421D0
:1057D0001D20FFF7F4FC1C20FFF73CFC1D20FFF709
:1057E00039FC4020A0620A210020FFF7E8FC0121DB
:1057F0000846FFF7E4FC01210220FFF7E0FC03214B
:105800000846FFF7DCFCFF210420FFF7D8FC0A4C18
:105810000520A178FFF7D3FC27210620FFF7CFFC56
:105820000521E01CFFF764FC0522E11C0020FFF7C6
:1058300053FC10BD000400480A08002010B50446BF
:105840000020FFF707FC0146002C02D0012C03D0FA
:1058500004E04108490001E0012001430020FFF776
:10586000AEFC10BD0548C16880221140FF39823965
:10587000C160034990024861704700000028004061
:1058800000040140F8B507460020194D01242865A1
:10589000AF81661C304660434008C01980B2CB28F7
:1058A00002D9641E2C701DE0610049198881401CDA
:1058B000FCF7D4FE0F49FCF7C4FC0F49FCF7FEFCD3
:1058C00001460E48FCF7FAFC0090286DFCF7C6FE76
:1058D0000099FCF75DFCFCF7EBFE28652C70F4B238
:1058E0000E2CD6D328783C21401E48436865F8BD6D
:1058F000B40E00200080FA4300803B470000704255
:105900001FB5002100910191029103910278782A3C
:1059100010D1407880280DD16846027080224270F4
:1059200001228270C17006210171052269460220A0
:1059300000F020FF1FBD10B50020FEF783FC10BD56
:10594000024800214176322181837047FC0100200A
:1059500007480168012212049143016001681202A4
:1059600091430160416889088900416070470000E7
:1059700000100240024900204870024988647047C4
:1059800058010020B40E002010B5184909780729E5
:105990002AD1174C217A002926D16178002923D0F9
:1059A0002146C978134A012802D0022806D014E003
:1059B000012919D9491EE170FF200DE02079D0237B
:1059C00058430D4BC018A378DB00C018007B8842F9
:1059D0000AD9491CE17000201070107802F050FEC6
:1059E00000F0B8FA0120207310BD0000E000002094
:1059F00058010020A40E00200A08002070B51048AD
:105A0000007807281AD10F4C207A002816D1607828
:105A1000002813D00C4D0C22A86C401CA864A1785F
:105A200051430A4A52582946A031C9785118814237
:105A300004D802F08DFE0020A864207370BD000021
:105A4000E000002058010020B40E0020C811002002
:105A500070470000F0B585B014216846FCF771FB73
:105A600009216A4611700020507005219170474944
:105A700003460978D17001291CD002292DD00F29A5
:105A800046D0032944D0414B414ADF789379D68FE1
:105A90009C46938FDDB21C0AF3B2360A052939D031
:105AA000062941D0042952D03A4A072957D009295A
:105AB0005ED066E038486946027B0A71427B4A71D3
:105AC000827B8A71354AD478CC71147C0C72007D4B
:105AD00048728B729079C87232E031486946C28848
:105AE0000A71120A4A7102898A71120ACA7182897C
:105AF0000A72120A4A7202788A724278CA72407E28
:105B000008730D2002F012F9694648730E2038E040
:105B100011461DE0107A694608714F716046887120
:105B2000CD710C72907A08E0507A694608714F7115
:105B300060468871CD710C72D07A48728B72CE72C9
:105B40000C2002F0F3F8694608730D2019E069464D
:105B5000042002F0EBF869460871052011E0107A84
:105B600010490828087001D30720087005B0F0BD5F
:105B7000507A69460871052002F0D8F869464871E4
:105B800006206946FFF714FDF0E70000E000002062
:105B9000B40E00208A0E0020B40F0020F412002062
:105BA0005C140020580100201CB5002100910191D7
:105BB00009216A4611700123537091700221D1703E
:105BC00010710748694600785071062002F0AEF85F
:105BD0006A46907169460720FFF7EAFC1CBD000089
:105BE000E000002030B585B00C460546142168461B
:105BF000FCF7A7FA092269460A7005224D700020B9
:105C00008A70CC70012D0ED1012C0CD1094800787E
:105C100001280CD0084840780871052002F086F869
:105C2000694648710620FFF7C3FC05B030BD034844
:105C3000007DF1E7E00000205C140020B40F00209C
:105C40000148012101737047EE01002001484169BC
:105C5000C16070473C01002010B50B4A11780F2934
:105C600006D001290DD0022901D1FDF7E9FE10BDB2
:105C700001200649C00748600549486003201070AC
:105C800010BD01F093FA10BDE0000020A40E00202A
:105C9000CC0F0020F8B503460020FF27414C424AB4
:105CA000424E0546012B1BD0022B1DD0032B20D0CA
:105CB000042B22D0002965D03771642171713B49D2
:105CC0003B4E0D783C493B4F0B7D3C4901284978C0
:105CD00018D0022855D1012D37D0022D3BD04AE0F3
:105CE000002951D0277002E000294DD025700120F5
:105CF000E2E700294CD0157002E0002948D0177067
:105D00000220D9E7012D02D0022D06D015E0002B8C
:105D100013D0032B11D2A16804E000290DD0032970
:105D20000BD2E168B14203D32178002929D004E0E5
:105D3000B94202D82178FF2923D0FEF72FFF20781F
:105D400002F09EFCFF21012019E0002B13D0032B51
:105D500011D2916804E000290DD003290BD2D1683B
:105D6000B14203D3117800290BD004E0B94202D824
:105D70001178FF2905D0FEF711FFFF210020FEF763
:105D80003DFFF8BD012803D100210120FEF736FFB9
:105D900030787571092803D00120FDF7D5F93571E8
:105DA0003571F8BDA40E0020CC0F0020E0000020CB
:105DB00001F40180FA0CFE7FB40F00205C14002077
:105DC00008B503F01BFD02F049F9FCF7E1FD02F014
:105DD00011FF01201A49400388611A4A001190629C
:105DE000411091620922D20690629162002002F075
:105DF00013FF00F031F814480121C26909070A4372
:105E0000C261C0690840009002F096FDFFF7A0FD56
:105E100001210846FEF728FA0C484078002809D0EE
:105E200072B6BFF34F8F0B490948C860BFF34F8F5D
:105E300000BFFDE700F0ECFC02F09CF908BD00009B
:105E400000080048000400480010024088010020BB
:105E50000400FA0500ED00E0F8B5104C0925ED0648
:105E60002146284602F042FA0D4E0E4F3146384682
:105E700002F03CFA0C490D4802F038FA08490C4887
:105E8000803102F033FAAC61BE610849064888618E
:105E90000348074980308861F8BD0000FF9E00007C
:105EA0007FFF000000040048FFDF000000080048FA
:105EB0000014004870B514480078072823D1134A0D
:105EC0001478002C1FD01248008800281BD11248DB
:105ED0000025104B0188022C02D0012C05D010E0C7
:105EE0001C788C420CD9491C02E0002908D0491EBC
:105EF00089B201804800C018808902F003FC00E0EC
:105F0000157002F065FE70BDE0000020E100002089
:105F1000EA000020B40E00202201002010B50A483B
:105F2000417800290FD140790C214843074909588D
:105F30000748026D806C891A814204D1022002F068
:105F400081FE02F045FE10BD58010020C81100205E
:105F5000B40E002010B50749072008800648408B82
:105F600002F0D0FB012002F06DFE02F031FE02F0E3
:105F7000DDFB10BD22010020B40E002010B50E483C
:105F80000078072816D10D48017A002912D14178EE
:105F900000290FD080780C21484309490958094845
:105FA000026D806C891A814204D1022002F04AFEFF
:105FB00002F00EFE10BD0000E0000020580100209D
:105FC000C8110020B40E002070B5084801254573A3
:105FD000074C0720207320460E30408A02F0D8FB81
:105FE000657300F007F802F0E7FB70BD5801002070
:105FF000140F00200148502181737047140F0020B6
:10600000F8B5234C0027207900283FD0D021214D1E
:1060100041434919C031897D002937D0082801D36F
:1060200007202071C0B2D02148434019C030817D83
:10603000192901D318218175002609E0F1004018C3
:10604000007D761CC01987B2F0B202F06DFFF6B287
:106050002079D02148434019D621095CB142EDD8BE
:106060002179D02251434919C0318F820A497D23B9
:10607000CF806279DB00D2008018427B5A430A66E7
:10608000827B5A438A66407C58434866F8BD0000CC
:10609000580100200A080020B40E002070B5164DEB
:1060A0002879082801D307202871C0B2D02148439D
:1060B0001249134C4018C030C07C00280ED0FF207D
:1060C000104901308861FDF7AFF86878002804D1E5
:1060D000042020760C490020086070BD207E012835
:1060E000FBD00228F9D00328F7D0FDF79DF8012056
:1060F00001F0DAFD70BD0000580100200A08002000
:10610000F40E002000040048F4000020F3B5074618
:106110000020204D81B02865AF810124661C3046E7
:1061200060434008C01980B2AA2802D9641E2C70AE
:106130001DE0610049198881401CFCF78FFA16495F
:10614000FCF77FF81549FCF7B9F801461448FCF74D
:10615000B5F80090286DFCF781FA0099FCF718F863
:10616000FCF7A6FA28652C70F4B2142CD6D3287844
:106170001E21401E4843686502980C214843094986
:106180000858296D4900884201D20020FEBD012037
:10619000FEBD0000B40E00200080FA4300803B47A3
:1061A0000000F041C811002070B57E4C0546C27950
:1061B00020790726082800D3267128796B1C7A4994
:1061C00001282AD0022834D003283ED0042848D001
:1061D00005284FD0754B062857D007285ED00828D1
:1061E00064D0092869D001260A287DD00B287CD0EC
:1061F0000C287BD00D2879D00E2878D00F2877D0A6
:10620000102876D011281FD162706879A070586C60
:106210000006000EE0706DD0A5E058791B790002F1
:1062200018432379D02463435918D300C9184881EF
:1062300013E058791B79000218432379D024634373
:106240005918D2008918087470BD2079D024604391
:106250004018D1006B7940180373104602F064FEB9
:1062600070BD2079D02460434018D1006B7940186C
:10627000437307E02079D02460434018D1006B7944
:106280004018837302F02CF870BD2279D024624349
:1062900051186879C0318874D88670BD2079D023B0
:1062A000584340186A79C030C27470BD6879207252
:1062B00000F074F903F0E2FA70BD68792179884240
:1062C0000CD002F0F1FC02F078FA02F041FA6879A1
:1062D0002071082800D32671FFF7E8F934492279A4
:1062E000087A9042E8D206E008E018E01BE01EE0E1
:1062F00026E02DE036E0401C087270BD2079D023E6
:10630000584341180846AA79C0308275192A01D32A
:1063100018228275E879C0000818C673B2E7687958
:10632000FDF752F870BD6979FDF740FCAAE72079C6
:10633000D02460434018D1006B7940184374A1E722
:106340002079D023584340186A79C030C27599E744
:1063500060780028E6D0207B0028E3D16879FFF739
:1063600013FB70BDE670002A0BD00525A1782846E6
:10637000FFF7CCFE0028F4D16D1CEDB2AA2DF5D3A9
:1063800070BDFFF7F7FA052561792846FFF7BEFED5
:10639000002803D16D1CEDB2AA2DF5D3FFF786F9C5
:1063A00070BD0000580100200A080020B40E002033
:1063B0008A0E002010B50848007807280AD107483F
:1063C000007E002806D10649FF20087200F0E6F89A
:1063D00000F0C0F810BD0000E0000020F40E002026
:1063E00058010020F0B585B0074614216846FBF738
:1063F000A8FE0921684600240170447081700721BD
:10640000C1702249D02208795043214A8018C030F7
:10641000827D192A01D318228275D0201C4A784324
:1064200086183546C03528E0E0003018428A6946B3
:106430000A71120A4A71027E8A710022CA71027DB3
:106440000A72427D4A72827D8A72AA7CCA72EA7C92
:106450000A730E49641C0A7A69464A738C73CF73B7
:10646000407E0874E87D4874122001F05FFC6946A4
:1064700088741320FFF79CF8E4B2A87DA042D3D81B
:10648000C1B20248817305B0F0BD00005801002080
:106490000A08002010B586B0044614216846FBF7B0
:1064A00050FE0920694608700B2048700120887052
:1064B0000849002C0CD088716946C870042001F08E
:1064C00035FC694608710520FFF772F806B010BD6B
:1064D0004879F0E75801002010B50F4900200F4C13
:1064E0004872012262760A79D0235A430C4B4979CB
:1064F000D218C9005118097B012904D901F06AFF9B
:10650000FFF719FA10BD0749087002F0B9F8FFF754
:1065100021FD0220207610BD58010020F40E00203D
:106520000A080020A40E002010B5094800780728AA
:106530000CD10120FFF75EF8FDF7D6FE00F09EF8C3
:10654000FFF7ECFCFFF75AFAFFF718FD10BD00004B
:10655000E00000200EB5002000900190092269465D
:1065600002900A7048708A700820C8700948007A42
:106570000871094802794A7142798A71007AC871B2
:10658000082001F0D3FB694608720920FFF710F8D4
:106590000EBD00008A0E002058010020F8B5334DD2
:1065A0000026287A324C002857D0A07E00281FD021
:1065B0002076617E002918D0012806D1204660305F
:1065C000407800283ED0FFF7C5FC207E022801D18C
:1065D000FFF7C0FC207E062802D0072802D031E059
:1065E000A6762FE0FFF7F0FC2CE0FFF775FF29E01F
:1065F0002048012706601E48403846646F71EF71DD
:10660000FFF7FEFC052669793046FFF77FFD00287D
:1066100003D1761CF6B2AA2EF5D32879082801D327
:1066200007202871C0B2D021484313494018C03018
:10663000807C002802D0697A002907D0FFF74CFF40
:10664000207EA0760020FFF725FFF8BD08494039DD
:10665000C8866F7206202076F2E702F0AEF802F0EC
:1066600077F8207EA0762676F8BD0000580100203D
:10667000F40E0020240100200A08002070B51449FF
:106680004878002823D1134D287E02281FD12A469E
:106690006032507800281AD11646A03EB06C0C2308
:1066A000401CB0644979D27859430B4B595889182A
:1066B00081420CD802F04CF80848002404702046AF
:1066C00001F0DEFF0320B46428760548046070BD45
:1066D00058010020F40E0020C8110020A40E002054
:1066E000F400002010B541781F4C002915D0062970
:1066F00012D1C07805280FD11C48017805290BD08C
:106700000521017002F09CFC01F086FDFFF7A2F963
:10671000207AE08602F0AEFC10BD017901290ED08E
:1067200002290FD0421C032915D0042919D00529AC
:10673000F2D15079117900020843E08710BD407909
:106740002072E6E761790029F8D10949407908709B
:1067500002F0CCFC10BD5079117900020843A087EB
:1067600010BD4079A07210BDB40E0020E0000020E2
:10677000E300002070B5002314460D46012802D026
:10678000022817D070BD0D48FBF7C2FC22460C4C06
:1067900002212046FDF75EFE02212046FDF736FE6F
:1067A00002212046FDF726FE70BDE85C02F084FD64
:1067B0005B1CDBB2A342F8D370BD0000FC010020DB
:1067C0000000024010B50F480078072818D10E4C81
:1067D0002078002814D0A17B002911D1FFF702FEF8
:1067E0002078002804D0401E0006000E207007D13B
:1067F000FFF7B0FE207A002802D00020FFF74AFE03
:1068000010BD0000E000002058010020704700008B
:1068100010B53048012102688A430A4302600068CB
:10682000084056D02C4802680A430260026892076A
:10683000D20FFBD0026801231B049A430260046854
:10684000F822944380231C430460446B0C4344634C
:10685000446BA407E40FFBD0446B94431C43446394
:10686000426A0A434262416A8907C90FFBD0052286
:106870004168D2043D231B04994311434160C16A1E
:1068800009090901C1620168012212061143016070
:1068900001688901C90FFBD04168F0229143416032
:1068A0004168072212029143416042680221920826
:1068B00092000A4342600C22416811400829FBD132
:1068C0000648FDF7B1FE0648016904221143016143
:1068D00010BDFEE70020024000100240006CDC0208
:1068E00000E000E0134801680122114301604168A3
:1068F000114A114041600168104A1140016001686D
:10690000012292049143016041683F2212049143A5
:106910004160C16A09090901C162016BFF22143299
:1069200091430163416B4908490041630021816043
:1069300070470000001002400CB8FF08FFFFF6FE91
:1069400010B501200B49C043086101F015F802F0B1
:10695000AFF8FDF753FC02F0BFF8FEF741FE02F07E
:106960001FFC02F02BFB01F06BF801F023FB02F09F
:106970005FF910BD002000407047000010B50120F5
:106980000749C043086101F06BFE01F085FEFFF787
:10699000CBFD00F0EDFD00F017F8FEF71BF910BD80
:1069A0000004004010B501200249C0430861FDF712
:1069B0002FFC10BD0010004010B501210148FDF76B
:1069C000C8FA10BD0004004810B508480078022835
:1069D0000AD10120FCF77EFEFCF7D8FF0120FCF76E
:1069E000D1FD0120FCF7FEFD10BD0000E0000020FD
:1069F00070B506460846FBF74DFE05460C46304688
:106A0000FBF748FE2A462346FBF7B0FD0022134B56
:106A1000FBF744FD0022124BFBF7A8FD114E0022AC
:106A20003346FBF72CFD04460D4600220E4BFBF7C8
:106A300035FDFBF751FE80B20A21FBF753FB00291D
:106A400006D00022334620462946FBF775FC01E0BC
:106A500020462946FBF740FE70BD00000070E7406D
:106A600000507F400000F03F00002440FFB583B09D
:106A7000174600220C9E0D980092019202920D4A38
:106A8000800015580C481C4605606B462246384667
:106A9000A847012E03D1A1086846FDF715FF22463D
:106AA00069460398FBF758FB002800D0012007B087
:106AB000F0BD000098990008D400002010B50548EA
:106AC000C169C906C90F03D01021016202F0D0FBD1
:106AD00010BD00000038014010B50548C169C90665
:106AE000C90F03D01021016202F024FC10BD000088
:106AF0000044004001491E2088837047FC010020AB
:106B000010B5084C04212046FDF768FC0120400325
:106B100060604010606004212046FDF753FC00F0E7
:106B20006BF810BD0000024070B50E4E05213046D6
:106B3000FDF778FC1925281A01060B4C090EA176E1
:106B40000ED005213046FDF73DFC08480168490894
:106B500049000160A07E192800D9A5760120607641
:106B600070BD0000000002401C02002000440040F4
:106B700010B50120FDF70EFC1D4C1C4A05212046D6
:106B8000FDF7BAFC1B4A05212046FDF781FC1922BE
:106B900005212046FDF75EFC002205212046FDF779
:106BA00067FC0122520305212046FDF745FC002227
:106BB00005212046FDF7AAFC802205212046FDF78D
:106BC00071FC002205212046FDF7AEFC00220521C4
:106BD0002046FDF775FC002205212046FDF77EFCCE
:106BE00005212046FDF706FC10BD000024440040AE
:106BF000000002401C0200200248002141762821AA
:106C0000818370473802002070B50120FDF7C2FB78
:106C1000204C1F4A04212046FDF76EFC1E4A042129
:106C20002046FDF735FC192204212046FDF712FC11
:106C3000102204212046FDF71BFC01256D032A4686
:106C400004212046FDF7F8FB002204212046FDF731
:106C50005DFC802204212046FDF724FC0022042153
:106C60002046FDF761FC002204212046FDF728FCA8
:106C7000002204212046FDF731FC6560A01460600D
:106C800002210B20FEF720FB0B20FEF7E7FA70BD78
:106C9000284400400000024038020020F1B5254899
:106CA0000121C2698EB049040A43C261C06901254D
:106CB00008400D9004200226032704956A46C1C2AD
:106CC00000240920694605950394C006FDF74AFC97
:106CD000082004956A46C1C20920694605950394B7
:106CE000C006FDF73FFC02211C20FEF7EDFA1C2038
:106CF000FEF7B4FA0E9806900794089409940B9442
:106D00000C940C200C4C0A9006A92046FDF772FD4D
:106D1000A06840210843A060A06880210843A060CB
:106D200020682843206010202062216801432160F0
:106D30000FB0F0BD001002400044004010B5074CF9
:106D4000062020700648008B01F022FD01202071F2
:106D50005020A07001F030FD10BD00003501002072
:106D6000B40E002070B5642002F01EF9012100F07D
:106D70002BFF0446642002F017F9002100F024FFE5
:106D800014494C62C0310861844200D920467D21FB
:106D9000C900FBF7A7F9841C7D20C0000E496043A1
:106DA0004880E12109012046FBF79CF9C1B20B4D57
:106DB000E120A97300014143641A3C212046FBF7FE
:106DC00091F968733C214843201A2873FEF742FE6C
:106DD00070BD0000741300206A010020B40F002071
:106DE00070B51348007801281DD1124C607C022830
:106DF00019D12646A036707F022814D1A07900252B
:106E0000002811D0A08800280DD1002002F0E0FA5F
:106E1000012002F0DDFAFEF791F8FDF7A3FF00F084
:106E200073FD6574757770BD65747577A580ECE743
:106E3000E0000020F4120020F8B5254C002527467C
:106E4000A0370226012821D000281ED1787F0028F3
:106E50001BD020493A7F2046C0308968002A35D0AF
:106E6000FF2A12D1006981420FD101F0A6FC1A4815
:106E70008570C58005707E77607C022801D000286F
:106E800003D17D20C000A0806674F8BD607C00281E
:106E9000FBD01248217C8068002915D0FF29F4D14D
:106EA000616A8842F1D101F053FC0D488570C580BC
:106EB00005706674787F022801D00028E5D17D2016
:106EC000C000A0807E77F8BD216AEAE7C068CAE703
:106ED000F4120020CC0F002018010020A40E002086
:106EE0000601002030B5022101281AD0002836D131
:106EF0001E484069002832D01C4A203A507F0028A2
:106F00002DD01B488378002B29D0157F194A0346C2
:106F10001478002DDB889268174D21D0C0352D697B
:106F200014E0154A906A002819D0507C002816D029
:106F300012488378002B12D0157C114A034614782E
:106F4000002DDB8892680C4D04D06D6A002C0AD0AD
:106F5000EB1801E02D6AF9E7934200D1017030BDD2
:106F6000C035ED68F2E7EB1AF6E70000B413002035
:106F700018010020CC0F0020F41200200601002090
:106F8000A40E002070B5364C02792146A379A031B9
:106F9000012A12D0072A2CD0052A2DD0062A0BD17F
:106FA000002B09D14279227440790877012002F040
:106FB0000FFA002002F00CFA70BD002BFCD1294A18
:106FC0004379137383795373C379937342798A76C0
:106FD00082794A76C2790A764179A173817961739F
:106FE000C079207300F05AFBFDF7A8FFFDF7BAFE49
:106FF00070BD4079E07070BD1B498978002903D1CC
:107000001A498978002902D0FEF724FD70BD417924
:10701000A1714079E07100291FD000F02DF80546DC
:1070200000F094F80543F1D1FDF788FFFDF79AFED3
:10703000012002F0CDF9002002F0CAF90C480078D6
:1070400000280AD0217C0B48002902D0FF2902D059
:1070500003E0216A00E0616A816000F055FC70BDC8
:10706000F4120020B40F00201801002006010020B7
:107070006A010020A40E002070B5164A0024906A10
:1070800000281DD01448007800281DD11349167C13
:107090000023FF258868002E02D0FF2E11D00EE0BD
:1070A000146A0FE00D7000E00B700124547408782E
:1070B00001F0E6FA012001F073FDFEF73CFC2046EA
:1070C00070BD546AA04201D1002070BDA042EBD92E
:1070D000E8E70000F41200206A010020A40E00205E
:1070E00010B517480078012829D1164CA17C002939
:1070F00025D0207D002822D120460022C07C0229F4
:1071000002D001290DD018E00F498988884201D2A8
:10711000401C09E0A274A07900280ED101F018FBF0
:107120000BE0002808D0401EC0B2E07440000019F7
:10713000808D01F0E7FA00E0A2741E20207510BDDA
:10714000E0000020F412002034140020F8B5154AA5
:107150000024506900281BD01346203B12491E7F93
:107160000025FF278868002E02D0FF2E11D00EE0E8
:10717000D2680FE00F7000E00D7001245C77087892
:1071800001F0FAFA002001F00BFDFEF7D4FB2046D7
:10719000F8BD1269904201D10020F8BD9042EBD9B0
:1071A000E8E70000B4130020CC0F0020F8B5374DFD
:1071B000394A28753649374B14464F68C0345E68E3
:1071C000012825D002282BD1A760896817462161A4
:1071D000FE6198687862E068FBF70EFC0646796A03
:1071E000386AFBF709FC07460120FEF7D5F9FBF7E3
:1071F00073FAB84215D90120FEF7CEF9FBF76CFA05
:10720000B0420ED90020287523496061886238E0B9
:107210000120C00788606760E06098609661106236
:10722000F8BD032028751C4DFF206870294628747E
:10723000A03108770120FEF7AFF9FBF74DFAB04215
:1072400002D90020606100E066610120FEF7A4F928
:10725000FBF742FAB84202D90020A86200E0AF6210
:1072600000F04AFB012002F0B3F8002002F0B0F871
:107270000A4AA96A0A48914201D3012100E000218B
:10728000017001210846FEF7ADFCF8BDB40F0020E7
:10729000CC0F0020A40E0020F412002001F4010005
:1072A0006A01002010B51F498A79002A1CD00128E4
:1072B0001BD0002818D10846A030417F002913D1E7
:1072C0000146A0310A6A002A0ED0037F1648002B1F
:1072D00082680846806822D0FF2B05D1C9698A429E
:1072E00002D1401E01F054FA10BD487C0028FBD1A9
:1072F0000C4A8032506B0028F6D00C48097C836819
:107300001046C069002908D0FF29EDD1116B8B42CE
:10731000EAD1401E01F0F6F910BDD16AF7E789699C
:10732000DDE70000F4120020CC0F0020A40E0020A6
:10733000F8B52A4A28487D254368174651686D02EA
:10734000FF260024C03F8B4217D05269002A1DD06F
:107350008B4203D9591AA94205D802E0C91AA94299
:1073600001D9067000E00470007801F005FA0020F1
:1073700001F016FCFEF7DFFA08E0D16881601748DB
:107380007C7020380477002002F022F81448BA6993
:107390004168914217D0BB6A002B13D0914203D9A8
:1073A000891AA94205D802E0511AA94201D90670EA
:1073B00000E00470007801F063F9012001F0F0FBB7
:1073C000FEF7B9FAF8BD396A81607C703C7401201F
:1073D00001F0FEFFF8BD0000CC0F0020B413002028
:1073E000A40E0020F8B50024204D0646012823D025
:1073F000002820D12F46A037787F00281BD11C48B9
:107400008178002917D02E46C0367168002912D025
:10741000184A52688A420ED18470C480047001F008
:10742000CCF91448F16881606C703C77204601F01B
:10743000CFFFFEF70FFBF8BD0F4881780029FAD087
:10744000697C0029F7D1A9690029F4D00B4F7A682B
:107450008A42F0D18470C480047001F079F9286AFE
:10746000B8606C702C743046E1E70000F412002024
:1074700018010020CC0F002006010020A40E0020DF
:10748000F0B534490978012929D13449324C022216
:10749000CB88012824D0002821D13148407F002802
:1074A0001DD1304DA878002819D02D4820304068D3
:1074B000002814D02C490F782946CE882A49002F5D
:1074C000496835D0C6182B46DF88254B20335B68CA
:1074D000DB19A64238D960421818884232D2F0BD72
:1074E0001F48A038457C002DF9D18D78002DF6D0AD
:1074F0008569002DF3D01D4806784068002E06D01F
:10750000EB18A3420FD9144C64421B190DE09D42A5
:1075100002D25B1BE31A02E0A842E0D2EB1A8342DC
:10752000DDD80A70F0BDA842FCD98342F9D2F0BD83
:10753000B04202D2301A201A02E08142F7D2801BF8
:107540008842F4D82A70F0BD8142FCD98B42F9D22E
:10755000F0BD0000E000002001F4018006010020E1
:107560009413002018010020CC0F0020A40E00204E
:1075700010B50B480078012810D101F05FFF012001
:1075800000F040F90120FFF757FC0120FFF7AAFCAB
:107590000120FFF727FF0120FFF784FE10BD000048
:1075A000E000002030B50B4A002010700A4B0B4958
:1075B0009070987018700C464874A034084D60772D
:1075C000E873203DE870D880D0808871C8718874D5
:1075D000A07730BD1801002006010020F412002021
:1075E000BC14002010B5144CA16A002921D02146FA
:1075F000C97B002815D02046803000290BD0007EA2
:10760000E07440000019808D01F07CF80120A07426
:107610001E20207502E0C06901F074F801F086F8C0
:1076200010BD002902D00220A07410BD01F090F816
:1076300010BD0020A07110BDF412002070B5164DD1
:107640002A466969C03A002923D01446A034E17E55
:10765000002816D02046A03000290CD00079E07711
:1076600040008018C030008B01F092F80120A07714
:107670001E20287002E0806801F08AF801F09CF872
:1076800070BD002902D00220A07770BD01F095F8EE
:1076900070BD0020D07170BDB413002070B5164CC1
:1076A0003C21607BE1224843A17B120151434018F9
:1076B000217B41187D20C000414310484088814211
:1076C00019D27D21C900FAF70DFDE1210546090116
:1076D000FAF708FDC1B2E120A173000141436D1A20
:1076E0003C212846FAF7FEFC60733C214843281AE7
:1076F0002073FEF7AFF970BDB40F00206A010020BF
:10770000FEB50D4606460F2400213948002D34D021
:10771000054680352982868501214F1C084678431D
:107720004A0040083249801980B251188885401CAF
:10773000FAF7B0FF00222F4BFAF7B0FE00222E4BD3
:10774000FAF714FF02460B4600202C49FAF70EFF09
:1077500001910090288AFAF79DFF019B009AFAF7A1
:10776000EBFDFAF7B9FFF9B22882A142D5D3641E26
:107770003C20604368612C83FEBD214FB9833946AC
:1077800060390E8301214D1C08464A0068431849A0
:1077900040088019511880B2C0310883401CFAF7A4
:1077A00079FF0022134BFAF779FE0022124BFAF709
:1077B000DDFE02460B4600201049FAF7D7FE019184
:1077C0000090B88BFAF766FF019B009AFAF7B4FDB8
:1077D000FAF782FFE9B2B883A142D4D3641E3C20F9
:1077E000214641430648203001608480FEBD0000F0
:1077F000F412002000507F400070E74000003E403F
:107800001414002070B536498978002926D13549ED
:107810008978002922D10221012820D000281DD1F9
:10782000314A5069002819D010462038437F002B78
:1078300014D1C37E002B11D00346D6681569A03B36
:10784000BC22D45CFF33294A21339B8B9268AE4221
:107850003DD9F61A964234D1FF2C36D070BD224E57
:10786000C03EB06A0028F9D0707C0028F6D1F078CC
:10787000002803D01E4800780028EFD1F07B0028B4
:10788000ECD0194A1B48C03A137C8032356A746ABE
:10789000128A8068A5420BD9AD1A854202D1FF2B0E
:1078A00004D070BDA21809E0002BFAD1B17470BDEC
:1078B000A542FCD2AD188542F1D0A21A8242F3D083
:1078C00070BDEB1809E0002CFAD1817770BDAE4293
:1078D000FCD2F6189642BFD0EB1A9342F3D070BD9B
:1078E0000601002018010020B4130020CC0F002056
:1078F0006A010020A40E002010B5FFF733FAFDF74F
:107900001DFBFDF72FFA10BD10B5074CA079FBF752
:107910008BFC012000F0C8F9A079FFF763FEE07945
:10792000FFF78CFE10BD0000F41200202021020C95
:1079300001D010211046020A01D008391046020970
:1079400001D0091F1046820801D0891E1046420846
:1079500001D0881E7047081A704702E008C8121F3D
:1079600008C1002AFAD170477047002001E001C128
:10797000121F002AFBD170470349C888002801D094
:10798000401EC880704700003C0100201CB500224A
:107990001449009201920B78134909780B4313495B
:1079A00001D00A721CBD0B7A5B1CDBB20B72022B7E
:1079B000F8D90A72092369460B7003234B7006231A
:1079C0008B70CA700871000A487109480078887184
:1079D000072000F0ABF96946C8710820FDF7E8FD03
:1079E0001CBD00005801002066010020E0000020BE
:1079F0003C010020F0B587B00120C00200900020BB
:107A000001900290039002200924E4060490694644
:107A10002046FCF7A7FD0125AD0229462046FCF7CC
:107A200098FA6E1031462046FCF793FAAF103946AB
:107A30002046FCF78EFAA561A661A76107B0F0BDEC
:107A400009494888002801D0401E488006480B306C
:107A5000C178002901D0491EC1708178002901D068
:107A6000491E8170704700002A01002030B525486A
:107A70008078002831D12448807800282DD12348EF
:107A80000078072806D022490528097807D006285B
:107A900005D006E01F48007E04281ED005E004291A
:107AA0001BD0022801D1032917D01B4801220578D9
:107AB0001B4852034178194BC9438488C9B20A2D27
:107AC00010D9002C09D14170002907D0FF21F531D0
:107AD00081800120FCF7B6FB9A6230BD7D2109014F
