:020000040800F2
:1020000028190020C9200008C95000089142000882
:1020100000000000000000000000000000000000C0
:10202000000000000000000000000000B55A000899
:102030000000000000000000A557000845660008E9
:10204000DB2000080000000021590008DB20000808
:10205000DB200008DB200008DB200008113D000821
:102060000000000005340008073400080F340008A1
:10207000DB200008AD670008DB200008000000003E
:10208000B1670008D9670008000000007967000800
:10209000DB200008DB200008DB200008DB20000834
:1020A000DB200008DB200008DB200008F1680008C6
:1020B0000D6900080348854600F028FC00480047E9
:1020C000A1820008281900200448804704480047DE
:1020D000FEE7FEE7FEE7FEE7FEE7FEE71D67000816
:1020E000B520000830B50B4601460020202201240F
:1020F00009E00D46D5409D4205D31D469540491B3C
:102100002546954040191546521E002DF1DC30BD84
:1021100003460B439B0703D009E008C9121F08C000
:10212000042AFAD203E00B78491C0370401C521EAB
:10213000F9D27047D2B201E00270401C491EFBD2B6
:1021400070470022F6E710B513460A4604461946C2
:10215000FFF7F0FF204610BD30B5044600200346CF
:1021600000E05B1C934203D2E05CCD5C401BF8D0E6
:1021700030BD30B505460020034600E05B1C9342AD
:1021800005D2EC5CC85C201A01D1002CF6D130BD20
:10219000F8B502464A40D40F42004B0052085B0893
:1021A0009A4202D20246084611464A0023D0C30D85
:1021B0004A00DDB2120EAD1A202D35DA4902012691
:1021C000490AF6058A19002C00D0524220214F1BE3
:1021D0001146B9402A411018C20D9A4221D0002C54
:1021E00017D0012D08DCDA05801AD20F8019D2072A
:1021F000DBB200F0F1FAF8BDDA05801A01234000E5
:102200001B06C01880185A428018CA0F1043490094
:1022100007E04908C2071143DA05801A801940080F
:10222000801800F0D1FAF8BD61000122511A001B9C
:10223000F7E70122D2075140AAE70122D207504016
:10224000A6E7024670B54A40D30FDB0740002DD009
:102250004A002AD0010E140E091900021202400A87
:10226000520A8418E50104465443000A120A2E0457
:102270005043A4194219200CC543AA18120C012579
:102280007F39521CAD0352191204240400D0521C91
:10229000104301D44000491EC2B20C06C0092018E8
:1022A000401C4008802A02D003E0002070BD400896
:1022B0004000002900DA0020184370BD70B50246C6
:1022C0004A40D50F40004A00ED0740085208002858
:1022D00014D0002A12D0C40DD30D41020120C00534
:1022E0005202490A520AE41A091812187D3491421E
:1022F00001D3641C00E04900002C01DA002070BD0D
:102300000023914201D3891A034340084900002861
:10231000F7D100290AD0914202D10121C90705E075
:10232000914201D2012101E00121C943E005C01819
:10233000401900F049FA70BDF0B50746084658400C
:1023400087B0C00F049048000E4659004008490865
:10235000BC1A884105D2384631461E4617460B4600
:10236000024658004008104303D13846314607B0B2
:10237000F0BD300D039040055900400D490D05900A
:10238000401A029040286DDA18030121000B09055C
:102390000843019004980092002805D00199524208
:1023A0000020884100920190029840210A1A019968
:1023B000009800F0D5F905460C46684607C800F0BD
:1023C000F0F9C0197141039A0E0D0023D71756403A
:1023D0001A467A40164340D0049A002A29D0029A1D
:1023E000012A039A11DC1205C01A91410126360513
:1023F000001C7141D20F059ED207009301920296F4
:102400002A46234600F02FFAB1E71605224A0F4666
:10241000B218C01AB74101210905001C4F4100182C
:102420007F41114618187941E20F10436D1964413C
:1024300013E0E2076D0815436408C2071443039ACA
:1024400001261205C01A91413605001C7141CE07C4
:10245000400830434908C01851412A46234600F03D
:10246000F5F984E7049801224000C117121A0023ED
:102470008B4104983146C417381AA141EFE730B4B4
:102480000124E407634030BC56E730B40124E4077C
:10249000614030BC50E700000000E0FFF0B51FB421
:1024A00088B00B990998002448400999C00F490049
:1024B00049080991C0070B990090490049080B9100
:1024C00009990898A646084303D00B990A9808432F
:1024D00003D1002001460DB0F0BD09980124400051
:1024E000420D4800410D099824050003000B2043CC
:1024F00009900B980003000B20430B9050181A49C9
:102500004018002201901446104601E0032801DA29
:10251000034600E003239C46C11A0AAE0AE05F00AE
:1025200008ADED5B4F00F75B7D430027AA187C41A7
:102530005B1E491C6145F2DD410004AB5A52210487
:10254000120C0A43240C401C0828DFDB019802907F
:102550000099704601910090059B049A079906988E
:1025600000F081F9B7E700000DFCFFFFF0B50C4665
:102570005C4085B0E40FE40703944C000026640837
:1025800059009446490802460296224321D06246E9
:102590000A431ED06200570D4A000E032303550D57
:1025A000012402462C492405781B1B0B360B4018CE
:1025B00023432643614600901C46501AB44103D37E
:1025C0000098401C009002E0921800985B4100289F
:1025D00003DA0020014605B0F0BD00200121090505
:1025E0000746864611E064461D46141BB54106D3D6
:1025F0006546521BB341744607430C43A646CD07BC
:1026000040084908284392185B4105460D43EAD12A
:102610001046184313D06046194650407140084395
:1026200003D100220123DB0709E06046101AB34101
:1026300002D20122002302E00122D243531000986B
:1026400074460105381C6141029C039D00196941D3
:1026500000F0FCF8BFE70000FD03000010B5002209
:102660009623114600F0B8F810BD00000EB50549DC
:102670000291002100910A460B46019100F0F3F807
:1026800003B000BD33040000410040020122400AB3
:10269000D205090E80187F2901DA0020704796299B
:1026A00003DC9622511AC84070479639884070471B
:1026B0004A0009030123090B1B051943094B10B5F7
:1026C000520D9A4201DA002010BD064B34339A4273
:1026D00003DC9A1A00F054F810BD034951188840E1
:1026E00010BD0000FF030000CDFBFFFFC20FD207AB
:1026F000400040080BD0C10D0723DB01C918400280
:102700000905400A1143C2084007114370470020E1
:1027100001467047CB0FDB07490010B54908024658
:102720000A4307D00A0D07240903E401090B121B11
:10273000002A01DC002010BDC900440F0C43C10079
:10274000E018D205801800F03FF810BD0122D20732
:10275000002800DB101A002900DB511A8142704763
:1027600010B5202A04DB0146203A9140002010BD1C
:10277000914020239C1A0346E3401943904010BD2A
:1027800010B5202A04DB0846203AD040002110BDB5
:102790000B46D340D0402024A21A9140084319464A
:1027A00010BD10B5202A06DBCB170846203A104191
:1027B000C1170B4306E00B461341D0402024A21A58
:1027C00091400843194610BD002904DA401C490015
:1027D00001D140084000704770B40024050C05D1B9
:1027E0001024000402D1002922D01124050E01D1A9
:1027F00008340002050F01D1241D0001850F01D10D
:10280000A41C8000002801DB641C4000002908D0C3
:1028100020252E1B0D46F540A14000D00121294363
:1028200008431B1B0106DB1D000A002B02DA0020F7
:1028300070BC7047DB05181880180029F8DA401CB6
:102840004900F5D170BC40084000704710B5002B1E
:1028500008DA0024401C614192185B411A4301D1FF
:102860004008400010BDF0B51FB482B005460C0012
:1028700003D0084604F0AAFF02E004F0A7FF2030CE
:102880000246009021462846FFF76AFF049B059AFE
:1028900004460F4618431143084303D120463946E6
:1028A00007B0F0BD1846104317D0009840210A1A0F
:1028B00018460599FFF764FF05460E46009A0599EC
:1028C0000498FFF74DFF084301D0012000E00020ED
:1028D000C11705430E432C43374300990E986305F7
:1028E000401A7905E40A0A3000220C43FD0A002848
:1028F00002DA00200146D3E70105101969410C9C5A
:102900000D9D00196941FFF7A1FFC9E7064C01259C
:10291000064E05E02046E36807C82B43984710346D
:10292000B442F7D3FFF7CAFBC0960008E096000850
:1029300010B50C4B00219A681724A2435C05224372
:102940009A600F231B038268491CD20FD207994259
:1029500001D0002AF7D18168002901DB006C10BD8D
:10296000002010BD0024014010B500F00BF800F06D
:1029700023F801F073F910BD884201D9401A70475D
:10298000081A704700B50B480121826987B04902D7
:102990000A4382618069084006900120009003206C
:1029A00001900020049009206946C00601F0B0FDA6
:1029B00007B000BD0010024030B51B4C0125A562D8
:1029C000E06818218843E060E068611488430843A8
:1029D000E060E068032189028843E060E06820212C
:1029E0008843E060E068042188430843E06061694F
:1029F00007208143014361612046FFF799FF25606D
:102A0000E168032081430143E160A1680748014078
:102A1000491CA1602168C907C90FFBD0A16801400A
:102A2000091DA16030BD000000240140E8FFFF7FC8
:102A300070B5C478857846782C400D7875406C4028
:102A40001C708C78C5786C4045782C435C70847819
:102A5000457806786C400D7875402C439C70C4789E
:102A600005782C4045786C408D782C43DC70082A22
:102A700062D00C2A5FD142788478C57822400C78E5
:102A80006C4062401A70C278047922404C786240EF
:102A9000447822435A7082784478457962408C7831
:102AA0006C4022439A70C278447822404479624054
:102AB000CC782243DA7042798479C57922400C7946
:102AC0006C4062401A71C279047A22404C796240AB
:102AD000447922435A718279C479457A62408C796B
:102AE0006C4022439A71C279047A2240447A62404F
:102AF000CC792243DA71427A847AC57A22400C7A00
:102B00006C4062401A72C27A047822404C7A624069
:102B1000447A22435A72827AC47A457862400C78A9
:102B20006C4022439A72C27A047840782240424034
:102B300088780243DA7270BD4479C2790D792240F7
:102B400065406A401A710279C47922408C796240EA
:102B5000447922435A718279447905796240CC796B
:102B60006C4022439A71C2790479807922404240B4
:102B700088790243DA7170BD70B50C784578C678F3
:102B80006C40857875406C401C7044784D780678B0
:102B90006C40C57875406C405C7084784578C67828
:102BA0006C408D7875406C409C70C4784578CE78C8
:102BB0006C40057875406C40DC70082A62D00C2AA5
:102BC0005FD10A784478C578624084786C4062406E
:102BD0001A7042784C7805796240C4786C40624043
:102BE0005A7082784478457962408C786C406240B3
:102BF0009A70C2784478CD78624044796C406240E3
:102C0000DA700A794479C579624084796C4062400F
:102C10001A7142794C79057A6240C4796C406240FD
:102C20005A718279C479457A62408C796C406240ED
:102C30009A71C279047ACD796240447A6C406240DC
:102C4000DA710A7A447AC57A6240847A6C406240CA
:102C50001A72427A4C7A6240C47A05786C406240BB
:102C60005A72827AC47A457862400C786C4062402D
:102C70009A72C27A0478407889786240484042402B
:102C8000DA7270BD0A794479C579624084796C4002
:102C900062401A7142794C7985786240C4796C40FF
:102CA00062405A718279C479C57862408C796C40EF
:102CB00062409A71C279047940790979624048404A
:102CC0004240DA7170BD70B50C784578C6782C40FA
:102CD000857875406C401C704C78C57806782C401F
:102CE000457875406C405C7044788D78C6786C404F
:102CF000857835432C439C70C4784578CE786C40F9
:102D0000057875402C43DC70082A62D00C2A5FD10C
:102D10000A784478C578224084786C4062401A7002
:102D20004A78C4780579224044786C4062405A70F1
:102D300042788C784579624084782C4322439A709B
:102D4000C2784478CD78624044796C402243DA708E
:102D500042798479C57922400C796C4062401A71BD
:102D6000C279047A22404C796240447922435A71F4
:102D70008279C47922408C796240447A22439A71E4
:102D8000C279047ACD796240447A6C402243DA7188
:102D9000427A847AC57A22400C7A6C4062401A7278
:102DA000427A4C7A6240C47A05782C4022435A72A7
:102DB000827AC47A457822400C786C4062409A72DC
:102DC00002784478C07A8978224048404240DA72DA
:102DD00070BD42798479C57922400C796C4062409B
:102DE0001A71C279847822404C7962404479224336
:102DF0005A718279C47922408C796240C478224326
:102E00009A71C279047940788978624048400243D7
:102E1000DA7170BD70B50C784578C6782C4085782D
:102E200075406C401C708478C57806792C404D78CC
:102E300075406C405C70C478057946796C408D783B
:102E400035432C439C70CC78057986796C40457964
:102E500075402C43DC70082A60D00C2A5DD10A78BA
:102E60004478C578224084786C4062401A70827839
:102E7000C478057922404C786C4062405A70C27820
:102E80000479457962408C782C4322439A70CA7841
:102E900004798579624044796C402243DA704A793A
:102EA0008479C579224004796C4062401A71C279F4
:102EB000047A22408C796240447922435A718279A3
:102EC000CC79A243447A22439A71C2790C7A857AEA
:102ED0006240447A6C402243DA71427A8C7AC57A35
:102EE0002240047A6C4062401A72427A847A0578F1
:102EF0006240CC7A2C4022435A72827AC47A457856
:102F000022400C786C4062409A72027849780A40FC
:102F1000C17A807841404A40DA7270BD4A7984793A
:102F2000C579224004796C4062401A71C2790479F3
:102F300022408C796240447922435A718279CC795B
:102F4000A243C47822439A71C27909794A404179EF
:102F5000807941400A43DA7170BD70B50C784578CC
:102F6000C6782C408D7835406C401C708C78C578C4
:102F70000E792C40457875406C405C70CC780D79AA
:102F8000C6786C40857835432C439C70CD780478A6
:102F900086782C1B6E403443DC70082A60D00C2AE3
:102FA0005DD10A784478C57822408C782C40624004
:102FB0001A708A78C4780D79224044786C40624057
:102FC0005A70CA780C794579624084782C43224340
:102FD0009A70CA7804798D79121B44796C40224327
:102FE000DA7042798C79C57922400C796C40624064
:102FF0001A71C2790C7A22408C796240447922435A
:103000005A718279CC79A2434C7A22439A71CA7957
:10301000047A857A121B4C7A6C402243DA714A7A20
:10302000847ACD7A2240047A6C4062401A724A7ADD
:10303000847A05786240CC7A2C4022435A728A7A8C
:10304000C47A457822400C786C4062409A72C27A09
:103050000C784078121B024088784240DA7270BDCA
:1030600042798C79C57922400C796C4062401A71A2
:10307000C2790C7A22408C796240447922435A7199
:103080008279CC79A2434C7A22439A71CA79C47866
:10309000497A4079121B41400A43DA7170BD000041
:1030A00010B50549054805F023F803490448C03127
:1030B00005F01EF810BD00003FFF000000040048AE
:1030C0000014004810B5012002F012FB002002F0AD
:1030D0000FFB012004F028F9002004F025F901205D
:1030E00000F0E6FA002000F0E3FA10BD3EB500253E
:1030F000244C0095019502952178012903D00229DD
:1031000001D0092933D1002802D0207900282ED0FF
:10311000607900282BD1C82060711B48012927D075
:10312000022928D01849A0794968002827D01748D3
:10313000FFF722FCFFF79AFAE36BA26BFFF7AEF9F9
:10314000FFF7B6FA092269460A7008234B708A70A5
:103150002278CA700D714D718871000AC8711846C5
:1031600004F01EFD69460872092002F07FFA3EBD98
:103170008168074801E0C1680648006AD8E7012075
:10318000C007D5E7E0000020940E002001F4018084
:1031900048130020B014002070B5012409256402F2
:1031A000ED06A60000E0AC623146284601F004FAC4
:1031B0000028F8D0AC6170BD07480178002909D11A
:1031C00001210170FF212D31418001208002092160
:1031D000C9068862704700002A010020074801786C
:1031E000002909D041880A2906D800210170012050
:1031F00080020921C9068861704700002A01002069
:10320000FEB54DA103C9002700904D4C019140200F
:103210003E46A0623946052002F039F822210620F8
:1032200002F035F80521684601F0CAFF052269461B
:10323000002001F0B9FF04F0CBFF012002F05CFB9D
:103240004020A0613F4D00F00CFE3F4801F082FF9E
:10325000002824D03C494878CC2820D188780228FE
:103260001DD10F460522C91C3848FEF751FF3748CB
:10327000397AC01E817004F035FF06F085F9BB2055
:103280006870A87001272F49032004F097FC28706C
:10329000032068764020A062002002F02DFB2C481D
:1032A00041880029CFD1C821418004F091FF761CCC
:1032B000F6B20F2E14D2002FC5D0002002F01CFB56
:1032C000697E204801F086FF4020A062012005F0C1
:1032D000A9FE012002F010FB4020A0610A2EB2D30B
:1032E0004020A062012005F09DFEFF21E12001F0B9
:1032F000CEFFFF21072001F0CAFF144E0520F61E65
:10330000B17801F0C4FF2721062001F0C0FF05219C
:10331000F01C01F055FF0522F11C002001F044FFD4
:10332000012002F0E9FA4020A06100206876012027
:10333000084940038861FEBD020000000000000053
:1033400000040048480200208C010020FD070020F6
:10335000DA00002000080048F0B585B004461421CA
:103360006846FEF7EEFE192C00D318241C4B0720EC
:103370005978082900D3587009216A46117000262F
:1033800056709170D0705D78D0201649684340180F
:10339000E10041184F8917713F0A57710F7C9771EF
:1033A000D6710E7B16724E7B56728E7B9672C03033
:1033B000867CD672C67C16731B7953739473D5734F
:1033C000497C1174C07D50741146122004F0E8FB52
:1033D0006A4690746946132002F048F905B0F0BDC2
:1033E00058010020FA070020014600201B2242431A
:1033F0005218527E002A04D0401CC0B21B28F5D3BC
:10340000FF207047704710B500F014FC10BD10B5D8
:1034100003F090FA10BD000070B510480078022843
:103420001BD10F4DE878022817D12C462034E07BC1
:10343000022812D1A08A00280FD100F0E1F9012062
:1034400000F0DEF90020E8700649E07308600649E4
:103450000220087005490120C87070BDE0000020FE
:10346000F014002024010020E20000206801002068
:1034700070B526490978022937D100211E25244C30
:10348000012810D06034E07B00282ED0A27B002AD7
:103490002BD0607B002828D12046007B022A25D033
:1034A000012A28D030E04034E07800281DD0A278EE
:1034B000002A1AD06078002817D1154840300078CB
:1034C000022A02D0012A06D00EE0114AD28F904281
:1034D00009D2401C02E0052805D9401EC0B2207068
:1034E00005F00CF800E0A170657070BD6289904233
:1034F00009D2401C02E0052805D9401EC0B2207345
:1035000005F042F800E0A173657370BDE000002093
:10351000B0140020F8B5012823D1134FF878002803
:103520001FD0384640381149427E04460025104ECF
:10353000C9686034002A15D0FF2A12D1406A81423E
:103540000FD105F001F8B570F58035700220F870E4
:10355000E17B022901D0002903D17D21C900A1828C
:10356000E073F8BD006AEAE7F0140020940E002032
:103570000601002030B5012820D11249886A0028B0
:103580001CD008464030C078002817D00E488278FA
:10359000002A13D04D7E0D4902230C780246002DDF
:1035A000D288C968074D04D06D6A002C07D0AA18CC
:1035B00001E02D6AF9E78A4200D1037030BDAA1AF2
:1035C000F9E70000B014002006010020940E00204E
:1035D00070B5084D0A21A86AFEF784FD04460A2149
:1035E000686DFEF77FFD844201D9286170BD2C61B2
:1035F00070BD0000B014002070B51748002400789A
:10360000022823D1154A906A00281BD01449567EFF
:103610000023FF25C868002E02D0FF2E13D010E033
:10362000126A11E00D7000E00B700C48012440306C
:10363000C470087804F020FF012005F0B9F902F009
:10364000D7F9204670BD526A904201D1002070BD6A
:103650009042E9D9E6E70000E0000020B014002025
:10366000940E002070B501281BD10E48C0780028A8
:1036700017D10D488178002913D00A4D0B4E403DDB
:103680007168EA6991420CD100248470C48004708E
:1036900004F05AFF286AF0606C716C76012000F02B
:1036A000AFF870BDF014002006010020940E002039
:1036B00030B52349097802291DD1224A01281BD09F
:1036C000002818D110466030C07B002813D11E4856
:1036D0008378002B0FD0D26C002A0CD01B4A1B4BD6
:1036E0001578184A5B68946C0246D288002D22D067
:1036F000A2189A421DD230BD12484030C07800282E
:10370000F9D113488378002BF5D0126A002AF2D041
:10371000104A15780B4A002DD4690246D3880D4A09
:10372000526803D0E318934203D230BDE31A9342A8
:10373000FBD8017030BDA21A9A42FAD930BD000000
:10374000E0000020B01400200E0100202010002016
:1037500006010020940E002010B50279411C244C73
:10376000012A18D0022A25D0032A33D0062A3AD0BB
:10377000052A0FD11F49897900290BD1417961763A
:103780004179204640304171002000F039F8012095
:1037900000F036F810BD4879097900020843E0804E
:1037A000002000F0EBF8E0887D21C9004843124971
:1037B000886010BD48790979000208430F492081CB
:1037C000884201D9218103E0002801D10120208114
:1037D000002005E04879097900020843E0600120F3
:1037E00000F0CCF810BD4079207004F0DBFA10BD79
:1037F000B01400204813002068010020DE03000000
:1038000010B50D490978022914D1012812D10B48AD
:10381000437E426A016A0A48002B02D0914204D8D2
:1038200001E0914201D9FF2100E000210170C8B2FE
:1038300004F022FE10BD0000E0000020B0140020C3
:10384000940E0020F8B52148007802283CD1204C85
:103850007D25606D6D02FF260027002818D01D48C9
:10386000A16C42688A4213D08A4203D9511AA942F4
:1038700005D802E0891AA94201D9067000E0077054
:10388000007804F075FE002005F092F802F0B0F820
:10389000A06A002818D01048E2694168914213D00C
:1038A000914203D9891AA94205D802E0511AA942C6
:1038B00001D9067000E00770007804F0DDFD0120FA
:1038C00005F076F802F094F8F8BD0000E000002062
:1038D000B014002020100020940E00200A4900207F
:1038E00008700876403108710849887008700849E6
:1038F00088700870074908700749087002496031EC
:10390000C873887370470000B01400200E010020B7
:1039100006010020E20000202001002070B5124CBA
:10392000207E01281ED120464030C078002819D1C1
:1039300020466030C07B002814D10C4880780028D5
:1039400010D10B4D2869401C2861216B814209D898
:1039500004F0FAFD00202861064A20760221117049
:103960000549086070BD0000B01400200601002069
:1039700068010020E2000020F4000020F8B50028D3
:103980001FD0114CA76A002F1BD0E068FEF76EFE17
:1039900005460E463846FEF769FE2A463346FEF7D0
:1039A000E5FDFEF7B7FEA063FEF76EFE2063FEF7AF
:1039B00055FE0649FEF745FCFEF766FE3C21618395
:1039C000606100F071F8F8BDB0140020F4FD223FF2
:1039D000F8B5324C324D334E607001281FD00228AA
:1039E00027D1E968206AFEF7C7FF07463046C1685D
:1039F000E06CFEF7C1FF0646012001F02BFEFEF74A
:103A000057FEB84216D9012001F024FEFEF750FE01
:103A1000B0420FD900206070A062606539E068682C
:103A2000E0617068A0640120C0072062E860E06483
:103A3000F060F8BD03206070012001F00BFEFEF77E
:103A400037FEB84202D2E868A7626062012001F046
:103A500001FEFEF72DFEB04203D21248C068666533
:103A60002065B420E06001202081E080FF200B4928
:103A700060716076403148710120FFF7C1FE00207F
:103A8000FFF7BEFEFFF7A4FD0120FFF777FF00F070
:103A90000BF80121084602F0D7F8F8BDB014002059
:103AA000940E002020100020FEB50026214C009628
:103AB00001960296E088218940187D21C90048437B
:103AC0006169C83040182067E2685043451A7D217B
:103AD000C9002846FEF706FB002903D016492846F0
:103AE000FEF700FBE12107460901FEF7FBFAC5B22C
:103AF000E120000168433F1A25713C213846FEF75A
:103B0000F1FA0246E0703C205043381AA0700923B5
:103B100069460B7006244C708B70CE7008714A7128
:103B20008D71072004F03CF86946C871082001F047
:103B30009DFDFEBDB0140020E903000070B5324ABF
:103B40001278072A36D1314E0C2812D00D2831D1E7
:103B50002F4D6878082800D36A706878D0225043C7
:103B60008019C030827D192A01D3182282750C4633
:103B70002BE0284D287A082800D32A720C460AE048
:103B8000D020604380190146D8310830D022FEF79A
:103B9000BFFA641CE4B2287AA042F1D8D020444392
:103BA000A0190830D021FEF7CCFA287A002801D0DD
:103BB000401E287270BDE1004018014612310A30E3
:103BC0000822FEF7A5FA641CE4B26878D0214843C5
:103BD0008019D621095CA142EDD86978C030D02285
:103BE000807D51438919C00008180A300821FEF76A
:103BF000A8FA6878D02148438119C031887D00280F
:103C0000D8D0401E887570BDE0000020FA07002063
:103C1000580100207A0E002010B504F0E9FC02F0F3
:103C2000E5FD00F013FE03F035FE04F0F3FE04F0B2
:103C30007DFA10BD10B5084C0221204600F0A4FB0F
:103C400020206060102060600221204600F090FB80
:103C500001F0D4FE10BD00000000024038B5264837
:103C6000012142690A4342614069244C08402549C8
:103C70000090CB7F2148224A08341A511F4BCC7F39
:103C8000214A0C33E2500124CB7F021D9D582D0C9C
:103C90002D0425439D50CA7F83581C4C23408350DC
:103CA000CB7FC25803242403A243C250CB7FC25807
:103CB0004024A243C250CC7F025980239A431A4326
:103CC0000251CB7F8415C25803252D02AA432243FB
:103CD000C250CA7F04158358AD00AB4323438350C1
:103CE000CC7F025920239A431A430251C97F42587C
:103CF00001231A43425038BD001002400000024028
:103D0000402401409996000840010020EFBFFFFFCA
:103D100010B5054C802061690140802901D104F073
:103D200057FE8020606110BD0004014008B50120ED
:103D300004F004F90B490020487008700A4801217A
:103D4000C26909070A43C261C069084001210090A5
:103D5000084600F05FFA02F077FC002004F0EEF86D
:103D600008BD00008001002000100240F0B50B27C4
:103D700006463F04384600F063F8042813D10A4C85
:103D8000206902252843206166612069402108439B
:103D9000206100BF00BF00BF00BF384600F050F8F0
:103DA0002169A9432161F0BD002002400849042097
:103DB000CA68D20701D001207047CA68D20601D56F
:103DC00002207047C9684907FBD5032070470000EF
:103DD00000200240024801698022114301617047BE
:103DE00000200240F0B50B2706463F040D4638463A
:103DF00000F026F8042810D1084C2069012108435E
:103E00002061358000BF00BF00BF00BF384600F012
:103E100017F82169490849002161F0BD00200240DE
:103E200004480169090603D503494160034941601B
:103E3000704700000020024023016745AB89EFCDA9
:103E400000B50346FFF7B2FF02E0FFF7AFFF5B1ECE
:103E5000012803D0002B00D1052000BD002BF4D198
:103E6000FAE7704770B51B4CA1792046C07902294A
:103E70002BD0002928D1022826D10025A571E57173
:103E80002079002820D06078082801D307206070AE
:103E9000C0B2D0214843104940181049C030808A30
:103EA0000968884210D904220DA1022002F084FB87
:103EB000FF200D4901308861FFF77EF90B4805218D
:103EC00001760B480560657170BD0228D5D00028C9
:103ED000D3D070BD58010020FA0700202401002033
:103EE000464646460000000000040048E80E002058
:103EF000F400002000B587B00091002101910291EB
:103F000003910491694600F003FB07B000BD00B5C2
:103F100087B0009100210122029103910192049245
:103F2000694600F0F5FA07B000BD0000F8B5054697
:103F30000078902826D16878002814D1E8780128E4
:103F400021D0022823D0042825D0062827D00728EE
:103F500029D0032816D1287901282FD0022811D181
:103F6000687901F0ABFE69780F22874E00248748FC
:103F7000042928D0062950D009296FD00B2901D156
:103F800000F092FEF8BD824802F016FFEBE7804891
:103F9000FFF7E2FBE7E77E4802F0C6FAE3E77C487A
:103FA00002F0C2F8DFE728790128EBD1687903280D
:103FB000E8D87849487204F095F8D4E7A979687987
:103FC00001F09AFECFE7A9780929DBD1E978012928
:103FD000D8D105460078002800D12A7001F06CFD88
:103FE0002878022801D1FFF75FFD28780928C9D178
:103FF0007168C007814201D1AC7101E03178A971CB
:1040000065494A68824201D1EC7101E00878E871A3
:104010006C710020FFF76AF8F8BDE9785F4F01295D
:104020001DD05F4D02292FD0042947D005295AD031
:1040300006295CD003295ED007295ED0082966D006
:1040400009296CD00A29E7D1092101700546012010
:104050007168C007814277D1AC7177E089E001785F
:104060000129D9D00121017001F026FD4B487C7057
:104070003C74A0300477012005F048F8002005F0DA
:1040800045F803F0A9F8F8BD017802290ED0022105
:10409000017043486C716C76403044710120FFF729
:1040A000AFFB0020FFF7ACFBFFF7CCFB01F004FDFA
:1040B00068780028E7D0FFF7F7FCF8BD032101700E
:1040C00004F077FA04F040FA04F09CFE03F0BEF925
:1040D000FFF704FC04F0D4FC05F056FA2B4820301E
:1040E00044710471F8BD2A4802F01EFAF8BD284850
:1040F00005F0AAF8F8BD0270F8BD01780729FBD0D9
:104100000721017001F030FB01F0D6FCF8BD017809
:104110000429FBD00421017001F026FBF8BD0078D2
:10412000012807D00228F9D16C70AC626C65EC6193
:10413000AC64F8BD1948BC62C0301A4944610C75C2
:104140004460BC61F8BDFFE73178A97112494A6843
:10415000824201D1EC7101E00878E87100F004FCC2
:1041600001F0AAFC012028716C71FEF7BFFF2C71D1
:10417000E8E704F07DFD03F00DFE05F059F803F0CB
:10418000B1FF05F001FADDE7940E0020E000002009
:10419000A50100207A0E00202010002048130020E6
:1041A000B01400200810002003498888002801D09E
:1041B000401E888070470000C60000200A48017831
:1041C00000290FD0C178094B491CCAB2012149020C
:1041D000C270022A01D2996100E09962142A01D1C9
:1041E0000021C17070470000C60000200004004894
:1041F0000649002802D0012008707047002008708E
:10420000012003494002886270470000C600002078
:10421000000400480A4B1A689208920002431A6090
:1042200008480369042213430361012906D040BFF3
:1042300020BF20BF016991430161704730BFF9E79A
:104240000070004000ED00E070B50E49002001252F
:104250004A68ED070C4C0346AA4210D00B48FF25D4
:10426000824201D20D7002E0824200D90B700878C0
:1042700004F002F901F032FE6577012070BD63772A
:1042800070BD0000940E0020280F002000FA00806E
:10429000FEE7000010B5134C607F00280BD01248D9
:1042A00001214068C907884206D104F04DF9002079
:1042B000607704F0EBFC10BD0A4A803A126D531887
:1042C00009499842097805D1FF29F4D1022004F068
:1042D000ABFB10BD054B9A1A9042FAD10029F5D0DC
:1042E00010BD0000280F0020940E002001F4018072
:1042F00010B5074C0A2060700648008C04F0FEF8E8
:104300000120607104F06CFB04F00CF910BD00009A
:1043100035010020A80E002010B501210920090355
:10432000C006FFF7E7FD10BD08B504494A6902431E
:104330004A6149690140009108BD00000010024037
:1043400008B504494A6902434A614969014000913C
:1043500008BD00000010024008B50449CA690243C4
:10436000CA61C9690140009108BD00000010024007
:10437000044A51182039C97F42585208520042500D
:10438000704700009E960008044A51182039C97FE2
:10439000425802239A434250704700009E960008FC
:1043A000044A51182039C97F425801231A43425008
:1043B000704700009E960008044A51182039C97FB2
:1043C000425802231A434250704700009E9600084C
:1043D000034A51182039C97F001D085880B2704720
:1043E0009E960008054B10B559182039C97F4358CF
:1043F00003242403A3431343435010BD9E96000897
:10440000054B59182039C97F001D0B581B0C1B0484
:1044100013430B50704700009E960008054B10B5E3
:1044200059182039C97F4358034C23401343435044
:1044300010BD00009E960008EFBFFFFF034B591808
:104440002039C97F0C300A50704700009E96000842
:10445000054B10B559182039C97F43588024A34310
:104460001343435010BD00009E960008054B10B545
:1044700059182039C97F43580324A402A343134386
:10448000435010BD9E960008054B10B559182039B1
:10449000C97F43582024A3431343435010BD000059
:1044A0009E960008034B59182039C97F08300A50DE
:1044B000704700009E960008054B10B5591820392A
:1044C000C97F43584024A3431343435010BD000009
:1044D0009E960008054B10B559182039C97F4358DE
:1044E00003242402A3431343435010BD9E960008A7
:1044F0000249CA680243CA607047000000040140D4
:1045000002490A6802430A60704700000004014043
:10451000F0B500243EE001232A46A3401A4038D0DB
:104520004F680668134653435D005D19AE435F4311
:104530003E4306604E68012E01D0022E05D18F68E1
:1045400086685F43AE433E4386600F69C668AE43EC
:104550001D467D432E43C6604D68022D19D1FF2AAA
:104560000AD84E69056A534353431A01D21A954338
:1045700073431D4305620CE0130A1A465A435A431B
:104580005A4313019E1A4D69436A6A43B343134366
:104590004362641C0A681546E240BCD14A68012A9D
:1045A00001D0022A06D1CB6841682A4691435A437A
:1045B000114341600120F0BD0069814301D000201A
:1045C0007047012070470069814301D00020704787
:1045D0000120704710B57D21C900FDF783FD044916
:1045E000401E4861002088610520086110BD000060
:1045F00000E000E010B5044601F0F0F8206001F0A2
:10460000D3F8606001F0DEF8A06010BD014610B57F
:10461000002000290FD110490A6B9207920F012A3E
:104620000AD0022A11D0032A09D001F0D7F801F0EC
:10463000BBF801F0C7F810BD01F0D0F810BD096853
:104640008907C90FFAD0054810BD096A8907C90F43
:10465000FAD00120C00310BD0010024000127A0001
:104660000A06930D054A10B59B189A68090C0F2489
:104670008C40A243884002439A6010BD0000014074
:10468000F0B50268194B1A4C984201D0A04203D1F0
:104690007025AA434D682A43164D174E174F98426E
:1046A0000AD0A04208D0164CA04205D0A84203D0A0
:1046B000B04201D0B84204D103242402A243CC6802
:1046C000224302608A68C2620A888262984205D0E8
:1046D000A84203D0B04201D0B84201D1097C0163A5
:1046E00041690122114341611046F0BD002C014097
:1046F00000040040004001400044014000480140E7
:104700000020004001290AD004290AD010290AD02B
:1047100040290AD0CA1FF93A09D104210EE000212C
:104720000CE001210AE0022108E0032106E0012259
:104730009202914201D1052100E00621064A18307B
:10474000525C054B1018DB1D5B5C08210268994028
:104750000A4302607047000090960008034610B5B7
:10476000002001290DD0102910D0FF39013912D0B5
:104770000F242402091B03D11146184600F030FF14
:1047800010BD1146184600F051FE10BD11461846E6
:1047900000F092FE10BD1146184600F0D5FE10BD87
:1047A000FEB5044600680D460026C007C00F43D181
:1047B000E9686868AA6908432969114308432168C0
:1047C0001E4A114008432060A96860680322120352
:1047D0009043084360606969A068121190430843E0
:1047E000A0601748844203D10020FFF70FFF06E0C6
:1047F0001448844220D16846FFF7FCFE0298002846
:104800001AD02968002917D00126AA69F3039A4211
:104810000CD140004A088018FDF764FC81B20A48B8
:1048200008400907490F0143E16005E04A081018F4
:10483000FDF758FC80B2E0603046FEBDF369FFFF33
:104840000038014000440040F0FF000070B5012135
:1048500049020648FFF75BFB0125054C6D0329461D
:104860002046FFF754FBA56270BD0000000400481D
:104870000008004810B5002204E09300C458521C00
:1048800024BAC4508A42F8D310BD0000F0B595B0E8
:104890000220FFF761FD0021102000F051FD0125ED
:1048A000284928040860FF20F53069460880002662
:1048B000254C0290019603962046FFF7E1FE206802
:1048C00080210843206049012046FFF71BFF70202C
:1048D00005A961C1FA2008900220C102099005AA29
:1048E0002046FFF73BFF1948174980791831174ACE
:1048F0004018D21D927904273B46016893409943A2
:104900000160A1142046FFF7FDFE206880210843C6
:104910002060606C0902084360642068B843384333
:104920002060E0682843E06002200D900E90032094
:104930000F9011950DA9109612950548FFF7E8FD07
:1049400015B0F0BD00E100E00004004090960008C2
:104950000004004810B5E120400202F0B9F802F06E
:1049600021F802F06BF810BDF8B5FF25693528462F
:1049700000F070FE02460B4600203749FDF7F6FDB9
:10498000FDF7C8FEFDF7B2FE344E00223346FDF7B8
:1049900085FD334F00223B46FDF7E8FD0022314BF9
:1049A000FDF76DFDFDF784FE2F4CE070284600F00A
:1049B00051FE02460B4600202C49FDF7D7FDFDF7BE
:1049C000A9FEFDF793FE00223346FDF767FD0022A6
:1049D0003B46FDF7CBFD0022224BFDF750FDFDF7D6
:1049E00067FEA070284600F035FE02460B46002008
:1049F0001F49FDF7BBFDFDF78DFEFDF777FE002299
:104A00003346FDF74BFD00223B46FDF7AFFD00228C
:104A1000144BFDF734FDFDF74BFE6070284600F0A7
:104A200019FE02460B4600201249FDF79FFDFDF7D7
:104A300071FEFDF75BFE00223346FDF72FFD0022DD
:104A40003B46FDF793FD0022064BFDF718FDFDF7F1
:104A50002FFE2070F8BD000000D4B7400070E74082
:104A600000507F400000F03FEC000020009BD4404D
:104A700080A0E14080F3E84000220B49FF23012899
:104A800007D0002804D109480078002809D0CB714C
:104A9000704707480078002801D08B7170478A71F1
:104AA0007047CA7170470000E0000020201000200D
:104AB000940E002070B5234D2A78092A05D00F2ABC
:104AC00003D0012A01D0022A3AD11E4920314B7964
:104AD000002B35D0C878002832D1092A09D0052604
:104AE0001848002420304078012B0BD0022B13D023
:104AF00023E01548407A441E042C21D2114C0B347B
:104B0000065DEDE7B04205D9401EC0B2487003F023
:104B1000F5FC12E04C7110E0782805D2401CC0B2C0
:104B2000487003F0EBFC05E04C71092A01D103F059
:104B30000BFD6C710020FEF7D9FA012003F05AFC3E
:104B400070BD0000E00000207A0E002070B5234DFB
:104B50002A78092A05D00F2A03D0012A01D0022A77
:104B60003AD11E4920310B79002B35D088780028A6
:104B700032D1092A09D005261848002420300078AF
:104B8000012B0BD0022B13D023E01548407A441E92
:104B9000042C21D2114C0B34065DEDE7B04205D94F
:104BA000401EC0B2087003F0EFFC12E00C7110E080
:104BB000782805D2401CC0B2087003F0E5FC05E07F
:104BC0000C71092A01D103F0F4FC6C710020FEF78E
:104BD0008DFA002003F00EFC70BD0000E000002004
:104BE0007A0E00200A490A78092A08D1D207022839
:104BF00006D008484368934201D100788871704715
:104C0000054843689342FAD10078C87170470000A4
:104C1000E0000020940E00202010002000B507487E
:104C20000078092808D1064801214068C907884250
:104C300002D10120FFF720FF00BD0000E0000020AE
:104C4000940E0020F8B5174A164C0025012378264B
:104C5000022712782034012809D0002919D02670A3
:104C60003046237103F090FC03F0A2FCF8BD00294C
:104C700007D066703046637103F040FC03F052FCCD
:104C8000F8BD092A03D003F05FFC6571F8BD6771B8
:104C9000F8BD092A03D003F08CFC2571F8BD2771FB
:104CA000F8BD0000E000002070B51648184A0178F1
:104CB0000023154C154D04261078052906D0062929
:104CC00012D007291AD0FEF777FA70BD022803D058
:104CD000012801D0FEF770FAA07A0CE010780328C2
:104CE000F3D12B60167070BD022803D0012801D0CB
:104CF000FEF762FAE07AFF28F0D070BD01F09CF96F
:104D000070BD0000E0000020A80E0020F40000208C
:104D1000E2000020F0B504468DB0401CFDF7A6FC73
:104D2000404D00222B46FDF7B9FB3F4E0022334693
:104D3000FDF71CFC089007912046FDF797FC002228
:104D40002B46FDF7ABFB00223346FDF70FFC059128
:104D5000069037493548C97B0991427B3C235A4329
:104D6000837BE12424016343007BD218304C161866
:104D70007D20A56AC00080344643278A002903D0DD
:104D80006069361A78002D1A059B069A07990898CB
:104D9000FDF775FB089001912846FDF767FC059B20
:104DA000069AFDF77BFB05910A903046FDF75EFC05
:104DB000059B0A9AFDF763FB019B089AFDF7D6FB5A
:104DC000FDF776FC7D21C900691A884200D30020D6
:104DD0001749099E0A6A00230125496A002E0AD054
:104DE000002816D065638A4215D9121AD21BC91938
:104DF000E26208180AE000280BD065638A4202D9F3
:104E0000121AE262F5E71218081AE26220630DB086
:104E1000F0BD6363FBE7D2191218081AC01BE262E7
:104E2000F4E7000000507F400070E74008100020C9
:104E300048130020F8B5274DAE6A002E48D026480A
:104E40003C22417BE1235143827B1B015A43007B7F
:104E500089180F187D20C0004743204C3046FDF7CD
:104E6000FDFB2146FDF7EDF9FDF70EFC2C468034E5
:104E7000874217D8FF20E87305260121304602F04B
:104E8000F3FDB84203D9E661782E04D205E0761C22
:104E9000B6B2782EF1D37820E061207F012102F0B4
:104EA00083FB06E03146384601F0BCFCE06100209F
:104EB000E873208AA96A4000814205D2384601F091
:104EC000B1FCE0610020E873A08B80B2FFF722FF05
:104ED000F8BD00004813002008100020F0A7A13FF3
:104EE000F0B504468DB0401CFDF7C0FB434D0022D9
:104EF0002B46FDF7D3FA424E00223346FDF736FB30
:104F0000089007912046FDF7B1FB00222B46FDF7E4
:104F1000C5FA00223346FDF729FB059106903A4970
:104F20003848C97E0991427B3C235A43837BE12464
:104F300024016343007BD21816187D20C000324C38
:104F40004643A03CD4200559FF203D30075BFF3489
:104F50004134002903D02068361A78002D1A059BA9
:104F6000069A07990898FDF78AFA08900191284651
:104F7000FDF77CFB059B069AFDF790FA05910A90D8
:104F80003046FDF773FB059B0A9AFDF778FA019B03
:104F9000089AFDF7EBFAFDF78BFB7D21C900691A32
:104FA000884200D300201849099E2031CA68002396
:104FB00001250969002E0AD0002816D025628A42F0
:104FC00015D9121AD21BC919A26108180AE00028C3
:104FD0000BD025628A4202D9121AA261F5E7121893
:104FE000081AA261E0610DB0F0BD2362FBE7D2199F
:104FF0001218081AC01BA261F4E7000000507F409D
:105000000070E74008100020E8130020F8B52B4896
:1050100000904669002E4FD029483C22417BE12375
:105020005143827B1B015A43007B89180F187D2056
:10503000C0004743234C3046FDF710FB2146FDF7E7
:1050400000F9FDF721FB1D4CC03C2546FF34A0357F
:105050004134874217D8FF20E876052600213046E4
:1050600002F002FDB84203D9A660782E04D205E012
:10507000761CB6B2782EF1D37820A060207A002179
:1050800002F092FA06E03146384601F0CBFBA06010
:105090000020E8760098416908486030808B400025
:1050A000814205D2384601F0BDFBA0600020E876C1
:1050B000208980B2FFF714FFF8BD0000081400201B
:1050C00008100020F0A7A13F7047F8B570210840F4
:1050D000074600F034F80125ED030926F6060446DC
:1050E000B562272002F0F4FE3846204302F0F0FEBD
:1050F000B56100F024F8F8BDF7B501250927ED03E7
:10510000FF061646BD6202F0E3FE002406E0FF2023
:1051100002F0DEFE01990855641CE4B2B442F6D3F5
:10512000BD61FEBD70B501240925E403ED06AC6246
:1051300002F0CEFEFF2002F0CBFEAC6170BD70B578
:105140000124E4030925ED06AC62072002F0C0FE4D
:10515000AC6170BD70B50546012109200903C00688
:10516000FFF731FA00281BD10E4940208862072042
:10517000FFF7D8FF04460146072000F088F86006D4
:105180000ED56020FFF7CEFF044602462946612077
:10519000FFF7B2FFFF21E22000F079F8204670BD52
:1051A000002070BD0004004810B5052A00D9052272
:1051B000052800D905200A30C0B200F051F810BD12
:1051C00010B5052900D905210A460146102000F036
:1051D00047F810BDF3B501260024F603092581B078
:1051E000ED060F46AE62E12002F072FEAE611A4E8D
:1051F0004020B0623A46A020019900F031F84020EA
:10520000B061164E87010BE0FEF72BFE0720FFF77B
:1052100089FFC0060AD42046641CA4B2B04205D05F
:1052200039462846FFF7CFF90028EDD10720FFF7D0
:1052300079FF04460146072000F029F8E00605D56D
:10524000FF21E12000F023F81020FEBDA00601D5CB
:105250002020FEBDFF20FEBD00040048FFFF00002F
:10526000F7B50125ED030927FF061646BD6220218B
:10527000084302F02DFE002405E00198005D02F0D5
:1052800027FE641CE4B2B442F7D3BD61FEBD70B525
:105290000124E4030925ED060E46AC6220210843F3
:1052A00002F016FE304602F013FEAC6170BD000045
:1052B000F0B585B014A103C9009000200126760343
:1052C000019102906C4602AD37110390FEF7C9FDC3
:1052D000052269461020FFF7C3FF052202A910200E
:1052E000FFF70AFF0020215C2A5C914203D1401C99
:1052F000C0B20528F7D3052804D0054886610548C3
:105300008762E3E705B0F0BDA5A5A5A5A50000004F
:105310000008004800040048C106C90E012088406A
:10532000014908607047000000E100E0C106C90EB5
:1053300001208840014908607047000000E100E05A
:105340008307FF22DB0E9A408907090E9940002847
:105350000BDA0007000F0838830808489B001B1869
:10536000D86990430843D8617047830804489B007C
:105370001B181868904308431860704700ED00E060
:1053800000E400E08307FF22DB0E9A408907090E44
:10539000994000280BDA0007000F083883080848F6
:1053A0009B001B18D86990430843D8617047830855
:1053B00004489B001B181868904308431860704706
:1053C00000ED00E000E400E08307FF22DB0E9A40DE
:1053D0008907090E994000280BDA0007000F0838EA
:1053E000830808489B001B18D86990430843D8617C
:1053F0007047830804489B001B18186890430843B3
:105400001860704700ED00E000E400E010B500F027
:1054100015FAFFF74DFF00F02DFA012000F06CFAAD
:1054200001494020886110BD0004004830B5026A7F
:10543000520852000262026A436884697025A40817
:10544000A400AC430D682C430225AA430D692A43EE
:1054500052084D6852002A43134DA84208D0134DFC
:10546000A84205D0124DA84202D0124DA84214D134
:105470000825AA434D69AD002A430425AA438D6837
:10548000AD002A43FF250135AB438D692B43012530
:105490006D02AB43CD696D002B4343608461C968E5
:1054A00041630262012030BD002C014000400140F8
:1054B000004401400048014070B5026A1025AA432B
:1054C0000262026A4368846973263602B4430E6836
:1054D000360234432026B2430E6936013243AA43D2
:1054E0004D682D012A43144DA84208D0134DA842FF
:1054F00005D0134DA84202D0124DA84215D18025E7
:10550000AA434D69AD012A434025AA438D68AD01E8
:105510002A430125AD02AB438D69AD002B43012524
:10552000ED02AB43CD69ED002B4343608461C96854
:1055300081630262012070BD002C014000400140E7
:10554000004401400048014070B5026AFF25013562
:10555000AA430262026A4368C4697026A408A400D0
:10556000B4430E6834436E00B2430E6936023243D0
:10557000AA434D682D022A43154DA84208D0154D67
:10558000A84205D0144DA84202D0144DA84217D10C
:105590000125ED02AA434D69AD022A430125AD0262
:1055A000AA438D68AD022A4301252D03AB438D69C3
:1055B0002D012B4301256D03AB43CD696D012B43B9
:1055C0004360C461C968C1630262012070BD00000C
:1055D000002C0140004001400044014000480140CF
:1055E00070B5026A01252D03AA430262026A44686B
:1055F000C36973263602B3430E68360233436E0026
:10560000B2430E6936033243AA434D682D032A4341
:105610000C4DA84208D00C4DA84205D00B4DA84215
:1056200002D00B4DA84205D10125AD03AC438D69D5
:10563000AD012C434460C361C9680164026201206A
:1056400070BD0000002C01400040014000440140BA
:105650000048014010B5FDF709F8034B9A6BDB6B6E
:10566000FCF784FF10BD0000E000002070B5054687
:105670000B460948FDF7B8FEFF280BD01B21484315
:1056800005492A46441819462046FCF741FD65762F
:1056900001F04AF970BD0000210500200349488847
:1056A000002801D0401E488070470000DA0000202A
:1056B00070B5012817D10C4CA078002813D00B48E6
:1056C000012102780025C9074068002A01D0FF2A7D
:1056D00009D1884207D102F037FFA5702570E58017
:1056E000002000F093FA70BD06010020940E002007
:1056F00070B517490978042905D0052903D0062972
:1057000001D0072914D10221124C8D07012810D095
:1057100000280DD110488278002A09D00F4A167847
:1057200053680246D288002E0CD0521993420CD9ED
:1057300070BD0B488278002AFAD00A4A167853685E
:105740000246EFE7A21A9342F2D3017070BD000047
:10575000E000002001F401800E0100202010002054
:1057600006010020940E002010B50C48012241686B
:10577000D207914211D00A4A914201D2FF2102E0A0
:10578000914201D900210170007802F075FE0120DC
:1057900003F00EF9012000F039FA10BD940E00203C
:1057A00000FA00807047000004494968F022114067
:1057B000034A0909515CC8407047000000100240CC
:1057C0007896000803494968034A4905490F515C26
:1057D000C8407047001002408896000810B506487F
:1057E00041680C200140054805D0042903D0082950
:1057F00001D100F005F810BD0010024000127A003F
:1058000010B50C4C6168012212040B48114002D003
:10581000891A00D14000E16A0907090F491CFCF709
:1058200061FC61680F2292041140890C891C484375
:1058300010BD00000010024000093D0010B50C4CE6
:1058400008212046FEF763FB20212046FEF75FFB80
:1058500010212046FEF74EFBFEF75EFD0920610198
:10586000C006FEF754FB40212046FEF750FB10BD5A
:105870000004004810B51E4C4020A0617020FFF7C6
:1058800024FC01211C20FFF702FD04211D20FFF74D
:10589000FEFC1C20FFF746FC1D20FFF743FC4020C8
:1058A000A0620A210020FFF7F2FC01210846FFF761
:1058B000EEFC01210220FFF7EAFC03210846FFF776
:1058C000E6FCFF210420FFF7E2FC0A4C0520A1784A
:1058D000FFF7DDFC27210620FFF7D9FC0521E01C9E
:1058E000FFF76EFC0522E11C0020FFF75DFC10BDF8
:1058F00000040048FA07002010B504460020FFF716
:1059000011FC0146002C02D0012C03D004E0410818
:10591000490001E0012001430020FFF7B8FC10BD61
:105920000548C16880221140FF398239C1600349AE
:1059300090024861704700000028004000040140C8
:10594000F8B507460020194D01242865AF81661C73
:10595000304660434008C01980B2CB2802D9641E8B
:105960002C701DE0610049198881401CFCF776FE0F
:105970000F49FCF766FC0F49FCF7A0FC01460E48F6
:10598000FCF79CFC0090286DFCF768FE0099FCF782
:10599000FFFBFCF779FE28652C70F4B20E2CD6D3F1
:1059A00028783C21401E48436865F8BDA80E0020B9
:1059B0000080FA4300803B47000070421FB5002181
:1059C00000910191029103910278782A0FD14078D9
:1059D00080280CD1684602708022427001228270B9
:1059E000C170027105226946022000F0E5FD1FBD6D
:1059F00010B50020FEF7FCFB10BD0000024800219E
:105A00004176322181837047EC01002070B5264930
:105A10000978052901D0062931D1244900220B78C3
:105A2000234C01280CD02579002D28D0A0780028FF
:105A300025D120460078022D22D0012D24D02FE040
:105A40006579002D1BD0E078002818D11848022D68
:105A5000407802D0012D04D00FE098420CD2401CB7
:105A600002E0002808D0401EC0B26070400040181C
:105A7000808902F043FD00E0627102F0B1FF70BD69
:105A800098420CD2401C02E0002808D0401EC0B250
:105A9000207040004018808902F076FD00E02271FD
:105AA0003C20A07070BD0000E0000020A80E002087
:105AB0003501002070470000F0B585B0142168461C
:105AC000FCF73FFB09216A46117000205070052148
:105AD0009170474903460978D17001291CD00229E9
:105AE0002DD00F2946D0032944D0414B414ADF78BD
:105AF0009379D68F9C46938FDDB21C0AF3B2360A97
:105B0000052939D0062941D0042952D03A4A07291B
:105B100057D009295ED066E038486946027B0A7191
:105B2000427B4A71827B8A71354AD478CC71147C6D
:105B30000C72007D48728B729079C87232E03148E5
:105B40006946C2880A71120A4A7102898A71120A68
:105B5000CA7182890A72120A4A7202788A7242787B
:105B6000CA72407E08730D2002F01AF86946487325
:105B70000E2038E011461DE0107A694608714F7119
:105B800060468871CD710C72907A08E0507A69464F
:105B900008714F7160468871CD710C72D07A48726D
:105BA0008B72CE720C2001F0FBFF694608730D204A
:105BB00019E06946042001F0F3FF694608710520E9
:105BC00011E0107A10490828087001D307200870E6
:105BD00005B0F0BD507A69460871052001F0E0FF7C
:105BE0006946487106206946FFF740FDF0E700006E
:105BF000E0000020A80E00207A0E002008100020EF
:105C000048130020B0140020580100201CB50021CA
:105C10000091019109216A4611700123537091701E
:105C20000221D17010710748694600785071062032
:105C300001F0B6FF6A46907169460720FFF716FD2E
:105C40001CBD0000E000002030B585B00C460546C4
:105C500014216846FCF775FA092269460A70052284
:105C60004D7000208A70CC70012D0ED1012C0CD10A
:105C70000948007801280CD00848407808710520B0
:105C800001F08EFF694648710620FFF7EFFC05B072
:105C900030BD0348007DF1E7E0000020B014002093
:105CA000081000200148012101737047DE01002027
:105CB00001484169C16070473C01002010B50B4AA2
:105CC00011780F2906D001290DD0022901D1FDF745
:105CD0007FFE10BD01200649C007486005494860A5
:105CE0000320107010BD01F0B5F910BDE0000020D8
:105CF000940E002020100020F8B502460020FF235B
:105D0000484C494D494F0646012A1BD0022A1DD056
:105D1000032A20D0042A22D000296CD03B716421B0
:105D200079714249424E0B784349424F0A7D4349BB
:105D30000128497818D002283AD1012B39D0022BFA
:105D40003DD04CE000295BD0237002E0002957D001
:105D500026700120E2E7002955D02E7002E00029CC
:105D600051D02B700220D9E7012B02D0022B06D094
:105D700015E0002A13D0032A11D2A16804E00029FB
:105D80000DD003290BD2E168B14203D32178002959
:105D90000ED004E0B94202D82178FF2908D0FEF7DE
:105DA00021FF207802F068FBFF210120FEF74AFF67
:105DB000F8BD002A13D0032A11D2A96804E00029F3
:105DC0000DD003290BD2E968B14203D32978002909
:105DD000EED004E0B94202D82978FF29E8D0FEF7D6
:105DE00001FF287802F0C4FBFF210020FEF72AFF04
:105DF00002F0DEFBF8BD012802D0022803D006E045
:105E00000021012001E000210846FEF71BFF387841
:105E10007E71092803D00120FDF768F93E713E71BB
:105E2000F8BD0000940E002020100020E0000020AB
:105E300001F40180FA0CFE7F08100020B01400204D
:105E400070B514480078072823D1134A1478002C21
:105E50001FD01248008800281BD112480025104B83
:105E60000188022C02D0012C05D010E01C788C4255
:105E70000CD9491C02E0002908D0491E89B20180D2
:105E80004800C018808902F039FB00E0157002F06C
:105E9000A7FD70BDE0000020E1000020EA00002026
:105EA000A80E00202201002010B509480C2180789E
:105EB0004843084909580848026D806C891A814294
:105EC00004D1022002F0B0FD02F08AFD10BD0000F6
:105ED000580100201C120020A80E002010B509490E
:105EE000012008720849072008800848408B02F00A
:105EF00005FB012002F098FD02F072FD02F012FB9A
:105F000010BD00005801002022010020A80E002032
:105F100070B5084801254572074C072020722046BD
:105F20000E30C08902F030FB657200F03BF802F0E1
:105F30003FFB70BD58010020080F002070B51648C7
:105F40000078072826D11548447A002C22D0817A7F
:105F500000291FD10346603B68210022104DC95C17
:105F6000022C02D0012C05D012E0C47AA1420DD23D
:105F7000491C02E0002909D0491EC9B2017248003B
:105F8000C0186030C08902F0FFFA01E042726A7204
:105F900000F008F870BD0000E0000020080F0020AD
:105FA000580100200148502181727047080F0020DD
:105FB000F8B51E4C00276078082801D307206070D0
:105FC000C0B2D0211A4E48438019C030817D1929B2
:105FD00001D318218175002509E0E9004018007DF2
:105FE0006D1CC01987B2E8B202F08CFEEDB2607889
:105FF000D02148438019D621095CA942EDD86178A7
:10600000D02251438919C0318F820A497D23CF8024
:10601000A278DB00D2008018427B5A43CA65827B9B
:106020005A434A66407C58430866F8BD5801002030
:10603000FA070020A80E002010B510484178082962
:1060400001D307214170C8B2D02148430C490D4CFF
:106050004018C030C07C002807D0FDF7ADF8042000
:10606000207609490020086010BD207E0128FBD061
:106070000228F9D0FDF7A0F810BD0000580100205B
:10608000FA070020E80E0020F4000020F3B50746D0
:106090000020204D81B02865AF810124661C304668
:1060A00060434008C01980B2AA2802D9641E2C702F
:1060B0001DE0610049198881401CFCF7CFFA1649A0
:1060C000FCF7BFF81549FCF7F9F801461448FCF74E
:1060D000F5F80090286DFCF7C1FA0099FCF758F824
:1060E000FCF7D2FA28652C70F4B2142CD6D3287899
:1060F0001E21401E4843686502980C214843094907
:106100000858296D4900884201D20020FEBD0120B7
:10611000FEBD0000A80E00200080FA4300803B472F
:106120000000F0411C12002070B5614D0446C27998
:1061300068780726082800D36E702079631C5D49B3
:10614000012823D002282DD0032837D0042841D09D
:10615000052848D0062851D0072859D008285FD0F4
:10616000092864D00A287FD00B287AD00C2879D04F
:106170000D2877D00E2876D00F281ED16878D0232E
:10618000584340186279C030C27534E058791B79A1
:10619000000218436B78D02463435918D300C91800
:1061A000488113E058791B79000218436B78D0249A
:1061B00063435918D2008918087470BD63796878F0
:1061C000D02460434018D10040180373104602F0F9
:1061D00099FD70BD63796878D02460434018D10080
:1061E0004018437307E063796878D024604340180F
:1061F000D1004018837301F075FF70BD6A78D02319
:106200005A4351186079C03188742B49C88670BDD3
:106210006878D023584340186279C030C27470BD8A
:106220006079287100F0EEF803F0AEF970BD607986
:10623000697888420CD002F023FC02F0BAF902F02F
:1062400083F960796870082800D36E70FFF78CFAC4
:106250001A496A78087A9042E8D2401C087270BDE8
:1062600002E013E016E019E06878D02358434018A4
:106270000146A279C0318A75192A01D318228A757C
:10628000E2790121D2008018C173B4E76079FDF78B
:1062900063F8E4E76179FDF751FCACE7637968786E
:1062A000D02460434018D10040184374A3E7000095
:1062B00058010020FA070020A80E00207A0E0020C6
:1062C00010B507480078072809D106480179002948
:1062D00005D1FF21017100F095F800F06FF810BDB5
:1062E000E000002058010020F0B585B007461421D9
:1062F0006846FBF726FF09216846002401704470B8
:1063000081700721C1702249D02248785043214A28
:106310008018C030827D192A01D318228275D020BE
:106320001C4A784386183546C03528E0E00030180E
:10633000428A69460A71120A4A71027E8A710022F3
:10634000CA71027D0A72427D4A72827D8A72AA7C7B
:10635000CA72EA7C0A730E49641C0A7969464A7358
:106360008C73CF73407E0874E87D4874122001F06E
:1063700017FC694688741320FFF778F9E4B2A87D0A
:10638000A042D3D8C1B20248817205B0F0BD00006E
:1063900058010020FA07002010B5074800780728A8
:1063A00008D10120FFF784F9FDF774FF00F092F89F
:1063B000FFF77AFD10BD0000E00000200EB50020C0
:1063C000009001900922694602900A7048708A7014
:1063D0000820C8700948007A0871094842784A7153
:1063E00082788A710079C871082001F0D9FB69466A
:1063F00008720920FFF73AF90EBD00007A0E00205E
:1064000058010020F8B52F4D002628792E4C002881
:106410004FD0607E002818D02076012806D1204673
:106420004030407F00280DD0FFF758FD207E022825
:1064300001D1FFF753FD207E062804D0072801D1A3
:10644000FFF766FDF8BD6676F8BD204806601E4879
:10645000403846640120A870E870FFF7A9FD0527C1
:10646000A9783846FFF712FE002803D17F1CFFB23F
:10647000AA2FF5D36878082801D307206870C0B226
:10648000D021484312494018C030807C002802D0F7
:106490006979002905D06E7101F08EFEFFF7A8FA28
:1064A000F8BD09494039C886012068710620207668
:1064B000F8BD02F07EF802F047F8207E607626767E
:1064C000F8BD000058010020E80E00202401002043
:1064D000FA07002070B5104C207E02281BD12146FF
:1064E0004031487F002816D10D46803DA86C0B4AEC
:1064F000401CA86492780C235A43094BC97F9A58D0
:106500005118814207D802F01FF800200321A86427
:1065100021760449086070BDE80E00205801002073
:106520001C120020F400002010B541781F4C0029F7
:1065300015D0062912D1C07805280FD11C48017842
:1065400005290BD00521017002F05CFC01F066FD0D
:10655000FFF7B2FA207AE08602F06EFC10BD0179F6
:1065600001290ED002290FD0421C032915D004297D
:1065700019D00529F2D15079117900020843E0873A
:1065800010BD40792072E6E761790029F8D1094908
:106590004079087002F08CFC10BD5079117900022E
:1065A0000843A08710BD4079A07210BDA80E00203E
:1065B000E0000020E300002070B5002314460D46E3
:1065C000012802D0022817D070BD0D48FBF7A0FDAE
:1065D00022460C4C02212046FDF712FF02212046E4
:1065E000FDF7EAFE02212046FDF7DAFE70BDE85C09
:1065F00002F048FD5B1CDBB2A342F8D370BD000083
:10660000EC0100200000024010B50C48007807287B
:1066100012D10B4C207800280ED0A17A00290BD182
:10662000FFF762FE2078002804D0401E0006000E0E
:10663000207001D1FFF7C2FE10BD0000E000002075
:10664000580100207047000010B530480121026851
:106650008A430A4302600068084056D02C4802680A
:106660000A43026002689207D20FFBD0026801233E
:106670001B049A4302600468F822944380231C435D
:106680000460446B0C434463446BA407E40FFBD0E9
:10669000446B94431C434463426A0A434262416A26
:1066A0008907C90FFBD005224168D2043D231B0492
:1066B000994311434160C16A09090901C162016836
:1066C000012212061143016001688901C90FFBD044
:1066D0004168F022914341604168072212029143D0
:1066E000416042680221920892000A4342600C22F3
:1066F000416811400829FBD10648FDF76BFF0648A9
:10670000016904221143016110BDFEE7002002402F
:1067100000100240006CDC0200E000E01348016859
:106720000122114301604168114A11404160016832
:10673000104A1140016001680122920491430160F6
:1067400041683F22120491434160C16A090909016D
:10675000C162016BFF22143291430163416B49080E
:106760004900416300218160704700000010024031
:106770000CB8FF08FFFFF6FE10B501200A49C04320
:10678000086101F049F802F075F8FDF70DFD02F01F
:1067900085F8FEF783FF02F0E5FB02F0F1FA01F065
:1067A0009FF801F041FB10BD002000407047000041
:1067B00010B501200749C043086101F04DFE01F00A
:1067C00067FEFFF7E9FD00F027FE00F017F8FEF77F
:1067D00025FA10BD0004004010B501200249C04355
:1067E0000861FDF7EBFC10BD0010004010B5012161
:1067F0000148FDF78CFB10BD0004004810B50848A7
:10680000007802280AD10120FCF72CFFFDF786F85A
:106810000120FCF77FFE0120FCF7ACFE10BD00005C
:10682000E000002070B506460846FBF71FFF05464E
:106830000C463046FBF71AFF2A462346FBF796FE26
:106840000022134BFBF72AFE0022124BFBF78EFEB1
:10685000114E00223346FBF712FE04460D4600227D
:106860000E4BFBF71BFEFBF723FF80B20A21FBF761
:1068700039FC002906D00022334620462946FBF782
:106880005BFD01E020462946FBF712FF70BD0000CA
:106890000070E74000507F400000F03F00002440BF
:1068A000FFB583B0174600220C9E0D98009201920E
:1068B00002920D4A800015580C481C4605606B4634
:1068C00022463846A847012E03D1A1086846FDF7A5
:1068D000D1FF224669460398FBF73EFC002800D012
:1068E000012007B0F0BD0000A4960008D4000020ED
:1068F00010B50548C169C906C90F03D0102101624E
:1069000002F09CFB10BD00000038014010B50548A6
:10691000C169C906C90F03D01021016202F0F0FB62
:1069200010BD00000044004001491E2088837047CC
:10693000EC01002010B5084C04212046FDF724FD91
:106940000120400360604010606004212046FDF794
:106950000FFD00F06BF810BD0000024070B50E4E48
:1069600005213046FDF734FD1925281A01060B4C88
:10697000090EA1760ED005213046FDF7F9FC084836
:106980000168490849000160A07E192800D9A57650
:106990000120607670BD0000000002400C02002063
:1069A0000044004010B50120FDF7CAFC1D4C1C4AF4
:1069B00005212046FDF776FD1B4A05212046FDF7FF
:1069C0003DFD192205212046FDF71AFD0022052173
:1069D0002046FDF723FD0122520305212046FDF745
:1069E00001FD002205212046FDF766FD80220521DC
:1069F0002046FDF72DFD002205212046FDF76AFD0A
:106A0000002205212046FDF731FD00220521204608
:106A1000FDF73AFD05212046FDF7C2FC10BD000040
:106A200024440040000002400C02002002480021E3
:106A300041762821818370472802002070B501200B
:106A4000FDF77EFC204C1F4A04212046FDF72AFD5D
:106A50001E4A04212046FDF7F1FC1922042120469C
:106A6000FDF7CEFC102204212046FDF7D7FC0125BE
:106A70006D032A4604212046FDF7B4FC00220421C0
:106A80002046FDF719FD802204212046FDF7E0FC99
:106A9000002204212046FDF71DFD0022042120468E
:106AA000FDF7E4FC002204212046FDF7EDFC6560C3
:106AB000A014606002210B20FEF764FC0B20FEF79F
:106AC0002BFC70BD2844004000000240280200203A
:106AD000F1B525480121C2698EB049040A43C2615B
:106AE000C069012508400D90042002260327049563
:106AF0006A46C1C200240920694605950394C00670
:106B0000FDF706FD082004956A46C1C209206946C2
:106B100005950394C006FDF7FBFC02211C20FEF73F
:106B200031FC1C20FEF7F8FB0E98069007940894A1
:106B300009940B940C940C200C4C0A9006A9204646
:106B4000FDF72EFEA06840210843A060A0688021C8
:106B50000843A0602068284320601020206221683C
:106B6000014321600FB0F0BD00100240004400401E
:106B700010B5074C062020700648008B01F004FD7C
:106B8000012020715020A07001F012FD10BD000006
:106B900035010020A80E002070B5642002F0E6F850
:106BA000012100F061FF0446642002F0DFF80021BB
:106BB00000F05AFF14494C62C0310861844200D988
:106BC00020467D21C900FBF78DFA841C7D20C00082
:106BD0000E4960434880E12109012046FBF782FA13
:106BE000C1B20B4DE120A97300014143641A3C215D
:106BF0002046FBF777FA68733C214843201A287334
:106C0000FEF75AFF70BD0000C81300206401002089
:106C10000810002070B51348007801281DD1124CCF
:106C2000607C022819D12646A036707F022814D134
:106C3000A0790025002811D0A08800280DD10020BF
:106C400002F064FA012002F061FAFEF7DFF9FEF7C4
:106C5000F1F800F0ADFD6574757770BD65747577FA
:106C6000A580ECE7E000002048130020F8B5254C93
:106C700000252746A0370226012821D000281ED152
:106C8000787F00281BD020493A7F2046C030896891
:106C9000002A35D0FF2A12D1006981420FD101F0BC
:106CA00088FC1A488570C58005707E77607C022854
:106CB00001D0002803D17D20C000A0806674F8BDFB
:106CC000607C0028FBD01248217C8068002915D008
:106CD000FF29F4D1616A8842F1D101F035FC0D48F9
:106CE0008570C58005706674787F022801D0002801
:106CF000E5D17D20C000A0807E77F8BD216AEAE75B
:106D0000C068CAE748130020201000200E010020B0
:106D1000940E00200601002030B5022101281AD06F
:106D2000002836D11E484069002832D01C4A203A3B
:106D3000507F00282DD01B488378002B29D0157F49
:106D4000194A03461478002DDB889268174D21D02C
:106D5000C0352D6914E0154A906A002819D0507C7E
:106D6000002816D012488378002B12D0157C114AC7
:106D700003461478002DDB8892680C4D04D06D6AB0
:106D8000002C0AD0EB1801E02D6AF9E7934200D1FC
:106D9000017030BDC035ED68F2E7EB1AF6E7000090
:106DA000081400200E0100202010002048130020AD
:106DB00006010020940E002070B5364C0279214661
:106DC000A379A031012A12D0072A2CD0052A2DD070
:106DD000062A0BD1002B09D1427922744079087719
:106DE000012002F093F9002002F090F970BD002B11
:106DF000FCD1294A4379137383795373C37993730D
:106E000042798A7682794A76C2790A764179A17383
:106E100081796173C079207300F094FBFEF7F6F876
:106E2000FEF708F870BD4079E07070BD1B498978A5
:106E3000002903D11A498978002902D0FEF73CFEC7
:106E400070BD4179A1714079E07100291FD000F037
:106E50002DF8054600F094F80543F1D1FEF7D6F879
:106E6000FDF7E8FF012002F051F9002002F04EF991
:106E70000C48007800280AD0217C0B48002902D059
:106E8000FF2902D003E0216A00E0616A816000F01E
:106E90008FFC70BD48130020081000200E01002058
:106EA0000601002064010020940E002070B5164AEF
:106EB0000024906A00281DD01448007800281DD1B5
:106EC0001349167C0023FF258868002E02D0FF2E70
:106ED00011D00EE0146A0FE00D7000E00B70012479
:106EE0005474087801F0C8FA012001F061FDFEF742
:106EF0007FFD204670BD546AA04201D1002070BDC4
:106F0000A042EBD9E8E7000048130020640100200C
:106F1000940E002010B517480078012829D1164C8E
:106F2000A17C002925D0207D002822D120460022E6
:106F3000C07C022902D001290DD018E00F498988B0
:106F4000884201D2401C09E0A274A07900280ED129
:106F500001F0FAFA0BE0002808D0401EC0B2E0743D
:106F600040000019808D01F0C9FA00E0A2741E20D3
:106F7000207510BDE0000020481300208814002078
:106F8000F8B5154A0024506900281BD01346203B51
:106F900012491E7F0025FF278868002E02D0FF2E91
:106FA00011D00EE0D2680FE00F7000E00D700124E8
:106FB0005C77087801F0DCFA002001F0F9FCFEF7BC
:106FC00017FD2046F8BD1269904201D10020F8BD9E
:106FD0009042EBD9E8E700000814002020100020C0
:106FE00070B51A48007801282FD119498B7F002BE2
:106FF0002BD00C4620342078002826D10A46A03A0F
:10700000BF200025805C022B02D0012B0ED01AE09D
:107010000F4BA0339B88984201D2401C09E08D772A
:10702000D07900280FD101F0C4FA0CE0002809D073
:10703000401EC0B2C87740008018C030008B01F0FD
:10704000A3FA00E08D771E20207070BDE0000020C4
:10705000E8130020F8B5374D394A28753649374BC3
:1070600014464F68C0345E68012825D002282BD111
:10707000A760896817462161FE6198687862E068B8
:10708000FBF77AFC0646796A386AFBF775FC074617
:107090000120FEF7DFFAFBF70BFBB84215D9012000
:1070A000FEF7D8FAFBF704FBB0420ED90020287592
:1070B00023496061886238E00120C007886067600A
:1070C000E060986096611062F8BD032028751C4D41
:1070D000FF20687029462874A03108770120FEF748
:1070E000B9FAFBF7E5FAB04202D90020606100E08E
:1070F00066610120FEF7AEFAFBF7DAFAB84202D970
:107100000020A86200E0AF6200F04AFB012001F01D
:10711000FDFF002001F0FAFF0A4AA96A0A489142DD
:1071200001D3012100E00021017001210846FEF792
:107130008BFDF8BD0810002020100020940E0020C8
:107140004813002001F401006401002010B51F491C
:107150008A79002A1CD001281BD0002818D10846A3
:10716000A030417F002913D10146A0310A6A002ACC
:107170000ED0037F1648002B82680846806822D014
:10718000FF2B05D1C9698A4202D1401E01F0FCF9EA
:1071900010BD487C0028FBD10C4A8032506B00287F
:1071A000F6D00C48097C83681046C069002908D0D5
:1071B000FF29EDD1116B8B42EAD1401E01F09EF9FF
:1071C00010BDD16AF7E78969DDE7000048130020A8
:1071D00020100020940E0020F8B52A4A28487D256A
:1071E0004368174651686D02FF260024C03F8B425A
:1071F00017D05269002A1DD08B4203D9591AA942CF
:1072000005D802E0C91AA94201D9067000E004704D
:10721000007801F0ADF9002001F0CAFBFEF7E8FBB1
:1072200008E0D168816017487C702038047700201E
:1072300001F06CFF1448BA694168914217D0BB6AEB
:10724000002B13D0914203D9891AA94205D802E034
:10725000511AA94201D9067000E00470007801F0CB
:107260000BF9012001F0A4FBFEF7C2FBF8BD396A5F
:1072700081607C703C74012001F048FFF8BD000083
:107280002010002008140020940E0020F8B50024DF
:10729000204D0646012823D0002820D12F46A037B4
:1072A000787F00281BD11C488178002917D02E46F2
:1072B000C0367168002912D0184A52688A420ED12D
:1072C0008470C480047001F074F91448F16881601E
:1072D0006C703C77204601F019FFFEF7EDFBF8BD1E
:1072E0000F4881780029FAD0697C0029F7D1A96973
:1072F0000029F4D00B4F7A688A42F0D18470C480A0
:10730000047001F021F9286AB8606C702C74304662
:10731000E1E70000481300200E01002020100020AB
:1073200006010020940E0020F0B5344909780129A7
:1073300029D13449324C0222CB88012824D000289C
:1073400021D13148407F00281DD1304DA878002838
:1073500019D02D4820304068002814D02C490F78CF
:107360002946CE882A49002F496835D0C6182B46B1
:10737000DF88254B20335B68DB19A64238D9604291
:107380001818884232D2F0BD1F48A038457C002D25
:10739000F9D18D78002DF6D08569002DF3D01D48E8
:1073A00006784068002E06D0EB18A3420FD9144C83
:1073B00064421B190DE09D4202D25B1BE31A02E0FE
:1073C000A842E0D2EB1A8342DDD80A70F0BDA84291
:1073D000FCD98342F9D2F0BDB04202D2301A201A51
:1073E00002E08142F7D2801B8842F4D82A70F0BDB7
:1073F0008142FCD98B42F9D2F0BD0000E0000020B0
:1074000001F4018006010020E81300200E01002095
:1074100020100020940E002010B50B4800780128A1
:1074200010D101F0A9FE012000F040F90120FFF782
:107430001DFC0120FFF770FC0120FFF727FF012052
:10744000FFF784FE10BD0000E000002030B50B4ABD
:10745000002010700A4B0B499070987018700C4601
:107460004874A034084D6077E873203DE870D880F8
:10747000D0808871C8718874A07730BD0E0100205B
:1074800006010020481300201015002010B5144CF0
:10749000A16A002921D02146C97B002815D02046A9
:1074A000803000290BD0007EE07440000019808DF0
:1074B00001F024F80120A0741E20207502E0C069AC
:1074C00001F01CF801F02EF810BD002902D00220B6
:1074D000A07410BD01F038F810BD0020A07110BDDF
:1074E0004813002070B5164D2A466969C03A002934
:1074F00023D01446A034E17E002816D02046A030C8
:1075000000290CD00079E07740008018C030008B53
:1075100001F03AF80120A0771E20287002E0806870
:1075200001F032F801F044F870BD002902D00220C9
:10753000A07770BD01F03DF870BD0020D07170BD26
:107540000814002070B5164C3C21607BE1224843B2
:10755000A17B120151434018217B41187D20C000BE
:10756000414310484088814219D27D21C900FAF771
:10757000B9FDE12105460901FAF7B4FDC1B2E120E8
:10758000A173000141436D1A3C212846FAF7AAFD78
:1075900060733C214843281A2073FEF78DFA70BDB2
:1075A0000810002064010020FEB50D4606460F2499
:1075B00000213948002D34D0054680352982868542
:1075C00001214F1C084678434A004008324980197F
:1075D00080B251188885401CFBF748F800222F4BD9
:1075E000FAF75CFF00222E4BFAF7C0FF02460B466B
:1075F00000202C49FAF7BAFF01910090288AFBF786
:1076000035F8019B009AFAF797FEFBF751F8F9B2AB
:107610002882A142D5D3641E3C20604368612C833C
:10762000FEBD214FB983394660390E8301214D1CBF
:1076300008464A006843184940088019511880B22A
:10764000C0310883401CFBF711F80022134BFAF7F6
:1076500025FF0022124BFAF789FF02460B46002055
:107660001049FAF783FF01910090B88BFAF7FEFFFB
:10767000019B009AFAF760FEFBF71AF8E9B2B883AB
:10768000A142D4D3641E3C20214641430648203009
:1076900001608480FEBD00004813002000507F4040
:1076A0000070E74000003E406814002070B5364985
:1076B0008978002926D135498978002922D10221EB
:1076C000012820D000281DD1314A5069002819D046
:1076D00010462038437F002B14D1C37E002B11D0DD
:1076E0000346D6681569A03BBC22D45CFF33294A07
:1076F00021339B8B9268AE423DD9F61A964234D123
:10770000FF2C36D070BD224EC03EB06A0028F9D0A2
:10771000707C0028F6D1F078002803D01E4800784D
:107720000028EFD1F07B0028ECD0194A1B48C03A62
:10773000137C8032356A746A128A8068A5420BD93C
:10774000AD1A854202D1FF2B04D070BDA21809E00A
:10775000002BFAD1B17470BDA542FCD2AD188542A0
:10776000F1D0A21A8242F3D070BDEB1809E0002CD0
:10777000FAD1817770BDAE42FCD2F6189642BFD0E6
:10778000EB1A9342F3D070BD060100200E010020D9
:10779000081400202010002064010020940E002016
:1077A00010B5FFF7F9F9FDF731FCFDF743FB10BD0C
:1077B00010B5054CA079FBF7FFFCA079FFF766FE3A
:1077C000E079FFF78FFE10BD481300202021020C46
:1077D00001D010211046020A01D0083910460209D2
:1077E00001D0091F1046820801D0891E10464208A8
:1077F00001D0881E7047081A704702E008C8121F9F
:1078000008C1002AFAD170477047002001E001C189
:10781000121F002AFBD170470349C888002801D0F5
:10782000401EC880704700003C0100201CB50022AB
:107830001449009201920B78134909780B431349BC
:1078400001D00A721CBD0B7A5B1CDBB20B72022BDF
:10785000F8D90A72092369460B7003234B7006237B
:107860008B70CA700871000A4871094800788871E5
:10787000072000F095F96946C8710820FDF7F6FE6B
:107880001CBD00005801002062010020E000002023
:107890003C010020F0B587B00120C002009000201C
:1078A00001900290039002200924E40604906946A6
:1078B0002046FCF72DFE0125AD0229462046FCF7A7
:1078C00026FB6E1031462046FCF721FBAF103946EF
:1078D0002046FCF71CFBA561A661A76107B0F0BDBF
:1078E00009494888002801D0401E488006480B30CE
:1078F000C178002901D0491EC1708178002901D0CA
:10790000491E8170704700002A01002030B52548CB
:107910008078002831D12448807800282DD1234850
:107920000078072806D022490528097807D00628BC
:1079300005D006E01F48007E04281ED005E004297B
:107940001BD0022801D1032917D01B48012205783A
:107950001B4852038178194BC9438488C9B20A2D48
:1079600010D9002C09D18170002907D0FF21F531F1
:1079700081800120FCF73CFC9A6230BD7D21090129
:1079800081800AE0002CF8D1C8248480817000290D
:1079900002D09A62012001E09A610020FCF728FCE5
:1079A00030BD00000E01002006010020E000002094
:1079B000E2000020E80E00203C0100200008004802
:1079C000C600002070B586B0044614216846FAF758
:1079D000B8FB1F4D2878002837D020784E2802D0D9
:1079E00001221CA12EE00120694606E00B18203B75
:1079F000401CC0B2DA77142802D2225C002AF5D1EA
:107A0000091800262039CE772018817840780C029A
:107A1000044311A001F09CFA024669460EA0FAF751
:107A2000A8FB002803D02E7001220DA10AE035200A
:107A3000800284422E7003D82146BB2000F06EFAEB
:107A4000012208A10220FEF7B7FD06B070BD0000BC
:107A5000CC000020470000004C472D3036000000CD
:107A60004E00000046000000F3B581B000250198EB
:107A70000F462C462E46C0B2FFF796FD7D20C00073
:107A8000012F02D0002F0BD016E017498C6A002C72
:107A900028D080310D8A6A00944222D34E690BE0CF
:107AA0001149C0314C69002C1CD060318D8B6900AC
:107AB0008C4216D30D4806680198401CFAF7CEFD9B
:107AC0000B49FAF7BEFB0B49FAF7F8FB07466800CB
:107AD000201AFAF7C3FD3946FAF7B3FBFAF7D4FDDB
