:020000040800F2
:1000000090060020C9000008651100087B0B00085D
:1000100000000000000000000000000000000000E0
:10002000000000000000000000000000E9190008C6
:10003000000000000000000099160008451A0008A2
:10004000DB00000800000000DB000008DB00000807
:10005000DB000008DB000008DB000008DB00000814
:1000600000000000490900084B0900085309000876
:10007000DB0000089D1B0008DB00000800000000FA
:10008000B91B0008DB000008000000007D1B000811
:10009000DB000008DB000008DB000008DB000008D4
:1000A000DB000008DB000008DB000008F91C00088A
:1000B000151D00080348854600F028FB004800474E
:1000C0001D2E000890060020044880470448004781
:1000D000FEE7FEE7FEE7FEE7FEE7FEE7D91A0008C7
:1000E000B500000830B50B4601460020202201244F
:1000F00009E00D46D5409D4205D31D469540491B5C
:100100002546954040191546521E002DF1DC30BDA4
:1001100003460B439B0703D009E008C9121F08C020
:10012000042AFAD203E00B780370401C491C521ECB
:10013000F9D27047D2B201E00270401C491EFBD2D6
:1001400070470022F6E710B513460A4604461946E2
:10015000FFF7F0FF204610BD30B5054600200346EE
:1001600000E05B1C934205D2EC5CC85C201A01D114
:10017000002CF6D130BDF8B502464A40D40F4200FB
:100180004B0052085B089A4202D2024608461146CA
:100190004A0023D0C30D4A00DDB2120EAD1A202D45
:1001A00035DA49020126490AF6058A19002C00D0E1
:1001B000524220214F1B1146B9402A411018C20D4E
:1001C0009A4221D0002C17D0012D08DCDA05801AC4
:1001D000D20F8019D207DBB200F0FFF9F8BDDA05C3
:1001E000801A012340001B06C01880185A4280184C
:1001F000CA0F1043490007E04908C2071143DA0556
:10020000801A80194008801800F0DFF9F8BD6100FD
:100210000122511A001BF7E70122D2075140AAE739
:100220000122D2075040A6E7024670B54A40D30FDC
:10023000DB0740002DD04A002AD0010E140E000228
:1002400012020919400A520A8418E501044654436F
:10025000000A120A2E045043A4194219200CC54367
:10026000AA18120C0125AD03521C521912047F3931
:10027000240400D0521C104301D44000491EC2B2D5
:100280000C06C0092018401C4008802A02D003E058
:10029000002070BD40084000002900DA002018430B
:1002A00070BD70B502464A40D50F40004A00ED07C8
:1002B00040085208002814D0002A12D0C40DD30DD3
:1002C00041020120C0055202490A520AE41A0918E3
:1002D00012187D34914201D3641C00E04900002CC7
:1002E00001DA002070BD0023914201D3891A034333
:1002F000400849000028F7D100290AD0914202D1D4
:100300000121C90705E0914201D2012101E001214B
:10031000C943E005C018401900F057F970BD00004E
:10032000F0B51FB488B00B9909980024484009998A
:10033000C00F490049080991C0070B990090490076
:1003400049080B9109990898A64608431CD00B99B7
:100350000A98084318D0099801244000420D48002B
:10036000410D099824050003000B204309900B98C8
:100370000003000B20430B9050181C49401800222A
:1003800001901446104605E0002001460DB0F0BD76
:10039000032801DA034600E003239C46C11A0AAE93
:1003A0000AE05F0008ADED5B4F00F75B7D4300277F
:1003B000AA187C41491C5B1E6145F2DD410004AB7B
:1003C0005A522104120C0A43240C401C0828DFDB7B
:1003D000019802900099704601910090059B049A43
:1003E0000799069800F03FF9D0E700000DFCFFFFE9
:1003F000F0B50C465C4085B0E40FE40703944C0074
:100400000026640859009446490802460296224391
:1004100021D062460A431ED06200570D4A000E03E7
:100420002303550D012402462C492405781B1B0B80
:10043000360B401823432643614600901C46501A51
:10044000B44103D30098401C009002E09218009839
:100450005B41002803DA0020014605B0F0BD002012
:10046000012109050746864611E064461D46141B16
:10047000B54106D36546521BB341744607430C434E
:10048000A646CD0740084908284392185B41054617
:100490000D43EAD11046184313D060461946504028
:1004A0007140084306D06046101AB34106D20122BB
:1004B000002306E000220123DB0702E00122D243F1
:1004C0005310009874460105381C6141029C039D3D
:1004D0000019694100F0BAF8BFE70000FD03000011
:1004E00010B500229623114600F077F810BD0000E9
:1004F0000EB505490291002100910A460B46019173
:1005000000F0B1F803B000BD330400004100400228
:100510000122400AD205090E80187F2901DA002045
:100520007047962903DC9622511AC84070479639C5
:10053000884070474A0009030123090B1B05194332
:10054000094B10B5520D9A4201DA002010BD064B3E
:1005500034339A4203DC9A1A00F026F810BD03499E
:100560005118884010BD0000FF030000CDFBFFFFC5
:10057000CB0FDB07490010B5490802460A4307D0F4
:100580000A0D07240903E401090B121B002A01DCF0
:10059000002010BDC900440F0C43C100E018D20573
:1005A000801800F012F810BD10B5202A04DB0846B0
:1005B000203AD040002110BD0B46D340D04020242B
:1005C000A21A91400843194610BD002904DA401CC4
:1005D000490001D140084000704770B40024050C68
:1005E00005D11024000402D1002921D01124050EC8
:1005F00001D100020834050F01D10001241D850F2F
:1006000001D18000A41C002801DB4000641C0029EB
:1006100008D020252E1B0D46F540A14000D0012119
:100620002943084301061B1B000ADB1D02D50020DD
:1006300070BC7047DB05181880180029F8DA401CD8
:100640004900F5D170BC40084000704710B5002B40
:1006500008DA0024401C614192185B411A4301D121
:100660004008400010BDF0B51FB482B005460C0034
:1006700003D0084601F0C0FC02E001F0BDFC2030D0
:10068000024600902146284600F052F8049B059A45
:1006900004460F4618431143084314D0184610432C
:1006A0001BD0009840210A1A18460599FFF77CFFD5
:1006B00005460E46009A0599049800F039F808435B
:1006C00005D0012004E02046394607B0F0BD0020E7
:1006D000C11705430E432C43374300990E98630519
:1006E000401A7905E40A00220C43FD0A0A3002D5BB
:1006F00000200146E9E70105101969410C9C0D9D98
:1007000000196941FFF7A2FFDFE70000064C012551
:10071000064E05E0E36807CC2B430C3C98471034A9
:10072000B442F7D3FFF7CAFCC83F0008E83F00080F
:1007300010B5202A04DB0146203A9140002010BD6C
:10074000914020239C1A0346E3401943904010BD7A
:1007500010B50C4B00219A681724A2435C05224374
:100760009A600F231B038268491CD20FD20799425B
:1007700001D0002AF7D18168002901DB006C10BD8F
:10078000002010BD0024014010B500F005F800F075
:100790001DF800F001F910BD00B50B480121826978
:1007A00087B049020A4382618069084006900120AF
:1007B0000090032001900020049009206946C006A3
:1007C00000F0D4FA07B000BD0010024010B51B4C79
:1007D0002020A062E16818229143E160E1680202F2
:1007E00091431143E160E168032292029143E16089
:1007F000E1688143E160E068042188430843E060E8
:1008000061690520C908C900014361612046FFF7FD
:100810009FFF01202060E168032081430143E160E4
:10082000A16807480140491CA1602168C907C90F98
:10083000FBD0A1680140091DA16010BD002401404A
:10084000E8FFFF7FFEB539A003C800260090394CB1
:100850000191402035463746A0623146052000F020
:1008600063FD0521684600F0F9FC05226946002079
:1008700000F0E8FC02F08CFA012000F0C5FF4020F7
:10088000A06100F057F92C4800F0B2FC002806D017
:1008900029494878CC2802D18878022824D0002E13
:1008A00003D02648017D00F0E3FC2548418800295B
:1008B000E7D1C821418002F06BFA6D1CEDB20A2D20
:1008C000DFD3FF2501356E00002F05D0A561A6619D
:1008D0007D20C00003F044F900F0B0FD174800216E
:1008E0000175A562A662FEBD0E460522C91C15480B
:1008F000FFF70EFC1348317A1638417502F042FAC0
:1009000003F05CFA0D4FBB207870B87001263946B1
:10091000032001F023FF3870032038754020A062C7
:10092000002000F071FF0127BBE70000020000007B
:100930000000000000040048700000202E0100208C
:100940006600002086020020704710B500F010F805
:1009500010BD10B501F00EFA10BD10B501F078F918
:1009600000F082FB02F0D8FD01F0AAF910BD0000F2
:1009700010B5084C0221204600F044F920206060A8
:10098000102060600221204600F030F901F006F8E6
:1009900010BD00000000024038B526480121426920
:1009A0000A4342614069244C0840254900900B7875
:1009B0002148224A08341A511F4B0C78214A0C3323
:1009C000E25001240B78021D9D582D0C2D04254367
:1009D0009D500B78C2581C4C2240C2500A78835854
:1009E00003242403A34383500B78C2584024A2431A
:1009F000C2500C78025980239A431A4302510B7853
:100A00008415C25803252D02AA432243C2500A78F6
:100A100004158358AD00AB43234383500C7803592E
:100A200020229343134303510978425801231A4368
:100A3000425038BD001002400000024040240140F6
:100A4000773E000804000020EFBFFFFFF0B50B2742
:100A500006463F04384600F05BF804280FD1084CE6
:100A600020690225284320616661206940210843EE
:100A70002061384600F04CF82169A9432161F0BD9E
:100A80000020024008490420CA68D20701D0012092
:100A90007047CA68D20601D502207047C968490765
:100AA000FBD5032070470000002002400248016986
:100AB000802211430161704700200240F0B50B27EE
:100AC00006463F040D46384600F022F804280CD1B3
:100AD000064C20690121084320613580384600F02A
:100AE00017F82169490849002161F0BD0020024042
:100AF00004480169090603D503494160034941607F
:100B0000704700000020024023016745AB89EFCD0C
:100B100000B50346FFF7B6FF02E0FFF7B3FF5B1E29
:100B2000012803D0002B00D1052000BD002BF4D1FB
:100B3000FAE700000249014808607047AAAA0000CD
:100B40000030004000B587B0009100210191029172
:100B500003910491694600F009F907B000BD00B5A2
:100B600087B0009100210122029103910192049229
:100B7000694600F0FBF807B000BDFEE710B50121A3
:100B800009200903C006FFF7DDFF10BD08B50449C1
:100B90004A6902434A6149690140009108BD000069
:100BA0000010024008B504494A6902434A61496994
:100BB0000140009108BD00000010024008B5044942
:100BC0004A6902434A6149690140009108BD000039
:100BD0000010024008B50449CA690243CA61C969E4
:100BE0000140009108BD000000100240044A511865
:100BF0002039C97F425852085200425070470000C5
:100C0000723E0008044A51182039C97F4258022315
:100C10009A43425070470000723E0008044A51183F
:100C20002039C97F425801231A43425070470000BF
:100C3000723E0008044A51182039C97F42580223E5
:100C40001A43425070470000723E0008034A511890
:100C50002039C97F001D085880B27047723E0008D5
:100C6000054B10B559182039C97F43580324240374
:100C7000A3431343435010BD723E0008054B59185F
:100C80002039C97F001D0B581B0C1B0413430B504C
:100C900070470000723E0008054B10B55918203906
:100CA000C97F4358034C23401343435010BD0000F9
:100CB000723E0008EFBFFFFF034B59182039C97F70
:100CC0000C300A5070470000723E0008054B10B50A
:100CD00059182039C97F43588024A34313434350F4
:100CE00010BD0000723E0008054B10B559182039A0
:100CF000C97F43580324A402A3431343435010BDA8
:100D0000723E0008054B10B559182039C97F435869
:100D10002024A3431343435010BD0000723E00083B
:100D2000034B59182039C97F08300A50704700001A
:100D3000723E0008054B10B559182039C97F435839
:100D40004024A3431343435010BD0000723E0008EB
:100D5000054B10B559182039C97F43580324240284
:100D6000A3431343435010BD723E0008F0B5002466
:100D70003EE001232A46A3401A4038D04F68066857
:100D8000134653435D005D19AE435F433E43066027
:100D90004E68012E01D0022E05D18F6886685F4310
:100DA000AE433E4386600F69C668AE431D467D4331
:100DB0002E43C6604D68022D19D1FF2A0AD84E690C
:100DC000056A534353431A01D21A954373431D4393
:100DD00005620CE0130A1A465A435A435A43130158
:100DE0009E1A4D69436A6A43B34313434362641CCA
:100DF0000A681546E240BCD14A68012A01D0022A9D
:100E000006D1CB6841682A4691435A431143416059
:100E10000120F0BD0069814301D00020704701200E
:100E200070470069814301D000207047012070475E
:100E300010B5044600F04CFC206000F02FFC606010
:100E400000F03AFCA06010BD014610B5002000295A
:100E50000FD110490A6B9207920F012A0AD0022A79
:100E600011D0032A09D000F033FC00F017FC00F089
:100E700023FC10BD00F02CFC10BD09688907C90FC8
:100E8000FAD0054810BD096A8907C90FFAD00120B8
:100E9000C00310BD0010024000127A00F0B50268D5
:100EA000194B1A4C984201D0A04203D17025AA4395
:100EB0004D682A43164D174E174F98420AD0A0424C
:100EC00008D0164CA04205D0A84203D0B04201D0B1
:100ED000B84204D103242402A243CC682243026016
:100EE0008A68C2620A888262984205D0A84203D00A
:100EF000B04201D0B84201D1097C016341690122AD
:100F0000114341611046F0BD002C01400004004037
:100F100000400140004401400048014000200040E2
:100F2000012910D0042910D0102910D0402910D048
:100F3000CA1FF93A05D00122920291420BD1052134
:100F40000AE0042108E0002106E0012104E002217A
:100F500002E0032100E00621064A1830525C054BEE
:100F60001018DB1D5B5C0821026899400A4302608F
:100F700070470000643E0008034610B500200129B8
:100F80000DD0102910D0FF39491E12D00F24240291
:100F9000A14203D11146184600F03AFB10BD11469C
:100FA000184600F05BFA10BD1146184600F09CFA96
:100FB00010BD1146184600F0DFFA10BDFEB504461C
:100FC00000680D460026C007C00F43D1E968686875
:100FD000AA69084329691143084321681E4A114040
:100FE00008432060A9686068032212039043084305
:100FF00060606969A068121190430843A0601748B7
:10100000844203D10020FFF71FFF06E0144884420A
:1010100020D16846FFF70CFF029800281AD02968F3
:10102000002917D00126AA69F3039A420CD1400087
:101030004A088018FFF756F881B20A4808400907A5
:10104000490F0143E16005E04A081018FFF74AF82C
:1010500080B2E0603046FEBDF369FFFF003801401A
:1010600000440040F0FF000010B5064CFF210131A4
:101070002046FFF774FD012149022046FFF76FFD6E
:1010800010BD000000040048F0B595B00220FFF745
:10109000A1FD0021102000F08DF901252949280427
:1010A0000860FF20F530694608800026264C029033
:1010B000019603962046FFF7F1FE20688021084341
:1010C000206049012046FFF72BFF602005A961C180
:1010D000FA2008900220C102099005AA2046FFF7D5
:1010E0004BFF1A48184980791831184A4018D21D08
:1010F000927904273B460168934099430160A1140B
:101100002046FFF70DFF2068802108432060606CB7
:101110000902084360642068B84338432060E068EF
:101120002843E06002200D900E9003200F9011954F
:101130000DA9109612950648FFF718FE01F09AFFC8
:1011400015B0F0BD00E100E000040040643E00087E
:101150000004004810B500F0E1FE00F049FE00F088
:1011600093FE10BD704770B570210840044600F032
:1011700034F8064620200925ED06A862272001F054
:101180002FFD2046304301F02BFD2020A86100F008
:1011900024F870BDF8B50F4609262021F60615463D
:1011A000B16201F01DFD002405E0FF2001F018FDF3
:1011B0003855641CE4B2AC42F7D32020B061F8BDCE
:1011C00010B509242021E406A16201F009FDFF20E9
:1011D00001F006FD2021A16110BD10B520200924D9
:1011E000E406A062072001F0FBFC2021A16110BDF4
:1011F00070B50546012109200903C006FFF711FE5D
:1012000000281BD10E49402088620720FFF7D8FF35
:1012100004460146072000F087F860060ED56020DE
:10122000FFF7CEFF0446024629466120FFF7B2FFD2
:10123000FF21E22000F078F8204670BD002070BD4C
:101240000004004810B5052A00D90522052800D958
:1012500005200A30C0B200F051F810BD10B50529C4
:1012600000D905210A460146102000F047F810BDBC
:10127000F3B500242020092581B0ED060E46A862B2
:10128000E12001F0ADFC2020A8611B4F4020B86296
:101290003246A020019900F031F84020B861860163
:1012A0000EE0FFF747FC0720FFF78AFFC0060DD4CA
:1012B000012002F055FC2046641CA4B2C82805D0C9
:1012C00031462846FFF7ADFD0028EAD10720FFF799
:1012D00077FF04460146072000F026F8E00605D512
:1012E000FF21E12000F020F81020FEBDA00601D56E
:1012F0002020FEBDFF20FEBD00040048F8B50F46CB
:1013000020210926F6061546B162084301F068FC63
:10131000002404E0385D01F063FC641CE4B2AC42DC
:10132000F8D32020B061F8BD70B50E462021092405
:10133000E406A1620D46284301F052FC304601F05C
:101340004FFCA56170BD00007FB513A103C90090DB
:101350000020FF26019102906D4602ACF536039005
:10136000FFF7E8FB052269461020FFF7C7FF0522BB
:1013700002A91020FFF70EFF0021685C625C90421A
:1013800003D1491CC9B20529F7D3052903D030463A
:1013900002F0E6FBE4E77FBDA5A5A5A5A50000003A
:1013A000C106C90E0120884001490860704700004D
:1013B00000E100E08307FF22DB0E9A408907090E57
:1013C000994000280BDA0007000F08388308084806
:1013D0009B001818C36993430B43C361704783088C
:1013E00004489B001B181868904308431860704716
:1013F00000ED00E000E400E08307FF22DB0E9A40EE
:101400008907090E994000280BDA0007000F0838F9
:10141000830808489B001818C36993430B43C361B2
:101420007047830804489B001B18186890430843C2
:101430001860704700ED00E000E400E010B500F037
:1014400077F9FFF781FF00F09BF9012000F0DCF94C
:1014500001494020886110BD0004004830B5026A8F
:10146000520852000262026A436884697025A40827
:10147000A400AC430D682C430225AA430D692A43FE
:1014800052084D6852002A43134DA84208D0134D0C
:10149000A84205D0124DA84202D0124DA84214D144
:1014A0000825AA434D69AD002A430425AA438D6847
:1014B000AD002A43FF250135AB438D692B43012540
:1014C0006D02AB43CD696D002B4343608461C968F5
:1014D00041630262012030BD002C01400040014008
:1014E000004401400048014070B5026A1025AA433B
:1014F0000262026A4368846973263602B4430E6846
:10150000360234432026B2430E6936013243AA43E1
:101510004D682D012A43144DA84208D0134DA8420E
:1015200005D0134DA84202D0124DA84215D18025F6
:10153000AA434D69AD012A434025AA438D68AD01F8
:101540002A430125AD02AB438D69AD002B43012534
:10155000ED02AB43CD69ED002B4343608461C96864
:1015600081630262012070BD002C014000400140F7
:10157000004401400048014070B5026AFF25013572
:10158000AA430262026A4368C4697026A408A400E0
:10159000B4430E6834436E00B2430E6936023243E0
:1015A000AA434D682D022A43154DA84208D0154D77
:1015B000A84205D0144DA84202D0144DA84217D11C
:1015C0000125ED02AA434D69AD022A430125AD0272
:1015D000AA438D68AD022A4301252D03AB438D69D3
:1015E0002D012B4301256D03AB43CD696D012B43C9
:1015F0004360C461C968C1630262012070BD00001C
:10160000002C0140004001400044014000480140DE
:1016100070B5026A01252D03AA430262026A44687A
:10162000C36973263602B3430E68360233436E0035
:10163000B2430E6936033243AA434D682D032A4351
:101640000C4DA84208D00C4DA84205D00B4DA84225
:1016500002D00B4DA84205D10125AD03AC438D69E5
:10166000AD012C434460C361C9680164026201207A
:1016700070BD0000002C01400040014000440140CA
:101680000048014003494888002801D0401E488096
:101690007047000066000020704700000449496858
:1016A000F0221140034A0909515CC840704700000C
:1016B000001002404C3E000803494968034A4905AE
:1016C000490F515CC8407047001002405C3E000862
:1016D00010B5064841680C200140054805D0042992
:1016E00003D0082901D100F005F810BD0010024018
:1016F00000127A0010B50C4C6168012212040B48EC
:10170000114002D0914200D14000E16A0907090F5F
:10171000491CFEF7E7FC61680F2292041140890C16
:10172000891C484310BD00000010024000093D0024
:1017300038B5114801214269C9040A434261406930
:101740000E4C0840009008212046FFF708FA20219F
:101750002046FFF704FA10212046FFF7F3F9FFF7C0
:101760000DFA09202021C006FFF7F9F94021204693
:10177000FFF7F5F938BD00000010024000040048F2
:1017800010B51F4C4020A0617020FFF7ECFC012138
:101790001C20FFF7C9FD04211D20FFF7C5FD1C20FB
:1017A000FFF70EFD1D20FFF70BFD4020A0620A2170
:1017B0000020FFF7B9FD01210846FFF7B5FD012123
:1017C0000220FFF7B1FD03210846FFF7ADFDFF2121
:1017D0000420FFF7A9FD0B48417D0520FFF7A4FD7C
:1017E00027210620FFF7A0FD0648052116300446F4
:1017F000FFF734FD052221460020FFF723FD10BD31
:10180000000400487002002010B504460020FFF7D5
:10181000D7FC0146002C02D0012C03D004E0410883
:10182000490001E0012001430020FFF77DFD10BDCC
:10183000F8B54F4D0646A87C00287DD000202885AD
:101840000127FFF777F9F01984B20F2C0BD8601C31
:10185000FEF746FE4749FEF7E7FC4749FEF721FD44
:10186000014646485EE0132C0BD8601CFEF738FE9C
:101870004049FEF7D9FC4049FEF713FD01464048B8
:1018800050E0192C0BD8601CFEF72AFE3949FEF7F0
:10189000CBFC3949FEF705FD01463A4842E0262CCB
:1018A0000BD8601CFEF71CFE3249FEF7BDFC324926
:1018B000FEF7F7FC0146344834E02B2C0BD8601CB3
:1018C000FEF70EFE2B49FEF7AFFC2B49FEF7E9FCB5
:1018D00001462E4826E03D2C0BD8601CFEF700FE8A
:1018E0002449FEF7A1FC2449FEF7DBFC0146284809
:1018F00018E04B2C0BD8601CFEF7F2FD1D49FEF7DB
:1019000093FC1D49FEF7CDFC014622480AE0601C0D
:10191000FEF7E6FD1749FEF787FC1749FEF7C1FC05
:1019200001461D48FEF7BDFC0090288DFEF7D8FD4E
:101930000099FEF720FC00E013E0FEF7E7FD2885A4
:10194000FF2C04D87F1CFFB2FF2F00D279E780B2B2
:10195000643028856879002804D06878002800D190
:10196000EE72F8BDFF20E87201F0CAFBF8BD00007E
:10197000080000200080FA4300803B470000164327
:101980000000A042000070420000204200000C4213
:101990000000F0410000A0410000E04002480021AA
:1019A00001723221C1727047CA0000200921C906A4
:1019B0000C4A01280AD002280BD003280CD0042896
:1019C00003D1802088610120906270478020886266
:1019D000F9E78020886101E0802088620120906121
:1019E0007047000000040048704700000248FF21D3
:1019F00001721421C1727047CA00002010B50F4C4B
:101A0000227A002A18D12246A17200232A3A1372A0
:101A10000A46014620460C38FEF77AFBA27A084CAB
:101A200004212046FFF72AF904212046FFF702F996
:101A300004212046FFF7F2F810BD0000210100202C
:101A400000000240704700002148012102688A43DB
:101A50000A4302600068084038D01E480168F82236
:101A6000914380221143016001680122114301600A
:101A700001688907C90FFBD005224168D2043D23C4
:101A80001B04994311434160C16A09090901C162FC
:101A90000168012212061143016001688901C90F22
:101AA000FBD04168F0229143416041680722120255
:101AB0009143416042680221920892000A434260C9
:101AC0000C22416811400829FBD17047FEE7000055
:101AD0000020024000100240134801680122114317
:101AE00001604168114A114041600168104A11408B
:101AF00001600168012292049143016041683F2224
:101B0000120491434160C16A09090901C162016B74
:101B1000FF22143291430163416B4908490041633C
:101B20000021816070470000001002400CB8FF08DF
:101B3000FFFFF6FE1CB580281DD20F4A125C9207EB
:101B400019D505236A461370012353708022104370
:101B50006A469070080ED070080C1071080A507117
:101B600091710821684601F06BFF6A46D0716946A1
:101B7000082000F0DDF81CBD463F000810B501202C
:101B80000549C043086100F0CFFA01F0C5FF01F03C
:101B900065FCFFF777FD10BD0020004010B505483B
:101BA0000169C907C90F04D00121C943016101F0CE
:101BB000B9FB10BD002C014010B501200649C043FF
:101BC000086100F089F801F0ADFB01F0DFFE00F0E4
:101BD00065FC00F025FF10BD0004004010B5FF219A
:101BE00042310020FFF7A6FF10BD000010B50249EA
:101BF0001020FFF79FFF10BD151F010010B5FFF764
:101C0000EDFF0F496C20FFF795FF0E497020FFF79D
:101C100091FFFFF7EBFF00211320FFF78BFF00215F
:101C20002220FFF787FF08491420FFF783FF0021D8
:101C30004020FFF77FFF05494220FFF77BFF10BDE3
:101C40008302001024000DC1FFFF0F0069C50000D2
:101C500010B50E4C04212046FEF781FF01212046DD
:101C6000FEF77DFF0924E40680212046FEF777FF7A
:101C700040212046FEF773FF10212046FEF762FF49
:101C800020212046FEF76BFF10BD00000004004835
:101C90000A4810B50246C37851699269002B02D0F8
:101CA000914204D801E0914201D9FF2100E00021D6
:101CB0008170C8B201F0AEF910BD000050020020E2
:101CC00000B50320FFF772FE40210920C0068162A3
:101CD0002021816100BD00000549C87C022805D192
:101CE0000120C87403494A6902434A6170470000F1
:101CF000080000200004004010B50548C169C9066D
:101D0000C90F03D01021016201F04CFF10BD00008B
:101D10000038014010B50548C169C906C90F03D094
:101D20001021016201F08EFF10BD00000044004050
:101D300010B50E4C0B46227A002AFDD1A072FFF797
:101D400055FE0A48A27A19460C38FEF7E1F9A27A44
:101D5000074C02212046FEF791FF02212046FEF7A4
:101D600069FF02212046FEF759FF10BDCA0000207E
:101D70000000024010B5084C04212046FEF742FF47
:101D80000120400360604010606004212046FEF79F
:101D90002DFF00F071F810BD00000240014828211D
:101DA000C17270472101002070B50E4E05213046EA
:101DB000FEF74CFF1325281AC1B20B4C00296172A3
:101DC0000ED005213046FEF711FF0848016849088A
:101DD00049000160607A132800D96572FF202072E3
:101DE00070BD000000000240F700002000440040E9
:101DF00010B50120FEF7D6FE1D4C1C4A05212046D9
:101E0000FEF78EFF1B4A05212046FEF755FF1322E1
:101E100005212046FEF732FF002205212046FEF76D
:101E20003BFF0122520305212046FEF719FF002245
:101E300005212046FEF77EFF802205212046FEF781
:101E400045FF002205212046FEF782FF00220521E2
:101E50002046FEF749FF002205212046FEF752FFEB
:101E600005212046FEF7DAFE10BD000024440040A4
:101E700000000240EB0000200248002101722821EE
:101E8000C17270472101002070B50120FEF78AFE63
:101E9000204C1F4A04212046FEF742FF1E4A04211F
:101EA0002046FEF709FF102204212046FEF7E6FE39
:101EB000102204212046FEF7EFFE01256D032A467D
:101EC00004212046FEF7CCFE002204212046FEF726
:101ED00031FF802204212046FEF7F8FE0022042173
:101EE0002046FEF735FF002204212046FEF7FCFEC7
:101EF000002204212046FEF705FF6560A014606003
:101F000000210B20FFF778FA0B20FFF749FA70BD8C
:101F1000284400400000024015010020F0B526488A
:101F20000121C2698FB049040A43C261C069012519
:101F300008400D90002404200226032704956A46D9
:101F400005950394C1C209206946C006FEF70EFF3D
:101F5000082004956A4605950394C1C20920694684
:101F6000C006FEF703FF00211C20FFF745FA1C20E6
:101F7000FFF716FA4B20C0010690079408940994C5
:101F80000B940C940C200D4C0A9006A92046FFF7E8
:101F900015F8A06840210843A060A068802108438C
:101FA000A06020682843206010202062216801433F
:101FB00021600FB0F0BD000000100240004400405E
:101FC00010B50B48007901F02BFD80B20949FF28BC
:101FD00007D2074A2032927B002A02D0FF228A745D
:101FE00002E000228A744A70FFF722FC10BD000054
:101FF00050020020080000202021020C01D01021F6
:102000001046020A01D010460839020901D01046D4
:10201000091F820801D01046891E420801D0881E7F
:102020007047081A704702E008C8121F08C1002A4A
:10203000FAD170477047002001E001C1121F002A49
:10204000FBD1704770B50E490124CD780A460020B7
:10205000FF23126A002D02D0FF2D07D00EE08D69FC
:1020600005E00024AA4205D98B7004E04D69AA421C
:10207000F7D103E08870887800F0CCFF204670BD6F
:102080005002002010B51C4A1C4C907A00281FD02A
:10209000012824D101F054F802209072206AA06136
:1020A000616900F03BF8FF23F5330021E0619842BD
:1020B00016D95173FFF784FFFF20E070FFF7E8FDAA
:1020C0000121084600F044FF012000F01FFD0FE051
:1020D00001F036F80120907209486061206210BD5D
:1020E0009172A1612162E1610121084600F030FF97
:1020F00001F026F810BD000008000020500200206A
:10210000FFFFFF7F10B50449887000F083FF642053
:1021100001F072FC10BD000050020020814201D984
:10212000081A7047401A704703494888002801D0B0
:10213000401E488070470000000000201249488B74
:102140000F2801D8962002E0132802D8502088706A
:102150007047192801D83C20F9E7262801D8282003
:10216000F5E72B2801D82320F1E73D2801D81E20D0
:10217000EDE74B2801D81420E9E75B2801D80F20B0
:10218000E5E70720E3E700000800002000B51D4A4E
:10219000507B012834D11178002931D05078814208
:1021A00001D000282CD19078002829D1164800238E
:1021B0000079022902D0012914D01FE001F030FC7F
:1021C000518B884201D9491C12E0137050780228C3
:1021D00003D05079002802D010E0D1720EE000F058
:1021E000AFFF0BE001F01CFC518B884205D2491E69
:1021F00088B2508300F084FF00E01370FFF79EFF69
:1022000000BD00000800002050020020F1B54D4D37
:102210000020A8830126FEF78DFC009884190F2C5E
:102220000BD8601CFEF75CF94749FDF7FDFF4749F5
:10223000FEF737F8014646486CE0132C0BD8601CBB
:10224000FEF74EF94049FDF7EFFF4049FEF729F848
:10225000014640485EE0192C0BD8601CFEF740F99F
:102260003949FDF7E1FF3949FEF71BF801463A48C5
:1022700050E0262C0BD8601CFEF732F93249FDF7EE
:10228000D3FF3249FEF70DF80146344842E02B2CCB
:102290000BD8601CFEF724F92B49FDF7C5FF2B492D
:1022A000FDF7FFFF01462E4834E03D2C0BD8601CA3
:1022B000FEF716F92449FDF7B7FF2449FDF7F1FFB2
:1022C0000146284826E04B2C0BD8601CFEF708F985
:1022D0001D49FDF7A9FF1D49FDF7E3FF014622480F
:1022E00018E05B2C0BD8601CFEF7FAF81649FDF7D6
:1022F0009BFF1649FDF7D5FF01461C480AE0601C0C
:10230000FEF7EEF81049FDF78FFF1049FDF7C9FF02
:1023100001461748FDF7C5FF0746A88BFEF7E0F812
:102320003946FDF728FFFEF7F1F8A883FF2C04D803
:10233000761CF6B2FF2E00D26DE780B26430A8831F
:10234000F8BD0000080000200080FA4300803B47F1
:10235000000016430000A04200007042000020422E
:1023600000000C420000F0410000A041000070415C
:102370000000E040F8B5454E3078902876D170786E
:102380000025002814D031460127CA78404C042883
:1023900011D021463346096C1B79052819D006282F
:1023A00027D0072863D0082864D0092867D06AE0BE
:1023B00001F0C0F867E0002A65D0F570E770354895
:1023C000A5734078002802D10021012054E00020AC
:1023D00049E0012A57D1012B02D0022B03D052E051
:1023E000FF20A0734FE0A573607A00284BD109202D
:1023F00042E02748012A407B04D0022A13D0032A56
:102400002CD040E0012808D0677300F099FE01202D
:10241000214940038862E5732575A5716572E571F0
:1024200025646575D3E7022810D002206073A56487
:10243000E573A56517482572408A884200D825644F
:1024400000F07EFE00F070FD00F002FB012000F0C5
:102450005DFB00F029FCA575657114E0032812D01E
:1024600003206073012000F051FB0CE00DE06421BB
:10247000022001E00021032000F06AFD03E0FF2BB1
:1024800001D100F013FF7570B570F8BD7000002029
:10249000080000205002002000080048F8B52C4C2D
:1024A000607B03280CD02B4EFF2730467269B16940
:1024B000006A00258A4204D9884206D9904208D28F
:1024C000F8BD8A42FCD2884201D3F77002E0904204
:1024D000F6D8F570FFF7DCFB002000F017FB257045
:1024E000E07BFF2805D0AA280AD0607B01280BD00A
:1024F0000EE0E573657000F023FE1748E083F8BD39
:1025000000F01EFEE573F8BD6178002900D025704B
:102510007179002909D00128F5D1B07900280CD0B3
:1025200000F00EFE65712575F8BD0128FCD16571BE
:1025300000F006FE25752570F8BDA07C0028FBD0B4
:1025400060790028F8D001206070E772F8BD0000C3
:102550000800002050020020E903000010B500F040
:1025600001F810BDF8B52248FF2600780136214D4C
:102570007700214C002803D0FF2828D0AE61F8BD99
:10258000607A0028FBD11D4880790028F7D1092006
:102590001021C006FEF73EFC002804D0AE62AF61F9
:1025A0000020E075F8BDA08C0028FBD17D20C00084
:1025B000A084E07DC0430006000EE07502D0AE614D
:1025C000AF6201E0AE62AF61FF20A075F8BDA08CE4
:1025D0000028FBD1C820A084E07DC0430006000E87
:1025E000E07502D0AE62AF61F8BDAF62AE62F8BD19
:1025F00000000020000400480800002050020020D5
:1026000070B586B0044614216846FDF79AFD1E4D4C
:102610002878002835D020784E2802D001211BA030
:102620002DE00120694606E00B18203B401CC0B29B
:10263000DA77142802D2225C002AF5D10918002684
:102640002039CE772018817840780C02044310A0FE
:1026500001F0ECF9024669460DA0FDF77DFD00286A
:1026600003D02E7001210CA009E007204003844212
:102670002E7002D8BB2000F0D9FA012107A0FFF785
:10268000BDF906B070BD00006A00002047000000E0
:102690004733302D4D0000004E0000004600000082
:1026A00030B5164A5079002811D010465378458B22
:1026B0000178C07A002B14D00024022908D0012907
:1026C0000BD0022903D1022B01D15083547030BDAD
:1026D000012BF8D1A842F8D801E0012BF7D11470F2
:1026E00030BD0229FCD18542FAD20548407901F07B
:1026F00097F9D17A8842F3D9518330BD0800002080
:102700007000002010B50178032921D141780229F9
:102710001ED1817803291BD1C178042918D10179F0
:10272000052915D14179062912D1817907290FD1BF
:10273000C17908290CD1017A092909D1407A0A28DE
:1027400006D1044901200870014603A0FFF756F99D
:1027500010BD00006A0000204700000010B50023F3
:102760000B701A4604E08C5CE318521C9BB2D2B288
:102770008242F8D3D8B210BD10B588B000200590C1
:10278000069003900490009001900446029010225D
:1027900003A90F4800F044FE0C2269460D4800F0E2
:1027A0003FFE6846007E00280ED003A968460A5DF9
:1027B000035D9A4202D0FEF7BDF9FCE7641CE4B267
:1027C0000C2CF4D308B010BDFEF7B4F9FCE7000000
:1027D000001C0008ACF7FF1F10B50C4C606CFDF737
:1027E0007FFE616DFDF71CFDA16DFDF7C4FC7F212F
:1027F000C905A065884205DD01222272FDF70CFDA6
:10280000A06510BD0020207210BD0000080000204F
:1028100010B51448417A002923D0C18C7D22491C6F
:1028200089B2D200C18491421BD30021C184417C72
:10283000002901D0491E0CE0027C3B21002A02D075
:10284000521E027405E0028C002A03D0521E02843C
:1028500001744174817B002903D1016C092000F0CF
:1028600077FB10BD0800002070B51C4CA07A022830
:1028700021D31B4D688A00281DD0A079002600288E
:1028800021D001F09BFA688A216C884203D8E67156
:102890002664A665267200F035FAE07900280BD090
:1028A000012807D1E879002801D0022002E000F0D9
:1028B0003BFCE079607270BD00F050FC0028FAD15A
:1028C00000F0CCF970BD607AE071012005496672B4
:1028D0004003886200F034FC70BD00000800002056
:1028E000500200200008004810B50E483C22417AF2
:1028F000E1235143027A1B015A438918827A3C230F
:102900008A180949E1240A63027B24015A43C37AE5
:10291000407B6343D21810187D22D2004863504395
:10292000C86210BD5002002008000020F8B501F078
:102930002DF9374CA07900285DD0607A00285AD054
:10294000FF2601360025022817D0324F03282DD04C
:10295000042850D1E16BA06B81424CD3788A216C62
:10296000884249D8657200F0EBFBA571012000F0A8
:10297000CDF8A07B002839D03CE0E16CE06B8842C8
:1029800039D3216C491C2164A07B002802D1092085
:1029900000F0DEFA01202049400388611F4886616B
:1029A0000121490281620320E5632AE0E16AE06BCC
:1029B000884220D3FFF710FF0420E56360721649B8
:1029C000C002886215488662012149028161788AC5
:1029D000216C88420FD8657200F0B2FB6571A57159
:1029E000012000F093F82564657503E00920216C4F
:1029F00000F0AEFAE571F8BDE563F879002802D081
:102A000002206072F8BD0120607200F08DFBF8BDFD
:102A10000800002050020020000800480004004880
:102A200000B50A4A507A01280ED1906C401C90647F
:102A3000137A516CC918814206D800F081FB02203C
:102A400050720020D063906400BD00000800002098
:102A5000F8B5294C7D20656BC000454300F0D6FBDE
:102A6000264E274FF17900293FD04019FF30F5302D
:102A7000244988420DD32448401BFDF731FD00F066
:102A80009FF900F0C3FBF179002931D04019FF30E4
:102A9000F5307D22216BD2005143814224D2114670
:102AA000FDF720FB002900D0401CE1210901074669
:102AB0002063FDF717FB307205463C213846FDF7D1
:102AC00011FB014628463C225043081A70725043BD
:102AD000391AE122284612015043081AB072012027
:102AE00000F014F800206075F8BD4019C019BFE768
:102AF0004019C019CDE70000080000205002002056
:102B0000DC05000098C7A400BCC1A40070B5314921
:102B10000020162242435218127D002A03D0401C86
:102B2000C0B20328F5D3032816D016235843092230
:102B30000A5440180022284B427028495A7BCC780E
:102B4000022A0AD0012A21D0032A2DD00521817022
:102B5000C2700175FFF722F970BD10258570C27033
:102B60008A7A02714A7A42710A7A82714A7BC27108
:102B70000A7B0272CA7A42724A8A8272120AC2724C
:102B8000C97901734473997981730BE00A258570C3
:102B9000C2700A7902714A79427189798171C4716E
:102BA000597901720575D5E70D238370C2704A69A2
:102BB0000271140A4471140C8471120EC271896975
:102BC00001720A0A42720A0C8272090EC1720375FE
:102BD000C0E700002E010020080000205002002065
:102BE000F8B500260746104C08203546A062F809C3
:102BF00002D02020A06101E02020A0627806070E0C
:102C000008212046A16169060D0E1021FEF709F981
:102C1000002801D0012005430820A062761CF6B2EE
:102C2000082EE4D32846F8BD0004004872B601F02F
:102C3000ADF8BFF34F8F04490248C860BFF34F8F10
:102C400000BFFDE70400FA0500ED00E000B5FDF768
:102C5000FDFE042800D0FEE700BD000010B50F4CBB
:102C6000607B022818D1572000F044FA01200C495B
:102C70004003886141110B48816149008162216CE8
:102C8000491C2164A07B002802D1092000F060F9D2
:102C90000020E0630320607210BD000008000020E7
:102CA000000800480004004870B5144C607D0028FE
:102CB00023D1FF2060751248408A00281DD0216B67
:102CC000401E4843616B4618E12109013046FDF77B
:102CD00009FA208405463C213046FDF703FA0146F7
:102CE00028463C225043081A20745043311AE122EE
:102CF000284612015043081A607470BD0800002075
:102D00005002002070B5572000F0F4F900F07EFA70
:102D1000194C05467D21606BC9004843E062FFF70E
:102D2000C3FF1648C279E06A002A0DD02918FF3186
:102D3000F5317D23206BDB0058435B10002A07D060
:102D4000884212D8A36314E00D4928184118F0E70F
:102D50007D22D200884201D8A36304E0E16A401BCF
:102D6000401A801AA063E26470BDE16A401B401AF9
:102D7000A0630020E06470BD080000205002002025
:102D8000DC05000001490120087070476400002044
:102D90000748094A0178C9430B061B0E0370054911
:102DA000064802D0916190627047916290617047CD
:102DB000660000200002000000040048000100003E
:102DC00070B5134D06465720EC6900F029FE401CF3
:102DD000FDF78EFB00220F4BFDF7A2FA00220E4BEF
:102DE000FDF706FBFDF7C4FB01463046FDF759FA37
:102DF00006462046FDF774FB3146FDF752FAFDF713
:102E000085FBC0B2801C68820120FFF77FFE70BD89
:102E10005002002000507F400070E74086B062B64C
:102E20000121374882690A43826180690840009025
:102E3000FEF70AFE01204004FDF7A8FE01208004F1
:102E4000FDF7A4FE10200921C906886220208862AF
:102E5000402088628020886244008C62294A0001F8
:102E6000906200018862C0108862FDF776FD00F074
:102E700001F9FFF781FCFEF707F92046FDF7AAFEEE
:102E800001211320FEF796FA01251F49E002086090
:102E90001E486946088000201D4C01900390029551
:102EA0002046FDF7FBFF206828432060E0682843A8
:102EB000E060FEF74FF9FDF767FC174C15482060FE
:102EC000032060601548A060154D256015482060FE
:102ED00000F0AEF8FEF7B2FAFDF7B4FC256000F0A2
:102EE00043FAFFF753F900F0CBF800F0C7FAFFF709
:102EF0001DFDFFF733FB00F0BFFE00F077FEEDE7AE
:102F0000001002400004004800E100E0BF5D000046
:102F1000002000405555000000300040E204000051
:102F2000AAAA0000CCCC000010B5084CE07900281B
:102F30000AD10A21E069FDF7D5F8618A814200D9FA
:102F400060820120FFF7E2FD10BD0000500200206A
:102F5000F8B52C4B002216245443E418247D002C91
:102F600003D0521CD2B2032AF5D3032A48D0162527
:102F700009246A43244F9C54FC78E40740D0CDB226
:102F8000002808D00026062401280AD002281ED0D6
:102F9000032823D032E0D11848708D7003200875C3
:102FA0002CE0D21850709470002902D0012903D06F
:102FB0000BE0D670FF2005E001201449D070C969EC
:102FC000002901D0107100E01671147516E0D118B7
:102FD00048708C70CE700D710C750FE0D51868704C
:102FE000AC70EE700A49386DFDF71EF9FDF78EFAE8
:102FF00080B26421FDF776F829712C75FEF7CEFEBC
:10300000F8BD00002E010020080000205002002022
:103010000000C8420449002802D00420886270479A
:1030200004208861704700000004004870470000D9
:1030300010B500F059F90D48FF218173FEF7DEFD50
:10304000C82000F08DFDFEF7D9FD00F079F8FFF7FC
:103050004BFCFFF729FE0548002120388171C17122
:10306000007900F0DDFC0249488310BD70020020A9
:103070000800002010B500F063F8FFF7D7FF10BD7F
:1030800000B51A4A507B01282ED1907C00282BD005
:103090005078002828D01178884225D091780029CE
:1030A00022D10023022802D001280DD01AE0D07AC4
:1030B000FF2802D2401CC0B20FE0537050790028A4
:1030C00010D100F03DF80DE00948007900F0A8FCAF
:1030D000D17A884205D2491EC8B2D07200F010F8E9
:1030E00000E0537000F0F0F900BD0000080000207F
:1030F0005002002000B500F093FC00F001F800BD84
:1031000007498862074AD07C002804D0012801D1F1
:103110000220D0747047486901221043486170470B
:1031200000040040080000200348026801210A430F
:1031300002600248C174704700040040080000208B
:103140000448016849084900016003490020C87427
:1031500070470000000400400800002010B510492E
:103160000024C879002801D0002010BD4A69086AEF
:10317000904202D18A6990420ED0CA78FF20002A7C
:103180000CD000228A70074A0124D0738878FFF798
:1031900041FF642000F030FC204610BD8870F2E74B
:1031A000500200200800002070B5134DC820EC89A3
:1031B0007D2144431148C9004464288A484321467C
:1031C000FCF790FFFDF78CF90D49FDF72DF80D493F
:1031D000FDF767F87F21C905FDF71EF8FDF796F9A1
:1031E0000F2801D20F202C82074988624A690123E7
:1031F0001A434A6170BD0000500200200800002000
:1032000000803B470080FA4300040040F8B52348A3
:103210000027C2693C46002A19D0418A002900D003
:103220004C1E5720009200F0FBFB401CFDF760F99C
:1032300000221B4BFDF774F800221A4BFDF7D8F85B
:10324000054616480E46C079002802D024E000202A
:10325000F8BD002C1CD02046FDF742F90746009827
:10326000FDF73EF93946FDF71CF80F4F7865FDF77D
:103270004DF9786421460098FCF734FFFDF738F9E2
:103280002A463346FDF74CF8FDF754F9074603E0AC
:1032900005480021416441653846F8BD50020020D0
:1032A00000507F400070E740080000200D48FF21DB
:1032B00081706422027141710021F0220162428218
:1032C00081710172417203228272C1720173012203
:1032D00042737D22C171D200C281232202824170D9
:1032E000704700005002002010B50D4C3C220B49E5
:1032F000204600F095F809490878AA280DD000204A
:1033000048617D2000018861AA200870FFF7CEFF88
:103310003C220249204600F06DFD10BD5002002005
:1033200000F400080748807A002809D006498A7806
:103330000846006A002A01D0401E00E0401C0862D6
:103340007047000008000020500200200548017866
:10335000012905D1418B0C2900D9C17200210170CE
:103360007047000008000020FEB5002000902348B0
:10337000234D01906888002838D114206880214CA2
:10338000A888FDF7ADF82146FCF74EFF1E49FCF773
:1033900088FF1E4F06463124A000C1198039C96F2D
:1033A00039500098FCF7E7FE641E24060090240EB6
:1033B000F2D131463E60FCF7DEFE1549FCF771FFA5
:1033C0006978491CC9B2697032290FD900266E701C
:1033D0000199FCF729FF04460E48002104600F20E4
:1033E000FFF7B6FD0C48844201DC2E70FEBD0B4891
:1033F0008442FADCFF202870FEBD0000F628B040B1
:103400000000002000404E3F00007A448801002068
:1034100000004842580000203333B340D7A3D840BF
:1034200070B5044615460E46D00701D0551CEDB2C6
:10343000FDF780FB01230020DB02690808E0E218A9
:10344000944203D2228845007253A41C401CC0B28F
:103450008142F4D8FDF76EFB70BD00000649C87AC2
:10346000002801D0401EC87203495731C87A00288D
:1034700001D0401EC8727047CA00002000B5114933
:10348000487B01281CD04A78002A19D08878002867
:1034900016D108460023C07A022A02D0012A04D09D
:1034A0000CE0FF2809D2401C02E00D2805D9401E7F
:1034B000C0B2C872FFF724FE00E04B7000F004F8C1
:1034C00000BD0000080000201249C87A0F2801D86A
:1034D000962002E0132802D85020887070471928DF
:1034E00001D83C20F9E7262801D82820F5E72B2829
:1034F00001D82320F1E73D2801D81E20EDE74B2815
:1035000001D81420E9E75B2801D80F20E5E7072060
:10351000E3E700000800002010B50120C004FDF71B
:103520004DFB012149030248FDF719FB10BD0000C6
:1035300000080048F8B5F74F00263846FB780179B7
:10354000F54DF64C4079012B18D07A1C022B72D025
:10355000032B71D0042B10D101296ED002296DD01C
:1035600003296CD0042908D16071002868D001209B
:103570006072FFF719FEFFF7D7FDF8BDE74B002992
:103580005A795B7814D0FF27012946D002297BD0D5
:1035900003297AD0042979D0052978D00629ECD1DD
:1035A000002AEAD1DC4920318873FEF709FDF8BD15
:1035B0006428FCD8002A0ED02979FEF7AFFD012837
:1035C0001CD9207800280DD0787900F029FA618B79
:1035D00088420FD310E02078184317D000204CE128
:1035E000207013E0287900F01BFA6083787929793C
:1035F000884201D90120F3E70220F1E760782178C1
:103600000843EBD126707879FFF774FD787928713B
:10361000FEF7D6FCFFF744F89FE1A979002951D0C5
:10362000BD496B69AA69096A93420ED9994208D3C8
:10363000002845D009E0A2E045E189E190E19CE164
:103640009FE1914201D8FF283AD0934208D2994293
:1036500002D8FF2834D003E0914201D300282FD0B4
:1036600000F0ACFBAB4DAC496879C8708870FFF7CF
:10367000D1FCA879FF280BD0002898D1A07C002885
:103680001CD0022060701BE022E023E025E06DE00A
:10369000A07C00280AD0207D002804D12775384658
:1036A000E772FFF72DFD0120607003E09A48007972
:1036B000FFF720FDFFF738FD6771F8BDFFF740FD0C
:1036C0006671F8BD002BFCD1E870FEF7E1FAF8BD99
:1036D0006871F8BDA8712675F8BD00F06FFBE86948
:1036E00000287DD0A17A02297AD1FF21F5318842C4
:1036F00076D3A879002887480CD001235B0345794D
:103700005A11874C87485100002D2BD0A36182614C
:103710008162F8BD40796071002802D000F096FA0D
:10372000F8BDA07C002802D00220607004E0207860
:10373000002801D1FFF704FD20780128F0D160783E
:10374000022803D0FFF7FCFC2670F8BD608BFF2831
:1037500001D2E07204E0E77200206070FFF7F0FC35
:103760002670F1E7A36282628161F8BD002AFCD174
:1037700017E0642000F040F9AA20E073F8BD674B21
:1037800001299B7913D0022937D003295ED004295F
:1037900068D005296ED006297BD00729EED1002BF1
:1037A000ECD1E870FEF74EFC0028E7D1E1E7002BF2
:1037B00062D100F0E1F97979A972BA796A723C2391
:1037C0005A43F879E12328721B0158431018401816
:1037D00055492063884208D9022028723B2000E026
:1037E00061E06872A87221632CE0FFF731F900F004
:1037F00049F9FFF7C7FA6675F8BD002B3CD100F018
:10380000BBF979796973B87928733C235843FA79FD
:10381000E123EA721B015A43801840184249606351
:10382000891E884207D90220E8723B20287339207C
:103830006873616306E00028D7D1EE722E73012011
:10384000687360630120FFF761F9CEE7002B13D1A5
:1038500000F092F950791179000208436882FFF76D
:1038600063FBC2E7E8710028C6D1FFF7F1F800F06A
:1038700009F9F8BD002B04D00120FFF747F9F8BD86
:1038800007E0E9788142FAD000F076F97879E870BB
:10389000F5E7E869002806D0A17A022903D1FF21C3
:1038A000F531884208D2A6726E61AE61FF210B200D
:1038B0002E62FFF74DFBE2E700F080FA7879A07105
:1038C000FEF7D2FFDBE7607B032809D0032060739B
:1038D000FFF736FC6671A671A6726E61AE612E624C
:1038E000387901280AD0022828D00328C7D0042814
:1038F000C5D1A6726E61AE612E62C0E778790128EB
:1039000014D00228BBD1B879002814D00020FEF7CB
:10391000F9FBB4E7700000205002002008000020EE
:1039200000080048000400482F2A0000B879002849
:1039300001D0FF20EBE7FFF703FCA0E7A07A022805
:1039400003D1A6726E61AE612E62FEF79BFB96E715
:103950005079117900020843E881FFF713FA8EE7E6
:10396000B9793C225143FA79E1231B015A43891862
:1039700008182882FFF718FCEFE7A870FFF74AFB4A
:103980007DE7FFF7DDFB667279E7000030B5184888
:10399000417B012917D14179002914D015498A7931
:1039A000002A10D1827C002A0DD04D698C698B7859
:1039B0000A6A0146098DA5420BD96D1AAA4213D095
:1039C00061188A420AD030BD02214170FFF7BEFC67
:1039D00030BDA542FCD26D18AA4202D1002BF7D00F
:1039E000F2E7611A8A42F3D1FF2BEDD130BD00001E
:1039F000080000205002002010B500F011F8C0B2FD
:103A0000FEF704FC054BFF20D872FFF779FB01207D
:103A10005870FFF789FBFFF757FD10BD0800002025
:103A200001494000085A70477C3E0008002102E02E
:103A3000491CC9B2401C0278002AF9D108467047D7
:103A4000F0B5421884460020521E10700346491EED
:103A500013E06046C55C00241678E807F709C00F3C
:103A6000874203D070000726704000E070006D08A8
:103A7000641C1070082CEFDB5B1C8B42E9DBC0B2CE
:103A8000F0BD0000F8B5214D002416206043401918
:103A9000007D002803D0641CE4B2032CF5D3032C72
:103AA00033D01B48408A00282FD01A49401E0A6B89
:103AB000496B50434618E12109013046FCF712FBDF
:103AC00007463C213046FCF70DFB014638463C22B8
:103AD00050430A1A3C205043311AE12338461B0157
:103AE0005843081A16214C43092361194B70094B9E
:103AF0001B6C8B701B0ACB7008714A718F71072089
:103B0000087503202855FEF749F9F8BD2E0100205D
:103B1000500200200800002010B51048418C0029F8
:103B200001D0491E41848178002901D0491E81704D
:103B3000818C002901D0491E8184C18B012901D9C2
:103B4000491EC183417A012904D9C16B4A1C01D0A5
:103B5000491CC163FEF75CFE10BD00000800002098
:103B600010B5044C608401E0FCF7E4FF608C002891
:103B7000FAD110BD080000200348002181640172C1
:103B80000164C171C16370470800002010B504488A
:103B9000C18B012903D10021C183FFF75FF810BD5C
:103BA0000800002070B50E4E03213046FDF74EF898
:103BB0001025281AC1B20B4C002961720ED00321C6
:103BC0003046FDF713F808480168490849000160CC
:103BD000607A102800D96572FF20207270BD000045
:103BE00000000240A00000200038014010B512483B
:103BF000017A00291ED0002101720146427A0C3957
:103C00008738FCF785FA0D480168012211430160ED
:103C10000B4C132205212046FDF730F805212046E4
:103C2000FCF7FCFF04488738FEF7EAFC02488738B7
:103C3000FEF768FD10BD0000F700002000440040C2
:103C40000000024010B5FEF7AFF810BD10B500F04F
:103C5000B5F80748817C002902D00121417003E0BA
:103C600004480079FFF746FAFFF75EFA10BD00003E
:103C7000080000205002002010B500F01FF800F0EE
:103C800001F810BD10B50A48FDF7B2FA094A402103
:103C9000916100280AD0FEF76DFB0748C17A0A2916
:103CA00001D20A21C17202490020487010BD0000F3
:103CB0007000002000040048CA000020F8B52F4E14
:103CC0000024F07A00282FD12D4F16206043C5190B
:103CD000287D002829D0042C26D20720FDF770FA71
:103CE000402821D02749402088620020FDF78CFD24
:103CF00016204443E019017D2846FDF7B9FA224C0D
:103D00000027202816D0102822D06078052808D354
:103D10006770FDF793FB0020401CC0B22F7504288C
:103D2000FAD96078401C6070F8BD641CE4B2042CC1
:103D3000CBD3F8BD2F752820F072124D4020A86219
:103D40000120FDF761FD4020A86127706770F8BD74
:103D50002078401CC0B220700A2804D3287D002897
:103D600000D02F752770074C4020A0620120FDF77E
:103D70004BFD4020A0612820F072F8BDCA00002051
:103D80002E010020000400486B0000207FB504468F
:103D90000020094D00900190029003901022694686
:103DA0002846FFF73DFB68464473102269462846C3
:103DB00000F020F87FBD0000001C000810B5064888
:103DC0000178002906D0002101703C2203490448F3
:103DD00000F010F810BD0000640000205002002028
:103DE00000F4000800B5FCF769FE042800D0FEE7E7
:103DF00000BD0000F7B506461546D00701D0551C9A
:103E0000EDB2FCF775FE10493420C8603046FEF76D
:103E10001DFFFCF78FFE0121C902002477186D08F1
:103E20000AE0BE4206D201986100415A3046FFF7CF
:103E3000D9FFB61C641CE4B2A542F2D8FCF77AFEA6
:103E4000FCF734FEFEBD0000002002400000000030
:103E5000000000000102030406070809000000003A
:103E60000102030400000000040404000008000034
:103E70000008081C304458081C3044588813A50812
:103E80006C083408FD07C70792075E072B07F90681
:103E9000C806980669063B060E06E205B7058D05BD
:103EA00064053C051505EF04CA04A60483046104F7
:103EB000400420040104E303C603AB038F0375032E
:103EC0005C0343032A031203FB02E402D202C00292
:103ED000AE029C028A027802660254024302320257
:103EE00021021002FF01EE01DD01CC01BB01AA019C
:103EF0009901880178016801580149013A012B01B3
:103F00001D010F010101F300E600D900CD00C10041
:103F1000B500AA009F0094008A00800076006D0022
:103F200064005B0053004B0044003D00370031004B
:103F30002B00260021001D0019001600130011009F
:103F40000F000D000C000303010202010103000039
:103F5000000000000000020201020000000000005A
:103F6000000000000000000002000000000000004F
:103F70000000000000000000000000000000000041
:103F80000000000000000000000000000000000031
:103F90000000000000000000000000000000000021
:103FA0000000000000000000000000000000000011
:103FB00001010300000103010100000000000000F6
:103FC0000000000000000000E83F000800000020A2
:103FD00070000000262000085840000870000020F3
:103FE000200600003620000800000000000000004D
:103FF00000000000000000000000000000000000C1
:1040000000000000000000000000000000000000B0
:1040100000000000000000000000000000000000A0
:104020000000000000000000000000000000000090
:104030000000000000000000000000000000000080
:104040000000000000000000000000000000000070
:08405000000000000000000068
:04000005080000B53A
:00000001FF
