:020000040800F2
:10000000E8070020C9000008ED190008B70F000834
:1000100000000000000000000000000000000000E0
:10002000000000000000000000000000011E0008A9
:100030000000000000000000D91C0008C11E0008DC
:10004000DB00000800000000DB000008DB00000807
:10005000DB000008DB000008DB000008DB00000814
:10006000000000006F0C0008710C0008790C0008FB
:10007000DB00000871200008DB0000080000000021
:1000800075200008DB000008000000003120000897
:1000900059200008DB000008DB000008DB00000836
:1000A000DB000008DB000008DB000008E12100089D
:1000B000FD2100080348854600F09EFC00480047EB
:1000C000D53D0008E8070020044880470448004761
:1000D000FEE7FEE7FEE7FEE7FEE7FEE7551F000846
:1000E000B500000830B50B4601460020202201244F
:1000F00009E00D46D5409D4205D31D469540491B5C
:100100002546954040191546521E002DF1DC30BDA4
:1001100003460B439B0703D009E008C9121F08C020
:10012000042AFAD203E00B780370401C491C521ECB
:10013000F9D27047D2B201E00270401C491EFBD2D6
:1001400070470022F6E710B513460A4604461946E2
:10015000FFF7F0FF204610BD30B5054600200346EE
:1001600000E05B1C934205D2EC5CC85C201A01D114
:10017000002CF6D130BDF8B502464A40D40F4200FB
:100180004B0052085B089A4202D2024608461146CA
:100190004A0023D0C30D4A00DDB2120EAD1A202D45
:1001A00035DA49020126490AF6058A19002C00D0E1
:1001B000524220214F1B1146B9402A411018C20D4E
:1001C0009A4221D0002C17D0012D08DCDA05801AC4
:1001D000D20F8019D207DBB200F042FBF8BDDA057E
:1001E000801A012340001B06C01880185A4280184C
:1001F000CA0F1043490007E04908C2071143DA0556
:10020000801A80194008801800F022FBF8BD6100B8
:100210000122511A001BF7E70122D2075140AAE739
:100220000122D2075040A6E7024670B54A40D30FDC
:10023000DB0740002DD04A002AD0010E140E000228
:1002400012020919400A520A8418E501044654436F
:10025000000A120A2E045043A4194219200CC54367
:10026000AA18120C0125AD03521C521912047F3931
:10027000240400D0521C104301D44000491EC2B2D5
:100280000C06C0092018401C4008802A02D003E058
:10029000002070BD40084000002900DA002018430B
:1002A00070BD70B502464A40D50F40004A00ED07C8
:1002B00040085208002814D0002A12D0C40DD30DD3
:1002C00041020120C0055202490A520AE41A0918E3
:1002D00012187D34914201D3641C00E04900002CC7
:1002E00001DA002070BD0023914201D3891A034333
:1002F000400849000028F7D100290AD0914202D1D4
:100300000121C90705E0914201D2012101E001214B
:10031000C943E005C018401900F09AFA70BD00000A
:10032000F0B507460846584087B0C00F0490480013
:100330000E46590040084908BC1A884105D2384683
:1003400031461E4617460B460246580040081043E9
:100350004CD0300D039040055900400D490D0590DB
:10036000401A0290402872DA18030121000B090597
:100370000843019004980092002805D00199524248
:100380000020884100920190029840210A1A0199A8
:10039000009800F029FA05460C466B4607CB00F0A2
:1003A00044FAC0197141039A0E0D0023D717564025
:1003B0001A467A40164344D0049A002A2DD0029A55
:1003C000012A039A15DC1205C01A9141012636054F
:1003D000001C7141D20F059ED20700930192029634
:1003E0002A46234600F082FA07B0F0BD384631466F
:1003F000FAE71605224A0F46B218C01AB741012182
:100400000905001C4F4100187F4111461818794119
:10041000E20F10436D19644113E0E2076D081543C4
:100420006408C2071443039A01261205C01A9141B9
:100430003605001C7141CE07400830434908C018FA
:1004400051412A46234600F044FACDE7FFE70498DD
:1004500001224000C117121A00238B410498314633
:10046000C417381AA141EEE730B40124E407634011
:1004700030BC55E730B40124E407614030BC4FE79D
:100480000000E0FFF0B51FB488B00B990998002474
:1004900048400999C00F490049080991C0070B99C4
:1004A0000090490049080B9109990898A64608430D
:1004B0001CD00B990A98084318D0099801244000D1
:1004C000420D4800410D099824050003000B20430C
:1004D00009900B980003000B20430B9050181C4907
:1004E0004018002201901446104605E00020014605
:1004F0000DB0F0BD032801DA034600E003239C465B
:10050000C11A0AAE0AE05F0008ADED5B4F00F75B71
:100510007D430027AA187C41491C5B1E6145F2DD22
:10052000410004AB5A522104120C0A43240C401C13
:100530000828DFDB01980290009970460191009035
:10054000059B049A0799069800F0D0F9D0E70000BF
:100550000DFCFFFFF0B50C465C4085B0E40FE407EE
:1005600003944C000026640859009446490802464A
:100570000296224321D062460A431ED06200570DE4
:100580004A000E032303550D012402462C4924057D
:10059000781B1B0B360B4018234326436146009003
:1005A0001C46501AB44103D30098401C009002E04E
:1005B000921800985B41002803DA0020014605B03C
:1005C000F0BD0020012109050746864611E064467A
:1005D0001D46141BB54106D36546521BB3417446F4
:1005E00007430C43A646CD07400849082843921804
:1005F0005B4105460D43EAD11046184313D06046CF
:10060000194650407140084306D06046101AB34165
:1006100006D20122002306E000220123DB0702E0CC
:100620000122D2435310009874460105381C6141E1
:10063000029C039D0019694100F04BF9BFE70000DF
:10064000FD03000070B54B005B0803430BD04B006B
:100650005C0D002633466542B341D417AD1AA34161
:1006600002DB0020014670BD12053018514170BDFB
:1006700010B500229623114600F0F2F810BD0000DC
:100680000EB505490291002100910A460B460191E1
:1006900000F02CF903B000BD33040000410040021B
:1006A0000122400AD205090E80187F2901DA0020B4
:1006B0007047962903DC9622511AC8407047963934
:1006C000884070474A0009030123090B1B051943A1
:1006D000094B10B5520D9A4201DA002010BD064BAD
:1006E00034339A4203DC9A1A00F08EF810BD0349A5
:1006F0005118884010BD0000FF030000CDFBFFFF34
:10070000C20FD207400040080BD0C10D0723DB0108
:10071000C91840020905400A1143C20840071143A5
:100720007047002001467047CB0FDB07490010B52A
:10073000490802460A4307D00A0D07240903E401C9
:10074000090B121B002A01DC002010BDC900440F58
:100750000C43C100E018D205801800F079F810BDF4
:100760000122D207002800DB101A002900DB511AF1
:10077000814270470122D207002800DB101A0029AD
:1007800000DB511A88427047F0B51FB406460020BE
:1007900082B005464024019100901BE00199224659
:1007A0000F46304600F030F8049A059B801A9941B4
:1007B00010D310461946224600F016F8361A8F411B
:1007C0000197224601200021009F00F00DF8381803
:1007D0004D4100902046641E0028DFDC019B0098FC
:1007E0002946324607B0F0BD10B5202A04DB014689
:1007F000203A9140002010BD914020239C1A0346CE
:10080000E3401943904010BD10B5202A04DB084690
:10081000203AD040002110BD0B46D340D0402024C8
:10082000A21A91400843194610BD10B5202A06DBD4
:10083000CB170846203A1041C1170B4306E00B4680
:100840001341D0402024A21A91400843194610BDFC
:10085000002904DA401C490001D1400840007047DB
:1008600070B40024050C05D11024000402D1002925
:1008700021D01124050E01D100020834050F01D149
:100880000001241D850F01D18000A41C002801DB7C
:100890004000641C002908D020252E1B0D46F54081
:1008A000A14000D001212943084301061B1B000A77
:1008B000DB1D02D5002070BC7047DB0518188018BE
:1008C0000029F8DA401C4900F5D170BC400840000E
:1008D000704710B5002B08DA0024401C61419218C3
:1008E0005B411A4301D14008400010BDF0B51FB470
:1008F00082B005460C0003D0084601F0E7FD02E097
:1009000001F0E4FD20300246009021462846FFF722
:100910006BFF049B059A04460F4618431143084396
:1009200014D0184610431BD0009840210A1A1846CC
:100930000599FFF769FF05460E46009A0599049848
:10094000FFF752FF084305D0012004E02046394656
:1009500007B0F0BD0020C11705430E432C433743B9
:1009600000990E986305401A7905E40A00220C43A9
:10097000FD0A0A3002D500200146E9E701051019F9
:1009800069410C9C0D9D00196941FFF7A2FFDFE74B
:100990004A0009030123090B1B0519430A4B10B533
:1009A000520D9A4202DA0020014610BD064B343344
:1009B0009A4203DC9A1AFFF727FF10BD034BD218A7
:1009C000FFF712FF10BD0000FF030000CDFBFFFF8B
:1009D00010B5002904DB0124E40740428C41214684
:1009E000002B04DB1C460123DB075242A341994242
:1009F00000D1904210BD0000064C0125064E05E0D6
:100A0000E36807CC2B430C3C98471034B442F7D32F
:100A1000FFF754FB98C60008B8C6000810B50C4B89
:100A200000219A681724A2435C0522439A600F2391
:100A30001B038268491CD20FD207994201D0002AB9
:100A4000F7D18168002901DB006C10BD002010BDCA
:100A50000024014010B500F005F800F01DF800F08A
:100A600033F910BD00B50B480121826987B04902F6
:100A70000A4382618069084006906020009003204C
:100A800001900020049009206946C00600F0C2FCD5
:100A900007B000BD0010024010B51C4C6020A062E1
:100AA000E06818218843E060E068611488430843E7
:100AB000E060E068032189028843E060E06820216B
:100AC0008843E060E068042188430843E06061698E
:100AD0000520C908C900014361612046FFF79EFF58
:100AE00001202060E168032081430143E160A168A7
:100AF00007480140491CA1602168C907C90FFBD004
:100B0000A1680140091DA16010BD00000024014042
:100B1000E8FFFF7FF8B507461C4615460E462A201B
:100B200000F07CFB3804000E00F06FFBF8B200F020
:100B30006CFB2804000E00F068FBE8B200F065FBD7
:100B40002B2000F06BFB3004000E00F05EFBF0B2D7
:100B500000F05BFB2004000E00F057FBE0B200F059
:100B600054FB2C2000F05AFBF8BD0000F8B51E4CD9
:100B7000002831D03F201D4D4001A8601723B0222E
:100B80000021AE20009400F042FA1823C822002170
:100B9000B120FFF7BFFF002670003018002500903D
:100BA0000098411912480024475C0120A0403842B7
:100BB00002D00E48806800E00B4800F017FB641C70
:100BC000E4B2082CF1D36D1CEDB2032DE8D3761CF2
:100BD000F6B2182EE0D3F8BD1723AD2200217E20F7
:100BE000009400F014FAF8BD18C600007C00002044
:100BF000C4AB000806490120162242435218127D58
:100C0000002A04D0401CC0B20328F5D3FF2070474F
:100C100033010020024600B500200D4B012909D008
:100C200000290FD002290CD110465A6000F012F8AA
:100C3000182104E010465A6000F00CF80C214843DB
:100C4000C0B200BD10465A6000F004F84008EFE75B
:100C50007C000020024600210846535C002B04D093
:100C6000491CC9B21529F8D3704708467047704728
:100C700010B500F015F810BD10B501F0ADFB10BDBA
:100C800010B501F005FA00F05FFE04F079FF03F003
:100C90007DFB01F0BFF805F0B9FA01F095F810BD41
:100CA00010B5084C0221204600F0E6FA20206060D2
:100CB000102060600221204600F0D2FA01F05EF8B8
:100CC00010BD00000000024038B5264801214269ED
:100CD0000A4342614069244C0840254900900B7842
:100CE0002148224A08341A511F4B0C78214A0C33F0
:100CF000E25002240B78021D9D582D0C2D04254333
:100D00009D500B78C2581C4C2240C2500A78835820
:100D100003242403A34383500B78C2584024A243E6
:100D2000C2500C78025980239A431A4302510B781F
:100D30008415C25803252D02AA432243C2500A78C3
:100D400004158358AD00AB43234383500C780359FB
:100D500020229343134303510978425801231A4335
:100D6000425038BD001002400000024040240140C3
:100D7000C56200080A000020EFBFFFFF012000034A
:100D80000921C906886202490120087070470000E5
:100D900092000020F0B50B2706463F04384600F0CD
:100DA000ABF804280FD1084C2069022528432061A4
:100DB00066612069402108432061384600F09CF8B4
:100DC0002169A9432161F0BD0020024008490420A7
:100DD000CA68D20701D001207047CA68D20601D57F
:100DE00002207047C9684907FBD5032070470000FF
:100DF00000200240024801698022114301617047CE
:100E0000002002400348016901225203114301619D
:100E100070470000002002400248016942159143DA
:100E20000161704700200240F0B50B2706463F04E1
:100E3000384600F061F804281ED1104C20692025A6
:100E4000284320612069402108432061384600F092
:100E500053F804280BD12069A8432061206910258C
:100E60002843206106480680384600F045F80528EA
:100E700002D02169A9432161F0BD00000020024099
:100E800000F8FF1F04480169890503D40349816004
:100E9000034981607047000000200240230167453C
:100EA000AB89EFCDF0B50B2706463F040D4638461B
:100EB00000F022F804280CD1064C206901210843D7
:100EC00020613580384600F017F82169490849004B
:100ED0002161F0BD0020024004480169090603D5E4
:100EE000034941600349416070470000002002400F
:100EF00023016745AB89EFCD00B50346FFF766FFD9
:100F000002E0FFF763FF5B1E012803D0002B00D136
:100F1000052000BD002BF4D1FAE700007FB50446A0
:100F20000C480D4E456C2846FFF7EAFBB5420246D9
:100F30000B4601DA09A100E00AA101A801F0B2FA0A
:100F4000012000906006010E08A301AA482000F0CD
:100F50009DFD7FBD5C0300200000204130252E3127
:100F600066530000252E316653000000200000006B
:100F70000249014808607047AAAA000000300040FA
:100F800000B587B0009100210122029103910192E6
:100F90000492694600F03EFA07B000BD00B587B084
:100FA000009100210191029103910491694600F0A2
:100FB00031FA07B000BDFEE710B50924E4060121AF
:100FC000204600F082FA00280AD0282004F070FFA2
:100FD0000121204600F079FA002801D004F018FC25
:100FE00010BD70B50646EF2300211A460846FFF7EC
:100FF00091FD0024FFF7BCFF0025304600F0F6F815
:101000006D1CF02DF9D3641CF02CF3D370BDFFB52B
:1010100081B016460C460546F0281CD2F02C1AD298
:10102000B54218D00498844215D0AE4213D3A042E2
:1010300011D303462846FFF76DFD274608E02C46EE
:1010400003E00A9800F0D2F8641CB442F9D97F1C7E
:1010500004988742F3D905B0F0BD0000FFB585B014
:101060000024314802944078002808D042200190A2
:101070000598D82853D80698D82850D84BE0542043
:10108000F5E7079900200B19611C00910FE04C2136
:10109000089D414369580D5DAA4206D1009D5E78C6
:1010A000495D8E4201D1029004E0401CC0B201991A
:1010B0008842ECD3FFF75CFF069B059A1946104661
:1010C00017321733FFF726FD02984C214843089941
:1010D0000026401803908019077900250120A840B8
:1010E000384201D0114804E011480078002800D0AF
:1010F0001F2000F07BF86D1CEDB2082DEED3761C9E
:10110000F6B2482E01D20398E5E707484078002858
:1011100007D00098C4B20798025D002AB1D109B087
:10112000F0BDA41CE4B2F6E75C030020FFFF000062
:1011300036000020FFB581B000264DE0FFF718FF14
:101140000398805D2038C5B20198E42848D80298F9
:10115000D82845D80346019A0146104617330B326A
:10116000FFF7D8FC3020454304980024281800904D
:10117000075DE00706D000250120A840384214D0C2
:10118000184817E000250120A840384201D0154832
:1011900004E015480078002800D01F2000F026F851
:1011A0006D1CEDB2082DEED30AE00F480078002840
:1011B00000D01F2000F01AF86D1CEDB2042DDBD317
:1011C000641CE4B2302C01D20098D1E701981030B1
:1011D000C0B2761CF6B201900398805D0028ADD1B4
:1011E00005B0F0BDFFFF00003600002010B504463A
:1011F0000120C0020921C90688612004000E00F008
:1012000055FEE0B200F052FE10BD10B501210922DA
:10121000C902D206916100F049FE10BD10B501214E
:101220000922C902D206916200F040FE10BD000002
:1012300008B504494A6902434A614969014000917D
:1012400008BD00000010024008B504494A69024385
:101250004A6149690140009108BD00000010024048
:10126000044A51182039C97F42585208520042504E
:1012700070470000C0620008044A51182039C97F35
:10128000425802239A43425070470000C06200084F
:10129000044A51182039C97F425801231A43425049
:1012A00070470000C0620008044A51182039C97F05
:1012B000425801231A43425070470000ACC0000856
:1012C000044A51182039C97F425802231A43425018
:1012D00070470000C0620008034A51182039C97FD6
:1012E000001D085880B27047C0620008054B10B559
:1012F00059182039C97F435803242403A3431343B7
:10130000435010BDC0620008054B59182039C97FF1
:10131000001D0B581B0C1B0413430B50704700009F
:10132000C0620008054B59182039C97F001D0B58B1
:101330001B0C1B0413430B5070470000ACC000088B
:10134000054B10B559182039C97F4358034C234029
:101350001343435010BD0000C0620008EFBFFFFF01
:10136000034B59182039C97F0C300A5070470000D0
:10137000C0620008054B10B559182039C97F435881
:101380008024A3431343435010BD0000C0620008F3
:10139000054B10B559182039C97F43580324A402BE
:1013A000A3431343435010BDC0620008054B10B562
:1013B00059182039C97F43582024A343134343506D
:1013C00010BD0000C0620008034B59182039C97FC6
:1013D00008300A5070470000C0620008054B10B585
:1013E00059182039C97F43584024A343134343501D
:1013F00010BD0000C0620008054B10B55918203917
:10140000C97F435803242402A3431343435010BD10
:10141000C0620008F0B500243EE001232A46A34044
:101420001A4038D04F680668134653435D005D1973
:10143000AE435F433E4306604E68012E01D0022E4C
:1014400005D18F6886685F43AE433E4386600F696F
:10145000C668AE431D467D432E43C6604D68022DCF
:1014600019D1FF2A0AD84E69056A534353431A011A
:10147000D21A954373431D4305620CE0130A1A46C2
:101480005A435A435A4313019E1A4D69436A6A43A9
:10149000B34313434362641C0A681546E240BCD15F
:1014A0004A68012A01D0022A06D1CB6841682A463F
:1014B00091435A43114341600120F0BD00698143CB
:1014C00001D000207047012070470069814301D09E
:1014D000002070470120704710B5044600F018FC4A
:1014E000206000F0FBFB606000F006FCA06010BD17
:1014F000014610B5002000290FD110490A6B920750
:10150000920F012A0AD0022A11D0032A09D000F032
:10151000FFFB00F0E3FB00F0EFFB10BD00F0F8FB79
:1015200010BD09688907C90FFAD0054810BD096ABE
:101530008907C90FFAD00120C00310BD0010024076
:1015400000127A0010B5036800225B06DB0F25D17C
:101550000CC98C681A434B6823431A43CB681A435F
:101560000B691A434B691A438B691A4303680C4C85
:1015700023401A43026042680A4B1A40CB681B0C96
:101580001A430B681A43426001238A695B030839D6
:101590009A4202D1898C89B201610122104610BDA4
:1015A0004000FFFFFBF0FFFFF0B50268194B1A4C3B
:1015B000984201D0A04203D17025AA434D682A4326
:1015C000164D174E174F98420AD0A04208D0164C1D
:1015D000A04205D0A84203D0B04201D0B84204D105
:1015E00003242402A243CC68224302608A68C262B8
:1015F0000A888262984205D0A84203D0B04201D046
:10160000B84201D1097C0163416901221143416162
:101610001046F0BD002C0140000400400040014095
:10162000004401400048014000200040FEB504464F
:1016300000680D460026C007C00F43D1E9686868FE
:10164000AA69084329691143084321681E4A1140C9
:1016500008432060A968606803221203904308438E
:1016600060606969A068121190430843A060174840
:10167000844203D10020FFF73BFF06E01448844278
:1016800020D16846FFF728FF029800281AD0296861
:10169000002917D00126AA69F3039A420CD1400011
:1016A0004A088018FEF71EFD81B20A480840090763
:1016B000490F0143E16005E04A081018FEF712FDEA
:1016C00080B2E0603046FEBDF369FFFF00380140A4
:1016D00000440040F0FF000070B5114D0020297D4E
:1016E000002916D129465839162242435218127D34
:1016F000002A0FD004280CD2162250434418227D11
:1017000021460748FEF704FD207D287568750020F6
:10171000207570BD401CC0B20428E5D370BD000028
:101720008B01002038B5FF2501350924E406A562A8
:10173000C82004F0BDFBA561C82004F0B9FB280156
:10174000A061C82004F0B4FB3620FFF767FD7020CD
:10175000FFF75BFD002004F0ABFB3A20FFF75EFDD6
:101760005520FFF752FD002004F0A2FBB220FFF746
:1017700055FD0C20FFF749FD0C20FFF746FD00202A
:10178000FFF743FD3320FFF740FD3320FFF73DFD1A
:10179000002004F08DFBB720FFF740FD7720FFF716
:1017A00034FD002004F084FBBB20FFF737FD3F2011
:1017B000FFF72BFD002004F07BFBC020FFF72EFD80
:1017C0002C20FFF722FD002004F072FBC220FFF75F
:1017D00025FD0120FFF719FD002004F069FBC3205F
:1017E000FFF71CFD0020FFF710FD002004F060FB58
:1017F000C420FFF713FD2020FFF707FD002004F0B1
:1018000057FBC620FFF70AFD0F20FFF7FEFC002064
:1018100004F04EFBD020FFF701FDA420FFF7F5FCFC
:10182000A120FFF7F2FC002004F042FBE020FFF7CC
:10183000F5FCD020FFF7E9FC0420FFF7E6FC0D20C3
:10184000FFF7E3FC1120FFF7E0FC1320FFF7DDFCBE
:101850002B20FFF7DAFC3F20FFF7D7FC5420FFF7DF
:10186000D4FC4C20FFF7D1FC1820FFF7CEFC0D2054
:10187000FFF7CBFC0B20FFF7C8FC1F20FFF7C5FCD0
:101880002320FFF7C2FC002004F012FBE120FFF749
:10189000C5FCD020FFF7B9FC0420FFF7B6FC0C20F4
:1018A000FFF7B3FC1120FFF7B0FC1320FFF7ADFCEE
:1018B0002C20FFF7AAFC3F20FFF7A7FC4420FFF7EE
:1018C000A4FC5120FFF7A1FC2F20FFF79EFC1F2056
:1018D000FFF79BFC1F20FFF798FC2020FFF795FCEB
:1018E0002320FFF792FC002004F0E2FA2120FFF70A
:1018F00095FC002004F0DCFA1120FFF78FFC782023
:1019000004F0D6FA2920FFF789FC002004F0D0FA71
:101910000020FFF766FB0B48002100901723F02200
:101920000846FFF774FB012001F0D2FC3F20400184
:1019300000901023E9220721E620FFF768FB00F062
:10194000E1FB38BD18C6000010B5012109030248AB
:10195000FFF716FB10BD00000004004807480649C9
:1019600041800178002906D0002101700120000388
:101970000921C9068861704760EA000092000020D2
:1019800030B51248FF21C26987B001310A43C261F4
:10199000C069084005900121132000F033F80125AB
:1019A0000B49E80408600B486946088000200A4C8F
:1019B0000190039002952046FFF7F6FD206828432A
:1019C0002060E0682843E06007B030BD00100240AE
:1019D00000E100E0BF5D00000020004010B500F015
:1019E0001BFC00F06BFC00F0ADFC10BD704700006C
:1019F000C106C90E012088400149086070470000F7
:101A000000E100E08307FF22DB0E9A408907090E00
:101A1000994000280BDA0007000F083883080848AF
:101A20009B001818C36993430B43C3617047830835
:101A300004489B001B1818689043084318607047BF
:101A400000ED00E000E400E08307FF22DB0E9A4097
:101A50008907090E994000280BDA0007000F0838A3
:101A6000830808489B001818C36993430B43C3615C
:101A70007047830804489B001B181868904308436C
:101A80001860704700ED00E000E400E0FFB5054697
:101A90001D20414383B01746002422310C9ACEB258
:101AA0002046002A29D0012A4BD0022A5ED007B056
:101AB000F0BDFFF75DFAD82D02D900251836F6B231
:101AC000D82E05D900251F202E46C002FFF789FA1F
:101AD0000698284B015D68460171069801AA001915
:101AE000417868464171877131462846FFF7B6FA5A
:101AF0001835A41CEDB2E4B200E007460698005D7C
:101B00000028D6D1D3E7FFF733FAE42D02D9002518
:101B10001836F6B2D82E05D900251F202E46C00251
:101B2000FFF75FFA385D6946087000204870124B75
:101B30006A4631462846FFF7FDFA0C35641CEDB2C3
:101B4000E4B2385D0028DED1B1E7FFF711FA385D65
:101B50006946087000204870084B6A46314628469E
:101B6000FFF77CFA1835641CEDB2E4B2385D00284A
:101B7000EBD19CE7CC6200080CAC0008BC7B0008F1
:101B8000FEB505461D20414322313448CEB241788E
:101B900000241746002926D0012946D0022959D011
:101BA000FEBDFFF7E5F9D82D02D900251836F6B2AB
:101BB000D82E05D900251F202E46C002FFF711FAA6
:101BC000395D6846017138194178684641710021D4
:101BD0008171234B01AA31462846FFF73FFA183599
:101BE000A41CEDB2E4B2385D0028DAD1FEBDFFF7E7
:101BF000BFF9E42D02D900251836F6B2D82E05D942
:101C000000251F202E46C002FFF7EBF9385D69461C
:101C1000087000204870134B6A4631462846FFF78B
:101C200089FA0C35641CEDB2E4B2385D0028DED1CF
:101C3000FEBDFFF79DF9385D6946087000204870C9
:101C4000094B6A4631462846FFF708FA1835641CE6
:101C5000EDB2E4B2385D0028EBD1FEBD5C0300209C
:101C6000CC6200080CAC0008BC7B000870B5134CBB
:101C7000607D002821D1207E00281ED1FFF72CFD99
:101C80002546A135287D002817D0E07500F0BAF868
:101C9000E27D29462046FEF73BFAE27D084C022110
:101CA0002046FFF731FB02212046FFF709FB022106
:101CB0002046FFF7EDFA0020287570BDEA000020ED
:101CC0000000024003494888002801D0401E488097
:101CD000704700008C0000207047000004494968EC
:101CE000F0221140034A0909515CC84070470000C6
:101CF00000100240A862000803494968034A4905E8
:101D0000490F515CC840704700100240B86200089B
:101D100010B5064841680C200140054805D004294B
:101D200003D0082901D100F005F810BD00100240D1
:101D300000127A0010B50C4C6168012212040B48A5
:101D4000114002D0914200D14000E16A0907090F19
:101D5000491CFEF7C7F961680F2292041140890CF3
:101D6000891C484310BD00000010024000093D00DE
:101D70000148002101727047E00000200248002164
:101D80004175502101767047EA0000200921C906FB
:101D90000C4A01280AD002280BD003280CD00428B2
:101DA00003D1802088610120906270478020886282
:101DB000F9E78020886101E080208862012090613D
:101DC000704700000004004838B50B480121426903
:101DD00089050A4342614069084C0840009040214F
:101DE0002046FFF7CDF880212046FFF7C9F84020B4
:101DF000A0628020A06138BD00100240001400489D
:101E00007047000002480121417514210176704796
:101E1000EA000020F0B522480121C26991B089038F
:101E20000A43C261C06900240840109048101D4F49
:101E300005940225012600900294039469460496B5
:101E400001953846FFF7E6FAA8030594009002943E
:101E500003946946049601953846FFF7DBFA0320A0
:101E600080030690FF20053007900720000208A994
:101E700061C1280211C10D940E940B4C06A9204695
:101E8000FFF760FB6068102188436060606808218C
:101E900088436060206840210843206011B0F0BD95
:101EA00000100240000400480038004003498A68DE
:101EB0009207D20FFBD00873704700000038004033
:101EC000704700002148012102688A430A430260EA
:101ED0000068084038D01E480168012211430160A3
:101EE00001688907C90FFBD00168F822914380225D
:101EF0001143016005224168D2043D231B0499432C
:101F000011434160C16A09090901C16201680122E6
:101F100012061143016001688901C90FFBD04168B5
:101F2000F0229143416041680722120291434160CF
:101F300042680221920892000A4342600C224168E2
:101F400011400829FBD17047FEE700000020024045
:101F500000100240134801680122114301604168EA
:101F6000114A114041600168104A11400160016846
:101F7000012292049143016041683F22120491437F
:101F80004160C16A09090901C162016BFF22143273
:101F900091430163416B490849004163002181601D
:101FA00070470000001002400CB8FF08FFFFF6FE6B
:101FB000FEB504461A48542100784843194941188F
:101FC0000C2060430A181848417888001058FEF722
:101FD00021FEF021091ACA0F5118C9050D0E281843
:101FE000C0B2019020461D2148432230C6B230467F
:101FF0001830C7B200203B462A4631460090FFF712
:1020000006F8002000903B46F02231460198FEF78A
:10201000FEFF0648214642682846FFF7B1FDFEBD97
:10202000270000200CBE00085C0300207C0000207C
:1020300010B501200749C043086100F08BFF03F091
:102040000FFF03F0C1FB03F07DFDFFF73BFE00F047
:1020500077FF10BD0020004004480169C907C90F7F
:1020600002D00121C94301617047000000400140D6
:102070007047000010B505480169C907C90F04D0B1
:102080000121C943016103F02DF910BD0004004096
:1020900010B509208021C006FEF772FF03490448ED
:1020A000FEF76EFF0320FFF771FE10BD0104000074
:1020B000000400480EB50021019102910A2802D2C5
:1020C00002460AA105E06428024601D209A100E007
:1020D0000AA101A800F0E6F901200146009008A33A
:1020E00001AAA220FFF7D2FC0EBD0000202025642B
:1020F00025250000202564252500000025642525D0
:102100000000000008B57F2002220021C00500F079
:10211000E7FF022001F0DCF83F204001009010238F
:10212000572207215420FEF772FF08BD3EB51C4C14
:10213000228C0A2A01D21BA102E0642A03D21BA12D
:1021400001A800F0AFF9012519A301AA0221062078
:102150000095FFF79BFCE2780A2A01D215A102E064
:10216000642A03D215A101A800F09CF910A301AACA
:1021700002212A200095FFF789FC22790A2A01D240
:102180000FA102E0642A03D20FA101A800F08AF98E
:1021900007A301AA02214E200095FFF777FC3EBD60
:1021A0002C00002030256448000000002564480011
:1021B000200000003025644D0000000025644D0023
:1021C00030256453000000002564530000B5034827
:1021D0004088002801D1FEF7D1FD00BD920000200B
:1021E00010B50548C169C906C90F03D010210162A5
:1021F00003F094FE10BD00000038014010B5054802
:10220000C169C906C90F03D01021016203F0AAFEFB
:1022100010BD000000440040F0B52648012182694D
:102220008FB089030A4382618069012508400D90BF
:10223000481100240226032704956A460595039455
:10224000C1C209206946C006FFF7E4F8A802049558
:102250006A4605950394C1C209206946C006FFF786
:10226000D9F800211B20FFF7EFFB1B20FFF7C0FB75
:102270004B20C00106900794089409940B940C9489
:102280000C200D4C0A9006A92046FFF7CFF9A06854
:1022900040210843A060A06880210843A060206816
:1022A00028432060102020622168014321600FB084
:1022B000F0BD0000001002400038014010B50120C0
:1022C000FEF7C2FF1D4C1C4A03212046FFF77CF895
:1022D0001B4A03212046FFF743F82822032120460A
:1022E000FFF712F8002203212046FFF729F8012208
:1022F000520303212046FEF7F9FF00220321204666
:10230000FFF76CF8802203212046FFF733F8002204
:1023100003212046FFF770F8002203212046FFF733
:1023200037F8002203212046FFF740F8032120461A
:10233000FEF7AEFF10BD000024380140000002404F
:10234000D400002010B50120FEF77EFF204C1F4A6C
:1023500002212046FFF738F81E4A02212046FEF7E8
:10236000FFFF142202212046FEF7CEFF1022022199
:102370002046FEF7E5FF0122520302212046FEF728
:10238000B5FF002202212046FFF728F88022022113
:102390002046FEF7EFFF002202212046FFF72CF82F
:1023A000002202212046FEF7F3FF002202212046F0
:1023B000FEF7FCFF202060601020606000210A20F2
:1023C000FFF742FB0A20FFF713FB10BD283801403E
:1023D00000000240EA00002010B5084C042120460D
:1023E000FEF74AFF01204003606040106060042156
:1023F0002046FEF735FF00F027F810BD0000024030
:1024000070B50E4E05213046FEF766FF1425281ADA
:1024100001060B4C090E61750ED005213046FEF702
:102420001FFF08480168490849000160607D1428C1
:1024300000D965750120207570BD000000000240C4
:102440000401002000440040024800210175502191
:10245000C17570471A01002010B5044603F0AEF9AB
:10246000002817D0FFF784FC0B480146427A0C394C
:102470002046FDF74DFE0948016801221143016025
:10248000074C282203212046FEF74CFF032120465B
:10249000FEF70AFF10BD0000E000002000380140F8
:1024A000000002400FB410B504A9074B02AA03981C
:1024B00000F0FAF8044602A9002000F091FC204642
:1024C00010BC08BC04B01847E12D00082021020C04
:1024D00001D010211046020A01D010460839020925
:1024E00001D01046091F820801D01046891E4208FB
:1024F00001D0881E7047081A704730B47446641EB5
:102500002578641CAB4200D21D46635D5B00E31876
:1025100030BC184702E008C8121F08C1002AFAD1CF
:1025200070477047002001E001C1121F002AFBD153
:1025300070470000F0B51FB486B00998089A030DE3
:102540000021024314D05148514A18185043051431
:102550001198012810981AD0281A401C00264D4FB7
:102560004D49009601910490002812DA444211E08E
:102570001198012449A3012801D11098C14306985C
:10258000119A84600360C26041600BB0F0BD4042AC
:10259000E4E70446210500203F4A001C5141039115
:1025A000029012E0E00707D032463B4601990098BE
:1025B000FDF768FF0191009032463B4610461946F0
:1025C000FDF760FF06460F466410002CEAD1049820
:1025D000039B0028029A0999089806DAFDF752FF32
:1025E000019B009AFDF74EFF05E0FDF7B3FF019B4D
:1025F000009AFDF7AFFF04460E460022284BFEF777
:10260000E7F903D80020C043014607E00022254B2C
:1026100020463146FDF784FEFEF7BAF9102409E0A2
:10262000002C0ADB0A220023FEF7AEF8079B3032AB
:102630001A55641E02460A43F2D11122641C079BFC
:10264000121B1C19119B012B03D0012308430ED12F
:102650000AE0084304D0112010900020119077E781
:102660001098151A6D1E0BE01098824202DD0023AF
:102670006D1C03E0824201DA00236D1E002BEED0B8
:10268000069811998260C16030C07EE701FCFFFFAF
:10269000104D0000000014400000F03F300000002A
:1026A0000000F0430000E03FFFB597B0064600256C
:1026B00018E2252877D100242746FD49049400E03C
:1026C0000443761C32780120203A90400842F7D12A
:1026D00030782A280ED00222307801463039092974
:1026E00016D804990A235943303940181443761CEC
:1026F0000490F1E7189802C804911890002904DAB0
:102700000120400304434842049002200443761C05
:1027100030782E2814D1042004437078761C2A289F
:1027200009D11898761C80C8189009E00A214F43F7
:10273000303FC719761C3078014630390929F5D960
:1027400030786C2810D006DC4C281AD068280ED0BF
:102750006A2817D104E0742813D07A2812D110E027
:102760000120400504430CE00121090501E003219B
:1027700009050C437178814203D10120000524181A
:10278000761C761C3078119066280BD013DC582804
:102790007DD009DC00287BD04528F6D04628F4D02F
:1027A00047281AD1A5E118E0632835D0642870D0F5
:1027B000652812D19DE170286CD008DC6728F1D023
:1027C00069287BD06E280DD06F2806D1BAE0732817
:1027D0002ED0752871D0782859D01A9A1999904717
:1027E0006D1C7EE16002400F022809D003280DD045
:1027F0000428189801680DD00D60001D189070E134
:102800001898EA1701680D604A60F6E718980168A1
:102810000D80F2E70D70F0E718986A4601781172A2
:10282000001D18900020507202A80090012005E0C1
:10283000189802C8189000200091C04361070DD578
:10284000002101E00199491C0191B94212DA81424B
:10285000F8DB009A515C0029F4D10BE0002101E083
:102860000199491C01918142FADB019A0099895C26
:102870000029F5D1019904981A9B471A2146384638
:10288000199A00F097FA0199401945180BE04FE0AA
:102890002CE113E04EE0009800990078491C00916B
:1028A0001A9A199990470198401E0190401CF2D144
:1028B000214638461A9B199A10E137E00A20002178
:1028C000009001916002410F022907D0189A01CAB5
:1028D0001892C2179446032908D00AE01898C01D20
:1028E000C108C90005C91891944607E000B2C21793
:1028F0009446042902D140B2C1178C460022614699
:10290000944506DA0A460021404291418C462D2129
:1029100002E0210504D52B216A461173012103E051
:10292000E10701D02021F7E7029155E00A200AE0F3
:10293000102008E0102000900021042004430191A1
:10294000082703E008200021019100906002410F58
:10295000022907D0189A01CA189200229446032926
:1029600008D008E01898C01DC108C90005C9189111
:10297000944603E080B2042900D1C0B20021029144
:10298000210729D51199702906D0009A1021019BA1
:102990004A401A4305D00EE040216A4611730121D6
:1029A00008E06146014306D030216A46117311994F
:1029B000517302210291009A0821019B4A401A4357
:1029C0000AD16146014301D1610705D530216A462C
:1029D000117301217F1E02911199582904D035A14C
:1029E0000E910DA90D910DE037A1F9E76146019B0C
:1029F000009AFDF7C9FE0E9B8C469B5C0D9A521EF9
:102A00000D92137061460143F0D10D9805A9081A83
:102A100020300190600703D501200004844300E0CA
:102A200001270198874201DD381A00E00020019952
:102A300000904118029809180498401A0490E00385
:102A400006D421461A9B199A049800F0B3F9451947
:102A5000002706E003A81A9AC05D199990476D1CDB
:102A60007F1C02988742F5DBE0030CD521461A9BB8
:102A7000199A049800F09EF9451904E01A9A30203A
:102A8000199990476D1C0099481E00900029F5DCAB
:102A900008E00D980D990078491C0D911A9A199922
:102AA00090476D1C0199481E01900029F1DC63E1FB
:102AB0000928010030313233343536373839616214
:102AC00063646566000000003031323334353637D8
:102AD00038394142434445460000000000F05AF9AD
:102AE0004519761C3078002800D0E2E528461BB056
:102AF000F0BD600700D406271898C01DC108C900A2
:102B000048680A680831C30FDB071891190001D023
:102B10009CA108E0210501D59BA104E0E10701D0BB
:102B20009AA100E09AA1430011985B0810916528D2
:102B30000CD006DC452809D046281DD0472841D1B5
:102B400041E0662818D067283CD13CE00021112FD5
:102B500001DB112000E0781C0191009008A911A868
:102B6000FFF7E8FC139905910021119A15927F1C3B
:102B700012980197009150E00120C00703900120B6
:102B8000019008A9009711A8FFF7D4FC139A149993
:102B900005920022119B009212981593059A0192BA
:102BA000002901D0104602E0791C40180190381A23
:102BB00001D5019804E04042401E0090781C01902D
:102BC000C01B029043E0012F00DA01270021112FE2
:102BD00001DD112000E038460191009008A911A8FC
:102BE000FFF7A8FC13990591119A002112981592EC
:102BF0000091019721070CD40599B94201DB019995
:102C000000E00191012904DD159A491E515C30292B
:102C100006D0B84201DA011D05DA0121029115E062
:102C20000199491EEDE7002805DC00994118009143
:102C30000199091A03E0019A411C914200DD0191BA
:102C40000099401A401C02900120C0070390200701
:102C500006D402990198814202DB0020C043029011
:102C600000206946C87707AF012103980337C907D9
:102C7000884224D0022011902B2012900398002823
:102C80000CDA404203902D20129007E00A210398AD
:102C9000FDF728FA30317F1E039039701199481ED4
:102CA00011900029F2DC03980028EFD1791E1298C8
:102CB00008703078202108404530BF1E387006A8C3
:102CC000C01BC01D039010980078002800D0012080
:102CD000019941180298C017091803980918049817
:102CE000401A401E0490E00306D421461A9B199A0C
:102CF000049800F05FF8451910980078002803D078
:102D00001A9A199990476D1CE00324D521461A9B05
:102D1000199A049800F04EF845191CE00098002814
:102D200007DB00990598884203DD1598405C1999E6
:102D300001E0199930201A9A904700986D1C401CA8
:102D400000900298401E0290002804D11A9A2E206A
:102D5000199990476D1C0199481E01900029DDDCEE
:102D600005E038781A9A7F1C199990476D1C0399D1
:102D7000481E03900029F4DC21461A9B199A0498F6
:102D8000ACE600002D0000002B0000002000000039
:102D900000000000F8B5044600251E4617468804CA
:102DA00004D405E039462020B0476D1C641EF9D5D7
:102DB0002846F8BDFFB50446002581B01E46C8036D
:102DC00001D5302700E02027880404D505E03846E7
:102DD0000399B0476D1C641EF9D5284605B0F0BDB7
:102DE0000A68531C0B60107070470000F8B5FDF7BF
:102DF00001FF0546FF2818D00C48012606700C4834
:102E0000067000F099FA16210A4F4D43EC19032081
:102E10006070A6700620E070AA202071214605206F
:102E200000F090FA785505202075F8BD28000020A4
:102E30002700002033010020F8B50446FDF7DAFE34
:102E40000546FF2838D01D480078012801D0022807
:102E500032D1610701229320194F0323AA260029AA
:102E60000BDA184CFF21A17016214D43EC1960704C
:102E7000A270E370227162710AE021070AD516215F
:102E80004D43EC196070A270E370227102206071F2
:102E9000FF2008E016214D43EC196070A270E3702A
:102EA000227162710020A071E6712146082000F0B5
:102EB00049FA785508202075F8BD00002700002049
:102EC000330100205C030020F8B5FDF793FE0446B3
:102ED000FF281AD01848012201789320174E0323A7
:102EE0000227012912D002290FD116214C43A5191E
:102EF0006870AA70EB702F71AA20687129460620AD
:102F000000F020FA305506202875F8BD16214C43F4
:102F1000A5196870AA70EB702F71AA2068712946F4
:102F2000062000F00FFA3055062028750248077079
:102F300000F002FAF8BD0000270000203301002055
:102F400003494888002801D0401E4880704700008F
:102F50009200002003498888002801D0401E888004
:102F60007047000004000020F8B5FDF743FE04465A
:102F7000FF2825D02B4A2C4D107893272B4E09285B
:102F80001FD00D281CD12878C0432870032001F0E1
:102F900005FF3846162127464F43BC1960700120B3
:102FA000A0700520E0700620207128786071AA20AA
:102FB000A0712146072000F0C5F9F05507202075C3
:102FC000F8BD1B480178032910D00629F8D12878CC
:102FD000C04328700D2010700020FFF76BF801200F
:102FE00001F0DCFE022001F0D9FECFE7114CE27ABD
:102FF000521CD2B2E272032A01D90022E272FF22ED
:103000000D4DA2722A7D0646104600F0EFFD687D48
:10301000317801F027F8A87D317802F061FD0020B9
:10302000A072F8BD2700002010000020330100200E
:10303000280000202C0000205C03002010B5002494
:10304000204601F0ABFE641CE4B2052CF8D3024824
:10305000007802F09DFD10BD2800002010B50B483F
:103060000078082811D10B48094C816A406A081A77
:10307000FDF7FEFA2146FDF7D7F8FDF70FFB0649ED
:10308000C86300F03BFC01F0A9F810BD2700002048
:103090002B87163E5C0300202C00002038B5044628
:1030A00001210AA0FDF7B6FDE421081A0849C0B2C3
:1030B0000A790121002A009102D006A303A201E0AF
:1030C00005A306A22146FEF7E1FC38BD5900000029
:1030D0005C030020CAC70000B7F100004E000000EA
:1030E000F7B5002486B015460E46274620460394C1
:1030F0000494012A02D0022D02D003E04E4800E0E1
:103100004E480490012E02D0002E02D009E04C4F10
:1031100007E0012D02D0022D02D002E0494F00E06D
:10312000494F01460698FDF725FB1BD804990698E0
:10313000FDF772F839460690FDF71CFB01D26422B8
:1031400012E039460698FDF7ACF84049FDF76CF8F7
:10315000FDF7A4FA0206120E04D00A2A04D81F2191
:10316000C90203E00122FAE73F21490138480A2A4F
:10317000816001D237A104E0642A01D237A100E0C6
:1031800038A16846FFF78EF9012E02D0002E02D03A
:103190004BE07E2449E0012D02D0022D02D044E014
:1031A000982442E0062440E0FDF7E2FE0398224620
:1031B000285C17232038C6B20B3200212046FDF7C9
:1031C000A9FC302046432948002530180490475D6B
:1031D000E80707D000260120B040384212D01C4832
:1031E000806810E000260120B040384202D0184824
:1031F000806800E01E48FDF7F9FF761CF6B2082E45
:10320000F1D306E01A48FDF7F1FF761CF6B2042E62
:10321000E1D36D1CEDB2302D01D20498D7E70C3408
:103220000398E4B2401CC0B2039003986D46285C3A
:103230000028B9D109B0F0BD3333D340CDCCCC4058
:103240000681E53F0000D03F9A99D93F0000C8426F
:103250007C000020202025642525000020256425F1
:103260002500000025642525000000000CAC0008A6
:1032700018C60000F8B5054600200C4603461A2D76
:1032800022D81249012C896802D0022C02D003E016
:10329000CB2000E038200B464619711ECAB20093BD
:1032A00012230521FDF7B3FE1A20411BF0B241188D
:1032B000491ECAB20021012C01D0022C04D1009178
:1032C00012230521FDF7A3FEF8BD00007C000020BD
:1032D000F8B5012802D0022805D00AE01423E9221B
:1032E0000221CA2003E01423572202213820FDF7CF
:1032F00011FC0026FDF73CFEB00000250090009870
:1033000041190B480024475C0120A040384000D000
:103310000848FDF76BFF641CE4B2082CF4D36D1C65
:10332000EDB2042DEBD3761CF6B2142EE2D3F8BD29
:1033300074AB000818C6000010B501F033F8FFF7B1
:103340008DFE10BD10B500230B70012204E08C5CD3
:10335000E318521C9BB2D2B28242F8D3D8B210BD4D
:10336000F8B5184C207807282AD16078032825D191
:10337000A078002822D0FDF73DFCFF2820D006468B
:103380001622114F56430321F51969700720A870C2
:10339000AA20E87029460420FFF7D4FFB85504207E
:1033A000287503202070012060700020A070FFF7B6
:1033B000C3FFFF20E07005496420086002F038FF79
:1033C000F8BD000027000020330100201800002075
:1033D00070B50B4B0D4614465978820703D5A942A8
:1033E0000CD2491C04E0C20703D0A14206D9491EF1
:1033F000597002462146284600F004F870BD0000CE
:103400002700002070B5174C154663788B4202D117
:103410005B1CD8B21CE013494978491E834208D18D
:10342000C8B200F0BBFF6078401EC0B201F0B6FC2D
:1034300013E0A80707D5C8B200F0B0FF6078401EBF
:10344000C0B201F0ABFCE80707D06078401CC0B206
:1034500000F0A4FF6078401CE7E7607802F098FB7A
:1034600070BD00002700002010B53748C27A002A3E
:103470001FD036490B68002B1BD1FF23F5330B609F
:10348000017CC9430906090E017400D0FF21817235
:103490002F48304B01783048082900780AD0052998
:1034A0001AD0092942D0012903D1022801D800F0FD
:1034B00075FF10BD0028FCD1012A09D0022A09D0CD
:1034C000032AF6D19A7E0146104600F0F7F910BDA6
:1034D0001A7FF8E7DA7EF6E700280BD0012815D02E
:1034E0000328F4D1012A1DD0022A1DD0032AEED1CF
:1034F0009A7CE8E7012A05D0022A05D0032AE6D102
:10350000DA7AE0E75A7ADEE79A7ADCE7012A05D030
:10351000022A05D0032ADAD19A7BD4E71A7BD2E7B4
:103520005A7BD0E71A8ACEE7DA7BCCE70328CED1E4
:10353000012A05D0022A05D0032AC8D19A7DC2E704
:103540001A7DC0E75A7DBEE72C000020180000203D
:10355000270000205C0300202800002010B511493E
:10356000C97A00291AD110490978C91E0B00FEF743
:10357000C4FF0A06090B1516091116160E150122AD
:10358000042109E0012200E00022052104E00122DB
:10359000032101E000220621FFF71AFF10BD0222DD
:1035A000F6E700002C0000202700002010B50C07D3
:1035B00003D5904207D2401C04E0490703D5984246
:1035C00001D9401E80B210BD10B50B4908780B28F8
:1035D0000DD10A480278012A0AD0022A07D109220D
:1035E0000A7000210170FFF7A7FE00F081FA10BDFC
:1035F0000C220A700121F5E7270000202800002096
:10360000F8B5FFF731FF00F019FA234800780628D3
:1036100018D1224E3078002814D0214C2078002870
:1036200010D0002502280ED0032813D0042809D179
:10363000A16A206B884205D32563E58300F0B0FDC5
:1036400001202070F8BD616B206B8842FAD3032003
:103650002563F6E7616A206B8842F3D32563A08B6C
:10366000401CA08301F0BAFC0E4FA08B6422504393
:10367000396AFCF737FDC0B2FEF71CFD042020704C
:10368000A18B386A8842DDD8257000F097FD35702F
:10369000032002F0E5FAF8BD27000020100000200A
:1036A0002C0000205C03002070B51A4CE121607AE8
:1036B00009014843A17A3C2251434018E17A3C2356
:1036C0004018216A491E4843A17B4218207BE12112
:1036D00009014843617B594340181618E12109014B
:1036E0003046FCF7FFFC208205463C213046FCF7C3
:1036F000F9FC014628463C225043081AE073E121B8
:1037000050430901301A4D43401BA074032001F0BF
:1037100045FB70BD5C030020F8B5FDF76BFA04466D
:10372000FF2823D0514F524D3878AA2605281ED0A5
:1037300006281BD128781622C043287025464D4FF5
:1037400055439321EC1961700121A1700221E170B0
:10375000062121716071A67121460720FFF7F2FD55
:10376000785507202075042001F018FBF8BD424A67
:10377000424813784249002B2AD0012B3FD0042B1A
:1037800059D0052BF2D102F053FD062038703A488B
:10379000042101702878C0432870FFF7CDFD162161
:1037A00027464F43334993207C1860700120A07056
:1037B0000220E0700620207128786071A6712146F1
:1037C0000720FFF7BFFD2B49C85507202075F8BD1E
:1037D0000446C07A401CC0B2E072032801D9002020
:1037E000E072FF20A0720D46487A1646194600F096
:1037F000FDF9A87A317800F035FCE87A15E0044646
:10380000C07A401CC0B2E072032801D90020E072E7
:10381000FF20A0720D46087B1646194600F0E6F917
:10382000687B317800F01EFCA87B317802F058F9F3
:103830000020A072F8BD2A78002AFBD14B6A4A6B9F
:103840009A4203D88978FF29F4D005E08B6A9A421E
:1038500002D389780029EDD0467100F071FC642014
:1038600000F08EFC00F09CFCF8BD0000270000205A
:103870001000002033010020280000202C00002030
:103880005C03002070B50B4D00242C702C630A489B
:10389000AC8304706C70EC8300F090FC6C836C71F2
:1038A000EC722C732C71EC702C846C7300F020F98A
:1038B00070BD00002C0000201000002010B50D4A43
:1038C00013780D4A082BD27A05D0052B03D0062B8E
:1038D00001D0092B07D1012A06D0022A07D0032ADA
:1038E00001D102F0FDF810BD00F080F910BD00F02C
:1038F000B9FB10BD270000202C00002070B5174C2C
:103900003C21E07E174B4843A17E42187D20C00039
:1039100042431348417A0901C918C96800291CD0DB
:10392000C5797D210023C900C06B002D0AD08D0010
:103930004019824211D2E376FCF7D4FBC0B2A076E4
:10394000002108E0824208D2E376FCF7CBFBC0B24C
:103950000549A076097802F0C3F870BD5C03002029
:103960002C000020AC03002028000020F0B5070048
:10397000264D2748284C0088264A2178274BEE7888
:103980001ED09C78012C08D0022C304615D002F0B5
:1039900035F9C0B21070D860F0BD00245C70042905
:1039A00002D0082903D003E0304602F027F9107056
:1039B0001078D86000F0EAFBF0BD02F01FF9EAE7EA
:1039C000174F3F78002F09D0462002F017F91070EA
:1039D000207804280ED0082810D012E0042902D044
:1039E000082904D00DE0304600F0CAFB09E000F0E1
:1039F000CDFB06E0E87802F001F901E00448008818
:103A0000D860322002F0FAF81861F0BD5C030020A3
:103A1000400000206400002027000020100000204B
:103A20003300002010B50448FDF7B4F9042802D093
:103A3000FDF79EFAFCE710BD00F400087047000097
:103A400038B5044601210AA0FDF7E4F8E421081A7C
:103A50000849C0B28A780121002A009102D006A349
:103A600003A201E005A306A22146FEF70FF838BD28
:103A70005900000027000020CAC70000B7F100006D
:103A80004E00000000B5FDF727FAFDF7FBF9BB205B
:103A9000FDF7CAF9FDF7C0F9FDF7ACF9FDF7B2F98A
:103AA00000BD00001FB504460B48427E0A2A01D221
:103AB0000AA104E0642A01D20AA100E00AA101A837
:103AC000FEF7F0FC012000906006010E07A301AA9A
:103AD0004820FDF7DBFF1FBD5C030020303025646C
:103AE0000000000030256400256400002000000074
:103AF000F8B5FDF77FF80546FF2823D02548264F67
:103B0000017803200122AA23052604291BD00829B5
:103B100020D00C292CD005292AD0062928D0092903
:103B20002ED003290ED12C4616214C43E51968707E
:103B30000620A870EA702B7129460520FFF702FCC9
:103B400038552E75F8BD16214D43EC196070A270E2
:103B5000E27005E016214D43EC196070A2700DE093
:103B6000237121460520FFF7EDFB78552675F8BD3A
:103B700016214D43EC196070A2700220E070EFE74F
:103B80002C4616214C43E5196870AA700420E87091
:103B9000D1E70000270000203301002070B5FDF7B9
:103BA00029F8FF281DD00F49CA7B002A19D14A8A5B
:103BB000002A16D17D22D2004A82054616220A4EDC
:103BC00055439321AC1961700420A0700120E0706E
:103BD000AA20207121460520FFF7B4FB705505206F
:103BE000207570BD2C000020330100203EB500245C
:103BF0000D460A2802D2024611A103E0642804D22D
:103C0000024611A101A8FEF74DFC012101A8FDF714
:103C100001F80E499C220978052903D0062903D012
:103C2000082904D1101A01E0A221081AC4B2012007
:103C3000009007A301AA29462046FDF727FF3EBDB5
:103C4000302564480000000025644800270000205B
:103C50002000000001490120087070472400002066
:103C600001498872704700002C000020F8B5092037
:103C70001021C006FDF722FC074609200821C006D6
:103C8000FDF71CFC064609200221C006FDF716FCC4
:103C9000054609200421C006FDF710FC0446092052
:103CA0000121C006FDF70AFC024671003943A80055
:103CB0000143E000014310010143C8B2F8BD000018
:103CC00070B5394C207800286DD104262670FFF796
:103CD000CDFF6178884261D0217A491CC9B2217236
:103CE000052960D3002525726070FDF737FE6078E6
:103CF000E178C007C00F884207D0E070002801D0EB
:103D0000FFF72CFCE078FFF797F860780221084075
:103D10002179884207D02071002801D0FFF71EFCCE
:103D20002079FFF789F860786179304088420DD0BA
:103D30006071002801D000F0FBFB607900F040F9D1
:103D4000607901F0A9FA6079FFF776F860780821C8
:103D50000840A17988420DD0A071002801D000F060
:103D6000E7FBA07900F02CF9A07901F095FAA07991
:103D7000FFF762F8607810210840E17988420DD0A1
:103D8000E071002803D07D20C000608106E0A078AB
:103D9000002801D101F00CFA6581A570607801F06E
:103DA0003FFA00F02DFB70BD7000002008B50748F9
:103DB0000121426949040A43426140690840009078
:103DC00009201F21C006FDF7E9F808BD00100240D8
:103DD0007047000008B53048012182690A438261BA
:103DE0008069084000210090481FFDF70BFE00216C
:103DF000881EFDF707FE0021481EFDF703FEFEF7B3
:103E000061F801204004FDF713FA01208004FDF75A
:103E10000FFA20210920C0068161402181618021A3
:103E2000816149008161CA001C498A614A018A6135
:103E3000D1108161FCF724FF0120FDF7F9F9FDF7AE
:103E40009FFDFDF7CBFDFCF705FEFFF7AFFF154C1F
:103E500013482060032060601348A060134D256064
:103E600013482060FDF75EFC00F07AF9FDF7A4F836
:103E700002F0A8F901F076FE2560FFF721FF01F0BE
:103E800045FAFFF78BFEFFF7BBFB02F01DF8FDF7CD
:103E9000EDFEFEF79BF9EFE700100240000400483A
:103EA0005555000000300040E2040000AAAA0000BE
:103EB000CCCC0000F8B52B480178032926D14178F5
:103EC00004260125012922D00022022922D0264CD5
:103ED000032927D0042919D107210170022141703B
:103EE000FFF72AFAFCF786FEFF280FD005461622B8
:103EF000554303212F1979700520B870AA20F87056
:103F000039460420FFF71EFA60553E75F8BD06706D
:103F1000457002E0052101704270FFF70DFAFFF7CE
:103F2000E7FDF8BD0570427010480270FFF704FA13
:103F3000FCF760FEFF28F4D0074616220A485743D4
:103F40003C1893216170A5700320E0702671FF205A
:103F5000607121460620FFF7F5F90349C855062090
:103F60002075F8BD27000020330100202500002027
:103F700038B504460C480078042813D101210BA061
:103F8000FCF748FEE421081A0949C0B28A7B0121E6
:103F9000002A08A3009101D007A200E007A2214651
:103FA000FDF774FD38BD0000270000204F4E2000B3
:103FB0002C00002000000000204F4E004F4646001D
:103FC000F8B50646FCF716FE0446FF283FD0204809
:103FD000007804283BD11F480178052937D11E4AB3
:103FE000907B002833D07307FF201C4F1C4D002B03
:103FF00001DAB87004E036070023002E05DABB7042
:10400000162363435B19987103E01620604340193F
:104010008371FF2090721646084601F0C7FF00200A
:10402000B072162126464E43741993206070012009
:10403000A070E07002202071B8786071AA20E07151
:1040400021460820FFF77EF9A85508202075F8BD05
:1040500027000020280000202C0000205C03002006
:1040600033010020FEB51B4D0E4629780024082997
:1040700002D00A2807D31BE00A2802D2024616A162
:1040800006E0642802D2024615A101E0024616A10C
:1040900001A8FEF707FA012101A8FCF7BBFD29786A
:1040A000C022052907D0062907D0082903D007E038
:1040B0006428EBD3EFE7101A01E0C621081AC4B256
:1040C0000120009009A301AA31462046FDF7DEFC3D
:1040D000FEBD000027000020303025644D000000A8
:1040E0003025644D0000000025644D0020000000D4
:1040F00070B505460F48854219DB2846FCF700FBE2
:104100000D4A0E4BFCF7B0F90422FCF79BFAFCF7C2
:10411000D9FAC4B21A2C00D91A2402220021284646
:10412000FEF7DEFF02212046FFF7A4F870BD02244F
:10413000F3E70000CDCCCC409A9999999999194010
:1041400005480649827801208002002A01D0886152
:1041500070478862704700005C030020000400483C
:1041600010B500F0B9F90020FFF700FC00F02AFFBD
:10417000FF200249F530886010BD000010000020CB
:1041800000B501F03BFD00F001F800BD0349886275
:104190004869012210434861704700000004004054
:1041A0000548C26801210A43C260CA1E0261026852
:1041B0000A4302607047000000040040064801689E
:1041C000490849000160C16849084900C1600121EE
:1041D000C94301617047000000040040F8B53C4C41
:1041E000A16A606A0D1AE07E3C214843A17E461810
:1041F0007D20C0004643002D00D1012535483C22DA
:10420000C7793348C17E807E514308187D21C9009B
:104210004843FCF72DFA0090002F284609D0FCF700
:1042200027FA05467D204001301AFCF721FA29467D
:1042300003E0FCF71DFA01460098FCF732F8264926
:10424000FBF7F2FF2549FCF72CF87F26F6053146EF
:10425000FBF7E2FF224F05463946FBF7E5FFFCF787
:104260001DFA0A21FBF73EFF052904D331462846F3
:10427000FBF781FF00E02846FCF710FA1949886235
:104280004A6901252A434A6112498882E16A206B02
:10429000401AFCF7EDF901460098FCF702F80446D5
:1042A0003946FBF7C1FFFCF7F9F90A21FBF71AFFC2
:1042B000052904D331462046FBF75DFF00E0204688
:1042C000FCF7ECF9084988624A692A434A61F8BD5B
:1042D0005C0300202C00002000803B470080FA4354
:1042E00000002041000400400020004070B5154E41
:1042F00015460C46042802D0082810D01FE0124DA5
:10430000AC4209DB2046316CFCF734FA04D8204675
:10431000316CFBF781FF0446AC420FDB0FE0114626
:104320002046FCF71DFA04D22046316CFBF723FF30
:10433000044629462046FCF71DFA00D22C462046AA
:1043400070BD00002C000020CDCCCC3D38B504461B
:1043500001210AA0FCF75EFCE421081A0849C0B25A
:104360008A780121002A07A3009101D003A200E06E
:1043700005A22146FDF78AFB38BD00003E3E410004
:104380005C030020200000003E3E420010B51921D1
:1043900009200902C006FCF7F3FD10BD10B5FDF7BA
:1043A00007FE10BD70B5144800780A280BD200280B
:1043B0000AD002280FD800242046FDF7F9FD641C1E
:1043C000E4B2072CF8D370BD0220FDF7F1FD032005
:1043D000FDF7EEFD70BD094D00242046FDF7E8FD18
:1043E000204600F0DBFC287801F0D2FB641CE4B22C
:1043F000072CF2D370BD0000270000202800002009
:1044000010B504484189012902D1817000F004F8F7
:1044100010BD00007000002010B50A480178032983
:104420000FD9032101700121417007490020087054
:10443000FFF728FA0020FFF713FCFEF77DFF01F0DD
:10444000F7FE10BD270000202E00002030B50446E6
:1044500005070848408C03D5914209D2081806E0A8
:10446000620705D5994203D9814201D3081A81B266
:10447000084630BD2C00002010B51548FF21817082
:104480006421C170012101717F22D205A821C2637C
:104490000162104901640021417001770A23C3764B
:1044A00081760172C17101820924C473C1743F24F1
:1044B000447141728172C172017341738173182416
:1044C00042644476C38301754175817510BD000057
:1044D0005C0300205C8F4E4070B5124800F0D8FF9E
:1044E000104D00242878AA2815D0AA2028706C62C4
:1044F000AC622846012140306C638172C47204733F
:104500004473847344720472FFF7B6FF284601F0C7
:10451000A7FEFFF7B7FA04482C7104700348047033
:1045200070BD00005C03002032000020330000203A
:10453000F8B50646FCF75EFB0546FF2875D0FB483C
:10454000AA270078FA4C001FFA4A0300FDF7D5FFAE
:104550000906F2EEF1ACF0EEEEEFEE00F649FF20C8
:10456000887216214D43F549009593206D186870A7
:104570000120A870E8701078012808D0022815D012
:1045800003282BD0042848D0052863D003E0EC484A
:104590000078002802D00020E749D4E1304601F03D
:1045A000F5FD01202871E54EE0780DE0710701D599
:1045B000FF2102E0310701D50021217100F0EEFB5F
:1045C00003202871DD4E20796871AF7129460720DC
:1045D000FEF7B8FE00997054072063E0D8490978C7
:1045E0000029D8D1710703D5D349FF228A7304E08B
:1045F000310702D5D04A0021917300F0CFFB04208F
:104600002871CD48CD4C807B6871AF712946072059
:10461000FEF798FE00996054DEE7C9490978002941
:10462000B9D1710702D5FF2103E07FE0310701D541
:104630000021A17000F0B2FB07262E71A0786871EE
:10464000AF7129463046FEF77DFEBC4A00995054B2
:104650002E75A0E7B84A917B002967D1710702D572
:10466000FF21A17006E0310703D50021A170FF21D1
:1046700000E00021A971FF211646917201F096FC1D
:104680000020B072032000F089FB02202871A0787E
:104690006871AA4EEF7129460820FEF753FE009973
:1046A00070540820287576E716214D43A3490095DC
:1046B00093206D1868700120A8700420E8701078AD
:1046C000012810D0002823D0022870D003282DD133
:1046D0009B490978002929D1974AFF2191727107D6
:1046E00070D5FF2187E0944AFF219172710701D5AF
:1046F000FF2102E0310701D50021217100F04EFBBE
:104700008D4900208872032028718C4E207966E044
:104710008B480078002809D18748C17A01290AD03E
:10472000022915D0032920D000218172F8BDBBE1F8
:10473000D9E10BE36AE0217F012302223046FFF733
:1047400085FEC0B27B4920770978FFF74FFA18E061
:10475000E17E01233B223046FFF778FEC0B2754967
:10476000E0760978FFF77EFC0BE0A17E01233B2277
:104770003046FFF76BFEC0B26E49A076097801F0B3
:10478000AFF9FFF767FA01202871A07E6871E07E1B
:10479000A871207FE871694E2F7229460920FEF723
:1047A000D1FD0099705482E22875BFE7FFE76449A4
:1047B00009780029BAD1604CFF21A172710702D596
:1047C000FF2103E014E0310701D50021A17100F0C1
:1047D000E5FA0020A07205202871584EA079687172
:1047E000AF7129460720FEF7ADFD0099705486E2AF
:1047F000310701D50021A17000F0D0FA4E49002008
:104800008872062028714D4EA078E8E710780328BA
:1048100010D000282DD001287ED002287DD0052878
:1048200001D0042882D1444AFF219172710775D5C5
:10483000FF2125E1404AFF219172710701D5FF2137
:1048400002E0310701D50021A17100F0A7FAFFF7BE
:1048500001FA39490020887216212E464E43374905
:104860009320751868700120A8700220E870042059
:104870003BE23148FF218172C07A012805D02E49E0
:10488000022814D0032824D05CE0617A002302229D
:104890003046FFF7DBFDC0B2264960720978FFF7AA
:1048A000A5F9607A022825D90220607222E0A17A57
:1048B00000233B223046FFF7C9FDC0B21D49A0725C
:1048C0000978FFF7CFFBA07A3B2813D93B20A072D1
:1048D00010E0E17A00233B223046FFF7B7FDC0B27B
:1048E0001449E072097801F0FBF8E07A3B2801D91D
:1048F0003B20E072104900208872FEF7D5FE162199
:104900002E464E430D499320751868700120A870FB
:104910000221E970287102E017E076E0C1E0E07A58
:104920006871A07AA871607AB9E1000027000020C0
:104930005C030020280000202C0000203301002010
:104940001000002000208872F0E6FA49FF208872EB
:10495000C87A012835D0022845D00328F2D1A17B9E
:1049600000233B223046FFF771FDC0B2F249A0732D
:10497000097801F0B5F8A07B3B2801D93B20A07352
:10498000EC4900208872FEF78FFE16212E464E431A
:10499000EA499320751868700120A8700220E87019
:1049A0002871A07B6871607BA871207BE8712F72F1
:1049B00029460920FEF7C6FCE049885509202875DC
:1049C000E5E1217B002301223046FFF73FFDC0B225
:1049D000D94920730978FFF709F9207B0128CFD93D
:1049E00001202073CCE7617B00233B223046FFF798
:1049F0002DFDC0B2D04960730978FFF733FB607BAF
:104A00003B28BDD93B206073BAE7CA49FF208872B2
:104A1000208C012381B2CA4A3046FFF717FD20627D
:104A2000002829D0C649884200D92162C2480078AE
:104A300000F0B4F9FFF70EF9BE4900208872162184
:104A40002E464E43BD499320751868700120A8700A
:104A50000220E87003202871208C6871000AA87178
:104A6000EF7129460820FEF76DFCB44988550820EF
:104A70002875FEF719FE59E601202062D6E70021CD
:104A8000A17000F08BF9AB490020887216212E46E8
:104A90004E43AA499320751868700120A87002201F
:104AA00042E13107EDD5EAE71178012908D0022962
:104AB000E1D1A04AFF20907270070ED5FF200FE0D1
:104AC0009C4AFF209072700701D5FF2002E030075A
:104AD00001D50020A0710846B7E6300701D50020B7
:104AE000A0700846CDE794480078002810D001282F
:104AF0003BD0022859D003287ED004287DD0052839
:104B0000B9D18C4AFF219172710777D5FF21FBE063
:104B10008849FF2088728B4A3046616CFFF7E6FBBC
:104B200060648548007800F039F982490020887275
:104B300016212E464E438149932075186870012036
:104B4000A8700521E9702871646C2046FBF7A6FD6A
:104B500068717D492046FBF767FBFBF79FFDC0B2FC
:104B60000A21FBF7BFFAA9714AE07249FF20887257
:104B7000617E012378223046FFF768FC60766E483C
:104B8000007800F00BF96B490020887216212E4640
:104B90004E436A499320751868700120A87005205B
:104BA000E87002202871607EA1E06249FF208872CF
:104BB000634AE18B0123521E3046FFF747FCE08336
:104BC000002801D10120E0835B48007800F0E6F87E
:104BD00058490020887216212E464E43574993208B
:104BE000751868700120A8700520E87003202871EE
:104BF000E08B6871000A02E00BE05AE081E0A871E6
:104C0000EF7129460820FEF79DFB4C498855082086
:104C1000CAE54849FF208872C87A012811D00228C5
:104C20001CD0032800D08DE6A17D01233B22304615
:104C3000FFF70CFCC0B24049A075097800F050FFA6
:104C400018E0217D0123FF223046FFF7FFFBC0B2B1
:104C5000394920750978FEF7C9FF0BE0617D012312
:104C60003B223046FFF7F2FBC0B23349607509784A
:104C7000FFF7F8F92F490020887216212E464E437F
:104C80002E499320751868700120A8700520E870DF
:104C900004202871A07D6871607DA871207DE87175
:104CA0002F7229460920FEF74DFB2449885509201B
:104CB0007AE5204AFF219172710701D5FF2102E0B8
:104CC000310701D50021A17100F068F819490020D1
:104CD000887216212E464E43184993207518687025
:104CE0000120A8700520E87008202871A07968715B
:104CF000AF7129460720FEF725FB1049885507208C
:104D000052E5310701D50021A17000F047F80949AB
:104D10000020887216212E464E43084993207518AC
:104D200068700120A8700520E87007202871A0781D
:104D3000DDE700002C0000202800002033010020C7
:104D4000102700000000F0410000204110780228E8
:104D500013D0032800D0E9E40E4CFF21A1720E49C4
:104D6000720701D501220A70320701D500220A70AC
:104D700000F014F80020A072D8E4700701D50120DB
:104D800002E0300701D500206070FEF7D5FAFEF78B
:104D900061FFCBE42C0000202900002070B5044600
:104DA0008448854D0278854E121F8549288A130054
:104DB000FDF7A3FB0A064DB0F31D89181884D3181C
:104DC000012C0BD0022C38D0032C0CD0042C70D02A
:104DD000052C07D1204601F0E9F81AE0E9782046D1
:104DE00000F012FF70BD2046FFF7C2F870BD042C22
:104DF0000FD0002C11D07148012C807817D0022CD4
:104E00001DD0032CF2D1002853D00220FFF79EFAC8
:104E100070BD204600F024FF70BD287F2146FEF7BC
:104E2000E5FEE87E2146FFF71DF9A87E2FE0002869
:104E300003D00020FEF732F970BD2046FAE70028C3
:104E400001D0012000E0204600F0B2FE70BD002C31
:104E500014D0012C1FD0022C27D0032C2AD0042CD4
:104E600056D0052CD5D0062CF0D1214600F0CCFF31
:104E7000E87B2146FFF7F6F8A87C08E0687A21462F
:104E8000FEF7B4FEA87A2146FFF7ECF8E87A21464F
:104E900000F026FE70BD287B2146FEF7A7FE687B4A
:104EA0002146FFF7DFF8A87BF1E7204600F0F8F88D
:104EB00070BD2DE0204600F07DFFF9E7012CF9D010
:104EC000022C25D0F4E7002C0CD0012C0ED0022CA3
:104ED00010D0032C12D0042CECD0052C18D0062CAA
:104EE00097D0E5E72046FCF719F8E1E72046FEF702
:104EF000D9FDDDE7204600F01BF9D9E7287D2146E2
:104F0000FEF774FE687D2146FFF7ACF8A87DBEE78A
:104F100020467BE7012C06D0022C0CD0032C18D0A5
:104F2000042C22D0C4E7B08B296AFBF7DBF864219C
:104F30004843C0B21CE02146FEF758FEE87B2146FC
:104F4000FFF790F8A87C214600F0CAFDFDF7EEF8C7
:104F5000AEE7204600F0A4F81BE0002C07D0012C9F
:104F600009D0022C12D0032CA2D10C7051E70020E2
:104F7000FDF7A0F89CE72146308CFEF737FE21466E
:104F8000F078FFF76FF82146307981E7204600F08E
:104F9000CFF800F023F88BE7FFE7022C05D0032CB5
:104FA00086D12046FEF74CFD82E72046FEF710FF33
:104FB0007EE70000270000205C0300202C0000207A
:104FC00028000020034850218163012141840249C7
:104FD000016470472C000020CDCCCC3D1FB51B4890
:104FE0001B4A01787D20C000928B062902D00D2932
:104FF00013D022E00A2A01D216A11BE0642A01D2B2
:1050000016A117E0824201D216A113E0174882428E
:1050100001D217A10EE010A10CE00A2A01D216A1BC
:1050200008E0642A01D216A104E0824201D216A14E
:1050300000E017A101A8FDF735FA0120009016A3A2
:1050400001AA03215420FCF721FD1FBD27000020E9
:105050002C0000203030303025642F0030303025D7
:10506000642F0000303025642F000000102700005E
:105070003025642F000000003030302564532F00AD
:1050800030302564532F0000302564532F0000007A
:105090002564532F00000000D5C5CAFD00000000A4
:1050A0007FB5054617480024026A0A2A01D216A1D4
:1050B0000FE0642A01D216A10BE07D20C0008242DD
:1050C00001D215A105E01648824201D215A100E0E7
:1050D0000EA101A8FDF7E6F9012101A8FBF79AFD51
:1050E00011490A78E421052A01D0062A01D1081ABB
:1050F000C4B2012000900DA301AA29462046FCF766
:10510000C5FC7FBD5C0300203030303025640000DA
:10511000303030256400000030302564000000008D
:105120001027000030256400270000202000000028
:105130007FB50546144800240078092802D00D28C0
:1051400002D002E0482400E014241048C28B0A2A4E
:1051500001D20FA10AE0642A01D20FA106E07D204E
:10516000C000824201D20EA100E00FA101A8FDF70C
:1051700099F9012000906806010E0CA301AA2046AF
:10518000FCF784FC7FBD0000270000205C030020AA
:105190003030302564530000303025645300000067
:1051A00030256453000000002564530020000000F7
:1051B00010B51A48007803281AD00A281BD00428F2
:1051C0001CD008281AD00B281BD005281CD00C286E
:1051D0001AD009281BD00D2819D0062814D007286A
:1051E00018D0012801D0022801D1FDF76DFE10BDB5
:1051F000FEF760FE10BD00F015FF10BD00F02CFFA3
:1052000010BDFEF7E1F910BDFEF786FA10BDFDF7FF
:10521000ABFE10BDFEF7A4F810BD00002700002073
:1052200010B5154C154A2188491E914207D21449E0
:105230004A7A002A03D1C8224A72FFF779F92088F6
:105240001049114A4118914203D27F21C9050A2011
:105250000EE00D49801E491E88420BD20B48007893
:10526000052807D10A480078022803D1094964209B
:1052700000F080FC10BD0000440000206F1700000B
:10528000700000202FF8FFFFCF070000270000204C
:10529000280000200000204100B50E4909780529AA
:1052A00005D0042903D0082901D0092904D10A4ACC
:1052B0000A49030701D50A8300BD400701D5CA8208
:1052C000F9E700200883C8820549012000F052FC5C
:1052D00000BD000027000020581B00002C0000200B
:1052E000CDCCCC3D07480078002809D006498A7803
:1052F0000846406B002A01D0401E00E0401C486375
:1053000070470000250000205C030020F0B589B044
:1053100000200190009052480490059051488188E7
:1053200000296ED114218180841D4F4D2088FBF708
:105330009FF92946FAF778FF4C4E3146FAF7B1FF4C
:1053400002906088FBF794F92946FAF76DFF314621
:10535000FAF7A7FF464E31243546C8350390A7001B
:10536000B8198038C16FF1510198FAF704FF019024
:1053700078198038C16FE9510098FAF7FCFE641E75
:1053800024060090240EEAD1029931600198FAF7C0
:10539000F2FE384C2146FAF784FF0399074629604C
:1053A0000098FAF7E8FE2146FAF77BFF2D4C0546F8
:1053B0002078401CC0B2207032284DD900262670BB
:1053C00038460599FAF730FF074628460499FAF758
:1053D0002BFF0546384628490127884212DD274819
:1053E00085420FDC6078002802D00120FBF7BEFB6D
:1053F00066700122A77011462846FDF771FE20480D
:105400000FE029E0A078002802D00020FBF7AEFBD7
:105410006770A670012200212846FDF761FE8320F7
:10542000C00518498D4219DDFBF76AF906460C469E
:105430002846FBF765F9144A144BFBF715F832467A
:105440002346FBF71FF8FBF73DF9C0B21A2800D935
:105450001A200121FDF70EFF09B0F0BD0220F8E788
:10546000FA7EB2400400002000404E3F00007A4423
:10547000CC01002000004842000060406666064102
:10548000000068413333D3406666666666661A403C
:10549000F1B5094D2826094F0024BD4204D22888C1
:1054A000009962008852AD1CFBF762FD641CE4B2F7
:1054B000B442F2D3F8BD000000F4000800FC00087C
:1054C000F0B5A9488DB00178032956D1034642783A
:1054D00059799879DC7906949C7A0A94DC7A099453
:1054E0001C7B08941C7A0794A04C9D7826781C7924
:1054F000DF781300FDF701F81041092141414141D6
:1055000041414C4187ADBDE6FE41994A994BD5706A
:1055100017719C7391709849002C08702DD101204F
:10552000FFF73CFC0220FFF739FC0320FFF736FCB5
:105530000420FFF733FC0520BFE08D4AD572977237
:10554000547291735073069810738748417A037AA6
:105550000802184310620A9810710998907108980F
:1055600090708148052E417B834801707F4806D0AA
:10557000062E02D1042000F00BFB0DB0F0BD002977
:1055800003D006210170042069E0FDF757FDF4E720
:10559000754A784FD37892781D021543BD833C71CC
:1055A000F9703884062E02D0052E18D01EE07048FF
:1055B000006AFBF75DF804462846FBF759F82146D8
:1055C000FAF76FFE6D49FAF72FFEFBF767F8C0B2E6
:1055D000FCF770FDFCF7AAFDFFF700FD06E0644A4A
:1055E0009474D17310820620FFF7D8FB5F480078CF
:1055F0000D28C2D15E48B98BC08B8842BDD85E49A8
:105600000020087097E0002D02D0FDF7EFFB12E0BC
:105610005648012C047012D0022C12D0042C12D047
:10562000052C14D003210170012055490870FDF7A5
:1056300083FEFEF75DFA4F48FF21C1739DE7042109
:10564000F1E7052100E0082101700020EDE70921C4
:10565000FAE7002D05D0454903200870012048498C
:1056600003E047490120087040490870FDF764FED7
:1056700083E73F4A9576D7761477917010713E484C
:10568000069901703B4807998171807800280AD0FB
:105690000120FFF783FB0220FFF780FB0320FFF7C9
:1056A0007DFB042009E00020FFF778FB0120FFF7D5
:1056B00075FB0220FFF772FB0320FFF76FFB3048FA
:1056C000007858E73846FAF7DBFF00222D4BFAF74F
:1056D00041FF074628460391FAF7D2FF3A46039B5B
:1056E000FAF71EFEFBF720F8014621484164447694
:1056F0001D4900E023E08A794B7911021943C183E7
:1057000006998175079941751749092E497A0175DE
:10571000099981710A99817017490898087013498D
:105720008CD100288AD00D2008700120FFF736FBAD
:105730000220FFF733FB0320FFF730FB1DE7204675
:10574000FAF79EFF0022104BFAF704FF05460C46BD
:105750003846FAF795FF2A462346FAF7E1FDFAF7AD
:10576000E3FFFEF7C5FC08E79800002027000020B3
:105770005C0300202C000020100000200000C84224
:1057800028000020000024400000594010B5FCF71C
:10579000EFFA08480168012211430160064C2822F3
:1057A00003212046FBF7BEFD03212046FBF77CFDCD
:1057B00010BD000000380140000002400148007A9E
:1057C00070470000E00000200E480178002901D059
:1057D000491E01704189012901D9491E41810A4AA6
:1057E0001188012901D9491E1180084A118801290F
:1057F00001D9491E1180417A002901D0491E417208
:10580000704700007000002044000020420000208B
:10581000F0B57EA097B007C801AB07C37EA20FCA40
:1058200004AC0FC480A007C809AB07C381A207CA94
:1058300007C300261C210FA8FAF783FC8049042027
:105840008862052000F034FB7E4F7FA378780090BB
:105850007FA201210620FCF719F909A800F0CAFA75
:10586000014609A800F082FB642000F021FB7B497F
:1058700000200870FFF78AFF794C7A4DFBF778FB20
:105880007648FCF7E9FD0422744977A0FAF764FC36
:10589000002812D028680028F0D1C820286060783D
:1058A00005280ED204A800F0A5FA014604A800F0CD
:1058B0005DFB6078401C6070E0E728216748FAF7DC
:1058C00040FC0020607001A800F094FA014601A895
:1058D00000F04CFB65482860604818300090FBF7EA
:1058E00047FB5E48FCF7B8FD61A000F083FA024672
:1058F0005FA00099FAF730FC002807D00A22574928
:105900005DA0FAF729FC002811D022E053490C22AF
:10591000C91D5C48FAF7FCFB5A4A5BA10FA8FCF7CB
:10592000C1FD012628214D48FAF70BFC11E0282182
:105930004A48FAF706FC002E12D1607803280FD2ED
:10594000401C607001A800F055FA014601A800F063
:105950000DFB28214148FAF7F4FB28680028BED146
:105960000CA800F047FA01460CA800F0FFFA6420EA
:1059700000F09EFAFFF70AFF002E3AD07D200001CA
:1059800028600FA800F036FA01460FA800F0EEFAE2
:10599000FBF7EEFA3148FCF75FFD0C222F493DA0E2
:1059A000FAF7DAFB00280CD00B222C493DA0FAF7BD
:1059B000D3FB002811D028680028E9D1022E08D096
:1059C0001FE0787800903AA33CA201210620FCF762
:1059D0005DF83C4800F06CFA13E0204800F00AFA49
:1059E0007878009038A33BA201210620FCF74EF8FE
:1059F000E4E77878009034A336A201210620FCF772
:105A000045F80F490420886117B0F0BD41542B4977
:105A10004E510D0A0000000041542B434C524241AC
:105A20004E440D0A0000000041542B504F57523095
:105A30000D0A000041542B504F5752310D0A0000FF
:105A4000000400485C030020C5E4B6D4D6D00000B2
:105A500050616972696E672E2E2E0000A101002030
:105A600090000020180000204F4B00008813000019
:105A70005A592D41363330002B53544F503A53432B
:105A8000414E0000DC03002041542B42414E44258E
:105A9000730D0A002B434F4E4E45435445443E3E42
:105AA000000000002B444953434F4E4E45435400E1
:105AB000C5E4B6D4B3C9B9A600000000506169724C
:105AC00065640000B80B0000C5E4B6D4CAA7B0DC1A
:105AD00000000000506169726564206661696C00B5
