:020000040800F2
:1018000080120020C9180008214200087D3000081D
:1018100000000000000000000000000000000000C8
:10182000000000000000000000000000094F000858
:101830000000000000000000094A00087151000883
:10184000DB18000800000000814D0008DB180008CC
:10185000DB180008DB180008F92B00080D2C000825
:1018600000000000392900083B290008432900082E
:10187000DB180008B1520008DB1800080000000067
:10188000B5520008DB18000800000000655200088F
:1018900099520008DB180008DB180008DB18000864
:1018A000DB180008DB180008DB1800086156000888
:1018B0007D5600080348854600F04CFC0048004770
:1018C0005D8B0008801200200448804704480047D0
:1018D000FEE7FEE7FEE7FEE7FEE7FEE70952000847
:1018E000B518000830B50B4601460020202201241F
:1018F00009E00D46D5409D4205D31D469540491B44
:101900002546954040191546521E002DF1DC30BD8C
:1019100003460B439B0703D009E008C9121F08C008
:10192000042AFAD203E00B780370401C491C521EB3
:10193000F9D27047D2B201E00270401C491EFBD2BE
:1019400070470022F6E710B513460A4604461946CA
:10195000FFF7F0FF204610BD30B5054600200346D6
:1019600000E05B1C934205D2EC5CC85C201A01D1FC
:10197000002CF6D130BDF8B502464A40D40F4200E3
:101980004B0052085B089A4202D2024608461146B2
:101990004A0023D0C30D4A00DDB2120EAD1A202D2D
:1019A00035DA49020126490AF6058A19002C00D0C9
:1019B000524220214F1B1146B9402A411018C20D36
:1019C0009A4221D0002C17D0012D08DCDA05801AAC
:1019D000D20F8019D207DBB200F00FFAF8BDDA059A
:1019E000801A012340001B06C01880185A42801834
:1019F000CA0F1043490007E04908C2071143DA053E
:101A0000801A80194008801800F0EFF9F8BD6100D5
:101A10000122511A001BF7E70122D2075140AAE721
:101A20000122D2075040A6E7024670B54A40D30FC4
:101A3000DB0740002DD04A002AD0010E140E000210
:101A400012020919400A520A8418E5010446544357
:101A5000000A120A2E045043A4194219200CC5434F
:101A6000AA18120C0125AD03521C521912047F3919
:101A7000240400D0521C104301D44000491EC2B2BD
:101A80000C06C0092018401C4008802A02D003E040
:101A9000002070BD40084000002900DA00201843F3
:101AA00070BD70B502464A40D50F40004A00ED07B0
:101AB00040085208002814D0002A12D0C40DD30DBB
:101AC00041020120C0055202490A520AE41A0918CB
:101AD00012187D34914201D3641C00E04900002CAF
:101AE00001DA002070BD0023914201D3891A03431B
:101AF000400849000028F7D100290AD0914202D1BC
:101B00000121C90705E0914201D2012101E0012133
:101B1000C943E005C018401900F067F970BD000026
:101B2000F0B507460846584087B0C00F04904800FB
:101B30000E46590040084908BC1A884105D238466B
:101B400031461E4617460B460246580040081043D1
:101B50004CD0300D039040055900400D490D0590C3
:101B6000401A0290402872DA18030121000B09057F
:101B70000843019004980092002805D00199524230
:101B80000020884100920190029840210A1A019990
:101B9000009800F007F905460C466B4607CB00F0AD
:101BA00011F9C0197141039A0E0D0023D717564041
:101BB0001A467A40164344D0049A002A2DD0029A3D
:101BC000012A039A15DC1205C01A91410126360537
:101BD000001C7141D20F059ED2070093019202961C
:101BE0002A46234600F04FF907B0F0BD384631468B
:101BF000FAE71605224A0F46B218C01AB74101216A
:101C00000905001C4F4100187F4111461818794101
:101C1000E20F10436D19644113E0E2076D081543AC
:101C20006408C2071443039A01261205C01A9141A1
:101C30003605001C7141CE07400830434908C018E2
:101C400051412A46234600F011F9CDE7FFE70498F9
:101C500001224000C117121A00238B41049831461B
:101C6000C417381AA141EEE730B40124E4076340F9
:101C700030BC55E730B40124E407614030BC4FE785
:101C80000000E0FF10B500229623114600F0B5F8E1
:101C900010BD410040020122400AD205090E801801
:101CA0007F2901DA00207047962903DC9622511A19
:101CB000C8407047963988407047C20FD20740002D
:101CC00040080BD0C10D0723DB01C91840020905EC
:101CD000400A1143C20840071143704700200146E3
:101CE0007047CB0FDB07490010B5490802460A438D
:101CF00007D00A0D07240903E401090B121B002A6F
:101D000001DC002010BDC900440F0C43C100E018E5
:101D1000D205801800F069F810BD00000122D2073A
:101D2000002800DB101A002900DB511A814270479D
:101D30000122D207002800DB101A002900DB511A0B
:101D400088427047F0B51FB40646002082B00546B1
:101D50004024019100901BE0019922460F46304635
:101D600000F00AFA049A059B801A994110D3104694
:101D70001946224600F016F8361A8F41019722467E
:101D800001200021009F00F00DF838184D4100900F
:101D90002046641E0028DFDC019B0098294632465D
:101DA00007B0F0BD10B5202A04DB0146203A91406F
:101DB000002010BD914020239C1A0346E3401943A4
:101DC000904010BD10B5202A06DBCB170846203AFC
:101DD0001041C1170B4306E00B461341D0402024AD
:101DE000A21A91400843194610BD002904DA401C8C
:101DF000490001D140084000704770B40024050C30
:101E000005D11024000402D1002921D01124050E8F
:101E100001D100020834050F01D10001241D850FF6
:101E200001D18000A41C002801DB4000641C0029B3
:101E300008D020252E1B0D46F540A14000D00121E1
:101E40002943084301061B1B000ADB1D02D50020A5
:101E500070BC7047DB05181880180029F8DA401CA0
:101E60004900F5D170BC40084000704710B5002B08
:101E700008DA0024401C614192185B411A4301D1E9
:101E80004008400010BDF0B51FB482B005460C00FC
:101E900003D0084603F03CFF02E003F039FF203096
:101EA0000246009021462846FFF77CFF049B059AD6
:101EB00004460F4618431143084314D018461043F4
:101EC0001BD0009840210A1A1846059900F054F9D1
:101ED00005460E46009A05990498FFF763FF0843EC
:101EE00005D0012004E02046394607B0F0BD0020AF
:101EF000C11705430E432C43374300990E986305E1
:101F0000401A7905E40A00220C43FD0A0A3002D582
:101F100000200146E9E70105101969410C9C0D9D5F
:101F200000196941FFF7A2FFDFE70000F0B51FB419
:101F300088B00B990998002448400999C00F4900BE
:101F400049080991C0070B990090490049080B9175
:101F500009990898A64608431CD00B990A9808438B
:101F600018D0099801244000420D4800410D0998FD
:101F700024050003000B204309900B980003000B7D
:101F800020430B9050181C49401800220190144621
:101F9000104605E0002001460DB0F0BD032801DA2F
:101FA000034600E003239C46C11A0AAE0AE05F0024
:101FB00008ADED5B4F00F75B7D430027AA187C411D
:101FC000491C5B1E6145F2DD410004AB5A522104FD
:101FD000120C0A43240C401C0828DFDB01980290F5
:101FE0000099704601910090059B049A0799069804
:101FF000FFF749FFD0E700000DFCFFFFF0B50C46EE
:102000005C4085B0E40FE40703944C0000266408AC
:1020100059009446490802460296224321D062465E
:102020000A431ED06200570D4A000E032303550DCC
:10203000012402462C492405781B1B0B360B401843
:1020400023432643614600901C46501AB44103D3F3
:102050000098401C009002E0921800985B41002814
:1020600003DA0020014605B0F0BD0020012109057A
:102070000746864611E064461D46141BB54106D34B
:102080006546521BB341744607430C43A646CD0731
:1020900040084908284392185B4105460D43EAD1A0
:1020A0001046184313D0604619465040714008430B
:1020B00006D06046101AB34106D20122002306E082
:1020C00000220123DB0702E00122D24353100098D3
:1020D00074460105381C6141029C039D0019694149
:1020E000FFF7C4FEBFE70000FD0300004A0009033C
:1020F0000123090B1B0519430A4B10B5520D9A42D7
:1021000002DA0020014610BD064B34339A4203DC4C
:102110009A1A00F031F810BD034BD218FFF742FEB7
:1021200010BD0000FF030000CDFBFFFF10B500292C
:1021300004DB0124E40740428C412146002B04DBF0
:102140001C460123DB075242A341994200D1904231
:1021500010BD0000064C0125064E05E0E36807CCE3
:102160002B430C3C98471034B442F7D3FFF7A6FB3F
:10217000C8D40008E8D4000810B5202A04DB0846BB
:10218000203AD040002110BD0B46D340D04020243F
:10219000A21A91400843194610BD000010B50C4B1F
:1021A00000219A681724A2435C0522439A600F23FA
:1021B0001B038268491CD20FD207994201D0002A22
:1021C000F7D18168002901DB006C10BD002010BD33
:1021D0000024014010B512488168124B4907C90F0D
:1021E000042903D181681940103181608168C906D2
:1021F000C90FFBD10C490122CC6852021443CC60B8
:1022000084681C40A41C84608368DB07DB0FFBD15F
:1022100083685B07DB0FFBD1C8681043C86010BD43
:1022200000240140E8FFFF7F0010024010B500F0DD
:1022300005F800F01DF800F085FC10BD00B50B4856
:102240000121826987B049020A438261806908409E
:1022500006900120009003200190002004900920A6
:102260006946C00601F002FA07B000BD0010024046
:1022700030B51B4C0125A562E06818218843E06059
:10228000E068611488430843E060E0680321890244
:102290008843E060E06820218843E060E068042132
:1022A00088430843E060616907208143014361611D
:1022B0002046FFF773FF2560E16803208143014357
:1022C000E160A16807480140491CA1602168C90775
:1022D000C90FFBD0A1680140091DA16030BD0000FD
:1022E00000240140E8FFFF7FF8B507461C4615466D
:1022F0000E462A2001F01EF83804000E01F011F8F5
:10230000F8B201F00EF82804000E01F00AF8E8B265
:1023100001F007F82B2001F00DF83004000E01F059
:1023200000F8F0B200F0FDFF2004000E00F0F9FF0D
:10233000E0B200F0F6FF2C2000F0FCFFF8BD00003A
:102340003EB50C46002101910291012C01D10028DB
:102350001BDB0A2820DA024611A104E0024612A182
:1023600001E0024611A101A803F0BEFC012101A871
:1023700000F02CF97E21081A01210091C0B20CA3B3
:1023800001AA214602F05AFA3EBD0A21C842E2DC07
:102390006421C842E5DDE1E76428E2DADEE7000017
:1023A0002020256400000000202564002564000032
:1023B0002000000070B501250924AD02E40629467D
:1023C000204600F05EFDA56170BD00003EB50446EC
:1023D0000020019002900E48827A0A2A01D20DA1B3
:1023E00004E0642A01D20DA100E00EA101A803F0CF
:1023F0007BFC012101A800F0E9F8012100917E2178
:10240000081AC0B208A301AA214602F017FA3EBD7D
:102410003C0300202020256425250000202564257C
:10242000250000002564252500000000FEB549A117
:1024300003C90190494802910078002607287DD001
:1024400010200921C90688620021052001F0D6FF6D
:10245000052101A801F066FF052201A9002001F075
:1024600055FF3F4CBB206070FF20A0702146032029
:1024700004F0DCFC2070032020753A4964200876C3
:102480000027394D38462F7002F0C2FBF0231A4660
:1024900018210020009700F04BFE0121032004F0DA
:1024A00047FB324F00F0D8FC02F054FA287801289C
:1024B000F8D12E4801F000FF0100F3D02B4800F0C6
:1024C000DEFD0028EED07878AA28EBD1B878012874
:1024D000E8D12649214F0522C91CF81CFFF718FA3C
:1024E00022480221007AB8700720387001270320A3
:1024F00004F01EFB0020207506F05EF91020092173
:10250000C9068862AA206070A0701549032004F0F3
:102510008DFC20700320207512496420087600206D
:1025200002F076FB00F098FC68880028FAD132208F
:102530006880217D0A4801F0FFFE00E009E0761C7A
:10254000F6B2062EEED3002F03D002F075FB00206A
:102550002075FEBD01000000000000003C030020CB
:1025600027020020DE010020400100208C01002015
:1025700010B50D4C2078642814D207F069FE0028AD
:1025800010D160780A30C0B26070642801D90A2086
:102590006070122148436421FFF7A4F9C0B2012101
:1025A00004F0E8F910BD00002C01002006490020CD
:1025B000162242435218127D002A04D0401CC0B299
:1025C0000828F5D3FF2070472702002000B50449F2
:1025D000886000F007F806214843C0B200BD000043
:1025E0002C010020024600210846535C002B04D039
:1025F000491CC9B21529F8D3704708467047000036
:10260000F8B5174D00246878012802D0002802D0C0
:1026100002E0562400E06824124E3078082802D1E7
:10262000FF2006F019F9687800900FA310A2072187
:102630000A2002F003F9002006F00EF9307807288E
:1026400002D1FF2006F008F9687800900AA30CA2D6
:102650000721204602F0F2F8002006F0FDF8F8BD50
:102660003C030020C6000020C8A1CFFB00000000F2
:1026700043616E63656C0000C8B7C8CF00000000FE
:10268000436F6E6669726D0070B58CB00446182198
:1026900005A8FFF756F91B48FF210079353148435B
:1026A000194941180C20604309184B884A7A0E7A60
:1026B000CD88887A097B0292049103900196009557
:1026C000224612A105A803F00FFB012105A8FFF780
:1026D0007DFF8021081AC10F0818C0050125114E81
:1026E000040E009510A205210020336802F0A6F820
:1026F000009505AA05212046336802F09FF80CB02A
:1027000070BD000070010020DC0400202825642931
:1027100025642C25642C25642C25642C25642C250B
:1027200064000000340100202020202020202020F0
:102730002020202020202020202020200000000019
:10274000F0B5604987B009780E2958D10127802457
:102750005D4D5E4E012806D0022852D03078012807
:1027600065D8012665E0FF2006F076F858484078E5
:1027700000281CD0012157A0FFF728FF201AC10F05
:102780000818C005040E524801AB4078009007219C
:1027900020462A6802F052F8327854A101A803F0CA
:1027A000A3FA1E3401ABE0B21A4600973DE032783E
:1027B00050A101A803F098FA012101A8FFF706FF34
:1027C000064601214DA0FFF701FF201A801BC10F13
:1027D0000818C005040E3E4801AA40780090A019D0
:1027E000C0B207212B6802F029F801AB1A46072175
:1027F0002046009702F022F8002006F02DF807B0DE
:10280000F0BD307A0028FAD1FF2006F025F801212A
:102810003EA0FFF7DBFE201AC10F08182C49C005A7
:10282000497800912B68000E01AA0721E2E7401EBB
:10283000C6B22748407800281FD0012138A0FFF7F2
:10284000C5FE201AC10F0818C005040E204801ABB0
:1028500040780090072120462A6801F0EFFF3246B9
:1028600022A101A803F040FA1E3401ABE0B21A46DF
:102870000721009701F0E2FFC1E732461DA101A840
:1028800003F032FA012101A8FFF7A0FE064601215C
:102890001FA0FFF79BFE201A801BC10F0818C00560
:1028A000040E0B4801AA40780090A019C0B207217D
:1028B0002B6801F0C3FF01AB1A46072120460097A1
:1028C000D8E70000C500002034010020700100207E
:1028D0003C03002050617261202020202069732079
:1028E00073686F7474696E6700000000282564299E
:1028F000000000002028256429000000B2CECAFD97
:10290000D5FDD4DAC5C4C9E3D6D00000CBF9D3D005
:10291000B2CECAFDC5C4C9E3D2D1BDE1CAF8000038
:1029200050617261202020202069732066696E69E1
:102930007368656400000000704710B500F0EEF8A1
:1029400010BD10B502F014FF10BD0000F8B54749E6
:102950000D78032D7ED14649FF220A730C462F3491
:102960004E7B6378A278E178012E06D0022E21D02A
:10297000032E2ED0042E3AD049E03E4EC7073678BB
:1029800004D0092E11D2761C26700EE080070CD5DB
:1029900038480078401EC0B2002B03D1002A01D174
:1029A000002904D0002E00D0207000210FE0012E5D
:1029B000FAD8FAE7C10703D0092B07D25B1C04E061
:1029C000800703D5002B01D05B1E637001212846D0
:1029D0001BE0C10703D0092A07D2521C04E080077C
:1029E00003D5002A01D0521EA2700221EFE7C207D0
:1029F00003D0092907D2491C04E0800703D5002928
:102A000001D0491EE1700320014600F057F86078BC
:102A100000280FD1A07800280CD1E078002809D137
:102A20002078002806D1012020701048002100786D
:102A300000F044F8607821780A2250430A18A07800
:102A400064214843E1787D23DB0059434018101886
:102A5000094900E009E0486205F0AEFE04490020A3
:102A600008730322022104F015FEF8BDC600002001
:102A7000CC000020FB000020F00200200C49097867
:102A8000062913D10B49097803290FD10A4A517B32
:102A900000290BD0030703D5012907D9491E04E0FB
:102AA000400703D5042901D2491C51737047000027
:102AB000C5000020C6000020CC0000207FB50546E0
:102AC0000C460C480CA1025D01A803F00DF9012190
:102AD00001A8FFF77BFD06214C4320187E21081A30
:102AE00001210091C0B205A301AA294601F0A6FE6A
:102AF0007FBD0000FB0000202564000020000000D6
:102B000010B5FFF757FC04F00FF906F00FFA02F0CA
:102B1000C7FA08F097FF06F005F810BD10B5084C8D
:102B20000221204600F0AAFC202060601020606096
:102B30000221204600F096FC02F060F910BD000072
:102B40000000024038B52648012142690A4342612B
:102B50004069244C0840254900900B782148224ABE
:102B600008341A511F4B0C78214A0C33E2500124CF
:102B70000B78021D9D582D0C2D0425439D500B787C
:102B8000C2581C4C2240C2500A78835803242403A4
:102B9000A34383500B78C2584024A243C2500C7800
:102BA000025980239A431A4302510B788415C25864
:102BB00003252D02AA432243C2500A7804158358E4
:102BC000AD00AB43234383500C7803592022934339
:102BD000134303510978425801231A43425038BD28
:102BE0000010024000000240402401407AD2000858
:102BF0005C010020EFBFFFFF10B50349F8204861DA
:102C0000002007F005FC10BD0004014010B50C4C7D
:102C100001216069C9030840884202D107F0F0FB36
:102C200008E0FF20616901300140814202D105497D
:102C30000120087004486061002007F0E9FB10BD26
:102C40000004014049010020F8990000FEB542A1AE
:102C500003C90026F0230291019037461A460096D8
:102C60001821022000F064FA0321084603F060FFF7
:102C700010200925ED06A8620021052001F0BEFB09
:102C80002221062001F0BAFB052101A801F04AFB30
:102C9000052201A9002001F039FB314CCC206070E5
:102CA0000220A0702F48C178E1700179217141792B
:102CB00061718179A171C179E171807820722146B9
:102CC000092004F0B3F8207009202075002001F0DD
:102CD0009FFF1020A86224484770244F00F0BCF8E2
:102CE000214801F0E9FA002806D01F484178BB29A5
:102CF00002D18078BB2820D078880028EED110201F
:102D0000A862002001F084FFFF205F307880217DE1
:102D1000134801F011FB1020A862012008F014FDF7
:102D2000012001F075FF1020A861012008F00CFDC2
:102D30000F2E07D2761CF6B2D0E70B490020487060
:102D4000042100E00521032003F0F2FE01F074FFEE
:102D500000202075FEBD0000020000000000000001
:102D6000270200203C0300208C01002040010020AD
:102D7000F0B50B2706463F04384600F05BF8042800
:102D80000FD1084C20690225284320616661206923
:102D9000402108432061384600F04CF82169A943DE
:102DA0002161F0BD0020024008490420CA68D20712
:102DB00001D001207047CA68D20601D502207047B1
:102DC000C9684907FBD50320704700000020024076
:102DD00002480169802211430161704700200240CE
:102DE000F0B50B2706463F040D46384600F022F8A2
:102DF00004280CD1064C206901210843206135804C
:102E0000384600F017F82169490849002161F0BDF2
:102E10000020024004480169090603D503494160C6
:102E200003494160704700000020024023016745CC
:102E3000AB89EFCD00B50346FFF7B6FF02E0FFF721
:102E4000B3FF5B1E012803D0002B00D1052000BD7D
:102E5000002BF4D1FAE700000249014808607047EE
:102E6000AAAA00000030004000B587B00091002100
:102E70000191029103910491694600F0F7FB07B0BC
:102E800000BD00B587B0009100210122029103919D
:102E900001920492694600F0E9FB07B000BD000012
:102EA00070B51B4D0446C17BA878814203D9401CF4
:102EB000A87007F03BFFE07B2871FF2235325043BA
:102EC000144AA17B83181846FF3069712130817440
:102ED000E279A679120232430C2671435918CA804E
:102EE0006279237912021A434A80227A0A72627A3C
:102EF0004A72A27A8A72E27A8273227BC273064A8B
:102F0000607B1070207C08730120287070BD000069
:102F100070010020DC040020D000002070B5154DA9
:102F20002878042811D1144C144B22781979062AD8
:102F30000CD0072A09D1002907D107F055FA102033
:102F400028700320207003F0F9FE70BDC84300060E
:102F5000000E187101D00AA100E00EA1072002F0B6
:102F6000F9F906220521002004F094FB062006F062
:102F70009BFA70BDC5000020C6000020CC000020D8
:102F8000D5C5CAFD20202020202020202020202060
:102F9000202000002020202020204142B5E3C9E865
:102FA000D6C3202020202020000000001FB50C46A2
:102FB0001549CA8B0A2A02D2034614A112E0642AD8
:102FC00002D2034614A10DE07D21C9008A4202D23B
:102FD000034614A106E0164903468A4201D215A110
:102FE00000E00BA101A802F07FFE012101A8FFF77C
:102FF000EDFA7E21081A01210091C0B210A301AAA6
:10300000214601F01BFC1FBDCC0000202020202009
:103010002564202F202564002020202564202F20D7
:103020002564000020202564202F20256400000056
:1030300010270000202564202F20256400000000B8
:10304000D5C5CAFD000000000A4B1A68920892001C
:1030500002431A60084803690422134303610129EB
:1030600006D040BF20BF20BF016991430161704776
:1030700030BFF9E70070004000ED00E0FEE710B55A
:103080000023012204E0845CE318521C9BB2D2B2FC
:103090008A42F8D30078D9B2884201D0002010BD0E
:1030A000012010BD10B504210148FFF7DDFE10BD61
:1030B0000004004870B501240925E403ED0621460B
:1030C000284600F027FB002818D00D4E202130465E
:1030D00000F020FB002811D0FF20F53008F034FB71
:1030E0002146284600F016FB002807D02021304654
:1030F00000F010FB002801D0FFF7A8FD70BD000014
:103100000004004870B506460021A323812208462A
:10311000FFF7EAF80024FFF79FFE0025304600F095
:10312000F1F86D1CA32DF9D3641C812CF3D370BD71
:10313000FFB581B016460C46054680281CD2A02C4F
:103140001AD2B54218D00498844215D0AE4213D397
:10315000A04211D303462846FFF7C6F8274608E0E9
:103160002C4603E00A9800F0CDF8641CB442F9D96B
:103170007F1C04988742F3D905B0F0BDFFB583B03A
:1031800000243748019400944078002801D194200D
:1031900000900398742861D8049894285ED859E068
:1031A000059A00201319651C0FE01C2206465643A1
:1031B000069A9259165DB14205D15E78525D9642EB
:1031C00001D1019004E0401CC0B2009A9042ECD3BF
:1031D000FFF742FE049B039A194610460B320B334D
:1031E000FFF782F801981C214843069900254018F2
:1031F000029040190779E80706D000260120B04068
:10320000384214D0174817E000260120B040384259
:1032100001D0144804E014480078002800D01F2092
:1032200000F070F8761CF6B2082EEED30AE00E48D5
:103230000078002800D01F2000F064F8761CF6B259
:10324000042EDBD36D1CEDB2182D01D20298D0E70D
:10325000A41CE4B20598015D0029A1D107B0F0BD1E
:103260003C030020FFFF0000D8000020FFB583B022
:103270000020009000990598405C00283BD0FFF7A3
:10328000EBFD00990598405C2038C4B203987A2879
:1032900031D8049894282ED80346039A0146104644
:1032A0000B33521DFFF720F80C20444306980025ED
:1032B00020180126019001980024475D3046A04067
:1032C000384201D00D4804E00D480078002800D0B5
:1032D0001F2000F017F8641CE4B2062CEED36D1C1E
:1032E000EDB20C2DE7D30398801DC0B20390009877
:1032F000401CC0B2BDE707B0F0BD0000FFFF0000FA
:10330000D800002010B50446FF2001300921C9066D
:1033100088612004000E01F00FFFE0B201F00CFF05
:1033200010BD10B5FF2109220131D206916101F0D3
:1033300003FF10BD10B5FF2109220131D2069162B1
:1033400001F0FAFE10BD0000F7B582B00020009039
:10335000080108181530C0B203903CE0FFF77CFD6F
:1033600000990498405C2038C4B202987A2837D873
:103370000398942834D80346029A014610460B332A
:10338000521DFEF7B1FF0C204443164800252018BB
:103390000126019001980024475D3046A040384244
:1033A00002D01F20C00204E00F480078002800D09F
:1033B0001F20FFF7A7FF641CE4B2062CEDD36D1CA1
:1033C000EDB20C2DE6D30298801DC0B20290009899
:1033D000401CC0B2009000990498405C0028BDD108
:1033E00005B0F0BD06CE0008D800002008B504499D
:1033F0004A6902434A6149690140009108BD0000E1
:103400000010024008B504494A6902434A6149690B
:103410000140009108BD00000010024008B50449B9
:103420004A6902434A6149690140009108BD0000B0
:103430000010024008B50449CA690243CA61C9695B
:103440000140009108BD00000010024008B5044989
:10345000CA690243CA61C9690140009108BD000000
:1034600000100240044A51182039C97F42585208BE
:10347000520042507047000066BB0008044A5118D1
:103480002039C97F425802239A43425070470000B6
:1034900066BB0008044A51182039C97F42580123ED
:1034A0001A4342507047000066BB0008034A511897
:1034B0002039C97F001D085880B2704766BB0008DC
:1034C000054B10B559182039C97F435803242403EC
:1034D000A3431343435010BD66BB0008054B591866
:1034E0002039C97F001D0B581B0C1B0413430B50C4
:1034F0007047000066BB0008054B10B5591820390D
:10350000C97F4358034C23401343435010BD000070
:1035100066BB0008EFBFFFFF034B59182039C97F76
:103520000C300A507047000066BB0008054B10B510
:1035300059182039C97F43588024A343134343506B
:1035400010BD000066BB0008054B10B559182039A6
:10355000C97F43580324A402A3431343435010BD1F
:1035600066BB0008054B10B559182039C97F435870
:103570002024A3431343435010BD000066BB000842
:10358000034B59182039C97F08300A507047000092
:1035900066BB0008054B10B559182039C97F435840
:1035A0004024A3431343435010BD000066BB0008F2
:1035B000054B10B559182039C97F435803242402FC
:1035C000A3431343435010BD66BB000810B50479F4
:1035D000012325490268002C3DD0002A42D04479BD
:1035E000002C0FD0012C15D0022C16D0002382798C
:1035F000002A37D0012A18D0022A1FD0032A21D04E
:1036000000232FE04C6894434C6002680C6814431C
:103610000C60ECE70C68944301E00C6814430C6008
:1036200002684C6814434C60E1E70268CC6894433C
:10363000CC6000688A6802438A6013E002688C6884
:10364000944302E002688C6814438C600068CA6886
:103650000243CA6006E00C6894430C6000684A6844
:1036600082434A60184610BD00040140F0B50024B2
:103670003EE001232A46A3401A4038D04F6806682E
:10368000134653435D005D19AE435F433E430660FE
:103690004E68012E01D0022E05D18F6886685F43E7
:1036A000AE433E4386600F69C668AE431D467D4308
:1036B0002E43C6604D68022D19D1FF2A0AD84E69E3
:1036C000056A534353431A01D21A954373431D436A
:1036D00005620CE0130A1A465A435A435A4313012F
:1036E0009E1A4D69436A6A43B34313434362641CA1
:1036F0000A681546E240BCD14A68012A01D0022A74
:1037000006D1CB6841682A4691435A431143416030
:103710000120F0BD0069814301D0002070470120E5
:1037200070470069814301D0002070470120704735
:103730000069814301D00020704701207047006973
:10374000814301D000207047012070470069814308
:1037500001D00020704701207047000010B57D2186
:10376000C900FEF7BFF80449401E48610020886187
:103770000520086110BD000000E000E010B504461F
:1037800001F0B2F9206001F095F9606001F0A0F954
:10379000A06010BD014610B5002000290FD11049CE
:1037A0000A6B9207920F012A0AD0022A11D0032A2B
:1037B00009D001F099F901F07DF901F089F910BD06
:1037C00001F092F910BD09688907C90FFAD00548C0
:1037D00010BD096A8907C90FFAD00120C00310BDC6
:1037E0000010024000127A0003494A6892089200D1
:1037F00002434A6070470000001002401206120A9D
:1038000010B50A431906090C029C0A43E1B20A43A7
:10381000C169024B19401143C16110BD808080FF16
:10382000F8B5044615460020A3684022134200D193
:103830002860CA206062532060620120EA68800725
:10384000002AE26911D00243E2612A7CE0690F2379
:103850001B06984312061043E06100291DD0A87989
:1038600000906B792A7929682FE08243E2613F2634
:103870003606002906D0297CE0690906B0430843D2
:10388000E061ECE7287C0A21FEF72CF800010843F0
:10389000E1690006B1430143E161A8790A21FEF71D
:1038A00021F800010843C7B268790A21FEF71AF827
:1038B00000010843C6B228790A21FEF713F8000177
:1038C000084300972968C2B233462046FFF796FFA7
:1038D000A968E069034A10400843E061FF20606284
:1038E0000120F8BD7F7F7F7F18B57D21C900009141
:1038F000C16801224906C90F15D1491EC160C168BE
:103900000B4B4906C90F0CE01969C903C90F02D056
:103910000099491E0091C168009C4906C90F002CFE
:1039200003D00029F0D0104618BD0022FBE70000AC
:1039300000E000E070B504460026CA200D46606233
:10394000532060622046FFF7CFFF002817D0296878
:10395000A068402290430843A060A8682169C90B71
:10396000C90301432161A98820697F221204904381
:103970000904084320618020C043E0600126FF2045
:103980006062304670BD00001206120A10B50A438C
:103990001906090C029C0A43E1B20A430168024B72
:1039A00019401143016010BD808080FFF8B51446B6
:1039B000054600260F46AA68304640210A4200D13B
:1039C0002060CA206862532068622846FFF78CFF97
:1039D00000282AD0A079002F04D0009063792279A2
:1039E000216816E00A21FDF77DFF00010843C7B2F8
:1039F00060790A21FDF776FF00010843C6B22079FD
:103A00000A21FDF76FFF0001084300972168C2B249
:103A100033462846FFF7B8FF80200849C043C860F6
:103A2000A8688006C00F04D00126FF2068623046D7
:103A3000F8BD284600F004F80646F6E700280040E6
:103A400038B57D24E4000094C268012180231A4027
:103A5000A13AC260C268164B9206D20F0CE01A69F6
:103A6000D203D20F02D0009A521E0092C268009D6B
:103A70009206D20F002D18D0002AF0D1002912D0C2
:103A80000094C2689206D20F0BE01A69D203D20FDB
:103A900001D0621E0092C268009C9206D20F002CD8
:103AA00003D0002AF1D0084638BD0021FBE7000012
:103AB00000E000E010B5036800225B06DB0F25D1B3
:103AC0000CC98C681A434B6823431A43CB681A43CA
:103AD0000B691A434B691A438B691A4303680C4CF0
:103AE00023401A43026042680A4B1A40CB681B0C01
:103AF0001A430B681A43426001238A695B03083941
:103B00009A4202D1898C89B201610122104610BD0E
:103B10004000FFFFFBF0FFFF0A06930D054A10B5BA
:103B20009B189A68090C0F248C40A24388400243DA
:103B30009A6010BD00000140F0B50268194B1A4CA4
:103B4000984201D0A04203D17025AA434D682A4370
:103B5000164D174E174F98420AD0A04208D0164C67
:103B6000A04205D0A84203D0B04201D0B84204D14F
:103B700003242402A243CC68224302608A68C26202
:103B80000A888262984205D0A84203D0B04201D090
:103B9000B84201D1097C01634169012211434161AD
:103BA0001046F0BD002C01400004004000400140E0
:103BB000004401400048014000200040012910D08D
:103BC000042910D0102910D0402910D0CA1FF93A6A
:103BD00005D00122920291420BD105210AE0042175
:103BE00008E0002106E0012104E0022102E00321B7
:103BF00000E00621064A1830525C054B1018DB1D08
:103C00005B5C0821026899400A430260704700002B
:103C100058BB0008034610B5002001290DD010291B
:103C200010D0FF39491E12D00F242402A14203D123
:103C30001146184600F0C8FD10BD1146184600F0A8
:103C4000E9FC10BD1146184600F02AFD10BD1146D2
:103C5000184600F06DFD10BDFEB5044600680D4627
:103C60000026C007C00F43D1E9686868AA69084305
:103C700029691143084321681E4A11400843206006
:103C8000A968606803221203904308436060696971
:103C9000A068121190430843A0601748844203D1E2
:103CA0000020FFF777FD06E01448844220D16846E3
:103CB000FFF764FD029800281AD02968002917D060
:103CC0000126AA69F3039A420CD140004A088018E1
:103CD000FDF708FE81B20A4808400907490F014371
:103CE000E16005E04A081018FDF7FCFD80B2E060D5
:103CF0003046FEBDF369FFFF00380140004400403C
:103D0000F0FF000070B501258F4CAD03A5621420B3
:103D100007F01AFDA561142007F016FD1120FFF72A
:103D200009FB782007F010FD1320FFF703FBB120FB
:103D3000FFF700FB0120FFF7F4FA2C20FFF7F1FA60
:103D40002D20FFF7EEFAB220FFF7F4FA0120FFF77B
:103D5000E8FA2C20FFF7E5FA2D20FFF7E2FAB3206E
:103D6000FFF7E8FA0120FFF7DCFA2C20FFF7D9FA79
:103D70002D20FFF7D6FA0120FFF7D3FA2C20FFF70A
:103D8000D0FA2D20FFF7CDFAB420FFF7D3FA0720A1
:103D9000FFF7C7FAC020FFF7CDFAA220FFF7C1FA5C
:103DA0000220FFF7BEFA8420FFF7BBFAC120FFF71D
:103DB000C1FAC520FFF7B5FAC220FFF7BBFA0A2007
:103DC000FFF7AFFA0020FFF7ACFAC320FFF7B2FA13
:103DD0008A20FFF7A6FA2A20FFF7A3FAC420FFF7EC
:103DE000A9FA8A20FFF79DFAEE20FFF79AFAC5207C
:103DF000FFF7A0FA0E20FFF794FA3620FFF79AFAA1
:103E00000020FFF78EFAE020FFF794FA0F20FFF76B
:103E100088FA1A20FFF785FA0F20FFF782FA182098
:103E2000FFF77FFA2F20FFF77CFA2820FFF779FAB7
:103E30002020FFF776FA2220FFF773FA1F20FFF702
:103E400070FA1B20FFF76DFA2320FFF76AFA37207C
:103E5000FFF767FA0020FFF764FA0720FFF761FA1F
:103E60000220FFF75EFA1020FFF75BFAE120FFF770
:103E700061FA0F20FFF755FA1B20FFF752FA0F20C7
:103E8000FFF74FFA1720FFF74CFA3320FFF749FAF4
:103E90002C20FFF746FA2920FFF743FA2E20FFF7E0
:103EA00040FA3020FFF73DFA3020FFF73AFA392088
:103EB000FFF737FA3F20FFF734FA0020FFF731FA17
:103EC0000720FFF72EFA0320FFF72BFA1020FFF749
:103ED00028FA2A20FFF72EFA0020FFF722FA002006
:103EE000FFF71FFA0020FFF71CFA7F20FFF719FAEF
:103EF0002B20FFF71FFA0020FFF713FA0020FFF72F
:103F000010FA0020FFF70DFA9F20FFF70AFAF020C1
:103F1000FFF710FA0120FFF704FAF620FFF70AFA7C
:103F20000020FFF7FEF93A20FFF704FA0520FFF71B
:103F3000F8F92920FFF7FEF90020FFF7E3F8282021
:103F400007F002FC70BD000000040048F8B5002036
:103F50005723F02218210090FFF7EAF85323672235
:103F600033211820FEF7C0F900263001002500900B
:103F70000098411929480024475C0120A04038409E
:103F800000D02748FFF7BEF9641CE4B2082CF4D334
:103F90006D1CEDB2102DEBD3761CF6B2142EE4D3CB
:103FA00068236F2254211020FEF79EF9002630016D
:103FB00000250090009841191A480024475C012010
:103FC000A040384000D01648FFF79CF9641CE4B2CA
:103FD000082CF4D36D1CEDB2102DEBD3761CF6B289
:103FE000102EE4D3012110A0FEF7F0FA8021081A68
:103FF000C10F08180121C0050091000E0CA30AA2F0
:10400000052100F01BFC0B4807F09EFB0020572306
:10401000F02218210090FFF78BF8F8BD9CCB000828
:10402000FFFF0000DCCC00084C472D3036000000BC
:1040300000000000B80B000000B506F0C5F9034809
:104040000178002901D00021017000BD4801002045
:1040500070B528480121C26988B009070A43C261C6
:10406000C2690A40244907920A6883151A430A6004
:10407000026A19020A430262026A8A430262016A00
:10408000421503231B02994311430162016A920105
:1040900011430162194E3046FFF7D2FC1849002443
:1040A0000868FF2212049043086001251549042086
:1040B00008607F200590FF2038300690049404A902
:1040C0003046FFF737FC694600940C714C718C71D7
:1040D0006A4600213046FFF769FC0B4968044861D5
:1040E000029069464C738D730D7302A8FFF76EFA48
:1040F00008B070BD00100240007000400028004071
:1041000000E400E000E100E000040140F0B595B0FB
:104110000220FFF78FF90021102000F0E9F90125B6
:104120002549280408600520694608800026632088
:10413000224C0290019603962046FFF7FDFC206872
:10414000802738432060A1142046FFF737FD602008
:1041500005A961C11A4805AA807A0890A114099698
:104160002046FFF757FD1748144980791831401849
:10417000144A0168D21D937904229A409143016048
:10418000A1142046FFF71AFD2068384320602068FC
:104190002843206002200D900E9003200F9011956F
:1041A0000DA9109612950848FFF760FA2068284379
:1041B000206015B0F0BD000000E100E00004004008
:1041C0003C03002058BB00080004004810B5064816
:1041D000016849084900016001F098FB01F000FB0B
:1041E00001F04AFB10BD00000044004070B50A48D1
:1041F000007802280BD1094C607B002808D00025EC
:104200006573FF202073022000F026FF257370BD28
:104210000120607370BD0000C6000020CC000020AB
:104220007047000070B570210840044600F038F86F
:104230000646074D0120A862272003F053FD2046C3
:10424000304303F04FFD0120A86100F029F870BD54
:1042500000040048F8B50F46094E01211546B16229
:1042600003F040FD002405E0FF2003F03BFD38553E
:10427000641CE4B2AC42F7D30120B061F8BD000089
:104280000004004810B5054C0121A16203F02AFD8D
:10429000FF2003F027FD0121A16110BD00040048AB
:1042A00010B5044C0120A062072003F01BFD012182
:1042B000A16110BD0004004870B5054604211248F4
:1042C000FFF736FA00281CD110200921C9068862A0
:1042D0000720FFF7D7FF04460146072000F08EF8BD
:1042E00060060ED56020FFF7CDFF04460246294642
:1042F0006120FFF7AFFFFF21E22000F07FF82046AA
:1043000070BD002070BD00000004004810B5052AF3
:1043100000D90522052800D905200A30C0B200F0D6
:1043200055F810BD10B5052900D905210A460146EA
:10433000102000F04BF810BDF3B50024224D81B0E1
:1043400001200E46A862E12003F0CCFC0120A86108
:1043500010200927FF06B8623246A020019900F01C
:1043600035F81020B8610EE0FEF776FD0720FFF764
:1043700089FFC0060DD4012007F0E6F92046641C31
:10438000A4B2C82805D004212846FFF7D1F9002897
:10439000EAD10720FFF776FF04460146072000F028
:1043A0002DF8E00609D5FF21E12000F027F8FF21D4
:1043B000072000F023F81020FEBDA00601D5202024
:1043C000FEBDFF20FEBD000000040048F8B50F460A
:1043D000094E01211546B1622021084303F082FCF9
:1043E000002404E0385D03F07DFC641CE4B2AC42C0
:1043F000F8D30120B061F8BD0004004870B5074C47
:1044000001220D46A2622021084303F06BFC2846DE
:1044100003F068FC0120A06170BD000000040048AA
:10442000F0B585B01AA103C9019000200291039054
:1044300001AD03AE184C01270490FEF70DFD0522D7
:1044400001A91020FFF7C2FF052203A91020FFF7E2
:1044500001FF0020295C325C914203D1401CC0B2B4
:104460000528F7D3052810D02078401CC0B2207052
:10447000052806D309A30AA201210020009700F015
:10448000DDF9C82007F060F9D7E705B0F0BD0000FE
:10449000A5A5A5A5A500000044010020000000007E
:1044A000524632344C3031206973206E6F7420666E
:1044B000696E6400C106C90E012088400149086088
:1044C0007047000080E100E0C106C90E012088406D
:1044D000014908607047000000E100E0C106C90E14
:1044E00001208840014908607047000000E100E0B9
:1044F0008307FF22DB0E9A408907090E99400028A6
:104500000BDA0007000F0838830808489B001818CA
:10451000C36993430B43C3617047830804489B00FE
:104520001B181868904308431860704700ED00E0BE
:1045300000E400E08307FF22DB0E9A408907090EA2
:10454000994000280BDA0007000F08388308084854
:104550009B001818C36993430B43C36170478308DA
:1045600004489B001B181868904308431860704764
:1045700000ED00E000E400E08307FF22DB0E9A403C
:104580008907090E994000280BDA0007000F083848
:10459000830808489B001818C36993430B43C36101
:1045A0007047830804489B001B1818689043084311
:1045B0001860704700ED00E000E400E0BFF34F8FAB
:1045C00004490348C860BFF34F8F00BFFDE70000F8
:1045D0000400FA0500ED00E070B501240C4DA402C2
:1045E000AC617D20C00007F0AFF8AC62642007F03A
:1045F000ABF800F0A9FAFFF713FF00F0C1FA0120B1
:1046000000F006FB10200921C906886170BD00007A
:104610000004004830B5026A520852000262026A81
:10462000436884697025A408A400AC430D682C433A
:104630000225AA430D692A4352084D6852002A43B5
:10464000134DA84208D0134DA84205D0124DA842E0
:1046500002D0124DA84214D10825AA434D69AD00DD
:104660002A430425AA438D68AD002A43FF2501355E
:10467000AB438D692B4301256D02AB43CD696D00C2
:104680002B4343608461C96841630262012030BDED
:10469000002C01400040014000440140004801401E
:1046A00070B5026A1025AA430262026A43688469EF
:1046B00073263602B4430E68360234432026B243D2
:1046C0000E6936013243AA434D682D012A43144D29
:1046D000A84208D0134DA84205D0134DA84202D0DD
:1046E000124DA84215D18025AA434D69AD012A4338
:1046F0004025AA438D68AD012A430125AD02AB4395
:104700008D69AD002B430125ED02AB43CD69ED0072
:104710002B4343608461C96881630262012070BDDC
:10472000002C01400040014000440140004801408D
:1047300070B5026AFF250135AA430262026A436826
:10474000C4697026A408A400B4430E6834436E0004
:10475000B2430E6936023243AA434D682D022A4302
:10476000154DA84208D0154DA84205D0144DA842B9
:1047700002D0144DA84217D10125ED02AA434D697C
:10478000AD022A430125AD02AA438D68AD022A433A
:1047900001252D03AB438D692D012B4301256D03AD
:1047A000AB43CD696D012B434360C461C968C163EC
:1047B0000262012070BD0000002C01400040014059
:1047C000004401400048014070B5026A01252D03F4
:1047D000AA430262026A4468C36973263602B3437D
:1047E0000E68360233436E00B2430E69360332431D
:1047F000AA434D682D032A430C4DA84208D00C4D06
:10480000A84205D00B4DA84202D00B4DA84205D1BD
:104810000125AD03AC438D69AD012C434460C361F8
:10482000C96801640262012070BD0000002C0140D3
:10483000004001400044014000480140FFB50A012A
:10484000891883B00446002615310C981F46CDB256
:10485000324600284AD0012803D0072801D0052875
:1048600047D117460598805D002842D0FEF7F4FA3C
:104870007A2C02D900240C35EDB2942D05D90024F0
:104880001F202546C002FEF73DFC05981A4B815DAE
:1048900068460171477101AA29462046FEF7E6FCE9
:1048A000A41D761CE4B2F6B2DCE7FEF7D5FA742C50
:1048B00002D900240C35EDB2942D05D900241F2017
:1048C0002546C002FEF71EFCB85D69460870B8199F
:1048D0004078487000208870084B6A462946204678
:1048E000FEF74CFC0C34B61CE4B2F6B2B85D0028FE
:1048F000DBD107B0F0BD000006CE00086CBB00089D
:1049000010B5114CFF212079353148430F49104A29
:104910004018FF302130807C182801D2811C00E033
:10492000411C11700621FCF7DDFFA071042801D3A2
:104930000320A07102F002FA06F024FA00F088FACF
:1049400003F090FF10BD000070010020DC04002087
:10495000C6000020FEB50020214F019039680029D3
:1049600020D1204E317D00291CD01F4D09242870F4
:104970001020E406A062002000F04AF9317D3046A4
:10498000FFF7DAFCFF21F531012620280BD0102893
:1049900039600CD01020A062012000F039F91020FD
:1049A000A0612E70FEBD1020A0623960F4E71020D7
:1049B000A062012000F02CF91020A0612E706A780E
:1049C0000AA101A801F090F909A301AA032100207E
:1049D0000096FFF733FF6878401C6870FEBD00004A
:1049E0000C01002027020020400100202564000067
:1049F0000000000003484188002902D04188491E78
:104A0000418070474001002070470000F8B52248FF
:104A1000818A012936D100248482417BFF26013618
:104A20001E4F1F4D002911D00021417331463846D9
:104A3000FEF770FE002826D072B6BFF34F8F1A49DA
:104A40001848C860BFF34F8F00BFFDE74470047281
:104A5000FF21417300F07AFA31463846FEF75AFEDC
:104A600000280FD11148017B002904D0047303F002
:104A7000A3FE07F01FF8012028700020FEF742FB7C
:104A800006F024FFF8BD0020FEF73CFB01F0D6FF46
:104A9000074804802C70F8BD16010020000400486F
:104AA000490100200400FA0500ED00E03C0300206D
:104AB000F200002004494968F0221140034A090924
:104AC000515CC840704700000010024040BB000825
:104AD00003494968034A4905490F515CC84070477A
:104AE0000010024050BB000810B5064841680C2079
:104AF0000140054805D0042903D0082901D100F060
:104B000005F810BD0010024000127A0010B50C4CE0
:104B10006168012212040B48114002D0914200D179
:104B20004000E16A0907090F491CFCF7DBFE6168D8
:104B30000F2292041140890C891C484310BD0000CB
:104B40000010024000093D0010B50924E4062021B0
:104B50002046FEF796F980212046FEF792F9402183
:104B60002046FEF781F9FEF79DFA01210348FEF782
:104B700088F910212046FEF784F910BD0004004892
:104B800010B510200924E406A0627020FFF74AFB4C
:104B900001211C20FFF732FC04211D20FFF72EFC11
:104BA0001C20FFF76FFB1D20FFF76CFB1020A0629D
:104BB00008210020FFF722FC0A2006F0C5FD0A218B
:104BC0000020FFF71BFC01210846FFF717FC01211D
:104BD0000220FFF713FC03210846FFF70FFCFF211B
:104BE0000420FFF70BFC094C0520A178FFF706FC19
:104BF00027210620FFF702FC0521E01CFFF792FBAE
:104C00000522E11C0020FFF781FB10BD3C030020C2
:104C100010B504460020FFF735FB0146002C02D0FA
:104C2000012C03D004E04108490001E001200143C8
:104C30000020FFF7E3FB10BD10B510200921C906C5
:104C40008862FF202D3006F07FFDFF21E120FFF775
:104C5000D5FBFF210720FFF7D1FB094C0520A178E8
:104C6000FFF7CCFB27210620FFF7C8FB0521E01C3E
:104C7000FFF758FB0522E11C0020FFF747FB10BDA2
:104C80003C03002030B587B00025684605950576C1
:104C900045761E4C857605AA29462046FEF786FEF7
:104CA00005A9002000F040F868460095017E0171DA
:104CB000417E4171817E6A46891C81711F21017488
:104CC00013480290002103952046FEF7A9FDE068F5
:104CD00080210840FF388238E0600E4A8802506127
:104CE000CA20606253206062A0684A011043A0603D
:104CF000A0684A001043A060E0680840FF3882388E
:104D0000E060FF20606207B030BD00000028004076
:104D1000008080800004014001090A2200075143FD
:104D2000000F4018C0B2704770B5144A03461068AF
:104D30000C463F21090408408002800E2071116852
:104D40007F252D0229404904490E617111684906E9
:104D5000490EA17111680122920511402160002BBA
:104D60000AD1FFF7D9FF20716079FFF7D5FF607195
:104D7000A079FFF7D1FFA07170BD000000280040AE
:104D800010B50848C16880221140FF398239C160DE
:104D9000054990024861FF2005F03AFB03490020D5
:104DA000087010BD002800400004014049010020A7
:104DB00010B50F48426B01210A434263426B9207D0
:104DC000D20FFBD0426BF8239A4380231A434263ED
:104DD000426A0A434262416A8907C90FFBD005480B
:104DE000FEF7BCFC0448016904221143016110BDB7
:104DF00000100240006CDC0200E000E002480021EC
:104E00004175502101767047DE01002010B5012167
:104E100009060E4C0028206809D00A129043206031
:104E20002068884320600020FEF7DEFC10BD0843A8
:104E3000206020688001C00FFBD00220FEF7D4FC68
:104E40000C21606808400828FBD110BD001002400A
:104E5000F8B5214E00257078012802D0002802D034
:104E600002E0682500E05C251C48FF21007935310F
:104E700048431B494018FF302130817C182901D359
:104E8000491C00E0891C174FCCB23978601C814264
:104E900002D1FF2003F0E0FC7078009012A314A26E
:104EA00007210420FFF7CAFC002003F0D5FC387866
:104EB000A04204D105F012FDFF2003F0CDFC707874
:104EC00000900DA30EA207212846FFF7B7FC002093
:104ED00003F0C2FCF8BD00003C030020700100207C
:104EE000DC040020C6000020B7B5BBD800000000DD
:104EF00052657475726E0000CFC2D2BBD2B300008F
:104F00004E65787400000000704700000149487049
:104F1000704700005101002001498870704700006F
:104F20005101002001490870704700005101002024
:104F300001484169C1607047580100200249014899
:104F400048817047701700007001002070B5254C33
:104F5000FF2101312046FEF7F2FB002841D002F08C
:104F600079FE012149020920C0068161A162490040
:104F700081621D48002505801C4C01202070A0780E
:104F8000002801D1FDF726F906F068FD1848017BDD
:104F9000002904D0057303F00FFC06F08BFDFF2001
:104FA00005F028FA00F028F8A570FFF76BFE11480D
:104FB000056101200007FEF749FA04F083FD012096
:104FC000FFF724FF01210846FEF73EF80020FFF717
:104FD0001DFF6078002802D072B6FFF7EFFA02F0EA
:104FE000C5FE70BD000400482A01002048010020D1
:104FF0003C03002000E000E0F0B587B00120009005
:10500000019000200290039002200924E4060490FD
:1050100069462046FEF72AFB0A4D2046294603F042
:10502000D1FB094E0948314603F0CCFB084F094833
:10503000394603F0C7FBA5610648876103488661CE
:1050400007B0F0BD731D0000FBFE00000004004827
:10505000FFFF0000001400481FB504460D480EA1D4
:10506000827801A800F040FE012101A8FDF7AEFA08
:1050700008494C31497800290AD06421081A0121D5
:105080000091C0B205A301AA2146FFF7D7FB1FBDBF
:105090006621F3E7F00200202564000020000000F4
:1050A000F0B522480121C26991B089030A43C26167
:1050B000C06900240840109048101D4F0594022537
:1050C000012600900294039469460496019538469F
:1050D000FEF7CCFAA8030594009002940394694665
:1050E000049601953846FEF7C1FA03208003069026
:1050F000FF20053007900720000208A961C128029F
:1051000011C10D940E940B4C06A92046FEF7D2FC5B
:10511000606810218843606060680821884360608F
:10512000206840210843206011B0F0BD001002400B
:10513000000400480038004003498A689207D20FF3
:10514000FBD00873704700000038004010B5002203
:10515000064B07E0DC692406E40FFBD0845C1C8569
:10516000521CD2B28A42F5D310BD00000044004068
:105170007047000010B52248012102688A430A43A3
:1051800002600068084039D01E48016801221143BE
:10519000016001688907C90FFBD002680121090479
:1051A0008A43026005224168D2043D231B049943CF
:1051B00011434160C16A09090901C1620168012204
:1051C00012061143016001688901C90FFBD04168D3
:1051D000F0229143416041680722120291434160ED
:1051E00042680221920892000A4342600C22416800
:1051F00011400829FBD1FFF7DBFD10BDFEE70000E1
:1052000000200240001002401348016801221143AF
:1052100001604168114A114041600168104A114023
:1052200001600168012292049143016041683F22BC
:10523000120491434160C16A09090901C162016B0D
:10524000FF22143291430163416B490849004163D5
:105250000021816070470000001002400CB8FF0878
:10526000FFFFF6FE10B501200A49C043086101F0B6
:105270008DFA06F053FA04F0F1FF05F093F8FFF70A
:10528000B9FB00F0A3F801F077FA06F091F900F00D
:10529000FDFC10BD0020004004480169C907C90F8A
:1052A00002D00121C9430161704700000040014064
:1052B0007047000004480169C907C90F02D00121E5
:1052C000C943016170470000000400400EB5002191
:1052D000019102910A2802D202460DA105E064283C
:1052E000024601D20CA100E00DA101A800F0FCFCD7
:1052F000012101A8FDF76AF9012100917E21081A18
:10530000C0B208A301AA0221FFF798FA0EBD00005F
:105310002020256425250000202564252500000087
:10532000256425250000000008B57F200222002109
:10533000C00501F077FA022001F04AFB0448009012
:105340000B23322206212F20FDF7F2FE08BD0000BC
:10535000FF010000F3B51C4881B041780298FDF7C9
:1053600035F98021091ACA0F5118C9050C0E2018E9
:10537000C6B201982246010140181530C5B2284630
:105380000C30C7B200203B4629460090FDF7D0FE06
:10539000002000903B46802229463046FDF7C8FE9B
:1053A0000948417802290BD0062909D0032907D0E2
:1053B0000091029B20461A460199FFF73FFAFEBD75
:1053C00001200090F5E700003C0300200348C18C59
:1053D000002902D0C18C491EC1847047CC00002036
:1053E000F1B53B4E0024728C84B00A2A01D239A157
:1053F00002E0642A04D238A101A800F075FC08E09C
:105400007D20C000824204D233A101A800F06CFCD0
:1054100006243E20001BC10F0818451001272FA3AA
:1054200001AA009728460499FFF708FA2C1920468C
:105430000C302BA20499FDF787FFB2790A2A01D21A
:1054400028A102E0642A03D228A101A800F04CFCA4
:105450002046123021A301AA00970499FFF7EEF924
:105460002046243022A20499FDF76EFFF2790A2A21
:1054700001D21CA102E0642A03D21CA101A800F001
:1054800033FC20462A3015A301AA00970499FFF7A0
:10549000D5F920463C3017A20499FDF755FF049832
:1054A0000027010140181530C6B233460C336A1E7E
:1054B0003146384600970393FDF73AFE20464230C6
:1054C000009780223146039BFDF732FE05B0F0BD08
:1054D000CC0000203025640025640000200000007E
:1054E00048000000203025640000000020256400F2
:1054F0004D0000005300000010B5FF2101310C48A1
:10550000FEF71DF90B49002805D08878002808D03F
:10551000FFF71CFD10BD48680028FBD104F054FFC4
:1055200010BD48680028FBD104F04EFFF0E70000F2
:105530000004004848010020F7B584B0002501951B
:10554000029504F085FE00284BD03E4C3E4E20785C
:105550000127642805D35923562243212A20009687
:1055600057E03A48007B00283BD1FF210131384801
:10557000FEF7D7F8002834D10698002800D0A5708F
:10558000049800282FD0334D412358224021282051
:105590000095FDF7CDFD00244123E11829220E4698
:1055A0002820FCF7A1FE2846FDF7ACFE4123582237
:1055B00031465720FCF798FE2846FDF7A3FE641CF1
:1055C000E4B21A2CE8D35C2358225B2128200095F2
:1055D000FDF7AEFD55235B22472158200095FDF7CE
:1055E000A7FD07B0F0BDA078C01CC0B2A0702A28EB
:1055F00008D90320A0705923542243212A20009562
:10560000FDF796FDA07859232730C0B2C21C432174
:105610000096FDF78DFD22780FA101A800F064FB34
:10562000012101A8FCF7D2FF8021081AC10F081838
:10563000C005000E09A301AA03210097FFF7FEF899
:10564000CFE700002C010020FF0100003C030020F8
:105650000004004818C6000025642525000000004D
:1056600010B50548C169C906C90F03D010210162F0
:1056700006F076F810BD00000038014010B505486E
:10568000C169C906C90F03D01021016206F0B6F83E
:1056900010BD00000044004070B531490A7831491E
:1056A0000B2A097806D0062A03D1032901D1FDF778
:1056B0004DF970BD0229FCD12B4C637B002BF8D037
:1056C000FF222273294A012B07D03B25022B19D038
:1056D000032B2BD00020207370BD244BC507DB7E2D
:1056E00001D05B1C04E0800703D5002B06D05B1EB5
:1056F000D376D07E022801D90220D076D07E03F066
:1057000001F826E0194BC6079B7E01D05B1C04E024
:10571000800703D5002B05D05B1E9376907E3B2837
:1057200000D99576907E03F02DFB12E00F4BC60753
:105730005B7E01D05B1C04E0800703D5002B05D005
:105740005B1E5376507E3B2800D95576507E04F080
:10575000B7FD002001222073114601F09BFF70BDB0
:10576000C5000020C6000020CC000020F002002070
:1057700010B5084C04212046FDF780FE01204003AF
:1057800060604010606004212046FDF76BFE00F071
:105790006BF810BD0000024070B50E4E052130467A
:1057A000FDF784FE1425281A01060B4C090E6175BD
:1057B0000ED005213046FDF755FE0848016849081E
:1057C00049000160607D142800D9657501202075AD
:1057D00070BD000000000240F801002000440040BD
:1057E00010B50120FDF70EFE1D4C1C4A0521204678
:1057F000FDF7C6FE1B4A05212046FDF78DFE14224B
:1058000005212046FDF76AFE002205212046FDF70E
:1058100073FE0122520305212046FDF751FE0022AE
:1058200005212046FDF7B6FE802205212046FDF722
:105830007DFE002205212046FDF7BAFE002205214B
:105840002046FDF781FE002205212046FDF78AFE55
:1058500005212046FDF71EFE10BD00002444004037
:1058600000000240F801002002480021017550218B
:10587000C17570470E02002070B50120FDF7C2FD12
:10588000204C1F4A04212046FDF77AFE1E4A0421BF
:105890002046FDF741FE142204212046FDF71EFE9E
:1058A000102204212046FDF727FE01256D032A461C
:1058B00004212046FDF704FE002204212046FDF7C6
:1058C00069FE802204212046FDF730FE00220421DB
:1058D0002046FDF76DFE002204212046FDF734FE30
:1058E000002204212046FDF73DFE6560A0146060A3
:1058F00000210B20FEF71EFE0B20FEF7E5FD70BD1C
:1059000028440040000002400E020020F0B5264866
:105910000121C2698FB049040A43C261C0690125EF
:1059200008400D90002404200226032704956A46AF
:1059300005950394C1C209206946C006FDF796FE8D
:10594000082004956A4605950394C1C2092069465A
:10595000C006FDF78BFE00211C20FEF7EBFD1C208E
:10596000FEF7B2FDE12040020690079408940994E6
:105970000B940C940C200D4C0A9006A92046FEF7BF
:105980006BF9A06840210843A060A068802108430B
:10599000A060206828432060102020622168014315
:1059A00021600FB0F0BD0000001002400044004034
:1059B00004480549427E4A70827E8A70C07EC87063
:1059C00070470000F00200208401002010B521493A
:1059D00009780B2903D0062901D00A2916D11E49BE
:1059E00000230A781D49002807D001280FD002287B
:1059F00016D0032823D0042808D10B71002A01D027
:105A00000120087016A116A000F014F910BD0120A5
:105A1000087100200870FF2002F01EFF16A107E0A9
:105A20000220087100200870FF2002F015FF16A167
:105A300019A000F0FFF8002002F00EFF10BD0320B7
:105A4000087100200870FF2002F006FF15A119A0C0
:105A5000EFE70000C5000020D000002084010020F6
:105A60002020202020202020202020202020202036
:105A7000202020200000000046696E64696E6720C7
:105A80004120706F696E740046696E64696E6720AC
:105A90004220706F696E7400D5FDD4DAD5D2C6F09D
:105AA000B5E3000046696E64696E67206F726967CE
:105AB000696E0000D5FDD4DAD5D2D4ADB5E30000CF
:105AC000F0B587B0062001903648002400780B28F6
:105AD00066D1354EF2780A2A04D234A104A800F027
:105AE00003F906E0642A32A1F8D304A800F0FCF818
:105AF00006243E20001BC10F0818451001272DA3C6
:105B000004AA009728460199FEF798FE2C19204612
:105B10000C3029A20199FDF717FCB2780A2A01D2AC
:105B200026A102E0642A03D226A104A800F0DCF832
:105B3000204612301FA304AA00970199FEF77EFEAB
:105B40002046243020A20199FDF7FEFB72780A2A34
:105B500001D21AA102E0642A03D21AA104A800F01B
:105B6000C3F820462A3013A304AA00970199FEF730
:105B700065FE20463C3015A20199FDF7E5FB0027A4
:105B80007B2687236A1E314638460097FDF7D0FAF8
:105B9000204642308723802231460097FDF7C8FA1D
:105BA00007B0F0BDC500002084010020302564004E
:105BB000256400002000000048000000203025641B
:105BC00000000000202564004D000000530000008C
:105BD00070B5144909780B2923D1134D297802296E
:105BE0001FD1124C627B002A1BD0030703D5032A66
:105BF00007D2521C04E0400713D5012A01D9521ED6
:105C00006273FF200A4E2073F07E02F07BFDB07EAF
:105C1000297803F0B7F8707E297804F051FB002052
:105C2000207370BDC5000020C6000020CC000020FD
:105C3000F002002038B5104C0A460346617807256B
:105C40000020012902D0002903D006E001211046DE
:105C500001E001211846FCF7B9FC8021081AC10FA8
:105C60000818617800910549C0050B68000E1A46B6
:105C70002946FEF7E3FD38BD3C0300203401002037
:105C800001480079704700008401002010B51448D5
:105C900000780B2822D11348017800291ED0C18832
:105CA000491CC180C1887D22D200914216D30021B7
:105CB000C1804178002901D0491E0CE082783B2147
:105CC000002A02D0521E827005E0C278002A03D05A
:105CD000521EC27081704170FFF7F2FE10BD0000CD
:105CE000C5000020840100200FB410B504A9074BA3
:105CF00002AA039800F0FAF8044602A9002000F076
:105D000091FC204610BC08BC04B01847256600086A
:105D10002021020C01D010211046020A01D01046A9
:105D20000839020901D01046091F820801D0104627
:105D3000891E420801D0881E7047081A704730B487
:105D40007446641E2578641CAB4200D21D46635D18
:105D50005B00E31830BC184702E008C8121F08C1F6
:105D6000002AFAD170477047002001E001C1121FDC
:105D7000002AFBD170470000F0B51FB486B0099827
:105D8000089A030D0021024314D05148514A1818B3
:105D9000504305141198012810981AD0281A401C55
:105DA00000264D4F4D49009601910490002812DACB
:105DB000444211E01198012449A3012801D110980F
:105DC000C1430698119A84600360C26041600BB0C1
:105DD000F0BD4042E4E70446210500203F4A001C94
:105DE00051410391029012E0E00707D032463B4652
:105DF00001990098FCF79AF80191009032463B46D1
:105E000010461946FCF792F806460F466410002C1F
:105E1000EAD10498039B0028029A0999089806DAA7
:105E2000FCF784F8019B009AFCF780F805E0FCF78A
:105E3000E5F8019B009AFCF7E1F804460E460022C3
:105E4000284BFCF773F903D80020C043014607E054
:105E50000022254B20463146FBF762FEFCF746F94F
:105E6000102409E0002C0ADB0A220023FBF76AFF5A
:105E7000079B30321A55641E02460A43F2D11122A2
:105E8000641C079B121B1C19119B012B03D00123BF
:105E900008430ED10AE0084304D0112010900020DE
:105EA000119077E71098151A6D1E0BE0109882423A
:105EB00002DD00236D1C03E0824201DA00236D1E27
:105EC000002BEED0069811998260C16030C07EE749
:105ED00001FCFFFF104D0000000014400000F03FE7
:105EE000300000000000F0430000E03FFFB597B035
:105EF0000646002518E2252877D100242746FD49CB
:105F0000049400E00443761C32780120203A90404B
:105F10000842F7D130782A280ED002223078014684
:105F20003039092916D804990A23594330394018C1
:105F30001443761C0490F1E7189802C80491189055
:105F4000002904DA0120400304434842049002205F
:105F50000443761C30782E2814D104200443707832
:105F6000761C2A2809D11898761C80C8189009E058
:105F70000A214F43303FC719761C3078014630392B
:105F80000929F5D930786C2810D006DC4C281AD0B5
:105F900068280ED06A2817D104E0742813D07A2814
:105FA00012D110E00120400504430CE00121090555
:105FB00001E0032109050C437178814203D10120DE
:105FC00000052418761C761C3078119066280BD0BA
:105FD00013DC58287DD009DC00287BD04528F6D07A
:105FE0004628F4D047281AD1A5E118E0632835D017
:105FF000642870D0652812D19DE170286CD008DC2F
:106000006728F1D069287BD06E280DD06F2806D183
:10601000BAE073282ED0752871D0782859D01A9AF2
:10602000199990476D1C7EE16002400F022809D04B
:1060300003280DD00428189801680DD00D60001DAC
:10604000189070E11898EA1701680D604A60F6E749
:10605000189801680D80F2E70D70F0E718986A460D
:1060600001781172001D18900020507202A8009053
:10607000012005E0189802C8189000200091C04344
:1060800061070DD5002101E00199491C0191B94238
:1060900012DA8142F8DB009A515C0029F4D10BE05E
:1060A000002101E00199491C01918142FADB019A2A
:1060B0000099895C0029F5D1019904981A9B471A27
:1060C00021463846199A00F097FA01994019451867
:1060D0000BE04FE02CE113E04EE0009800990078CF
:1060E000491C00911A9A199990470198401E0190F5
:1060F000401CF2D1214638461A9B199A10E137E02C
:106100000A200021009001916002410F022907D06E
:10611000189A01CA1892C2179446032908D00AE0B7
:106120001898C01DC108C90005C91891944607E018
:1061300000B2C2179446042902D140B2C1178C465E
:1061400000226146944506DA0A4600214042914108
:106150008C462D2102E0210504D52B216A461173BE
:10616000012103E0E10701D02021F7E7029155E08A
:106170000A200AE0102008E01020009000210420EE
:1061800004430191082703E00820002101910090B9
:106190006002410F022907D0189A01CA1892002202
:1061A0009446032908D008E01898C01DC108C9000A
:1061B00005C91891944603E080B2042900D1C0B209
:1061C00000210291210729D51199702906D0009A42
:1061D0001021019B4A401A4305D00EE040216A4637
:1061E0001173012108E06146014306D030216A465F
:1061F00011731199517302210291009A0821019B98
:106200004A401A430AD16146014301D1610705D5CD
:1062100030216A46117301217F1E0291119958297C
:1062200004D035A10E910DA90D910DE037A1F9E72C
:106230006146019B009AFBF785FD0E9B8C469B5C9B
:106240000D9A521E0D92137061460143F0D10D98C4
:1062500005A9081A20300190600703D50120000429
:10626000844300E001270198874201DD381A00E0ED
:106270000020019900904118029809180498401ACA
:106280000490E00306D421461A9B199A049800F062
:10629000B3F94519002706E003A81A9AC05D1999B9
:1062A00090476D1C7F1C02988742F5DBE0030CD5FC
:1062B00021461A9B199A049800F09EF9451904E0AA
:1062C0001A9A3020199990476D1C0099481E009029
:1062D0000029F5DC08E00D980D990078491C0D9116
:1062E0001A9A199990476D1C0199481E019000292E
:1062F000F1DC63E1092801003031323334353637BF
:106300003839616263646566000000003031323301
:1063100034353637383941424344454600000000A1
:1063200000F05AF94519761C3078002800D0E2E5D3
:1063300028461BB0F0BD600700D406271898C01D82
:10634000C108C90048680A680831C30FDB07189103
:10635000190001D09CA108E0210501D59BA104E012
:10636000E10701D09AA100E09AA1430011985B08CF
:10637000109165280CD006DC452809D046281DD090
:10638000472841D141E0662818D067283CD13CE03D
:106390000021112F01DB112000E0781C01910090F9
:1063A00008A911A8FFF7E8FC139905910021119A9B
:1063B00015927F1C12980197009150E00120C007B0
:1063C00003900120019008A9009711A8FFF7D4FCC1
:1063D000139A149905920022119B0092129815931A
:1063E000059A0192002901D0104602E0791C40185C
:1063F0000190381A01D5019804E04042401E0090F7
:10640000781C0190C01B029043E0012F00DA0127A5
:106410000021112F01DD112000E03846019100908C
:1064200008A911A8FFF7A8FC13990591119A00215A
:10643000129815920091019721070CD40599B94241
:1064400001DB019900E00191012904DD159A491E43
:10645000515C302906D0B84201DA011D05DA01216C
:10646000029115E00199491EEDE7002805DC00992D
:10647000411800910199091A03E0019A411C9142C7
:1064800000DD01910099401A401C02900120C007D4
:106490000390200706D402990198814202DB002074
:1064A000C043029000206946C87707AF01210398D6
:1064B0000337C907884224D0022011902B20129064
:1064C000039800280CDA404203902D20129007E038
:1064D0000A210398FBF706FA30317F1E03903970CA
:1064E0001199481E11900029F2DC03980028EFD181
:1064F000791E129808703078202108404530BF1E60
:10650000387006A8C01BC01D0390109800780028A2
:1065100000D00120019941180298C017091803986A
:1065200009180498401A401E0490E00306D421463E
:106530001A9B199A049800F05FF845191098007892
:10654000002803D01A9A199990476D1CE00324D5AE
:1065500021461A9B199A049800F04EF845191CE040
:106560000098002807DB00990598884203DD1598FC
:10657000405C199901E0199930201A9A90470098C7
:106580006D1C401C00900298401E0290002804D10F
:106590001A9A2E20199990476D1C0199481E019056
:1065A0000029DDDC05E038781A9A7F1C199990479C
:1065B0006D1C0399481E03900029F4DC21461A9BA8
:1065C000199A0498ACE600002D0000002B00000092
:1065D0002000000000000000F8B5044600251E461B
:1065E0001746880404D405E039462020B0476D1CC6
:1065F000641EF9D52846F8BDFFB50446002581B0D4
:106600001E46C80301D5302700E02027880404D5A2
:1066100005E038460399B0476D1C641EF9D528463D
:1066200005B0F0BD0A68531C0B6010707047000085
:10663000F8B5374C054620780E46012809D00228C7
:1066400007D00F2805D0122838D13248007800280A
:1066500034D1FBF7ABFFFF2830D00123FF272E49B1
:106660002E4A002E2BD06E070FD52478012C01D096
:10667000022C02D15479002C20D19371284A5770F2
:10668000162250434018437136E02D070AD524786E
:10669000012C01D0022C02D15479002C0ED193711F
:1066A000022225E0002494711622504340184371C1
:1066B000847101220321002000F0ECFFF8BDEE07F9
:1066C0000AD02478012C01D0022C02D19479002C1C
:1066D000F4D1537103220BE0AD070FD52478012CC0
:1066E00001D0022C02D19479002CE7D153710422FD
:1066F00016235843401842718771DAE7002353711B
:10670000162403226043401842718371D1E70000D0
:10671000C5000020D90000202702002051010020E0
:10672000F002002070B5124C02252078114E0F287F
:1067300009D0012810D0022804D102220321002010
:1067400000F0A8FF70BD02220321002000F0A2FF8C
:1067500003202070357008E002220321002000F0A1
:1067600099FF2570357000F01BF800F0E7FA70BD56
:10677000C5000020C600002003484168002902D05F
:106780004168491E41607047480100200348C188A4
:10679000002902D0C188491EC180704758010020DD
:1067A000024800210185418570470000CC0000208F
:1067B0003EB504460A2901D3642902D20A4611A132
:1067C0000DE07D20C000814202D20A460FA106E002
:1067D00010480A46814201D20FA100E00FA101A892
:1067E000FFF782FA012101A8FBF7F0FE7E21081ACB
:1067F00001210091C0B20AA301AA2146FEF71EF8AA
:106800003EBD0000202020256400000020202564DB
:10681000000000001027000020256400256400000F
:1068200020000000F7B58AB00025164604460695FC
:1068300003F00EFD002879D1434F012E08D02046E9
:10684000FBF727FAC4B20A2C0BD81F20C00209E0BC
:106850003C780A2C02D81F20C00200E03B48F860B8
:1068600001E03A483861FF21079001313848FCF7D0
:1068700058FF012804D0022E02D03878642809D3AA
:106880002046122148436421FBF72CF8C0B2314660
:1068900000F070F80A2C02D222462EA105E0642CEA
:1068A000224601D22DA100E02EA101A8FFF71CFA7B
:1068B000012101A8FBF78AFE0B9A012A02D0002AC7
:1068C00002D03AE0102538E0012E02D0022E04D08A
:1068D00033E06122101AC5B22FE002252DE0FCF74B
:1068E000BBFA06980B23205C6A1D2038C4B2022133
:1068F0002846FBF7F9FC0C2044431C4800262018CE
:106900000490875D00240120A040384201D0079800
:1069100000E01748FCF7F6FC641CE4B2062CF2D346
:10692000761CF6B20C2E02D20498EAE70AE0AD1DFE
:106930000698EDB2401CC0B20690069801AC205CEF
:106940000028CCD10DB0F0BD2C010020FF010000CB
:10695000000400482020256425250000202564250A
:1069600025000000256425250000000006CE000853
:1069700018C60000F8B5054600200C460146122D49
:1069800022D8124A012C02D0022C03D004E063204A
:10699000D16801E011691C204619721E0091D2B223
:1069A0000C230521FCF7C4FB1220411BF0B2411857
:1069B000491ECAB20021012C01D0022C04D1009141
:1069C0000C230521FCF7B4FBF8BD00002C010020CE
:1069D000F8B5012802D0022805D00AE00E2379225A
:1069E0000221622003E00E23322202211B20FBF74A
:1069F0007BFC0026FCF730FA700030180025009070
:106A0000009841190B480024475C0120A040384001
:106A100000D00948FCF776FC641CE4B2082CF4D3DF
:106A20006D1CEDB2032DEBD3761CF6B20E2EE1D326
:106A3000F8BD0000DCCD000818C6000008B503F062
:106A400007FC00281CD187237F2228210090FCF717
:106A50006FFB0C48002100900F237F220846FCF7B3
:106A600067FB0120FFF7B4FF074800900B23792252
:106A700006217620FCF75CFBFEF756FC00F05EF981
:106A800008BD000018C60000FF01000070B586B008
:106A9000044614216846FAF754FF1E4D2878002852
:106AA00035D020784E2802D001211BA02DE00120F6
:106AB000694606E00B18203B401CC0B2DA77142868
:106AC00002D2225C002AF5D1091800262039CE779F
:106AD0002018817840780C02044310A004F014FEC2
:106AE000024669460DA0FAF737FF002803D02E7042
:106AF00001210DA009E00720400384422E7002D836
:106B0000AA2001F015FD012108A0FEF71FFB06B029
:106B100070BD000050010020470000004C472D30A0
:106B2000362D4354520000004E0000004600000085
:106B300038B5294A441C5278002A15D0012A30D190
:106B400001293DD002293DD003293DD004293DD063
:106B500005293DD006293DD0072922D11FA1FEF7E6
:106B6000F9FBE0B222A120E001291BD002291BD0B1
:106B700003291DD004291DD005291DD006291DD0AB
:106B800007290ED11FA1FEF7E5FBE0B221A1FEF718
:106B9000E1FB01200090E1B21DA323A26020FDF7DC
:106BA0004DFE38BD21A100E025A1FEF7D3FB38BD85
:106BB00028A1FAE72CA1F8E730A1F6E734A1F4E721
:106BC00038A1F2E73CA1F0E740A1EEE744A1ECE7F1
:106BD00048A1EAE74CA1E8E73C0300204661696C64
:106BE000656420746F2073657420412F422000007B
:106BF000706F696E7420202020202020202020200B
:106C000020200000C9E8D6C34142B5E3CAA7B0DCE2
:106C100000000000C8CED2E2D2BBD6E1D0EBB4F384
:106C2000D3DA2020B6C8000031000000C9E8D6C37E
:106C3000C2EBD6B5202020202020202020200000DC
:106C4000C9E8D6C3C2EBD6B5CDEAB3C9202020200F
:106C500020200000B6D4C2EBD6D020202020202057
:106C60002020202020200000B6D4C2EBCDEAB3C9FA
:106C7000202020202020202020200000B6D4C2EB9D
:106C8000B3ACCAB1202020202020202020200000EA
:106C9000D5FDD4DAD7D4B6AFD1B0D5D24120422079
:106CA000B5E3000053657420436F64652020202005
:106CB0002020202020200000436F6465205375634E
:106CC0006365737366756C202020000050616972E3
:106CD000696E672E2E2E20202020202020200000EC
:106CE00050616972204F4B2020202020202020203E
:106CF0002020000050616972696E67206F766572AE
:106D0000202020202020000046696E64696E6720E4
:106D1000414220706F696E742020000001490870A4
:106D2000704700007001002010B5FF2101310248BA
:106D3000FCF79AF810BD00000004004810B502F0FE
:106D40000DF905480078002805D0112803D0034824
:106D5000007803F09FFB10BDC5000020C600002096
:106D600001460020084A012905D0022907D005293B
:106D700004D1917804E0117802E001207047517845
:106D80000329FAD0704700005101002038B500F007
:106D9000D3FD0C4DE88C002813D10B48E8840B4838
:106DA000002404700A48047002F0D8F8A0237F225F
:106DB0008C2100200094FCF7BBF9002002F074F84D
:106DC0006C7438BDCC00002010270000C6000020E5
:106DD000C500002010B50178032921D1417802298E
:106DE0001ED1817803291BD1C178042918D10179DA
:106DF000052915D14179062912D1817907290FD1A9
:106E0000C17908290CD1017A092909D1407A0A28C7
:106E100006D1044901200870014603A0FEF796F947
:106E200010BD0000500100204700000010B50023F5
:106E30000B541A4604E08C5CE318521C9BB2D2B28D
:106E40008242F8D3D8B210BD10B5FF2101310648F7
:106E5000FCF760FC002805D00448407B002801D0E6
:106E6000FEF774F810BD0000000400481601002071
:106E700010B500231A4604E0845CE318521C9BB250
:106E8000D2B28A42F8D3405CDAB2904201D00020FC
:106E900010BD012010BD000010B5B34909780B00EA
:106EA000FEF74DFF140B232D456317EB7C88EAE9B1
:106EB000F2CF9CB63BE7E6E5E417002877D001283F
:106EC000FCD0022802D0032804D005E0A7A1FEF7D9
:106ED00041FA10BDAAA1FAE70428EFD00528EDD0A9
:106EE0000628EBD00728E9D010BD0028E6D00128FD
:106EF000E4D00228E2D00328EED1A6A1E7E70028DB
:106F0000DCD00128DAD0022805D00328D6D0042806
:106F1000E4D1A3A1DBE7A7A1D9E70028CED00128BF
:106F2000CCD00228CAD00328D6D1A5A1CFE700280B
:106F3000C4D001280DD002280DD003280DD004287C
:106F40000DD005280DD006280DD00728CCD19FA143
:106F5000BDE7A2A1BBE7A5A1B9E7A8A1B7E7ABA18F
:106F6000B5E7AEA1B3E7B1A1B1E700280ED0012883
:106F70000ED002280ED003280ED004285DD005289C
:106F800071D0062870D007286FD010BDABA19EE746
:106F9000ADA19CE7B1A19AE7B5A198E7002807D079
:106FA00001288BD0022889D0032887D094E7D8E025
:106FB000B4A18CE700280FD001288ED002288CD0F5
:106FC00003288AD0042888D0052886D0062884D0B3
:106FD0000728DAD1AEA17AE7B3A178E700280FD06D
:106FE000012874D002280DD0032877D004280BD0B4
:106FF00005286FD0062809D00728C6D1AEA166E7BC
:10700000B2A164E7B6A162E7BAA160E7BEA15EE7FC
:1070100000280ED001280ED002280ED0032861D0FF
:1070200004280CD00528BCD0062800D05AE7BBA104
:107030004DE7BFA14BE7C3A149E7C7A147E7CBA1F4
:1070400045E700281AD00128ABD0022818D0032821
:10705000A7D00428A5D0052814D00628A1D0072839
:1070600093D1C5A133E73BE03CE02EE089E278E232
:1070700068E267E008E037E04EE018E0C3A126E7E9
:10708000C7A124E7CAA122E700280AD0012827D0F7
:10709000022808D0032808D0042823D0052814D0BB
:1070A0001EE7C8A113E7CAA111E7CEA10FE7002888
:1070B0002AD001280ED002280ED003280ED0042892
:1070C0000ED005280ED00628B0D1CBA1FFE652E2A3
:1070D00004E0FFE7CCA1FAE6D0A1F8E6D4A1F6E6F9
:1070E000D8A1F4E6DCA1F2E600280DD0012838D0C2
:1070F00002280BD0032834D0042809D0052809D051
:10710000062893D1D7A1E2E6D9A1E0E6DBA1DEE62D
:10711000DFA1DCE6E3A1DAE6002822D0012809D0CD
:10712000022809D0032809D0042809D00528B7D19E
:10713000DEA1CCE6E3A1CAE6E8A1C8E6EDA1C6E679
:10714000F2A1C4E600280CD001280AD0022801D1FF
:10715000F4A1BCE6032805D0042800D0BEE6F7A1C0
:10716000B5E619E216E20000C5000020C1ACBDD3AF
:10717000D2D1B6CFBFAA2020C7EBC9D4BAF3000042
:10718000D0C5BAC5C8F5C7EBBFBFBDFCD4C6CCA837
:10719000000000004120B5E3C9E8D6C300000000AC
:1071A000CBF9C9E8BDC7B6C8202020202020202068
:1071B000000000004220B5E3C9E8D6C3000000008B
:1071C000D4ADB5E3C9E8D6C30000000020202020DC
:1071D000C9E8D6C320202020000000002020D4AD24
:1071E000B5E3C9E8D6C32020000000002020C8ABCA
:1071F000BEB0C4A3CABD2020000000002020CAD316
:10720000C6B5C4A3CABD2020000000002020D1D3F1
:10721000CAB1C4A3CABD2020000000002020CAD6E5
:10722000B6AFC4A3CABD2020000000002020BACF02
:10723000D3B0C4A3CABD202000000000BACFD3B091
:10724000C4A3CABD00000000BEB5CDB7BDB9BEE045
:10725000202020202020202020200000D6D8B5FE8D
:10726000C2CA202020202020202020202020000012
:10727000BFECC3C5CAB1BCE42020202020202020C0
:1072800020200000C8ABBEB0C4A3CABD00000000EF
:107290002009202020202020202020202020202005
:1072A0002020202000000000C8ABBEB0C4A3CABD8F
:1072B000B2CECAFD00000000202020202020202087
:1072C000202020202020202020200000C8ABBEB09D
:1072D000C4A3CABDB2CECAFDC9E8D6C3000000002F
