:020000040800F2
:1018000078120020C91800084D3D0008DD2F00089F
:1018100000000000000000000000000000000000C8
:10182000000000000000000000000000BD480008AB
:10183000000000000000000035450008094B0008CA
:10184000DB18000800000000DB180008DB180008A7
:10185000DB180008DB180008312C00083D2C0008BC
:101860000000000071290008732900087B29000886
:10187000DB1800083D4C0008DB18000800000000E1
:10188000414C0008DB18000800000000F54B000880
:10189000254C0008DB180008DB180008DB180008DE
:1018A000DB180008DB180008DB180008814F00086F
:1018B0009D4F00080348854600F04EFC0048004755
:1018C000ED80000878120020044880470448004753
:1018D000FEE7FEE7FEE7FEE7FEE7FEE7994B0008BE
:1018E000B518000830B50B4601460020202201241F
:1018F00009E00D46D5409D4205D31D469540491B44
:101900002546954040191546521E002DF1DC30BD8C
:1019100003460B439B0703D009E008C9121F08C008
:10192000042AFAD203E00B78491C0370401C521EB3
:10193000F9D27047D2B201E00270401C491EFBD2BE
:1019400070470022F6E710B513460A4604461946CA
:10195000FFF7F0FF204610BD30B5054600200346D6
:1019600000E05B1C934205D2EC5CC85C201A01D1FC
:10197000002CF6D130BDF8B502464A40D40F4200E3
:101980004B0052085B089A4202D2024608461146B2
:101990004A0023D0C30D4A00DDB2120EAD1A202D2D
:1019A00035DA49020126490AF6058A19002C00D0C9
:1019B000524220214F1B1146B9402A411018C20D36
:1019C0009A4221D0002C17D0012D08DCDA05801AAC
:1019D000D20F8019D207DBB200F00FFAF8BDDA059A
:1019E000801A012340001B06C01880185A42801834
:1019F000CA0F1043490007E04908C2071143DA053E
:101A0000801A80194008801800F0EFF9F8BD6100D5
:101A10000122511A001BF7E70122D2075140AAE721
:101A20000122D2075040A6E7024670B54A40D30FC4
:101A3000DB0740002DD04A002AD0010E140E0919F0
:101A400000021202400A520A8418E5010446544377
:101A5000000A120A2E045043A4194219200CC5434F
:101A6000AA18120C01257F39521CAD035219120419
:101A7000240400D0521C104301D44000491EC2B2BD
:101A80000C06C0092018401C4008802A02D003E040
:101A9000002070BD40084000002900DA00201843F3
:101AA00070BD70B502464A40D50F40004A00ED07B0
:101AB00040085208002814D0002A12D0C40DD30DBB
:101AC00041020120C0055202490A520AE41A0918CB
:101AD00012187D34914201D3641C00E04900002CAF
:101AE00001DA002070BD0023914201D3891A03431B
:101AF000400849000028F7D100290AD0914202D1BC
:101B00000121C90705E0914201D2012101E0012133
:101B1000C943E005C018401900F067F970BD000026
:101B2000F0B507460846584087B0C00F04904800FB
:101B30000E46590040084908BC1A884105D238466B
:101B400031461E4617460B460246580040081043D1
:101B500003D13846314607B0F0BD300D0390400543
:101B60005900400D490D0590401A029040286DDA49
:101B700018030121000B0905084301900498009205
:101B8000002805D00199524200208841009201901E
:101B9000029840210A1A0199009800F003F90546BD
:101BA0000C46684607C800F00DF9C0197141039A48
:101BB0000E0D0023D71756401A467A40164340D0E0
:101BC000049A002A29D0029A012A039A11DC1205EC
:101BD000C01A914101263605001C7141D20F059EA5
:101BE000D2070093019202962A46234600F04CF950
:101BF000B1E71605224A0F46B218C01AB7410121B3
:101C00000905001C4F4100187F4111461818794101
:101C1000E20F10436D19644113E0E2076D081543AC
:101C20006408C2071443039A01261205C01A9141A1
:101C30003605001C7141CE07400830434908C018E2
:101C400051412A46234600F012F984E70498012204
:101C50004000C117121A00238B4104983146C41763
:101C6000381AA141EFE730B40124E407634030BCE7
:101C700056E730B40124E407614030BC50E700006F
:101C80000000E0FF10B500229623114600F0B5F8E1
:101C900010BD410040020122400AD205090E801801
:101CA0007F2901DA00207047962903DC9622511A19
:101CB000C8407047963988407047C20FD20740002D
:101CC00040080BD0C10D0723DB01C91840020905EC
:101CD000400A1143C20840071143704700200146E3
:101CE0007047CB0FDB07490010B5490802460A438D
:101CF00007D00A0D07240903E401090B121B002A6F
:101D000001DC002010BDC900440F0C43C100E018E5
:101D1000D205801800F069F810BD00000122D2073A
:101D2000002800DB101A002900DB511A814270479D
:101D30000122D207002800DB101A002900DB511A0B
:101D400088427047F0B51FB40646002082B00546B1
:101D50004024019100901BE0019922460F46304635
:101D600000F00CFA049A059B801A994110D3104692
:101D70001946224600F016F8361A8F41019722467E
:101D800001200021009F00F00DF838184D4100900F
:101D90002046641E0028DFDC019B0098294632465D
:101DA00007B0F0BD10B5202A04DB0146203A91406F
:101DB000002010BD914020239C1A0346E3401943A4
:101DC000904010BD10B5202A06DBCB170846203AFC
:101DD0001041C1170B4306E00B461341D0402024AD
:101DE000A21A91400843194610BD002904DA401C8C
:101DF000490001D140084000704770B40024050C30
:101E000005D11024000402D1002922D01124050E8E
:101E100001D108340002050F01D1241D0001850FF6
:101E200001D1A41C8000002801DB641C40000029B3
:101E300008D020252E1B0D46F540A14000D00121E1
:101E4000294308431B1B0106DB1D000A002B02DA95
:101E5000002070BC7047DB05181880180029F8DADC
:101E6000401C4900F5D170BC40084000704710B5D7
:101E7000002B08DA0024401C614192185B411A4390
:101E800001D14008400010BDF0B51FB482B0054636
:101E90000C0003D0084603F061FA02E003F05EFA9A
:101EA00020300246009021462846FFF77BFF049B26
:101EB000059A04460F4618431143084303D12046B0
:101EC000394607B0F0BD1846104317D0009840219E
:101ED0000A1A1846059900F051F905460E46009A6F
:101EE00005990498FFF75EFF084301D0012000E048
:101EF0000020C11705430E432C43374300990E9829
:101F00006305401A7905E40A0A3000220C43FD0AF1
:101F1000002802DA00200146D3E7010510196941C3
:101F20000C9C0D9D00196941FFF7A1FFC9E7000056
:101F3000F0B51FB488B00B9909980024484009995E
:101F4000C00F490049080991C0070B99009049004A
:101F500049080B9109990898A646084303D00B99A4
:101F60000A98084303D1002001460DB0F0BD09983E
:101F700001244000420D4800410D0998240500034A
:101F8000000B204309900B980003000B20430B909B
:101F900050181A494018002201901446104601E0DA
:101FA000032801DA034600E003239C46C11A0AAE67
:101FB0000AE05F0008ADED5B4F00F75B7D43002753
:101FC000AA187C415B1E491C6145F2DD410004AB4F
:101FD0005A522104120C0A43240C401C0828DFDB4F
:101FE000019802900099704601910090059B049A17
:101FF00007990698FFF748FFB7E700000DFCFFFFC1
:10200000F0B50C465C4085B0E40FE40703944C0047
:102010000026640859009446490802460296224365
:1020200021D062460A431ED06200570D4A000E03BB
:102030002303550D012402462C492405781B1B0B54
:10204000360B401823432643614600901C46501A25
:10205000B44103D30098401C009002E0921800980D
:102060005B41002803DA0020014605B0F0BD0020E6
:10207000012109050746864611E064461D46141BEA
:10208000B54106D36546521BB341744607430C4322
:10209000A646CD0740084908284392185B410546EB
:1020A0000D43EAD11046184313D0604619465040FC
:1020B0007140084303D100220123DB0709E0604699
:1020C000101AB34102D20122002302E00122D243BE
:1020D0005310009874460105381C6141029C039D11
:1020E00000196941FFF7C3FEBFE70000FD030000D0
:1020F0004A0009030123090B1B0519430A4B10B5BC
:10210000520D9A4202DA0020014610BD064B3433CC
:102110009A4203DC9A1A00F031F810BD034BD21832
:10212000FFF740FE10BD0000FF030000CDFBFFFFE6
:1021300010B5002904DB0124E40740428C4121460C
:10214000002B04DB1C460123DB075242A3419942CA
:1021500000D1904210BD0000064C0125064E05E05E
:102160002046E36807C82B4398471034B442F7D39E
:10217000FFF7A4FB50C9000870C9000810B5202A59
:1021800004DB0846203AD040002110BD0B46D34066
:10219000D0402024A21A91400843194610BD0000E7
:1021A00010B50C4B00219A681724A2435C0522430A
:1021B0009A600F231B038268491CD20FD2079942F1
:1021C00001D0002AF7D18168002901DB006C10BD25
:1021D000002010BD0024014010B512488168124B48
:1021E0004907C90F042903D1816819401031816062
:1021F0008168C906C90FFBD10C490122CC68520283
:102200001443CC6084681C40A41C84608368DB0792
:10221000DB0FFBD183685B07DB0FFBD1C868104382
:10222000C86010BD00240140E8FFFF7F001002409D
:1022300010B500F005F800F01DF800F09FFC10BD8F
:1022400000B50B480121826987B049020A438261C7
:102250008069084006900120009003200190002032
:10226000049009206946C00601F060F907B000BD7E
:102270000010024030B51B4C0125A562E068182112
:102280008843E060E068611488430843E060E068E8
:10229000032189028843E060E06820218843E060F0
:1022A000E068042188430843E060616907208143B6
:1022B000014361612046FFF773FF2560E168032059
:1022C00081430143E160A16807480140491CA160C6
:1022D0002168C907C90FFBD0A1680140091DA16091
:1022E00030BD000000240140E8FFFF7FF8B507463D
:1022F0001C4615460E462A2000F0CCFF3804000E7E
:1023000000F0BFFFF8B200F0BCFF2804000E00F0A0
:10231000B8FFE8B200F0B5FF2B2000F0BBFF30049F
:10232000000E00F0AEFFF0B200F0ABFF2004000E94
:1023300000F0A7FFE0B200F0A4FF2C2000F0AAFFFD
:10234000F8BD00003EB50C46002101910291012C20
:1023500001D100281BDB0A2822DA024612A104E080
:10236000024613A101E0024612A101A802F0E2FF19
:10237000012101A800F046F97E21081A01210091EF
:10238000C0B20DA301AA214601F0EEFF3EBD092116
:10239000C9438842E1DC6321C9438842E3DDDFE7CA
:1023A0006428E0DADCE7000020202564000000005B
:1023B00020256400256400002000000070B5012580
:1023C0000924AD02E4062946204600F0A0FDA561DF
:1023D00070BD00003EB504460020019002900E48FA
:1023E000827A0A2A01D20DA104E0642A01D20DA149
:1023F00000E00EA101A802F09DFF012101A800F05C
:1024000001F9012100917E21081AC0B208A301AA96
:10241000214601F0A9FF3EBD3403002020202564A1
:10242000252500002025642525000000256425259C
:1024300000000000FEB549A103C90190494802917E
:102440000078002607287DD010200921C90688625F
:102450000021052001F068FD052101A801F0F8FC2C
:10246000052201A9002001F0E7FC3F4CBB20607071
:10247000FF20A0702146032003F0EEFF2070032010
:1024800020753A49642008760027394D38462F7068
:1024900002F054F9F0231A4618210020009700F0AA
:1024A000F7FD0121032003F05FFE324F00F0E9FC4D
:1024B00001F0E6FF28780128F8D12E4801F092FCBF
:1024C0000100F3D02B4800F08AFD0028EED0787888
:1024D000AA28EBD1B8780128E8D12649214F052256
:1024E000C91CF81CFFF714FA22480221007AB870C0
:1024F000072038700127032003F036FE00202075E6
:1025000005F0E8FB10200921C9068862AA20607046
:10251000A0701549032003F09FFF20700320207551
:10252000124964200876002002F008F900F0A9FCA6
:1025300068880028FAD132206880217D0A4801F09D
:1025400091FC00E009E0761CF6B2062EEED3002FD7
:1025500003D002F007F900202075FEBD0100000045
:1025600000000000340300201F020020D6010020DC
:10257000400100208401002010B50221012001F05B
:10258000BFF80848FF21026801310A430260C268AF
:102590000A43C2600021072001F084FD072001F0FA
:1025A00033FD10BD0004014010B50D4C20786428A7
:1025B00014D207F0F3F8002810D160780A30C0B2C6
:1025C0006070642801D90A20607012214843642198
:1025D000FFF788F9C0B2012103F0EAFC10BD00004A
:1025E0002C01002006490020162242435218127D79
:1025F000002A04D0401CC0B20828F5D3FF20704741
:102600001F02002000B50449886000F007F8062189
:102610004843C0B200BD00002C010020024600214A
:102620000846535C002B04D0491CC9B21529F8D3C5
:102630007047084670470000F8B5174D00246878C9
:10264000012802D0002802D002E0562400E06824CD
:10265000124E3078082802D1FF2005F0C5FB6878BB
:1026600000900FA310A207210A2001F07DFE002098
:1026700005F0BAFB3078072802D1FF2005F0B4FB43
:10268000687800900AA30CA20721204601F06CFE96
:10269000002005F0A9FBF8BD34030020C60000208F
:1026A000C8A1CFFB0000000043616E63656C0000B1
:1026B000C8B7C8CF00000000436F6E6669726D0036
:1026C00070B58CB00446182105A8FFF73AF91B48ED
:1026D000FF21007935314843194941180C206043E6
:1026E00009184B884A7A0E7ACD88887A097B02923B
:1026F0000491039001960095224612A105A802F0CC
:1027000019FE012105A8FFF77DFF8021081AC10FDE
:102710000818C0050125114E040E009510A20521D0
:102720000020336801F020FE009505AA052120460F
:10273000336801F019FE0CB070BD0000700100207C
:10274000D40400202825642925642C25642C2564C4
:102750002C25642C25642C25640000003401002005
:102760002020202020202020202020202020202069
:102770002020202000000000F0B5604987B00978D3
:102780000E2958D1012780245D4D5E4E012806D0C8
:10279000022852D03078012865D8012665E0FF2054
:1027A00005F022FB5848407800281CD0012157A092
:1027B000FFF728FF201AC10F0818C005040E524861
:1027C00001AB40780090072120462A6801F0CCFD3B
:1027D000327854A101A802F0ADFD1E3401ABE0B285
:1027E0001A4600973DE0327850A101A802F0A2FD00
:1027F000012101A8FFF706FF064601214DA0FFF7C2
:1028000001FF201A801BC10F0818C005040E3E48A6
:1028100001AA40780090A019C0B207212B6801F0EE
:10282000A3FD01AB1A4607212046009701F09CFD4D
:10283000002005F0D9FA07B0F0BD307A0028FAD1AF
:10284000FF2005F0D1FA01213EA0FFF7DBFE201AA0
:10285000C10F08182C49C005497800912B68000E5B
:1028600001AA0721E2E7401EC6B2274840780028A7
:102870001FD0012138A0FFF7C5FE201AC10F08188C
:10288000C005040E204801AB407800900721204687
:102890002A6801F069FD324622A101A802F04AFD32
:1028A0001E3401ABE0B21A460721009701F05CFD2F
:1028B000C1E732461DA101A802F03CFD012101A89B
:1028C000FFF7A0FE064601211FA0FFF79BFE201A7E
:1028D000801BC10F0818C005040E0B4801AA4078E0
:1028E0000090A019C0B207212B6801F03DFD01AB9B
:1028F0001A46072120460097D8E70000C5000020AF
:102900003401002070010020340300205061726106
:10291000202020202069732073686F7474696E67AB
:1029200000000000282564290000000020282564FC
:1029300029000000B2CECAFDD5FDD4DAC5C4C9E372
:10294000D6D00000CBF9D3D0B2CECAFDC5C4C9E3FE
:10295000D2D1BDE1CAF80000506172612020202070
:102960002069732066696E69736865640000000001
:10297000704710B500F0EEF810BD10B502F088FBFE
:1029800010BD0000F8B547490D78032D7ED14649AA
:10299000FF224A730C462F348E7B6378A278E1784D
:1029A000012E06D0022E21D0032E2ED0042E3AD096
:1029B00049E03E4EC707367804D0092E11D2761C66
:1029C00026700EE080070CD538480078401EC0B253
:1029D000002B03D1002A01D1002904D0002E00D001
:1029E000207000210FE0012EFAD8FAE7C10703D0CA
:1029F000092B07D25B1C04E0800703D5002B01D014
:102A00005B1E6370012128461BE0C10703D0092A21
:102A100007D2521C04E0800703D5002A01D0521EC1
:102A2000A2700221EFE7C20703D0092907D2491C8F
:102A300004E0800703D5002901D0491EE17003207E
:102A4000014600F057F8607800280FD1A0780028E0
:102A50000CD1E078002809D12078002806D1012087
:102A6000207010480021007800F044F86078217848
:102A70000A2250430A18A07864214843E1787D2354
:102A8000DB00594340181018094900E009E088624A
:102A900005F020F90449002048730322022104F0C4
:102AA0002FF9F8BDC6000020CC000020FB0000205C
:102AB000E80200200C490978062913D10B4909784E
:102AC00003290FD10A4A917B00290BD0030703D5B4
:102AD000012907D9491E04E0400703D5042901D282
:102AE000491C917370470000C5000020C6000020FB
:102AF000CC0000207FB505460C460C480CA1025DB9
:102B000001A802F017FC012101A8FFF77BFD0621B7
:102B10004C4320187E21081A01210091C0B205A360
:102B200001AA294601F020FC7FBD0000FB00002027
:102B3000256400002000000010B5FFF73FFC03F003
:102B40000FFC05F099FC01F075FF08F0C1FA05F0E3
:102B5000B1FA10BD10B5084C0221204600F03EFC31
:102B600020206060102060600221204600F02AFCD6
:102B700001F01EFE10BD00000000024038B52648DE
:102B8000012142690A4342614069244C08402549B9
:102B90000090CB7F2148224A08341A511F4BCC7F2A
:102BA000214A0C33E2500124CB7F021D9D582D0C8D
:102BB0002D0425439D50CA7F83581C4C23408350CD
:102BC000CB7FC25803242403A243C250CB7FC258F8
:102BD0004024A243C250CC7F025980239A431A4317
:102BE0000251CB7F8415C25803252D02AA432243EC
:102BF000C250CA7F04158358AD00AB4323438350B2
:102C0000CC7F025920239A431A430251C97F42586C
:102C100001231A43425038BD001002400000024018
:102C20004024014097C700085C010020EFBFFFFF70
:102C30000149F820486170470004014010B50B4C71
:102C400001216069C9030840884202D106F07AFE7A
:102C500008E0FF20616901300140814202D104494E
:102C6000012008700348606110BD000000040140AD
:102C700049010020F8990000FEB542A103C90026D1
:102C8000F0230291019037461A460096182102203F
:102C900000F0FEF90321084603F066FA102009252A
:102CA000ED06A8620021052001F03EF92221062050
:102CB00001F03AF9052101A801F0CAF8052201A99D
:102CC000002001F0B9F8314CCC2060700220A070D7
:102CD0002F48C178E1700179217141796171817961
:102CE000A171C179E171807820722146092003F039
:102CF000B3FB207009202075002001F01FFD10207B
:102D0000A86224484770244F00F0BBF8214801F026
:102D100069F8002806D01F484178BB2902D1807885
:102D2000BB2820D078880028EED11020A86200208F
:102D300001F004FDFF205F307880217D134801F011
:102D400091F81020A862012008F034F8012001F069
:102D5000F5FC1020A861012008F02CF80F2E07D2F6
:102D6000761CF6B2D0E70B4900204870042100E041
:102D70000521032003F0F8F901F0F4FC0020207590
:102D8000FEBD000002000000000000001F02002045
:102D9000340300208401002040010020F0B50B27FF
:102DA00006463F04384600F05BF804280FD1084C73
:102DB000206902252843206166612069402108437B
:102DC0002061384600F04CF82169A9432161F0BD2B
:102DD0000020024008490420CA68D20701D001201F
:102DE0007047CA68D20601D502207047C9684907F2
:102DF000FBD5032070470000002002400248016913
:102E0000802211430161704700200240F0B50B277A
:102E100006463F040D46384600F022F804280CD13F
:102E2000064C20690121084320613580384600F0B6
:102E300017F82169490849002161F0BD00200240CE
:102E400004480169090603D503494160034941600B
:102E5000704700000020024023016745AB89EFCD99
:102E600000B50346FFF7B6FF02E0FFF7B3FF5B1EB6
:102E7000012803D0002B00D1052000BD002BF4D188
:102E8000FAE7704704F038FA012040020921C90628
:102E90008861144A906240008862134800240480CC
:102EA000124901200870FFF797F908F01DF901F0A9
:102EB00073FDFFF761FB0E48017B002904D004730A
:102EC00004F008FF08F03CF9012001F079FC012032
:102ED000000700F06BFA0121084600F065F872B6B1
:102EE00001F002F9000400482A01002048010020F6
:102EF0003403002000B587B00091002101910291B8
:102F000003910491694600F011FB07B000BD00B5C4
:102F100087B0009100210122029103910192049255
:102F2000694600F003FB07B000BD000070B51B4D03
:102F30000446C17BA878814203D9401CA87007F0E1
:102F400089F9E07B2871FF2235325043144AA17B76
:102F500083181846FF30697121308174E279A679AF
:102F6000120232430C2671435918CA8062792379C0
:102F700012021A434A80227A0A72627A4A72A27A4A
:102F80008A72E27A8273227BC273064A607B107077
:102F9000207C08730120287070BD000070010020A3
:102FA000D4040020D10000200A4B1A689208920035
:102FB00002431A600848036904221343036101298C
:102FC00006D040BF20BF20BF016991430161704717
:102FD00030BFF9E70070004000ED00E0FEE710B5FB
:102FE0000023012204E0845CE318521C9BB2D2B29D
:102FF0008A42F8D30078D9B2884201D0002010BDAF
:10300000012010BD10B504210148FFF773FF10BD6A
:103010000004004870B501240925E403ED062146AB
:10302000284600F0D7FA002818D00D4E202130464F
:1030300000F0D0FA002811D0FF20F53007F0BAFEDA
:103040002146284600F0C6FA002807D02021304645
:1030500000F0C0FA002801D0FFF70EFE70BD00009E
:103060000004004870B506460021A32381220846CB
:10307000FFF73CF90024FFF704FF0025304600F07D
:10308000F1F86D1CA32DF9D3641C812CF3D370BD12
:10309000FFB581B016460C46054680281CD2A02CF0
:1030A0001AD2B54218D00498844215D0AE4213D338
:1030B000A04211D303462846FFF718F9274608E037
:1030C0002C4603E00A9800F0CDF8641CB442F9D90C
:1030D0007F1C04988742F3D905B0F0BDFFB583B0DB
:1030E00000243748019400944078002801D18820BA
:1030F00000900398742861D8049894285ED859E009
:10310000059A00201319651C0FE01C220646564341
:10311000069A9259165DB14205D15E78525D96428B
:1031200001D1019004E0401CC0B2009A9042ECD35F
:10313000FFF7A7FE049B039A0B330B320499039805
:10314000FFF7D4F801981C21484306990025401840
:10315000029040190779E80706D000260120B04008
:10316000384214D0174817E000260120B0403842FA
:1031700001D0144804E014480078002800D01F2033
:1031800000F070F8761CF6B2082EEED30AE00E4876
:103190000078002800D01F2000F064F8761CF6B2FA
:1031A000042EDBD36D1CEDB2182D01D20298D0E7AE
:1031B000A41CE4B20598015D0029A1D107B0F0BDBF
:1031C00034030020FFFF0000D9000020FFB583B0CA
:1031D0000020009000990598405C00283BD0FFF744
:1031E00050FE00990598405C2038C4B203987A28B4
:1031F00031D8049894282ED80346039A01460B33FD
:10320000521D0398FFF772F80C20444306980025DE
:1032100020180126019001980024475D3046A04007
:10322000384201D00D4804E00D480078002800D055
:103230001F2000F017F8641CE4B2062CEED36D1CBE
:10324000EDB20C2DE7D30398801DC0B20390009817
:10325000401CC0B2BDE707B0F0BD0000FFFF00009A
:10326000D900002010B50446FF2001300921C9060D
:1032700088612004000E01F02BFCE0B201F028FC74
:1032800010BD10B5FF2109220131D206916101F074
:103290001FFC10BD10B5FF2109220131D206916239
:1032A00001F016FC10BD0000F7B582B000200090C0
:1032B000080108181530C0B203903CE0FFF7E1FDAB
:1032C00000990498405C2038C4B202987A2837D814
:1032D0000398942834D80346029A01460B33521DB2
:1032E0000298FFF703F80C204443164800252018E5
:1032F0000126019001980024475D3046A0403842E5
:1033000002D01F20C00204E00F480078002800D03F
:103310001F20FFF7A7FF641CE4B2062CEDD36D1C41
:10332000EDB20C2DE6D30298801DC0B20290009839
:10333000401CC0B2009000990498405C0028BDD1A8
:1033400005B0F0BD42C30008D900002008B504490B
:103350004A6902434A6149690140009108BD000081
:103360000010024008B504494A6902434A614969AC
:103370000140009108BD00000010024008B504495A
:103380004A6902434A6149690140009108BD000051
:103390000010024008B50449CA690243CA61C969FC
:1033A0000140009108BD00000010024008B504492A
:1033B000CA690243CA61C9690140009108BD0000A1
:1033C00000100240044A51182039C97F425852085F
:1033D0005200425070470000F2B10008044A5118F0
:1033E0002039C97F425802239A4342507047000057
:1033F000F2B10008044A51182039C97F425801230C
:103400001A43425070470000F2B10008034A5118B5
:103410002039C97F001D085880B27047F2B10008FA
:10342000054B10B559182039C97F4358032424038C
:10343000A3431343435010BDF2B10008054B591884
:103440002039C97F001D0B581B0C1B0413430B5064
:1034500070470000F2B10008054B10B5591820392B
:10346000C97F4358034C23401343435010BD000011
:10347000F2B10008EFBFFFFF034B59182039C97F95
:103480000C300A5070470000F2B10008054B10B52F
:1034900059182039C97F43588024A343134343500C
:1034A00010BD0000F2B10008054B10B559182039C5
:1034B000C97F43580324A402A3431343435010BDC0
:1034C000F2B10008054B10B559182039C97F43588F
:1034D0002024A3431343435010BD0000F2B1000861
:1034E000034B59182039C97F08300A507047000033
:1034F000F2B10008054B10B559182039C97F43585F
:103500004024A3431343435010BD0000F2B1000810
:10351000054B10B559182039C97F4358032424029C
:10352000A3431343435010BDF2B10008F0B500248B
:103530003EE001232A46A3401A4038D04F6806686F
:10354000134653435D005D19AE435F433E4306603F
:103550004E68012E01D0022E05D18F6886685F4328
:10356000AE433E4386600F69C668AE431D467D4349
:103570002E43C6604D68022D19D1FF2A0AD84E6924
:10358000056A534353431A01D21A954373431D43AB
:1035900005620CE0130A1A465A435A435A43130170
:1035A0009E1A4D69436A6A43B34313434362641CE2
:1035B0000A681546E240BCD14A68012A01D0022AB5
:1035C00006D1CB6841682A4691435A431143416072
:1035D0000120F0BD0069814301D000207047012027
:1035E00070470069814301D0002070470120704777
:1035F0000069814301D000207047012070470069B5
:10360000814301D000207047012070470069814349
:1036100001D0002070470120704710B5044600F02B
:10362000F9FF206000F0DCFF606000F0E7FFA060C1
:1036300010BD0000014610B5002000290FD110492F
:103640000A6B9207920F012A0AD0022A11D0032A8C
:1036500009D000F0DFFF00F0C3FF00F0CFFF10BD86
:1036600000F0D8FF10BD09688907C90FFAD00548D6
:1036700010BD096A8907C90FFAD00120C00310BD27
:103680000010024000127A0003494A689208920032
:1036900002434A60704700000010024010B5036802
:1036A00000225B06DB0F25D14B680A680C691A43C0
:1036B000CB6823431A434B691A438B691A43CB697E
:1036C0001A430B6A1A4303680B4C23401A430260E7
:1036D00042680A4B1A404B691B0C1A438B681A4309
:1036E000426001230A6A5B039A4202D1898C89B243
:1036F00001610122104610BD4000FFFFFBF0FFFFFB
:103700000A06930D054A10B59B189A68090C0F24F8
:103710008C40A243884002439A6010BD00000140E3
:10372000F0B50268194B1A4C984201D0A04203D15F
:103730007025AA434D682A43164D174E174F9842DD
:103740000AD0A04208D0164CA04205D0A84203D00F
:10375000B04201D0B84204D103242402A243CC6871
:10376000224302608A68C2620A888262984205D057
:10377000A84203D0B04201D0B84201D1097C016314
:1037800041690122114341611046F0BD002C014006
:103790000004004000400140004401400048014056
:1037A0000020004001290AD004290AD010290AD09B
:1037B00040290AD0CA1FF93A09D104210EE000219C
:1037C0000CE001210AE0022108E0032106E00122C9
:1037D0009202914201D1052100E00621064A1830EB
:1037E000525C054B1018DB1D5B5C08210268994098
:1037F0000A43026070470000E4B10008034610B5B8
:10380000002001290DD0102910D0FF39013912D024
:103810000F242402091B03D11146184600F06AFD4B
:1038200010BD1146184600F08BFC10BD114618461D
:1038300000F0CCFC10BD1146184600F00FFD10BD85
:10384000FEB5044600680D460026C007C00F43D1F0
:10385000E9686868AA69084329691143084321682F
:103860001E4A114008432060A968606803221203C1
:103870009043084360606969A0681211904308434F
:10388000A0601748844203D10020FFF7D3FE06E072
:103890001448844220D16846FFF7BFFE02980028F2
:1038A0001AD02968002917D00126AA69F3039A4281
:1038B0000CD140004A088018FEF714F881B20A487B
:1038C00008400907490F0143E16005E04A08101864
:1038D000FEF708F880B2E0603046FEBDF369FFFFF6
:1038E0000038014000440040F0FF000070B50125A1
:1038F0008F4CAD03A562142007F05CFAA56114207B
:1039000007F058FA1120FFF7C5FC782007F052FAAB
:103910001320FFF7BFFCB120FFF7BCFC0120FFF72D
:10392000B0FC2C20FFF7ADFC2D20FFF7AAFCB22045
:10393000FFF7B0FC0120FFF7A4FC2C20FFF7A1FC4F
:103940002D20FFF79EFCB320FFF7A4FC0120FFF71A
:1039500098FC2C20FFF795FC2D20FFF792FC01200E
:10396000FFF78FFC2C20FFF78CFC2D20FFF789FC44
:10397000B420FFF78FFC0720FFF783FCC020FFF780
:1039800089FCA220FFF77DFC0220FFF77AFC84204F
:10399000FFF777FCC120FFF77DFCC520FFF771FC26
:1039A000C220FFF777FC0A20FFF76BFC0020FFF72F
:1039B00068FCC320FFF76EFC8A20FFF762FC2A2018
:1039C000FFF75FFCC420FFF765FC8A20FFF759FC76
:1039D000EE20FFF756FCC520FFF75CFC0E20FFF73A
:1039E00050FC3620FFF756FC0020FFF74AFCE02091
:1039F000FFF750FC0F20FFF744FC1A20FFF741FCB3
:103A00000F20FFF73EFC1820FFF73BFC2F20FFF7AD
:103A100038FC2820FFF735FC2020FFF732FC22205D
:103A2000FFF72FFC1F20FFF72CFC1B20FFF729FCC2
:103A30002320FFF726FC3720FFF723FC0020FFF7A9
:103A400020FC0720FFF71DFC0220FFF71AFC1020C6
:103A5000FFF717FCE120FFF71DFC0F20FFF711FC1B
:103A60001B20FFF70EFC0F20FFF70BFC1720FFF7C2
:103A700008FC3320FFF705FC2C20FFF702FC29206F
:103A8000FFF7FFFB2E20FFF7FCFB3020FFF7F9FBD1
:103A90003020FFF7F6FB3920FFF7F3FB3F20FFF75D
:103AA000F0FB0020FFF7EDFB0720FFF7EAFB032008
:103AB000FFF7E7FB1020FFF7E4FB2A20FFF7EAFB04
:103AC0000020FFF7DEFB0020FFF7DBFB0020FFF705
:103AD000D8FB7F20FFF7D5FB2B20FFF7DBFB002077
:103AE000FFF7CFFB0020FFF7CCFB0020FFF7C9FB5F
:103AF0009F20FFF7C6FBF020FFF7CCFB0120FFF76C
:103B0000C0FBF620FFF7C6FB0020FFF7BAFB3A2008
:103B1000FFF7C0FB0520FFF7B4FB2920FFF7BAFB36
:103B20000020FFF79FFA282007F044F970BD00003D
:103B300000040048F8B500205723F0221821009017
:103B4000FFF7A6FA5323672233211820FEF7CEFB96
:103B500000263001002500900098411929480024D2
:103B6000475C0120A040384000D02748FFF77AFB8F
:103B7000641CE4B2082CF4D36D1CEDB2102DEBD311
:103B8000761CF6B2142EE4D368236F225421102041
:103B9000FEF7ACFB0026300100250090009841198B
:103BA0001A480024475C0120A040384000D0164845
:103BB000FFF758FB641CE4B2082CF4D36D1CEDB283
:103BC000102DEBD3761CF6B2102EE4D3012110A0F9
:103BD000FEF718FD8021081AC10F08180121C00541
:103BE0000091000E0CA30AA2052100F0BDFB0B48BA
:103BF00007F0E0F800205723F02218210090FFF78B
:103C000047FAF8BDD8C00008FFFF000018C200083E
:103C10004C472D303600000000000000B80B0000BB
:103C200000B505F073FE03480178002901D000219A
:103C3000017000BD48010020F0B595B00220FFF7EB
:103C4000A9FB0021102000F0E9F9012525492804ED
:103C5000086005206946088000266320224C0290F7
:103C6000019603962046FFF75BFD206880273843C6
:103C70002060A1142046FFF795FD602005A961C1D1
:103C80001A4805AA807A0890A11409962046FFF7E1
:103C9000B5FD17481449807918314018144A016855
:103CA000D21D937904229A4091430160A1142046C9
:103CB000FFF778FD206838432060206828432060A3
:103CC00002200D900E9003200F9011950DA91096D3
:103CD00012950848FFF72AFC20682843206015B099
:103CE000F0BD000000E100E00004004034030020CB
:103CF000E4B100080004004810B50648016849080E
:103D00004900016001F092FA01F0FAF901F044FA79
:103D100010BD00000044004070B50A480078022839
:103D20000BD1094CA07B002808D00025A573FF20EB
:103D30006073022000F060FE657370BD0120A07307
:103D400070BD0000C6000020CC00002070470000BD
:103D500070B570210840044600F038F80646074D5B
:103D60000120A862272003F00FFB2046304303F018
:103D70000BFB0120A86100F029F870BD0004004889
:103D8000F8B50F46094E01211546B16203F0FCFA61
:103D9000002405E0FF2003F0F7FA3855641CE4B274
:103DA000AC42F7D30120B061F8BD00000004004828
:103DB00010B5054C0121A16203F0E6FAFF2003F0E3
:103DC000E3FA0121A16110BD0004004810B5044CC4
:103DD0000120A062072003F0D7FA0121A16110BDE4
:103DE0000004004870B5054604211248FFF700FCA6
:103DF00000281CD110200921C90688620720FFF77E
:103E0000D7FF04460146072000F08EF860060ED565
:103E10006020FFF7CDFF0446024629466120FFF7E8
:103E2000AFFFFF21E22000F07FF8204670BD0020A8
:103E300070BD00000004004810B5052A00D9052215
:103E4000052800D905200A30C0B200F055F810BD91
:103E500010B5052900D905210A460146102000F0B9
:103E60004BF810BDF3B50024224D81B001200E4661
:103E7000A862E12003F088FA0120A8611020092738
:103E8000FF06B8623246A020019900F035F81020F4
:103E9000B8610EE0FEF7F5FF0720FFF789FFC006C7
:103EA0000DD4012006F086FF2046641CA4B2C82869
:103EB00005D004212846FFF79BFB0028EAD1072004
:103EC000FFF776FF04460146072000F02DF8E006D4
:103ED00009D5FF21E12000F027F8FF21072000F09D
:103EE00023F81020FEBDA00601D52020FEBDFF2036
:103EF000FEBD000000040048F8B50F46094E012140
:103F00001546B1622021084303F03EFA002404E084
:103F1000385D03F039FA641CE4B2AC42F8D30120F6
:103F2000B061F8BD0004004870B5074C01220D4691
:103F3000A2622021084303F027FA284603F024FA5E
:103F40000120A06170BD000000040048F0B585B0FC
:103F50001AA103C9019000200291039001AD03AEA4
:103F6000184C01270490FEF78CFF052201A91020B0
:103F7000FFF7C2FF052203A91020FFF701FF002071
:103F8000295C325C914203D1401CC0B20528F7D3B2
:103F9000052810D02078401CC0B22070052806D318
:103FA00009A30AA201210020009700F0DDF9C82032
:103FB00006F000FFD7E705B0F0BD0000A5A5A5A558
:103FC000A5000000440100200000000052463234E9
:103FD0004C3031206973206E6F742066696E640006
:103FE000C106C90E012088400149086070470000E1
:103FF00080E100E0C106C90E012088400149086047
:104000007047000000E100E0C106C90E01208840B1
:10401000014908607047000000E100E08307FF22CB
:10402000DB0E9A408907090E994000280BDA000739
:10403000000F0838830808489B001B18D869904374
:104040000843D8617047830804489B001B18186810
:10405000904308431860704700ED00E000E400E082
:104060008307FF22DB0E9A408907090E994000283A
:104070000BDA0007000F0838830808489B001B185C
:10408000D86990430843D8617047830804489B006F
:104090001B181868904308431860704700ED00E053
:1040A00000E400E08307FF22DB0E9A408907090E37
:1040B000994000280BDA0007000F083883080848E9
:1040C0009B001B18D86990430843D8617047830848
:1040D00004489B001B1818689043084318607047F9
:1040E00000ED00E000E400E0BFF34F8F0449034817
:1040F000C860BFF34F8F00BFFDE700000400FA0562
:1041000000ED00E070B501240C4DA402AC617D20EF
:10411000C00006F04FFEAC62642006F04BFE00F0DB
:10412000A9FAFFF713FF00F0C1FA012000F006FB27
:1041300010200921C906886170BD000000040048F4
:1041400030B5026A520852000262026A436884690A
:104150007025A408A400AC430D682C430225AA4393
:104160000D692A4352084D6852002A43134DA84254
:1041700008D0134DA84205D0124DA84202D0124DCE
:10418000A84214D10825AA434D69AD002A4304254D
:10419000AA438D68AD002A43FF250135AB438D69E5
:1041A0002B4301256D02AB43CD696D002B4343606A
:1041B0008461C96841630262012030BD002C014066
:1041C00000400140004401400048014070B5026ACF
:1041D0001025AA430262026A436884697326360284
:1041E000B4430E68360234432026B2430E693601CA
:1041F0003243AA434D682D012A43144DA84208D0EA
:10420000134DA84205D0134DA84202D0124DA8422A
:1042100015D18025AA434D69AD012A434025AA4303
:104220008D68AD012A430125AD02AB438D69AD0018
:104230002B430125ED02AB43CD69ED002B434360D9
:104240008461C96881630262012070BD002C014055
:1042500000400140004401400048014070B5026A3E
:10426000FF250135AA430262026A4368C4697026C9
:10427000A408A400B4430E6834436E00B2430E6930
:1042800036023243AA434D682D022A43154DA842F7
:1042900008D0154DA84205D0144DA84202D0144DA7
:1042A000A84217D10125ED02AA434D69AD022A4368
:1042B0000125AD02AA438D68AD022A4301252D03D5
:1042C000AB438D692D012B4301256D03AB43CD69B4
:1042D0006D012B434360C461C968C1630262012060
:1042E00070BD0000002C014000400140004401402E
:1042F0000048014070B5026A01252D03AA430262FD
:10430000026A4468C36973263602B3430E683602F4
:1043100033436E00B2430E6936033243AA434D68FD
:104320002D032A430C4DA84208D00C4DA84205D0BD
:104330000B4DA84202D00B4DA84205D10125AD037B
:10434000AC438D69AD012C434460C361C96801640D
:104350000262012070BD0000002C014000400140BD
:104360000044014000480140FFB50A01891883B0AC
:104370000446002615310C981F46CDB2324600285F
:104380004AD0012803D0072801D0052847D1174675
:104390000598805D002842D0FEF773FD7A2C02D983
:1043A00000240C35EDB2942D05D900241F2025469C
:1043B000C002FEF757FE05981A4B815D68460171F1
:1043C000477101AA29462046FEF700FFA41D761C6E
:1043D000E4B2F6B2DCE7FEF754FD742C02D90024F7
:1043E0000C35EDB2942D05D900241F202546C002BE
:1043F000FEF738FEB85D69460870B8194078487015
:1044000000208870084B6A4629462046FEF766FE63
:104410000C34B61CE4B2F6B2B85D0028DBD107B0AC
:10442000F0BD000042C30008F8B1000810B5114CFF
:10443000FF212079353148430F49104A4018FF3099
:104440002130807C182801D2811C00E0411C1170B1
:104450000621FDF747FAA071042801D30320A071BB
:1044600001F088FF05F022FF00F0CCF903F0C2FC58
:1044700010BD000070010020D4040020C600002000
:10448000FEB50020214F01903968002920D1204E2F
:10449000317D00291CD01F4D092428701020E4060E
:1044A000A062002000F04AF9317D3046FFF7DAFCC7
:1044B000FF21F531012620280BD0102839600CD0BF
:1044C0001020A062012000F039F91020A0612E70A8
:1044D000FEBD1020A0623960F4E71020A062012028
:1044E00000F02CF91020A0612E706A780AA101A8B2
:1044F00000F020FF09A301AA032100200096FFF786
:1045000033FF6878401C6870FEBD00000C0100207D
:104510001F02002040010020256400000000000070
:1045200003494888002801D0401E48807047000099
:104530004001002070470000F8B52248818A012917
:1045400036D100248482417BFF2601361E4F1F4D49
:10455000002911D00021417331463846FFF73AF85F
:10456000002826D072B6BFF34F8F1A491848C8608A
:10457000BFF34F8F00BFFDE744700472FF2141730A
:1045800000F0BEF931463846FFF724F800280FD175
:104590001148017B002904D0047303F09BFB06F053
:1045A000CFFD012028700020FEF75CFD06F0BCFC6A
:1045B000F8BD0020FEF756FD01F05EFD07480480BF
:1045C0002C70F8BD160100200004004849010020AD
:1045D0000400FA0500ED00E034030020F2000020A2
:1045E00004494968F0221140034A0909515CC84056
:1045F0007047000000100240CCB100080349496830
:10460000034A4905490F515CC840704700100240F9
:10461000DCB1000810B5064841680C20014005488F
:1046200005D0042903D0082901D100F005F810BDF8
:104630000010024000127A0010B50C4C6168012293
:1046400012040B48114002D0891A00D14000E16ADF
:104650000907090F491CFDF745F961680F2292040B
:104660001140890C891C484310BD00000010024015
:1046700000093D0010B50924E40620212046FEF77C
:1046800046FC80212046FEF742FC40212046FEF7F2
:1046900031FCFEF7B7FC01210348FEF738FC10217E
:1046A0002046FEF734FC10BD0004004810B5102071
:1046B0000924E406A0627020FFF74AFB01211C20B8
:1046C000FFF732FC04211D20FFF72EFC1C20FFF712
:1046D0006FFB1D20FFF76CFB1020A062082100205B
:1046E000FFF722FC0A2006F065FB0A210020FFF7F5
:1046F0001BFC01210846FFF717FC01210220FFF7F0
:1047000013FC03210846FFF70FFCFF210420FFF7ED
:104710000BFC094C0520A178FFF706FC2721062099
:10472000FFF702FC0521E01CFFF792FB0522E11CCC
:104730000020FFF781FB10BD3403002010B50446B4
:104740000020FFF735FB0146002C02D0012C03D0DE
:1047500004E04108490001E0012001430020FFF787
:10476000E3FB10BD10B510200921C9068862FF20A7
:104770002D3006F01FFBFF21E120FFF7D5FBFF21C5
:104780000720FFF7D1FB094C0520A178FFF7CCFBF0
:1047900027210620FFF7C8FB0521E01CFFF758FB87
:1047A0000522E11C0020FFF747FB10BD3403002069
:1047B000024800214175502101767047D601002042
:1047C00010B5012109060E4C0028206809D00A12F4
:1047D000904320602068884320600020FEF754FF4B
:1047E00010BD0843206020688001C00FFBD002206C
:1047F000FEF74AFF0C21606808400828FBD110BD75
:1048000000100240F8B5214E00257078012802D032
:10481000002802D002E0682500E05C251C48FF214A
:104820000079353148431B494018FF302130817CE5
:10483000182901D3491C00E0891C174FCCB23978E4
:10484000601C814202D1FF2003F0CEFA7078009004
:1048500012A314A207210420FFF786FD002003F015
:10486000C3FA3878A04204D105F0D4FAFF2003F04F
:10487000BBFA707800900DA30EA207212846FFF71F
:1048800073FD002003F0B0FAF8BD000034030020EF
:1048900070010020D4040020C6000020B7B5BBD8AA
:1048A0000000000052657475726E0000CFC2D2BB6A
:1048B000D2B300004E65787400000000704700001D
:1048C0000149487070470000510100200148012152
:1048D00001727047CC010020014908707047000048
:1048E0005101002001484169C16070475801002012
:1048F000024901484881704770170000700100208C
:1049000070B5214CFF2101312046FEF778FE0028CA
:1049100039D002F0F1FC012040020921C90688616A
:10492000A06240008862194800240480184D0120CC
:104930002870FDF751FC06F0D7FB1648017B0029D3
:1049400004D0047303F0C6F906F0FAFBFF2004F06C
:10495000F3FF00F021F801200007FEF727FD04F027
:104960007DFB0120FFF72CFF01210846FEF71CFB11
:104970000020FFF725FF6878002802D072B6FFF705
:10498000B3FB02F045FD70BD000400482A01002081
:104990004801002034030020F0B587B001200090CA
:1049A000019000200290039002200924E406049064
:1049B00069462046FEF7BAFD0A4D2046294603F017
:1049C0008FF9094E0948314603F08AF9084F094822
:1049D000394603F085F9A561064887610348866179
:1049E00007B0F0BD731D0000FBFE0000000400488E
:1049F000FFFF0000001400481FB504460A480BA141
:104A0000827801A800F096FC012101A8FDF7FAFDCB
:104A10006621081A01210091C0B205A301AA21460E
:104A2000FFF7A2FC1FBD0000E80200202564000083
:104A300020000000F0B523480121C26991B089032C
:104A40000A43C261C06900240840109048101E4FFC
:104A50000594022501260090029403946946049669
:104A600001953846FEF762FDA80305940090029474
:104A700003946946049601953846FEF757FD0320D6
:104A800080030690FF20053007900720000208A948
:104A900061C10C940D940E9428020C4C0B9006A945
:104AA0002046FEF7FBFD6068102188436060606867
:104AB000082188436060206840210843206011B0CD
:104AC000F0BD000000100240000400480038004023
:104AD00003498A689207D20FFBD008737047000021
:104AE0000038004010B50022064B07E0DC692406C0
:104AF000E40FFBD0845C1C85521CD2B28A42F5D3F1
:104B000010BD000000440040704700002048012113
:104B100002688A430A4302600068084037D01D4893
:104B2000016801221143016001688907C90FFBD0A8
:104B30000268012109048A43026005224168D20407
:104B40003D231B04994311434160C16A09090901CE
:104B5000C1620168012212061143016001688901E6
:104B6000C90FFBD04168F0229143416041680722A0
:104B700012029143416042680221920892000A4366
:104B800042600C22416811400829FBD17047FEE7C2
:104B90000020024000100240134801680122114326
:104BA00001604168114A114041600168104A11409A
:104BB00001600168012292049143016041683F2233
:104BC000120491434160C16A09090901C162016B84
:104BD000FF22143291430163416B4908490041634C
:104BE0000021816070470000001002400CB8FF08EF
:104BF000FFFFF6FE10B501200949C043086101F02E
:104C0000E3F806F0C3F804F0CFFD04F06FFEFFF701
:104C100087FC00F0A1F801F0CDF805F05DFF10BDB4
:104C20000020004004480169C907C90F02D00121D2
:104C3000C943016170470000004001407047000017
:104C400004480169C907C90F02D00121C9430161A4
:104C500070470000000400400EB500210191029150
:104C60000A2802D202460DA105E06428024601D2BC
:104C70000CA100E00DA101A800F05CFB012101A83E
:104C8000FDF7C0FC012100917E21081AC0B208A3E3
:104C900001AA0221FFF768FB0EBD00002020256459
:104CA00025250000202564252500000025642525F4
:104CB0000000000008B57F2002220021C00501F09D
:104CC000CFF8022001F0A2F9044800900B23322211
:104CD00006212F20FEF7DCF908BD0000FF010000CF
:104CE000F3B51C4881B041780298FDF78BFC802118
:104CF000091ACA0F5118C9050C0E2018C6B201981E
:104D00002246010140181530C5B228460C30C7B202
:104D100000203B4629460090FEF7BAF9002000909B
:104D20003B46802229463046FEF7B2F909484178D1
:104D300002290BD0062909D0032907D00091029B34
:104D400020461A460199FFF70FFBFEBD0120009097
:104D5000F5E70000340300200349C88C002801D087
:104D6000401EC88470470000CC000020FEB5244CD3
:104D70000646628C0A2A01D222A102E0642A03D2EA
:104D800021A101A800F0D6FA012520A301AA3146ED
:104D900006200095FFF7E8FA1DA231461220FEF723
:104DA00083FAE2790A2A01D216A102E0642A03D228
:104DB00015A101A800F0BEFA14A301AA31461820DB
:104DC0000095FFF7D1FA13A231462420FEF76CFAC2
:104DD000227A0A2A01D210A102E0642A03D210A189
:104DE00001A800F0A7FA09A301AA31462A200095DC
:104DF000FFF7BAFA0CA231463620FEF755FAFEBD8F
:104E0000CC00002030256400256400002000000054
:104E1000480000004D000000302564202F000000F5
:104E20002564202F000000005300000010B5084842
:104E3000406800280AD104F069FDFF2101310548CE
:104E4000FEF7DDFB002801D0FFF75AFD10BD000082
:104E50004801002000040048F7B584B00025019502
:104E6000029504F09BFC00284BD03E4C3E4E20782F
:104E70000127642805D35923562243212A2000966E
:104E800057E03A48007B00283BD1FF2101313848E8
:104E9000FEF7A7FB002834D10698002800D0A570A3
:104EA000049800282FD0334D412358224021282038
:104EB0000095FEF7EDF800244123E11829220E4663
:104EC0002820FDF713FA2846FEF7CCF94123582293
:104ED00031465720FDF70AFA2846FEF7C3F9641C4D
:104EE000E4B21A2CE8D35C2358225B2128200095D9
:104EF000FEF7CEF855235B22472158200095FEF798
:104F0000C7F807B0F0BDA078C01CC0B2A0702A28B6
:104F100008D90320A0705923542243212A20009548
:104F2000FEF7B6F8A07859232730C0B2C21C43213F
:104F30000096FEF7ADF822780FA101A800F0FAF96B
:104F4000012101A8FDF75EFB8021081AC10F081896
:104F5000C005000E09A301AA03210097FFF704FA78
:104F6000CFE700002C010020FF01000034030020E7
:104F70000004004818C60000256425250000000034
:104F800010B50548C169C906C90F03D010210162D7
:104F900005F01CFF10BD00000038014010B50548A9
:104FA000C169C906C90F03D01021016205F05CFF79
:104FB00010BD00000044004070B531490A78314905
:104FC0000B2A097806D0062A03D1032901D1FDF75F
:104FD000D9FC70BD0229FCD12B4CA37B002BF8D04F
:104FE000FF226273294A012B07D03B25022B19D0DF
:104FF000032B2BD00020607370BD244BC507DB7FD3
:1050000001D05B1C04E0800703D5002B06D05B1E9B
:10501000D377D07F022801D90220D077D07F02F049
:10502000FFFD26E0194BC6079B7F01D05B1C04E007
:10503000800703D5002B05D05B1E9377907F3B281C
:1050400000D99577907F03F043F912E00F4BC60724
:105050005B7F01D05B1C04E0800703D5002B05D0EB
:105060005B1E5377507F3B2800D95577507F04F063
:10507000C9FB002001226073114601F041FE70BDA2
:10508000C5000020C6000020CC000020E80200205F
:1050900010B5084C04212046FEF7A0F9012040037A
:1050A00060604010606004212046FEF78BF900F03C
:1050B0006BF810BD0000024070B50E4E0521304661
:1050C000FEF7A4F91425281A01060B4C090E617588
:1050D0000ED005213046FEF775F9084801684908E9
:1050E00049000160607D142800D965750120207594
:1050F00070BD000000000240F001002000440040AC
:1051000010B50120FEF72EF91D4C1C4A0521204642
:10511000FEF7E6F91B4A05212046FEF7ADF91422F9
:1051200005212046FEF78AF9002205212046FEF7D8
:1051300093F90122520305212046FEF771F900225E
:1051400005212046FEF7D6F9802205212046FEF7EC
:105150009DF9002205212046FEF7DAF900220521FB
:105160002046FEF7A1F9002205212046FEF7AAF904
:1051700005212046FEF73EF910BD00002444004002
:1051800000000240F001002002480021017550217A
:10519000C17570470602002070B50120FEF7E2F8E5
:1051A000204C1F4A04212046FEF79AF91E4A04218A
:1051B0002046FEF761F9142204212046FEF73EF94D
:1051C000102204212046FEF747F901256D032A46E7
:1051D00004212046FEF724F9002204212046FEF790
:1051E00089F9802204212046FEF750F9002204218B
:1051F0002046FEF78DF9002204212046FEF754F9DF
:10520000002204212046FEF75DF96560A01460606D
:1052100000210B20FEF724FF0B20FEF7EBFE70BDF4
:10522000284400400000024006020020F0B5264855
:105230000121C2698FB049040A43C261C0690125D6
:1052400008400D9004200226032704956A46C1C237
:1052500000240920694605950394C006FEF766F907
:10526000082004956A46C1C2092069460595039441
:10527000C006FEF75BF900211C20FEF7F1FE1C20A2
:10528000FEF7B8FEE12040020690079408940994C6
:105290000B940C940C200D4C0A9006A92046FEF7A6
:1052A000CFFAA06840210843A060A068802108438D
:1052B000A0602068284320601020206221680143FC
:1052C00021600FB0F0BD000000100240004400401B
:1052D00070B5144909780B2923D1134D2978022977
:1052E0001FD1124CA27B002A1BD0030703D5032A2F
:1052F00007D2521C04E0400713D5012A01D9521EDF
:10530000A273FF200A4E6073F07F02F089FCB07F29
:10531000297802F0DDFF707F297804F073FA00200D
:10532000607370BDC5000020C6000020CC000020C6
:10533000E80200200FB410B504A9074B02AA039895
:1053400000F0ECF8044602A9002000F089FC204699
:1053500010BC08BC04B01847615C00082021020C96
:1053600001D010211046020A01D008391046020966
:1053700001D0091F1046820801D0891E104642083C
:1053800001D0881E7047081A704730B47446641EF6
:105390002578641CAB4200D21D46635D5B00E318B8
:1053A00030BC184702E008C8121F08C1002AFAD111
:1053B00070477047002001E001C1121F002AFBD195
:1053C00070470000F0B51FB484B007980699020D2D
:1053D00001430FD10F98012449A3012807D0049855
:1053E0000F9A84600360C260416009B0F0BD0E98FE
:1053F000C143F4E7434844491018484305140F9843
:1054000001280E980BD0281A401C00243F4E40491A
:10541000009401910290002803DA474216E04042CE
:10542000F3E7074612E0F80707D022463346019912
:105430000098FCF77DFD019100902246334610460E
:105440001946FCF775FD04460E467F10002FEAD181
:105450000298019B0028009A0799069802DAFCF747
:1054600067FD01E0FCF7CCFD04460E460022294B07
:10547000FCF75EFE03D80020C043014607E000228F
:10548000254B20463146FCF74BFBFCF731FE102440
:1054900009E0002C0ADB0A220023FCF753FC059BE1
:1054A00030321A55641E02460A43F2D1641C11229E
:1054B000059B121B1C190F9B012B08D001230843CD
:1054C00002D10E9882420DDD00236D1C0EE00843D0
:1054D00003D10E98151A6D1E0AE011200E900020BF
:1054E0000F908CE7824201DA00236D1E002B86D0DC
:1054F00004980F99456004608260C16075E7000000
:105500003000000001FCFFFF104D000000002440AF
:105510000000F03F0000F0430000E03FFFB597B00F
:10552000064600251FE2252879D10024F94927469F
:10553000761C049432780120203A904002460A42B8
:1055400002D00443761CF5E730782A280ED00222D8
:10555000307801463039092916D804990A2359436D
:10556000303940181443761C0490F1E7189802C8AB
:1055700004911890002904DA0120400304434842B2
:10558000049002200443761C30782E2814D1042085
:105590000443761C30782A2809D11898761C80C8D4
:1055A000189009E00A214F43303FC719761C307824
:1055B000014630390929F5D930786C2810D006DC3D
:1055C0004C281AD068280ED06A2817D104E0742815
:1055D00013D07A2812D110E00120400504430CE0DA
:1055E0000121090501E0032109050C43717881427D
:1055F00003D10120761C00052418761C3078119008
:1056000066280BD013DC58287ED009DC00287CD01B
:105610004528F6D04628F4D047281AD1AAE118E048
:10562000632836D0642871D0652812D1A2E1702891
:105630006DD008DC6728F1D069287CD06E280DD0A9
:105640006F2806D1BDE073282FD0752872D0782836
:105650005AD01A9A199990476D1C83E16002400F45
:10566000022809D003280DD00428189801680DD00D
:10567000001D0D60189075E11898EA1702C80D60BA
:105680004A60F7E7189802C80D80F3E7001D0D7017
:10569000F0E718986A460178001D117218900020F2
:1056A000507202A80090012005E0189802C81890D6
:1056B00000200091C04361070DD5002101E0019950
:1056C000491C0191B94212DA8142F8DB009A515C1F
:1056D0000029F4D10BE0002101E00199491C01915E
:1056E0008142FADB019A0099895C0029F5D1019980
:1056F00004981A9B471A21463846199A00F09AFADC
:105700000199401945180BE051E030E113E050E0F9
:10571000009800990078491C00911A9A19999047AD
:105720000198401E0190401CF2D1214638461A9B38
:10573000199A14E139E00A200021009001916002D9
:10574000410F022907D0189A01CA1892C21794462D
:1057500003290AD00CE01898C01DC108C9004A6886
:10576000086808319446189107E000B2C2179446C1
:10577000042902D140B2C1178C46002261469445EB
:1057800006DA0A460021404291418C462D2102E072
:10579000210504D52B216A461173012103E0E1079D
:1057A00001D02021F7E7029151E00A200AE0102001
:1057B00008E01020009000210420044301910827F4
:1057C00003E008200021019100906002410F0229AE
:1057D00007D0189A01CA18920022944603290AD0C9
:1057E0000AE01898C01DC108C9004A680868083155
:1057F0009446189103E080B2042900D1C0B2002180
:105800000291210723D51199702928D0009A1021DF
:10581000019B4A401A4309D16146014306D0302119
:105820006A4611731199517302210291009A08215D
:10583000019B4A401A430AD16146014301D16107E5
:1058400005D530216A46117301217F1E02911199FD
:10585000582909D030A10E910DA90D9112E04021D7
:105860006A4611730121E0E730A1F4E76146019B2C
:10587000009AFCF767FA0E9B8C469B5C0D9A521EB1
:105880000D92137061460143F0D10D9805A9081AD5
:1058900020300190600703D501200004844300E01C
:1058A00001270198874201DD381A00E000200199A4
:1058B00000904118029809180498401A0490E003D7
:1058C00006D421461A9B199A049800F0B3F9451999
:1058D000002706E003A81A9AC05D199990476D1C2D
:1058E0007F1C02988742F5DBE0030CD521461A9B0A
:1058F000199A049800F09EF9451904E01A9A30208C
:10590000199990476D1C0099481E00900029F5DCFC
:105910001FE00000092801003031323334353637BA
:1059200038396162636465660000000030313233EB
:10593000343536373839414243444546000000008B
:105940000D980D990078491C0D911A9A1999904754
:105950006D1C0199481E01900029F1DC4CE100F01A
:1059600059F94519761C3078002800D0DBE5284627
:105970001BB0F0BD600700D406271898C01DC108F1
:10598000C90048680A680831C30FDB07189119007D
:1059900001D09CA108E0210501D59BA104E0E1070D
:1059A00001D09AA100E09AA1430011985B081091E0
:1059B00065280CD006DC452809D046281DD047288C
:1059C00041D141E0662818D067283CD13CE0002155
:1059D000112F01DB112000E0781C0191009008A933
:1059E00011A8FFF7EFFC139905910021119A159268
:1059F0007F1C12980197009150E00120C00703908E
:105A00000120019008A9009711A8FFF7DBFC139A69
:105A1000149905920022119B009212981593059AF1
:105A20000192002901D0104602E0791C4018019033
:105A3000381A01D5019804E04042401E0090781CBD
:105A40000190C01B029043E0012F00DA01270021E2
:105A5000112F01DD112000E038460191009008A9C6
:105A600011A8FFF7AFFC13990591119A0021129824
:105A700015920091019721070CD40599B94201DBD9
:105A8000019900E00191012904DD159A491E515C3C
:105A9000302906D0B84201DA011D05DA0121029150
:105AA00015E00199491EEDE7002805DC0099411831
:105AB00000910199091A03E0019A411C914200DD0D
:105AC00001910099401A401C02900120C0070390E8
:105AD000200706D402990198814202DB0020C043CE
:105AE000029000206946C87707AF01210398033769
:105AF000C907884224D0022011902B2012900398CD
:105B000000280CDA404203902D20129007E00A2171
:105B10000398FBF7E7FE30317F1E0390397011992F
:105B2000481E11900029F2DC03980028EFD1791E5D
:105B3000129808703078202108404530BF1E387018
:105B400006A8C01BC01D039010980078002800D044
:105B50000120019941180298C017091803980918E3
:105B60000498401A401E0490E00306D421461A9B74
:105B7000199A049800F05EF84519109800780028EA
:105B800003D01A9A199990476D1CE00323D521463A
:105B90001A9B199A049800F04DF845191BE00098DB
:105BA000002807DB00990598884203DD1598405CC2
:105BB000199901E0199930201A9A904700986D1CA4
:105BC000401C00900298401E029004D11A9A2E2088
:105BD000199990476D1C0199481E01900029DEDC3F
:105BE00005E038781A9A7F1C199990476D1C039923
:105BF000481E03900029F4DC21461A9B199A049848
:105C0000ADE600002D0000002B0000002000000089
:105C100000000000F8B5044600251E46174688041B
:105C200004D405E039462020B0476D1C641EF9D528
:105C30002846F8BDFFB50446002581B01E46C803BE
:105C400001D5302700E02027880404D505E0384638
:105C50000399B0476D1C641EF9D5284605B0F0BD08
:105C60000A68531C0B60107070470000F8B5374C81
:105C7000054620780E46012809D0022807D00F28B3
:105C800005D0122838D132480078002834D1FCF7EA
:105C9000A9FCFF2830D00123FF272E492E4A002ED1
:105CA0002BD06E070FD52478012C01D0022C02D105
:105CB0001479002C20D15371284A57701622504372
:105CC0004018437136E02D070AD52478012C01D005
:105CD000022C02D11479002C0ED15371022225E03E
:105CE00000245471162250434018437184710122DC
:105CF0000321002001F004F8F8BDEE070AD0247853
:105D0000012C01D0022C02D15479002CF4D1137152
:105D100003220BE0AD070FD52478012C01D0022C13
:105D200002D15479002CE7D1137104221623584371
:105D3000401842718771DAE7002313711624032299
:105D40006043401842718371D1E70000C500002014
:105D5000DA0000201F02002051010020E80200208C
:105D600070B5124C02252078114E0F2809D0012859
:105D700010D0022804D102220321002000F0C0FF2D
:105D800070BD02220321002000F0BAFF0320207022
:105D9000357008E002220321002000F0B1FF2570D9
:105DA000357000F01BF800F0E5FA70BDC50000206A
:105DB000C600002003484168002901D0491E416007
:105DC00070470000480100200349C888002801D01E
:105DD000401EC88070470000580100200248002182
:105DE0000185418570470000CC0000203EB5044687
:105DF0000A2901D3642902D20A4611A10DE07D20AF
:105E0000C000814202D20A460FA106E010480A46AD
:105E1000814201D20FA100E00FA101A8FFF78AFA89
:105E2000012101A8FCF7EEFB7E21081A0121009157
:105E3000C0B20AA301AA2146FEF796FA3EBD0000B1
:105E400020202025640000002020256400000000A0
:105E500010270000202564002564000020000000B9
:105E6000F7B58AB0002516460446069503F096FC61
:105E7000002879D1434F012E08D02046FBF709FFB7
:105E8000C4B20A2C0BD81F20C00209E03C780A2CAF
:105E900002D81F20C00200E03B48F86001E03A4809
:105EA0003861FF21079001313848FDF79AFB01283E
:105EB00004D0022E02D03878642809D3204612215B
:105EC00048436421FBF70EFDC0B2314600F070F884
:105ED0000A2C02D222462EA105E0642C224601D2D1
:105EE0002DA100E02EA101A8FFF724FA012101A8AD
:105EF000FCF788FB0B9A012A02D0002A02D03AE074
:105F0000102538E0012E02D0022E04D033E06122A9
:105F1000101AC5B22FE002252DE0FCF7B2FF06985B
:105F20000B23205C6A1D2038C4B202212846FCF7EE
:105F3000DDF90C2044431C48002620180490875D9E
:105F400000240120A040384201D0079800E0174803
:105F5000FDF788F9641CE4B2062CF2D3761CF6B285
:105F60000C2E02D20498EAE70AE0AD1D0698EDB2C5
:105F7000401CC0B20690069801AC205C0028CCD131
:105F80000DB0F0BD2C010020FF010000000400480E
:105F900020202564252500002025642525000000FB
:105FA000256425250000000042C3000818C6000033
:105FB000F8B5054600200C460146122D22D8124A9B
:105FC000012C02D0022C03D004E06320D16801E050
:105FD00011691C204619721E0091D2B20C230521B2
:105FE000FDF756F81220411BF0B24118491ECAB203
:105FF0000021012C01D0022C04D100910C23052199
:10600000FDF746F8F8BD00002C010020F8B5012886
:1060100002D0022805D00AE00E2379220221622054
:1060200003E00E23322202211B20FCF75FF9002639
:10603000FCF727FF700030180025009000984119E8
:106040000B480024475C0120A040384000D009489C
:10605000FDF708F9641CE4B2082CF4D36D1CEDB212
:10606000032DEBD3761CF6B20E2EE1D3F8BD000063
:1060700018C3000818C6000008B503F08FFB0028FD
:106080001AD187237F2228210090FDF701F80B48C1
:10609000002100900F237F220846FCF7F9FF012022
:1060A000FFF7B4FF064800900B23792206217620E3
:1060B000FCF7EEFFFEF7FEFD08BD000018C600006D
:1060C000FF01000070B586B0044614216846FBF756
:1060D00038FC1E4D2878002835D020784E2802D074
:1060E00001211BA02DE00120694606E00B18203B92
:1060F000401CC0B2DA77142802D2225C002AF5D103
:10610000091800262039CE772018817840780C02B3
:10611000044310A004F030FE024669460DA0FBF7D0
:106120001BFC002803D02E7001210DA009E00720E0
:10613000400384422E7002D8AA2001F087FC01217E
:1061400008A0FEF7CFFC06B070BD00005001002093
:10615000470000004C472D30362D435452000000BC
:106160004E0000004600000038B5294A441C527811
:10617000002A15D0012A30D101293DD002293DD075
:1061800003293DD004293DD005293DD006293DD025
:10619000072922D11FA1FEF7A3FDE0B222A120E032
:1061A00001291BD002291BD003291DD004291DD091
:1061B00005291DD006291DD007290ED11FA1FEF7E4
:1061C0008FFDE0B221A1FEF78BFD01200090E1B22E
:1061D0001DA323A26020FEF7C7F838BD21A100E06F
:1061E00025A1FEF77DFD38BD28A1FAE72CA1F8E72F
:1061F00030A1F6E734A1F4E738A1F2E73CA1F0E7DB
:1062000040A1EEE744A1ECE748A1EAE74CA1E8E7AA
:10621000340300204661696C656420746F207365E7
:106220007420412F42200000706F696E742020207E
:10623000202020202020202020200000C9E8D6C3D4
:106240004142B5E3CAA7B0DC00000000C8CED2E2EC
:10625000D2BBD6E1D0EBB4F3D3DA2020B6C800002D
:1062600031000000C9E8D6C3C2EBD6B520202020FB
:106270002020202020200000C9E8D6C3C2EBD6B5DC
:10628000CDEAB3C92020202020200000B6D4C2EBE4
:10629000D6D02020202020202020202020200000D8
:1062A000B6D4C2EBCDEAB3C9202020202020202084
:1062B00020200000B6D4C2EBB3ACCAB1202020200D
:1062C0002020202020200000D5FDD4DAD7D4B6AF7E
:1062D000D1B0D5D241204220B5E3000053657420EF
:1062E000436F6465202020202020202020200000F3
:1062F000436F6465205375636365737366756C20C3
:106300002020000050616972696E672E2E2E2020B9
:10631000202020202020000050616972204F4B2057
:1063200020202020202020202020000050616972A1
:10633000696E67206F766572202020202020000083
:1063400046696E64696E6720414220706F696E74A1
:1063500020200000014908707047000070010020F3
:1063600010B5FF2101310248FCF7C4FD10BD00004B
:106370000004004810B502F097F80548007800289E
:1063800005D0112803D00348007803F01FFB10BD8F
:10639000C5000020C600002001460020054A012952
:1063A00006D0022903D15178032900D1012070477A
:1063B0001178F9E75101002038B500F013FE0C4DBB
:1063C000E88C002813D10B48E8840B4800240470A3
:1063D0000A48047002F068F8A0237F228C21002074
:1063E0000094FCF755FE002002F004F8AC7438BDB0
:1063F000CC00002010270000C6000020C5000020AF
:1064000010B50178032921D1417802291ED1817864
:1064100003291BD1C178042918D10179052915D187
:106420004179062912D1817907290FD1C17908292B
:106430000CD1017A092909D1407A0A2806D10449E8
:1064400001200870014603A0FEF74CFB10BD0000C0
:10645000500100204700000010B500230B541A46DD
:1064600004E08C5CE318521C9BB2D2B28242F8D397
:10647000D8B210BD10B5FF2101310648FDF7AAF8CA
:10648000002805D00448407B002801D0FEF738FAE8
:1064900010BD0000000400481601002010B50023C4
:1064A0001A4604E0845CE318521C9BB2D2B28A42C2
:1064B000F8D3405CDAB2904201D0002010BD012038
:1064C00010BD000010B5C14909780B00FEF75DFF53
:1064D000140B212B436175E891A2E7E6E5F1B6CCF8
:1064E00039E3E2E1E017002878D00128FCD0022847
:1064F00002D0032804D005E0B5A1FEF7F1FB10BDE2
:10650000B8A1FAE70428EFD00528EDD00628EBD093
:1065100010BD0028E8D00128E6D00228E4D00328E6
:10652000F0D1B5A1E9E70028DED00128DCD00228AF
:1065300005D00328D8D00428E6D1B2A1DDE7B6A162
:10654000DBE70028D0D00128CED00228CCD0032809
:10655000D8D1B4A1D1E70028C6D001280AD002289A
:106560000AD003280AD004280AD005280AD0062811
:106570000AD00BE0AEA1C0E7B1A1BEE7B4A1BCE771
:10658000B7A1BAE7BAA1B8E7BDA1B6E70728ABD073
:1065900010BD002825D0012876D0022875D0032808
:1065A00060D0042807D005287FD0062858D00728B7
:1065B000EED1B7A1A1E7B8A19FE7002811D001282B
:1065C0004AD002280FD0032861D004280DD0052816
:1065D0000DD0062856D00728DAD100E0F2E0B3A1AA
:1065E0008BE7B7A189E7BAA187E7BEA185E7BFA17D
:1065F00083E700280CD0012885D0022885D0032805
:1066000085D0042886D0052884D0062884D0BDE70C
:10661000ACA172E700280FD0012885D0022885D0D0
:10662000032887D0042885D005288BD0062889D058
:106630000728ADD1B2A160E7B7A15EE700280DD071
:1066400001286FD002280BD003286ED0042809D06F
:10665000052865D0062899D1B3A14EE7B7A14CE72C
:10666000BBA14AE7BFA148E700281AD001281AD0E9
:1066700002281AD003285CD0042818D0052886D018
:10668000062883D1BCA138E74FE049E00DE050E097
:10669000A3E291E28BE07DE00BE01EE04BE063E0E3
:1066A0002EE0BAA129E7BEA127E7C2A125E7C6A12E
:1066B00023E7002809D0012809D0022809D003289F
:1066C00009D004289FD1C4A117E7C7A115E7CBA122
:1066D00013E7CFA111E7D3A10FE700280AD00128C3
:1066E00025D0022808D0032808D0042821D0052866
:1066F00014D00BE7D0A100E7D2A1FEE6D6A1FCE6BC
:10670000002829D001280BD002280CD003280CD057
:1067100004280CD005280CD006289CD1D3A1ECE687
:10672000D6A1EAE653E2DAA1E7E6DEA1E5E6E2A1D8
:10673000E3E6E6A1E1E600280ED0012842D00228D7
:106740000CD003283ED004280AD005280AD00628F9
:1067500000D01DE7E0A1D0E6E2A1CEE6E4A1CCE6C0
:10676000E8A1CAE6ECA1C8E600282BD0012809D090
:10677000022809D0032809D0042809D00528B8D157
:10678000E7A1BAE6ECA1B8E6F1A1B6E6F6A1B4E657
:10679000FBA1B2E6002815D0012813D0022804D0AE
:1067A000032810D004280FD02DE7FBA1A5E6002870
:1067B00008D0012806D0022804D0032805D00428D8
:1067C000F2D1F5E119E216E211E2F3E1C500002091
:1067D000C1ACBDD3D2D1B6CFBFAA2020C7EBC9D49C
:1067E000BAF30000D0C5BAC5C8F5C7EBBFBFBDFC42
:1067F000D4C6CCA8000000004120B5E3C9E8D6C348
:1068000000000000CBF9C9E8BDC7B6C82020202091
:1068100020202020000000004220B5E3C9E8D6C3B4
:1068200000000000D4ADB5E3C9E8D6C30000000005
:106830002020D4ADB5E3C9E8D6C320200000000075
:106840002020C8ABBEB0C4A3CABD202000000000F9
:106850002020CAD3C6B5C4A3CABD202000000000B2
:106860002020D1D3CAB1C4A3CABD2020000000009B
:106870002020CAD6B6AFC4A3CABD202000000000A5
:1068800020202020C9E8D6C32020202000000000BE
:10689000CFC2D2BBD2B30000B6A8CAB120202020FC
:1068A000202020202020202020200000D7DCD5C55B
:1068B000CAFD202020202020202020202020000091
:1068C000B5A5B2E3C8ABBEB0C4A3CABD000000000A
:1068D000D7AACBD920202020202020202020202013
:1068E00020200000C9CFD2BBD2B30000B6A8CAB1E5
:1068F000BCC6CAB12020202020202020202000005B
:10690000200920202020202020202020202020209E
:106910002020202000000000C8ABBEB0C4A3CABD28
:10692000B2CECAFD00000000D1D3CAB1CAB1BCE4E6
:10693000202020202020202020200000C8ABBEB036
:10694000C4A3CABDB2CECAFDC9E8D6C300000000C8
:10695000BFECC3C5B4CECAFD2020202020202020BB
:1069600020200000BFECC3C5CBD9B6C82020202012
:106970002020202020200000D5C5CAFDBCC6CAFDAD
:10698000202020202020202020200000C8ABBEB0E6
:10699000C4A3CABDC6F4B6AFBDE7C3E6000000009D
:1069A000B6A8CAB1BFAAC5C420202020202020201C
:1069B00020200000CAD6B6AFBFECC3C520202020DF
:1069C000202020202020000020202020B2CECAFD40
:1069D000B2B9C5C400000000B0B4C5C4D5D5BCFC74
:1069E000B2B9C5C400000000C8ABBEB0C4A3CABDE4
:1069F000B2B9C5C4BDE7C3E60000000020202020D6
:106A0000B2CECAFDD5FDD4DAB2B9C5C400000000CB
:106A1000B0B4D7F3BCFCD2C6B5BDC9CFD2BBD5C5C7
:106A200000000000B0B4D3D2BCFCD2C6B5BDCFC20A
:106A3000D2BBD5C500000000CAD3C6B5C4A3CABD29
:106A400000000000CAB1BCE420202020202020202B
:106A50002020202020200000D1ADBBB72020202006
:106A60002020202020202020202000002020414223
:106A7000B5E3C9E8D6C3202000000000BBBACDA30F
:106A8000CAB1BCE4202020202020202020200000AB
:106A9000BFECC3C520202020202020202020202043
:106AA00020200000D5C5CAFD202020202020202045
:106AB0002020202020200000B7BDCFF22020202061
:106AC0002020202020202020202000002020C6F48C
:106AD000B6AF2020000000002020B7B5BBD8202092
:106AE00000000000D1D3CAB1C4A3CABD0000000099
:106AF000CDEAB3C9B6C820202020202020202020A5
:106B000020200000D5D5C6AC202020202020202029
:106B10002020202020200000D4DDCDA30000000094
:106B2000B0E6B1BE202020202020202020202020E0
:106B30002020202000000000D3EFD1D420202020EE
:106B40002020202020202020D6D0CEC4000000000D
:106B5000B3F5CABCBBAF202020202020202020205D
:106B60002020202000000000C1C1B6C82020202025
:106B70002020202020202020202020200000000095
:106B8000D0DDC3DF20202020202020202020202036
:106B90002020202000000000CAC7B7F1C8B7B6A85F
:106BA000D2AAD6D8C9E841204220B5E300000000AF
:106BB00013A1A2E416A1A0E400280AD001281CD049
:106BC000022808D0032818D0042800D09CE415A17E
:106BD00093E419A191E41BA18FE400280DD00128B2
:106BE0000BD0022805D0032805D00428EED11AA125
:106BF00083E41BA181E420A17FE421A17DE40000C6
:106C00002020C7EBC9D4B5C8C6ACBFCC202000003B
:106C10002020D5FDD4DAD7D4B6AFD5D2D4ADB5E3E4
:106C200020200000BDC7B6C8202020202020202022
:106C30002020202020200000CAD6B6AFC4A3CABDA1
:106C400000000000CBD9B6C8202020202020202022
:106C500020202020B5B500002020CAC72020000039
:106C6000CAC7B7F1C8B7B6A8D2AAD6D8C9E8D4ADB2
:106C7000B5E32020000000002020B7F12020000014
:106C80002020202020202020202020202020202004
:106C9000202020200000000010B5154C2078092885
:106CA00025D16078022820D1E07800281DD0032269
:106CB0000021092000F024F80320207001206070DA
:106CC0000020E07003F066FA01F0FAFC01F002F82F
:106CD00004F036FA07480849807A0864FFF74AFB4F
:106CE000FF20607105496420086004F029FA10BD96
:106CF000C500002034030020000400400C010020E7
:106D0000F7B515460F46FBF76DFCFF2870D016212E
:106D10004843824990220A5409224418A2700098DC
:106D200060700098FF230026002812D0012872D03E
:106D3000042871D0052870D006286FD007286ED09F
:106D400008286CD009286AD00A2868D00B2867D098
:106D5000DCE073487349012F0FD002464032022F06
:106D60002CD0032F5DD0704B042F6DD0052F7DD01C
:106D7000072F7CD0082F20D0C8E0E7702571012DA7
:106D80000CD0022D10D0032D10D0042D10D0052DC5
:106D90006ED0062D08D0072D0CD0B7E0417F617171
:106DA000817FA171C07F34E0407804E0C07802E0C8
:106DB000487C00E0887A6071A67177E0E770257101
:106DC000012D0ED0022D0ED0032D12D0042D15D082
:106DD000052D17D0062D13D0072D13D0082D13D055
:106DE00094E0108800E050886071000AA0715DE0B6
:106DF00093E0008D6071000AA07187E000791FE0C8
:106E000048791DE040781BE0417961718179A17179
:106E1000C079E0717AE059E06AE06CE06FE070E020
:106E200071E0E7702571012D70D0022D02D0042D84
:106E300008D06BE03D480078012801D0022865D1D8
:106E4000607163E0637161E0E7702571012D14D01A
:106E5000042D14D0092D2DD0032D2DD0052D10D0AB
:106E6000022D10D0062D08D0072D02E014E027E0F7
:106E700020E00AD0082D27D018E010799BE7407950
:106E800099E7887897E7406900E0806C1946FAF73F
:106E9000CBFDFAF7FEFEA7E7E7702571012D07D0BD
:106EA000022D07D0032D07D0042D07D0E6712DE069
:106EB000007A80E748797EE70069E7E7C8787AE7F3
:106EC000E7702571012D21D1807874E7184864217D
:106ED00000880546FAF706FDE07008460A21FAF731
:106EE00001FD20710A212846FAF7FCFC61710DE0D2
:106EF0000120E0700AE00120E070257106E0E570F5
:106F000004E0E67001E00120E070237121460820D2
:106F1000FFF7A2FA207209202075FEBD1F02002093
:106F2000E8020020CC00002000007A44C5000020C8
:106F30006001002070B50D46104914464B78820759
:106F400003D5AB4215D25B1C04E0C20703D0A342B9
:106F50000FD95B1E4B70097807290BD0082909D07F
:106F60000D2907D00E2905D002462146284600F0FB
:106F700007F870BD02F0A6FD70BD0000C50000203E
:106F800070B5174C154663788B4202D15B1CD8B2A2
:106F90001CE013494978491E834208D1C8B201F068
:106FA0007FFA6078401EC0B201F076FD13E0A807BA
:106FB00007D5C8B201F074FA6078401EC0B201F083
:106FC0006BFDE80707D06078401CC0B201F068FA9A
:106FD0006078401CE7E7607802F0F8FC70BD0000C4
:106FE000C500002010B51C48827B002A1AD0C18A37
:106FF000002917D1FF21F531C182C17CC94309069F
:10700000090EC17400D0FF2141731448017814485F
:107010000629007807D00B290CD0122902D10220B2
:1070200001F03AFD10BD0328FCD1521ED1B2FBF78E
:1070300061FD10BD0B49012A09D0022A09D0032A9B
:10704000F7D14A7F0146104600F0C4F910BDCA7F4F
:10705000F8E78A7FF6E70000CC000020C50000209A
:10706000C6000020E802002010B51A49897B0029DB
:1070700017D119490978C91E0B00FEF786F9110AC4
:10708000181B131D1D1B152312201B12261212265E
:10709000120001220621FFF74DFF10481049007829
:1070A000087010BD012200E0052206210FE0012238
:1070B00007210CE0012209E002F084FE10BD01224C
:1070C000082104E00122052101E003220421FFF749
:1070D00031FF10BDCC000020C5000020C6000020FC
:1070E000C700002070B50D4C0E0725780C4CA48C01
:1070F00007D5904201D200190AE00D2D00D11846A3
:1071000070BD4907FCD5984204D9A042F8D3001BB2
:1071100080B270BD0D2DFCD1104670BDC5000020A1
:10712000CC000020F8B52F4B2F4C304D187800279D
:1071300062792978062813D01E460A280FD105291E
:1071400044D006290BD16771062202210020FFF7E7
:10715000D7FD0620307005202870FFF70BF9F8BD29
:10716000052912D00326062925D00329F7D1002AA4
:10717000F5D1A07B002827D0A773FF2060730320E0
:1071800001F08AFC00206073F8BDFF2060710A20C6
:107190001870FFF7EFF80320FDF7E8FDA0237F222A
:1071A0008C2100200097FBF773FF062202210020AC
:1071B000FFF7A6FDF8BD002AFCD11C4602F0B6FB85
:1071C000102020702E70C8E7A673F8BDD043607100
:1071D000062202210020FFF793FD052001F05CFC50
:1071E000F8BD0000C5000020CC000020C600002033
:1071F00070B5FBF7F7F9FF2833D016225043194A30
:10720000902111548418002161700925A570062071
:10721000E0701548154A03781548072B02D0082B53
:1072200006D018E000789278904214D80C220CE036
:107230001279FF2335335A430E4B0078D218FF32B0
:107240002132927C824206D30D2222716071A1719B
:10725000E17101F0A1F921460820FFF7FDF8207245
:10726000257570BD1F020020C500002070010020A0
:10727000C6000020D404002038B519480024017845
:107280001848072902D0082903D014E08078401C50
:1072900010E00179FF2235325143134A8918FF313A
:1072A0002131897C491CCCB2062C04D98079062175
:1072B0004843201AC4B200210CA0FBF7A3F9802197
:1072C000081AC10F0818C005000E072C07D20021AC
:1072D000009108490B6821461A46FDF745F838BD6C
