:020000040800F2
:1018000080120020C9180008DD400008B930000827
:1018100000000000000000000000000000000000C8
:10182000000000000000000000000000B14D0008B2
:101830000000000000000000B14800081950000836
:10184000DB18000800000000294C0008DB18000825
:10185000DB180008DB180008FD2B0008112C00081D
:1018600000000000392900083B290008432900082E
:10187000DB18000859510008DB18000800000000C0
:101880005D510008DB180008000000000D51000841
:1018900041510008DB180008DB180008DB180008BD
:1018A000DB180008DB180008DB18000805550008E5
:1018B000215500080348854600F04CFC00480047CD
:1018C00069890008801200200448804704480047C6
:1018D000FEE7FEE7FEE7FEE7FEE7FEE7B1500008A1
:1018E000B518000830B50B4601460020202201241F
:1018F00009E00D46D5409D4205D31D469540491B44
:101900002546954040191546521E002DF1DC30BD8C
:1019100003460B439B0703D009E008C9121F08C008
:10192000042AFAD203E00B780370401C491C521EB3
:10193000F9D27047D2B201E00270401C491EFBD2BE
:1019400070470022F6E710B513460A4604461946CA
:10195000FFF7F0FF204610BD30B5054600200346D6
:1019600000E05B1C934205D2EC5CC85C201A01D1FC
:10197000002CF6D130BDF8B502464A40D40F4200E3
:101980004B0052085B089A4202D2024608461146B2
:101990004A0023D0C30D4A00DDB2120EAD1A202D2D
:1019A00035DA49020126490AF6058A19002C00D0C9
:1019B000524220214F1B1146B9402A411018C20D36
:1019C0009A4221D0002C17D0012D08DCDA05801AAC
:1019D000D20F8019D207DBB200F00FFAF8BDDA059A
:1019E000801A012340001B06C01880185A42801834
:1019F000CA0F1043490007E04908C2071143DA053E
:101A0000801A80194008801800F0EFF9F8BD6100D5
:101A10000122511A001BF7E70122D2075140AAE721
:101A20000122D2075040A6E7024670B54A40D30FC4
:101A3000DB0740002DD04A002AD0010E140E000210
:101A400012020919400A520A8418E5010446544357
:101A5000000A120A2E045043A4194219200CC5434F
:101A6000AA18120C0125AD03521C521912047F3919
:101A7000240400D0521C104301D44000491EC2B2BD
:101A80000C06C0092018401C4008802A02D003E040
:101A9000002070BD40084000002900DA00201843F3
:101AA00070BD70B502464A40D50F40004A00ED07B0
:101AB00040085208002814D0002A12D0C40DD30DBB
:101AC00041020120C0055202490A520AE41A0918CB
:101AD00012187D34914201D3641C00E04900002CAF
:101AE00001DA002070BD0023914201D3891A03431B
:101AF000400849000028F7D100290AD0914202D1BC
:101B00000121C90705E0914201D2012101E0012133
:101B1000C943E005C018401900F067F970BD000026
:101B2000F0B507460846584087B0C00F04904800FB
:101B30000E46590040084908BC1A884105D238466B
:101B400031461E4617460B460246580040081043D1
:101B50004CD0300D039040055900400D490D0590C3
:101B6000401A0290402872DA18030121000B09057F
:101B70000843019004980092002805D00199524230
:101B80000020884100920190029840210A1A019990
:101B9000009800F007F905460C466B4607CB00F0AD
:101BA00011F9C0197141039A0E0D0023D717564041
:101BB0001A467A40164344D0049A002A2DD0029A3D
:101BC000012A039A15DC1205C01A91410126360537
:101BD000001C7141D20F059ED2070093019202961C
:101BE0002A46234600F04FF907B0F0BD384631468B
:101BF000FAE71605224A0F46B218C01AB74101216A
:101C00000905001C4F4100187F4111461818794101
:101C1000E20F10436D19644113E0E2076D081543AC
:101C20006408C2071443039A01261205C01A9141A1
:101C30003605001C7141CE07400830434908C018E2
:101C400051412A46234600F011F9CDE7FFE70498F9
:101C500001224000C117121A00238B41049831461B
:101C6000C417381AA141EEE730B40124E4076340F9
:101C700030BC55E730B40124E407614030BC4FE785
:101C80000000E0FF10B500229623114600F0B5F8E1
:101C900010BD410040020122400AD205090E801801
:101CA0007F2901DA00207047962903DC9622511A19
:101CB000C8407047963988407047C20FD20740002D
:101CC00040080BD0C10D0723DB01C91840020905EC
:101CD000400A1143C20840071143704700200146E3
:101CE0007047CB0FDB07490010B5490802460A438D
:101CF00007D00A0D07240903E401090B121B002A6F
:101D000001DC002010BDC900440F0C43C100E018E5
:101D1000D205801800F069F810BD00000122D2073A
:101D2000002800DB101A002900DB511A814270479D
:101D30000122D207002800DB101A002900DB511A0B
:101D400088427047F0B51FB40646002082B00546B1
:101D50004024019100901BE0019922460F46304635
:101D600000F00AFA049A059B801A994110D3104694
:101D70001946224600F016F8361A8F41019722467E
:101D800001200021009F00F00DF838184D4100900F
:101D90002046641E0028DFDC019B0098294632465D
:101DA00007B0F0BD10B5202A04DB0146203A91406F
:101DB000002010BD914020239C1A0346E3401943A4
:101DC000904010BD10B5202A06DBCB170846203AFC
:101DD0001041C1170B4306E00B461341D0402024AD
:101DE000A21A91400843194610BD002904DA401C8C
:101DF000490001D140084000704770B40024050C30
:101E000005D11024000402D1002921D01124050E8F
:101E100001D100020834050F01D10001241D850FF6
:101E200001D18000A41C002801DB4000641C0029B3
:101E300008D020252E1B0D46F540A14000D00121E1
:101E40002943084301061B1B000ADB1D02D50020A5
:101E500070BC7047DB05181880180029F8DA401CA0
:101E60004900F5D170BC40084000704710B5002B08
:101E700008DA0024401C614192185B411A4301D1E9
:101E80004008400010BDF0B51FB482B005460C00FC
:101E900003D0084603F02AFE02E003F027FE2030BC
:101EA0000246009021462846FFF77CFF049B059AD6
:101EB00004460F4618431143084314D018461043F4
:101EC0001BD0009840210A1A1846059900F054F9D1
:101ED00005460E46009A05990498FFF763FF0843EC
:101EE00005D0012004E02046394607B0F0BD0020AF
:101EF000C11705430E432C43374300990E986305E1
:101F0000401A7905E40A00220C43FD0A0A3002D582
:101F100000200146E9E70105101969410C9C0D9D5F
:101F200000196941FFF7A2FFDFE70000F0B51FB419
:101F300088B00B990998002448400999C00F4900BE
:101F400049080991C0070B990090490049080B9175
:101F500009990898A64608431CD00B990A9808438B
:101F600018D0099801244000420D4800410D0998FD
:101F700024050003000B204309900B980003000B7D
:101F800020430B9050181C49401800220190144621
:101F9000104605E0002001460DB0F0BD032801DA2F
:101FA000034600E003239C46C11A0AAE0AE05F0024
:101FB00008ADED5B4F00F75B7D430027AA187C411D
:101FC000491C5B1E6145F2DD410004AB5A522104FD
:101FD000120C0A43240C401C0828DFDB01980290F5
:101FE0000099704601910090059B049A0799069804
:101FF000FFF749FFD0E700000DFCFFFFF0B50C46EE
:102000005C4085B0E40FE40703944C0000266408AC
:1020100059009446490802460296224321D062465E
:102020000A431ED06200570D4A000E032303550DCC
:10203000012402462C492405781B1B0B360B401843
:1020400023432643614600901C46501AB44103D3F3
:102050000098401C009002E0921800985B41002814
:1020600003DA0020014605B0F0BD0020012109057A
:102070000746864611E064461D46141BB54106D34B
:102080006546521BB341744607430C43A646CD0731
:1020900040084908284392185B4105460D43EAD1A0
:1020A0001046184313D0604619465040714008430B
:1020B00006D06046101AB34106D20122002306E082
:1020C00000220123DB0702E00122D24353100098D3
:1020D00074460105381C6141029C039D0019694149
:1020E000FFF7C4FEBFE70000FD0300004A0009033C
:1020F0000123090B1B0519430A4B10B5520D9A42D7
:1021000002DA0020014610BD064B34339A4203DC4C
:102110009A1A00F031F810BD034BD218FFF742FEB7
:1021200010BD0000FF030000CDFBFFFF10B500292C
:1021300004DB0124E40740428C412146002B04DBF0
:102140001C460123DB075242A341994200D1904231
:1021500010BD0000064C0125064E05E0E36807CCE3
:102160002B430C3C98471034B442F7D3FFF7A6FB3F
:1021700090D30008B0D3000810B5202A04DB08462D
:10218000203AD040002110BD0B46D340D04020243F
:10219000A21A91400843194610BD000010B50C4B1F
:1021A00000219A681724A2435C0522439A600F23FA
:1021B0001B038268491CD20FD207994201D0002A22
:1021C000F7D18168002901DB006C10BD002010BD33
:1021D0000024014010B512488168124B4907C90F0D
:1021E000042903D181681940103181608168C906D2
:1021F000C90FFBD10C490122CC6852021443CC60B8
:1022000084681C40A41C84608368DB07DB0FFBD15F
:1022100083685B07DB0FFBD1C8681043C86010BD43
:1022200000240140E8FFFF7F0010024010B500F0DD
:1022300005F800F01DF800F087FC10BD00B50B4854
:102240000121826987B049020A438261806908409E
:1022500006900120009003200190002004900920A6
:102260006946C00601F06CF907B000BD00100240DD
:1022700030B51B4C0125A562E06818218843E06059
:10228000E068611488430843E060E0680321890244
:102290008843E060E06820218843E060E068042132
:1022A00088430843E060616907208143014361611D
:1022B0002046FFF773FF2560E16803208143014357
:1022C000E160A16807480140491CA1602168C90775
:1022D000C90FFBD0A1680140091DA16030BD0000FD
:1022E00000240140E8FFFF7FF8B507461C4615466D
:1022F0000E462A2001F03CF83804000E01F02FF8B9
:10230000F8B201F02CF82804000E01F028F8E8B229
:1023100001F025F82B2001F02BF83004000E01F01D
:102320001EF8F0B201F01BF82004000E01F017F8BF
:10233000E0B201F014F82C2001F01AF8F8BD00000A
:102340003EB50C46002101910291012C01D10028DB
:102350001BDB0A2820DA024611A104E0024612A182
:1023600001E0024611A101A803F0ACFB012101A884
:1023700000F02CF97E21081A01210091C0B20CA3B3
:1023800001AA214602F0AEF93EBD0A21C842E2DCB4
:102390006421C842E5DDE1E76428E2DADEE7000017
:1023A0002020256400000000202564002564000032
:1023B0002000000070B501250924AD02E40629467D
:1023C000204600F060FDA56170BD00003EB50446EA
:1023D0000020019002900E48827A0A2A01D20DA1B3
:1023E00004E0642A01D20DA100E00EA101A803F0CF
:1023F00069FB012101A800F0E9F8012100917E218B
:10240000081AC0B208A301AA214602F06BF93EBD2A
:102410004003002020202564252500002025642578
:10242000250000002564252500000000FEB549A117
:1024300003C90190494802910078002607287DD001
:1024400010200921C90688620021052001F034FF0F
:10245000052101A801F0C4FE052201A9002001F018
:10246000B3FE3F4CBB206070FF20A07021460320CC
:1024700004F0CAFB2070032020753A4964200876D6
:102480000027394D38462F7002F016FBF0231A460C
:1024900018210020009700F069FE0121032004F0BC
:1024A00035FA324F00F0DAFC02F0A8F9287801285A
:1024B000F8D12E4801F05EFE0100F3D02B4800F069
:1024C000FCFD0028EED07878AA28EBD1B878012856
:1024D000E8D12649214F0522C91CF81CFFF718FA3C
:1024E00022480221007AB8700720387001270320A3
:1024F00004F00CFA0020207506F064F81020092181
:10250000C9068862AA206070A0701549032004F0F3
:102510007BFB207003202075124964200876002080
:1025200002F0CAFA00F09AFC68880028FAD132203A
:102530006880217D0A4801F05DFE00E009E0761C1C
:10254000F6B2062EEED3002F03D002F0C9FA002017
:102550002075FEBD010000000000000040030020C7
:102560002B020020E2010020440100209001002005
:1025700010B50D4C2078642814D207F087FD002890
:1025800010D160780A30C0B26070642801D90A2086
:102590006070122148436421FFF7A4F9C0B2012101
:1025A00004F0D6F810BD00003001002006490020DC
:1025B000162242435218127D002A04D0401CC0B299
:1025C0000828F5D3FF2070472B02002000B50449EE
:1025D000886000F007F806214843C0B200BD000043
:1025E00030010020024600210846535C002B04D035
:1025F000491CC9B21529F8D3704708467047000036
:10260000F8B5174D00246878012802D0002802D0C0
:1026100002E0562400E06824124E3078082802D1E7
:10262000FF2006F01FF8687800900FA310A2072182
:102630000A2002F057F8002006F014F83078072836
:1026400002D1FF2006F00EF8687800900AA30CA2D1
:102650000721204602F046F8002006F003F8F8BDF6
:1026600040030020CA000020C8A1CFFB00000000EA
:1026700043616E63656C0000C8B7C8CF00000000FE
:10268000436F6E6669726D0070B58CB00446182198
:1026900005A8FFF756F91B48FF210079353148435B
:1026A000194941180C20604309184B884A7A0E7A60
:1026B000CD88887A097B0292049103900196009557
:1026C000224612A105A803F0FDF9012105A8FFF794
:1026D0007DFF8021081AC10F0818C0050125114E81
:1026E000040E009510A205210020336801F0FAFFC6
:1026F000009505AA05212046336801F0F3FF0CB0D0
:1027000070BD000074010020E00400202825642929
:1027100025642C25642C25642C25642C25642C250B
:1027200064000000380100202020202020202020EC
:102730002020202020202020202020200000000019
:10274000F0B5604987B009780E2958D10127802457
:102750005D4D5E4E012806D0022852D03078012807
:1027600065D8012665E0FF2005F07CFF58484078D9
:1027700000281CD0012157A0FFF728FF201AC10F05
:102780000818C005040E524801AB4078009007219C
:1027900020462A6801F0A6FF327854A101A803F070
:1027A00091F91E3401ABE0B21A4600973DE0327851
:1027B00050A101A803F086F9012101A8FFF706FF47
:1027C000064601214DA0FFF701FF201A801BC10F13
:1027D0000818C005040E3E4801AA40780090A019D0
:1027E000C0B207212B6801F07DFF01AB1A4607211B
:1027F0002046009701F076FF002005F033FF07B078
:10280000F0BD307A0028FAD1FF2005F02BFF01211E
:102810003EA0FFF7DBFE201AC10F08182C49C005A7
:10282000497800912B68000E01AA0721E2E7401EBB
:10283000C6B22748407800281FD0012138A0FFF7F2
:10284000C5FE201AC10F0818C005040E204801ABB0
:1028500040780090072120462A6801F043FF324665
:1028600022A101A803F02EF91E3401ABE0B21A46F2
:102870000721009701F036FFC1E732461DA101A8EC
:1028800003F020F9012101A8FFF7A0FE064601216F
:102890001FA0FFF79BFE201A801BC10F0818C00560
:1028A000040E0B4801AA40780090A019C0B207217D
:1028B0002B6801F017FF01AB1A460721204600974D
:1028C000D8E70000C9000020380100207401002072
:1028D0004003002050617261202020202069732075
:1028E00073686F7474696E6700000000282564299E
:1028F000000000002028256429000000B2CECAFD97
:10290000D5FDD4DAC5C4C9E3D6D00000CBF9D3D005
:10291000B2CECAFDC5C4C9E3D2D1BDE1CAF8000038
:1029200050617261202020202069732066696E69E1
:102930007368656400000000704710B500F0EEF8A1
:1029400010BD10B502F070FE10BD0000F8B547498B
:102950000D78032D7ED14649FF224A730C462F3451
:102960008E7B6378A278E178012E06D0022E21D0EA
:10297000032E2ED0042E3AD049E03E4EC7073678BB
:1029800004D0092E11D2761C26700EE080070CD5DB
:1029900038480078401EC0B2002B03D1002A01D174
:1029A000002904D0002E00D0207000210FE0012E5D
:1029B000FAD8FAE7C10703D0092B07D25B1C04E061
:1029C000800703D5002B01D05B1E637001212846D0
:1029D0001BE0C10703D0092A07D2521C04E080077C
:1029E00003D5002A01D0521EA2700221EFE7C207D0
:1029F00003D0092907D2491C04E0800703D5002928
:102A000001D0491EE1700320014600F057F86078BC
:102A100000280FD1A07800280CD1E078002809D137
:102A20002078002806D1012020701048002100786D
:102A300000F044F8607821780A2250430A18A07800
:102A400064214843E1787D23DB0059434018101886
:102A5000094900E009E0486205F0B4FD044900209E
:102A600048730322022104F007FDF8BDCA000020CC
:102A7000D0000020FF000020F40200200C4909785B
:102A8000062913D10B49097803290FD10A4A917BF2
:102A900000290BD0030703D5012907D9491E04E0FB
:102AA000400703D5042901D2491C917370470000E7
:102AB000C9000020CA000020D00000207FB50546D4
:102AC0000C460C480CA1025D01A802F0FBFF01219D
:102AD00001A8FFF77BFD06214C4320187E21081A30
:102AE00001210091C0B205A301AA294601F0FAFD17
:102AF0007FBD0000FF0000202564000020000000D2
:102B000010B5FFF757FC03F0FDFF06F015F902F0D2
:102B10001BFA08F09BFE05F00BFF10BD10B509492C
:102B2000074849784358022293434350202141608B
:102B300010214160114600F0A7FC02F0B3F810BD6F
:102B4000000002406EB9000838B5264801214269EC
:102B50000A4342614069244C0840254900900B78A3
:102B60002148224A08341A511F4B0C78214A0C3351
:102B7000E25001240B78021D9D582D0C2D04254395
:102B80009D500B78C2581C4C2240C2500A78835882
:102B900003242403A34383500B78C2584024A24348
:102BA000C2500C78025980239A431A4302510B7881
:102BB0008415C25803252D02AA432243C2500A7825
:102BC00004158358AD00AB43234383500C7803595D
:102BD00020229343134303510978425801231A4397
:102BE000425038BD00100240000002404024014025
:102BF0002AD1000860010020EFBFFFFF10B5034994
:102C0000F8204861002007F01BFB10BD00040140C4
:102C100010B50C4C01216069C9030840884202D1FB
:102C200007F006FB08E0FF206169013001408142A6
:102C300002D105490120087004486061002007F0B6
:102C4000FFFA10BD000401404D010020F89900007A
:102C5000FEB542A103C90026F02302910190374638
:102C60001A4600961821022000F080FA0321084637
:102C700003F04CFE10200925ED06A8620021052076
:102C800001F01AFB2221062001F016FB052101A804
:102C900001F0A6FA052201A9002001F095FA314CB5
:102CA000CC2060700220A0702F48C178E1700179BB
:102CB0002171417961718179A171C179E171807866
:102CC00020722146092003F09FFF20700920207503
:102CD000002001F0F1FE1020A86224484770244F24
:102CE00000F0BCF8214801F045FA002806D01F4842
:102CF0004178BB2902D18078BB2820D07888002871
:102D0000EED11020A862002001F0D6FEFF205F3037
:102D10007880217D134801F06DFA1020A86201200F
:102D200008F028FC012001F0C7FE1020A861012056
:102D300008F020FC0F2E07D2761CF6B2D0E70B4924
:102D400000204870042100E00521032003F0DEFD8F
:102D500001F0C6FE00202075FEBD0000020000004C
:102D6000000000002B020020400300209001002002
:102D700044010020F0B50B2706463F04384600F01A
:102D80005BF804280FD1084C2069022528432061F4
:102D900066612069402108432061384600F04CF804
:102DA0002169A9432161F0BD0020024008490420A7
:102DB000CA68D20701D001207047CA68D20601D57F
:102DC00002207047C9684907FBD5032070470000FF
:102DD00000200240024801698022114301617047CE
:102DE00000200240F0B50B2706463F040D4638464A
:102DF00000F022F804280CD1064C20690121084378
:102E000020613580384600F017F8216949084900EB
:102E10002161F0BD0020024004480169090603D584
:102E200003494160034941607047000000200240AF
:102E300023016745AB89EFCD00B50346FFF7B6FF29
:102E400002E0FFF7B3FF5B1E012803D0002B00D187
:102E5000052000BD002BF4D1FAE70000024901482B
:102E600008607047AAAA00000030004000B587B093
:102E7000009100210191029103910491694600F0B3
:102E80005FFB07B000BD00B587B0009100210122B3
:102E90000291039101920492694600F051FB07B040
:102EA00000BD000070B51B4D0446C17BA87881426F
:102EB00003D9401CA87007F051FEE07B2871FF2267
:102EC00035325043144AA17B83181846FF3069718C
:102ED00021308174E279A679120232430C267143C3
:102EE0005918CA806279237912021A434A80227AD9
:102EF0000A72627A4A72A27A8A72E27A8273227BB8
:102F0000C273064A607B1070207C08730120287011
:102F100070BD000074010020E0040020D5000020F6
:102F200070B5124D2878042811D1114C114923781D
:102F30004A79062B0CD0072B09D1002A07D107F0BC
:102F40006BF9102028700320207003F0E5FD70BDA0
:102F5000D043487106220521002004F08DFA062096
:102F600006F0B0F9072006F0ADF970BDC9000020E9
:102F7000CA000020D00000201FB50C461549CA8B9E
:102F80000A2A02D2034614A112E0642A02D203469E
:102F900014A10DE07D21C9008A4202D2034614A18A
:102FA00006E0164903468A4201D215A100E00BA1B2
:102FB00001A802F087FD012101A8FFF707FB7E2190
:102FC000081A01210091C0B210A301AA214601F004
:102FD00089FB1FBDD0000020202020202564202F49
:102FE000202564002020202564202F202564000057
:102FF00020202564202F20256400000010270000D9
:10300000202564202F20256400000000D5C5CAFDBE
:10301000000000007FB505461148124CC178607869
:10302000002907D0002802D001210FA006E00121CD
:103030000EA003E000280FD001210EA0FFF7C6FA72
:103040007E21081A617800910B49C0B20B6801AA71
:10305000294601F047FB7FBD012108A0EEE70000F3
:10306000D00000204003002056000000CAFAC5C46A
:10307000000000004800000038010020BAE1C5C48B
:10308000000000000A4B1A689208920002431A607E
:1030900008480369042213430361012906D040BF95
:1030A00020BF20BF016991430161704730BFF9E73C
:1030B0000070004000ED00E0FEE710B500230122A3
:1030C00004E0845CE318521C9BB2D2B28A42F8D36B
:1030D0000078D9B2884201D0002010BD012010BD77
:1030E00010B504210148FFF7C1FE10BD00040048DF
:1030F00070B501240925E403ED062146284600F0B9
:1031000073FA002818D00D4E2021304600F06CFADA
:10311000002811D0FF20F53008F02CFA214628466F
:1031200000F062FA002807D02021304600F05CFA57
:10313000002801D0FFF78CFD70BD0000000400489E
:1031400070B506460021A32381220846FFF7CCF87C
:103150000024FFF783FE0025304600F0F1F86D1CD7
:10316000A32DF9D3641C812CF3D370BDFFB581B0BE
:1031700016460C46054680281CD2A02C1AD2B54211
:1031800018D00498844215D0AE4213D3A04211D374
:1031900003462846FFF7A8F8274608E02C4603E038
:1031A0000A9800F0CDF8641CB442F9D97F1C049849
:1031B0008742F3D905B0F0BDFFB583B0002437488E
:1031C000019400944078002801D19A20009003983F
:1031D000742861D8049894285ED859E0059A002094
:1031E0001319651C0FE01C2206465643069A925995
:1031F000165DB14205D15E78525D964201D10190D3
:1032000004E0401CC0B2009A9042ECD3FFF726FEC7
:10321000049B039A194610460B320B33FFF764F8F0
:1032200001981C2148430699002540180290401936
:103230000779E80706D000260120B040384214D0B4
:10324000174817E000260120B040384201D014484A
:1032500004E014480078002800D01F2000F070F827
:10326000761CF6B2082EEED30AE00E48007800284D
:1032700000D01F2000F064F8761CF6B2042EDBD3D9
:103280006D1CEDB2182D01D20298D0E7A41CE4B257
:103290000598015D0029A1D107B0F0BD40030020D1
:1032A000FFFF0000DD000020FFB583B0002000908C
:1032B00000990598405C00283BD0FFF7CFFD0099AE
:1032C0000598405C2038C4B203987A2831D8049815
:1032D00094282ED80346039A014610460B33521DFC
:1032E000FFF702F80C204443069800252018012619
:1032F000019001980024475D3046A040384201D03B
:103300000D4804E00D480078002800D01F2000F090
:1033100017F8641CE4B2062CEED36D1CEDB20C2D34
:10332000E7D30398801DC0B203900098401CC0B240
:10333000BDE707B0F0BD0000FFFF0000DD0000208A
:1033400010B50446FF2001300921C9068861200418
:10335000000E01F045FEE0B201F042FE10BD10B5D6
:10336000FF2109220131D206916101F039FE10BD21
:1033700010B5FF2109220131D206916201F030FE21
:1033800010BD0000F7B582B00020009008010818B9
:103390001530C0B203903CE0FFF760FD009904983F
:1033A000405C2038C4B202987A2837D80398942811
:1033B00034D80346029A014610460B33521DFEF7DD
:1033C00093FF0C2044431648002520180126019045
:1033D00001980024475D3046A040384202D01F20AB
:1033E000C00204E00F480078002800D01F20FFF73B
:1033F000A7FF641CE4B2062CEDD36D1CEDB20C2DBE
:10340000E6D30298801DC0B202900098401CC0B262
:10341000009000990498405C0028BDD105B0F0BD33
:10342000B6CC0008DD00002008B504494A69024313
:103430004A6149690140009108BD00000010024046
:1034400008B504494A6902434A614969014000914B
:1034500008BD00000010024008B50449CA690243D3
:10346000CA61C9690140009108BD00000010024016
:1034700008B50449CA690243CA61C969014000919B
:1034800008BD000000100240044A51182039C97FCD
:103490004258520852004250704700006EB900086E
:1034A00010B50479012325490268002C3DD0002A7B
:1034B00042D04479002C0FD0012C15D0022C16D00C
:1034C00000238279002A37D0012A18D0022A1FD07F
:1034D000032A21D000232FE04C6894434C600268FB
:1034E0000C6814430C60ECE70C68944301E00C6832
:1034F00014430C6002684C6814434C60E1E70268B6
:10350000CC689443CC6000688A6802438A6013E008
:1035100002688C68944302E002688C6814438C60F3
:103520000068CA680243CA6006E00C6894430C60F5
:1035300000684A6882434A60184610BD0004014092
:10354000F0B500243EE001232A46A3401A4038D0BB
:103550004F680668134653435D005D19AE435F43F1
:103560003E4306604E68012E01D0022E05D18F68C1
:1035700086685F43AE433E4386600F69C668AE43CC
:103580001D467D432E43C6604D68022D19D1FF2A8A
:103590000AD84E69056A534353431A01D21A954318
:1035A00073431D4305620CE0130A1A465A435A43FB
:1035B0005A4313019E1A4D69436A6A43B343134346
:1035C0004362641C0A681546E240BCD14A68012A7D
:1035D00001D0022A06D1CB6841682A4691435A435A
:1035E000114341600120F0BD0069814301D00020FA
:1035F0007047012070470069814301D00020704767
:10360000012070470069814301D0002070470120EC
:1036100070470069814301D0002070470120704746
:103620000069814301D000207047012070470000ED
:1036300010B57D21C900FEF755F90449401E4861C7
:10364000002088610520086110BD000000E000E056
:1036500010B5044601F09CF9206001F07FF960602C
:1036600001F08AF9A06010BD014610B500200029C4
:103670000FD110490A6B9207920F012A0AD0022A31
:1036800011D0032A09D001F083F901F067F901F0A4
:1036900073F910BD01F07CF910BD09688907C90FE5
:1036A000FAD0054810BD096A8907C90FFAD0012070
:1036B000C00310BD0010024000127A0003494A689E
:1036C0009208920002434A607047000000100240D6
:1036D0001206120A10B50A431906090C029C0A4385
:1036E000E1B20A43C169024B19401143C16110BDE7
:1036F000808080FFF8B5044615460020A36840226C
:10370000134200D12860CA20606253206062012009
:10371000EA688007002AE26911D00243E2612A7C4C
:10372000E0690F231B06984312061043E06100294D
:103730001DD0A87900906B792A7929682FE08243FF
:10374000E2613F263606002906D0297CE069090699
:10375000B0430843E061ECE7287C0A21FEF7C2F899
:1037600000010843E1690006B1430143E161A87922
:103770000A21FEF7B7F800010843C7B268790A21A9
:10378000FEF7B0F800010843C6B228790A21FEF717
:10379000A9F80001084300972968C2B233462046C1
:1037A000FFF796FFA968E069034A10400843E0610B
:1037B000FF2060620120F8BD7F7F7F7F18B57D21EB
:1037C000C9000091C16801224906C90F15D1491EDF
:1037D000C160C1680B4B4906C90F0CE01969C903E8
:1037E000C90F02D00099491E0091C168009C49068A
:1037F000C90F002C03D00029F0D0104618BD0022BC
:10380000FBE7000000E000E070B504460026CA2097
:103810000D466062532060622046FFF7CFFF00280C
:1038200017D02968A068402290430843A060A86888
:103830002169C90BC90301432161A98820697F223D
:10384000120490430904084320618020C043E060D3
:103850000126FF206062304670BD00001206120A89
:1038600010B50A431906090C029C0A43E1B20A4347
:103870000168024B19401143016010BD808080FF38
:10388000F8B51446054600260F46AA683046402182
:103890000A4200D12060CA2068625320686228462C
:1038A000FFF78CFF00282AD0A079002F04D00090C9
:1038B00063792279216816E00A21FEF713F80001E6
:1038C0000843C7B260790A21FEF70CF800010843EB
:1038D000C6B220790A21FEF705F8000108430097D7
:1038E0002168C2B233462846FFF7B8FF8020084956
:1038F000C043C860A8688006C00F04D00126FF201E
:1039000068623046F8BD284600F004F80646F6E73F
:103910000028004038B57D24E4000094C2680121ED
:1039200080231A40A13AC260C268164B9206D20F99
:103930000CE01A69D203D20F02D0009A521E0092F4
:10394000C268009D9206D20F002D18D0002AF0D137
:10395000002912D00094C2689206D20F0BE01A69B7
:10396000D203D20F01D0621E0092C268009C920660
:10397000D20F002C03D0002AF1D0084638BD002118
:10398000FBE7000000E000E010B5036800225B06E2
:10399000DB0F25D10CC98C681A434B6823431A43AB
:1039A000CB681A430B691A434B691A438B691A4354
:1039B00003680C4C23401A43026042680A4B1A40C9
:1039C000CB681B0C1A430B681A43426001238A69B7
:1039D0005B0308399A4202D1898C89B201610122C4
:1039E000104610BD4000FFFFFBF0FFFF0A06930DDD
:1039F000054A10B59B189A68090C0F248C40A24305
:103A0000884002439A6010BD00000140F0B5026892
:103A1000194B1A4C984201D0A04203D17025AA43F9
:103A20004D682A43164D174E174F98420AD0A042B0
:103A300008D0164CA04205D0A84203D0B04201D015
:103A4000B84204D103242402A243CC68224302607A
:103A50008A68C2620A888262984205D0A84203D06E
:103A6000B04201D0B84201D1097C01634169012211
:103A7000114341611046F0BD002C0140000400409C
:103A80000040014000440140004801400020004047
:103A9000012910D0042910D0102910D0402910D0AD
:103AA000CA1FF93A05D00122920291420BD1052199
:103AB0000AE0042108E0002106E0012104E00221DF
:103AC00002E0032100E00621064A1830525C054B53
:103AD0001018DB1D5B5C0821026899400A430260F4
:103AE0007047000060B90008034610B500200129A6
:103AF0000DD0102910D0FF39491E12D00F242402F6
:103B0000A14203D11146184600F0B2FD10BD114686
:103B1000184600F0D3FC10BD1146184600F014FD05
:103B200010BD1146184600F057FD10BDFEB5044605
:103B300000680D460026C007C00F43D1E9686868D9
:103B4000AA69084329691143084321681E4A1140A4
:103B500008432060A9686068032212039043084369
:103B600060606969A068121190430843A06017481B
:103B7000844203D10020FFF777FD06E01448844219
:103B800020D16846FFF764FD029800281AD0296802
:103B9000002917D00126AA69F3039A420CD14000EC
:103BA0004A088018FDF79EFE81B20A4808400907BE
:103BB000490F0143E16005E04A081018FDF792FE45
:103BC00080B2E0603046FEBDF369FFFF003801407F
:103BD00000440040F0FF000070B501258F4CAD039C
:103BE000A562142007F0C6FCA561142007F0C2FCF2
:103BF0001120FFF7BDFB782007F0BCFC1320FFF776
:103C0000B7FBB120FFF7B4FB0120FFF7A8FB2C2086
:103C1000FFF7A5FB2D20FFF7A2FBB220FFF7A8FBC3
:103C20000120FFF79CFB2C20FFF799FB2D20FFF7CD
:103C300096FBB320FFF79CFB0120FFF790FB2C20A5
:103C4000FFF78DFB2D20FFF78AFB0120FFF787FB95
:103C50002C20FFF784FB2D20FFF781FBB420FFF71A
:103C600087FB0720FFF77BFBC020FFF781FBA2202B
:103C7000FFF775FB0220FFF772FB8420FFF76FFB55
:103C8000C120FFF775FBC520FFF769FBC220FFF7D6
:103C90006FFB0A20FFF763FB0020FFF760FBC320E8
:103CA000FFF766FB8A20FFF75AFB2A20FFF757FB36
:103CB000C420FFF75DFB8A20FFF751FBEE20FFF7E2
:103CC0004EFBC520FFF754FB0E20FFF748FB3620C4
:103CD000FFF74EFB0020FFF742FBE020FFF748FB19
:103CE0000F20FFF73CFB1A20FFF739FB0F20FFF7EF
:103CF00036FB1820FFF733FB2F20FFF730FB28207F
:103D0000FFF72DFB2020FFF72AFB2220FFF727FBE0
:103D10001F20FFF724FB1B20FFF721FB2320FFF7C9
:103D20001EFB3720FFF71BFB0020FFF718FB0720C7
:103D3000FFF715FB0220FFF712FB1020FFF70FFB28
:103D4000E120FFF715FB0F20FFF709FB1B20FFF712
:103D500006FB0F20FFF703FB1720FFF700FB3320C4
:103D6000FFF7FDFA2C20FFF7FAFA2920FFF7F7FA00
:103D70002E20FFF7F4FA3020FFF7F1FA3020FFF79A
:103D8000EEFA3920FFF7EBFA3F20FFF7E8FA0020C0
:103D9000FFF7E5FA0720FFF7E2FA0320FFF7DFFA63
:103DA0001020FFF7DCFA2A20FFF7E2FA0020FFF7E5
:103DB000D6FA0020FFF7D3FA0020FFF7D0FA7F20D1
:103DC000FFF7CDFA2B20FFF7D3FA0020FFF7C7FA51
:103DD0000020FFF7C4FA0020FFF7C1FA9F20FFF789
:103DE000BEFAF020FFF7C4FA0120FFF7B8FAF62078
:103DF000FFF7BEFA0020FFF7B2FA3A20FFF7B8FA51
:103E00000520FFF7ACFA2920FFF7B2FA0020FFF7F0
:103E100097F9282007F0AEFB70BD000000040048B1
:103E2000F8B500205723F02218210090FFF79EF9E3
:103E30005323672233211820FEF756FA002630015B
:103E4000002500900098411929480024475C012072
:103E5000A040384000D02748FFF772FA641CE4B253
:103E6000082CF4D36D1CEDB2102DEBD3761CF6B2FA
:103E7000142EE4D368236F2254211020FEF734FA65
:103E80000026300100250090009841191A480024AE
:103E9000475C0120A040384000D01648FFF750FA98
:103EA000641CE4B2082CF4D36D1CEDB2102DEBD3DE
:103EB000761CF6B2102EE4D3012110A0FEF786FB8B
:103EC0008021081AC10F08180121C0050091000EB9
:103ED0000CA30AA2052100F005FC0B4807F04AFBE1
:103EE00000205723F02218210090FFF73FF9F8BD7A
:103EF0004CCA0008FFFF00008CCB00084C472D3057
:103F00003600000000000000B80B000000B506F00D
:103F100073F903480178002901D00021017000BD28
:103F20004C01002070B528480121C26988B00907FA
:103F30000A43C261C2690A40244907920A6883158C
:103F40001A430A60026A19020A430262026A8A4339
:103F50000262016A421503231B0299431143016265
:103F6000016A920111430162194E3046FFF7D2FCFB
:103F7000184900240868FF221204904308600125B4
:103F80001549042008607F200590FF2038300690F6
:103F9000049404A93046FFF737FC694600940C717D
:103FA0004C718C716A4600213046FFF769FC0B4961
:103FB00068044861029069464C738D730D7302A8C2
:103FC000FFF76EFA08B070BD0010024000700040AC
:103FD0000028004000E400E000E100E000040140AF
:103FE000F0B595B00220FFF737FA0021102000F05D
:103FF000D3F9012525492804086005206946088071
:1040000000266320224C0290019603962046FFF77B
:10401000FDFC2068802738432060A1142046FFF76C
:1040200037FD602005A961C11A4805AA807A089069
:10403000A11409962046FFF757FD174814498079C7
:1040400018314018144A0168D21D937904229A400D
:1040500091430160A1142046FFF71AFD2068384300
:10406000206020682843206002200D900E900320DD
:104070000F9011950DA9109612950848FFF760FA58
:1040800020682843206015B0F0BD000000E100E08A
:10409000000400404003002060B90008000400480C
:1040A00010B501F0E5FA10BD70B50A480078022895
:1040B0000BD1094CA07B002808D00025A573FF2058
:1040C0006073022000F01CFF657370BD0120A073B7
:1040D00070BD0000CA000020D00000207047000022
:1040E00070B570210840044600F038F80646074DC8
:1040F0000120A862272003F0EBFC2046304303F0A8
:10410000E7FC0120A86100F029F870BD0004004818
:10411000F8B50F46094E01211546B16203F0D8FCEF
:10412000002405E0FF2003F0D3FC3855641CE4B202
:10413000AC42F7D30120B061F8BD00000004004894
:1041400010B5054C0121A16203F0C2FCFF2003F071
:10415000BFFC0121A16110BD0004004810B5044C52
:104160000120A062072003F0B3FC0121A16110BD72
:104170000004004870B5054604211248FFF742FAD2
:1041800000281CD110200921C90688620720FFF7EA
:10419000D7FF04460146072000F08EF860060ED5D2
:1041A0006020FFF7CDFF0446024629466120FFF755
:1041B000AFFFFF21E22000F07FF8204670BD002015
:1041C00070BD00000004004810B5052A00D9052282
:1041D000052800D905200A30C0B200F055F810BDFE
:1041E00010B5052900D905210A460146102000F026
:1041F0004BF810BDF3B50024224D81B001200E46CE
:10420000A862E12003F064FC0120A86110200927C6
:10421000FF06B8623246A020019900F035F8102060
:10422000B8610EE0FEF71AFE0720FFF789FFC0060F
:104230000DD4012007F09EF92046641CA4B2C828C2
:1042400005D004212846FFF7DDF90028EAD1072030
:10425000FFF776FF04460146072000F02DF8E00640
:1042600009D5FF21E12000F027F8FF21072000F009
:1042700023F81020FEBDA00601D52020FEBDFF20A2
:10428000FEBD000000040048F8B50F46094E0121AC
:104290001546B1622021084303F01AFC002404E013
:1042A000385D03F015FC641CE4B2AC42F8D3012085
:1042B000B061F8BD0004004870B5074C01220D46FE
:1042C000A2622021084303F003FC284603F000FC0F
:1042D0000120A06170BD000000040048F0B585B069
:1042E0001AA103C9019000200291039001AD03AE11
:1042F000184C01270490FEF7B1FD052201A91020FA
:10430000FFF7C2FF052203A91020FFF701FF0020DD
:10431000295C325C914203D1401CC0B20528F7D31E
:10432000052810D02078401CC0B22070052806D384
:1043300009A30AA201210020009700F0D3F9C820A8
:1043400007F018F9D7E705B0F0BD0000A5A5A5A5B1
:10435000A500000048010020000000005246323451
:104360004C3031206973206E6F742066696E640072
:10437000C106C90E0120884001490860704700004D
:1043800080E100E0C106C90E0120884001490860B3
:104390007047000000E100E08307FF22DB0E9A4037
:1043A0008907090E994000280BDA0007000F08382A
:1043B000830808489B001818C36993430B43C361E3
:1043C0007047830804489B001B18186890430843F3
:1043D0001860704700ED00E000E400E08307FF2272
:1043E000DB0E9A408907090E994000280BDA000776
:1043F000000F0838830808489B001818C3699343C6
:104400000B43C3617047830804489B001B1818685E
:10441000904308431860704700ED00E000E400E0BE
:104420008307FF22DB0E9A408907090E9940002876
:104430000BDA0007000F0838830808489B0018189B
:10444000C36993430B43C3617047830804489B00CF
:104450001B181868904308431860704700ED00E08F
:1044600000E400E0BFF34F8F04490348C860BFF386
:104470004F8F00BFFDE700000400FA0500ED00E0EB
:1044800070B501240C4DA402AC617D20C00007F082
:1044900071F8AC62642007F06DF800F0A9FAFFF73C
:1044A0001DFF00F0C1FA012000F006FB10200921D9
:1044B000C906886170BD00000004004830B5026A7A
:1044C000520852000262026A436884697025A40897
:1044D000A400AC430D682C430225AA430D692A436E
:1044E00052084D6852002A43134DA84208D0134D7C
:1044F000A84205D0124DA84202D0124DA84214D1B4
:104500000825AA434D69AD002A430425AA438D68B6
:10451000AD002A43FF250135AB438D692B430125AF
:104520006D02AB43CD696D002B4343608461C96864
:1045300041630262012030BD002C01400040014077
:10454000004401400048014070B5026A1025AA43AA
:104550000262026A4368846973263602B4430E68B5
:10456000360234432026B2430E6936013243AA4351
:104570004D682D012A43144DA84208D0134DA8427E
:1045800005D0134DA84202D0124DA84215D1802566
:10459000AA434D69AD012A434025AA438D68AD0168
:1045A0002A430125AD02AB438D69AD002B430125A4
:1045B000ED02AB43CD69ED002B4343608461C968D4
:1045C00081630262012070BD002C01400040014067
:1045D000004401400048014070B5026AFF250135E2
:1045E000AA430262026A4368C4697026A408A40050
:1045F000B4430E6834436E00B2430E693602324350
:10460000AA434D682D022A43154DA84208D0154DE6
:10461000A84205D0144DA84202D0144DA84217D18B
:104620000125ED02AA434D69AD022A430125AD02E1
:10463000AA438D68AD022A4301252D03AB438D6942
:104640002D012B4301256D03AB43CD696D012B4338
:104650004360C461C968C1630262012070BD00008B
:10466000002C01400040014000440140004801404E
:1046700070B5026A01252D03AA430262026A4468EA
:10468000C36973263602B3430E68360233436E00A5
:10469000B2430E6936033243AA434D682D032A43C1
:1046A0000C4DA84208D00C4DA84205D00B4DA84295
:1046B00002D00B4DA84205D10125AD03AC438D6955
:1046C000AD012C434460C361C968016402620120EA
:1046D00070BD0000002C014000400140004401403A
:1046E00000480140FFB50A01891883B0044600263E
:1046F00015310C981F46CDB2324600284AD0012809
:1047000003D0072801D0052847D117460598805DBA
:10471000002842D0FEF7A2FB7A2C02D900240C35E7
:10472000EDB2942D05D900241F202546C002FEF7C6
:1047300007FD05981A4B815D68460171477101AA12
:1047400029462046FEF7B0FDA41D761CE4B2F6B261
:10475000DCE7FEF783FB742C02D900240C35EDB2A4
:10476000942D05D900241F202546C002FEF7E8FC41
:10477000B85D69460870B8194078487000208870A4
:10478000084B6A4629462046FEF716FD0C34B61C37
:10479000E4B2F6B2B85D0028DBD107B0F0BD00008E
:1047A000B6CC000874B9000810B5114CFF2120796F
:1047B000353148430F49104A4018FF302130807C82
:1047C000182801D2811C00E0411C11700621FDF760
:1047D00089F8A071042801D30320A07102F09CF98C
:1047E00006F0E8F900F088FA03F042FF10BD00007F
:1047F00074010020E0040020CA000020FEB5002063
:10480000214F01903968002920D1204E317D0029A7
:104810001CD01F4D092428701020E406A06200203F
:1048200000F04AF9317D3046FFF7E4FCFF21F53115
:10483000012620280BD0102839600CD01020A0624F
:10484000012000F039F91020A0612E70FEBD10206B
:10485000A0623960F4E71020A062012000F02CF97A
:104860001020A0612E706A780AA101A801F02AF92F
:1048700009A301AA032100200096FFF733FF6878FF
:10488000401C6870FEBD0000100100202B020020BB
:10489000440100202564000000000000034948880E
:1048A000002801D0401E48807047000044010020CD
:1048B00070470000F8B52248818A012936D10024CA
:1048C0008482417BFF2601361E4F1F4D002911D0E7
:1048D0000021417331463846FEF786FE002826D077
:1048E00072B6BFF34F8F1A491848C860BFF34F8F95
:1048F00000BFFDE744700472FF21417300F07AFAB3
:1049000031463846FEF770FE00280FD11148017B72
:10491000002904D0047303F055FE06F0CFFF0120F8
:1049200028700020FEF70CFC06F0D4FEF8BD002035
:10493000FEF706FC01F070FF074804802C70F8BDFC
:104940001A010020000400484D0100200400FA056F
:1049500000ED00E040030020F60000200449496813
:10496000F0221140034A0909515CC8407047000019
:104970000010024048B9000803494968034A490544
:10498000490F515CC84070470010024058B90008F8
:1049900010B5064841680C200140054805D004299F
:1049A00003D0082901D100F005F810BD0010024025
:1049B00000127A0010B50C4C6168012212040B48F9
:1049C000114002D0914200D14000E16A0907090F6D
:1049D000491CFCF787FF61680F2292041140890C83
:1049E000891C484310BD00000010024000093D0032
:1049F00010B50924E40620212046FEF744FA802160
:104A00002046FEF740FA40212046FEF72FFAFEF737
:104A100067FB01210348FEF736FA10212046FEF716
:104A200032FA10BD0004004810B510200924E40635
:104A3000A0627020FFF754FB01211C20FFF73CFC13
:104A400004211D20FFF738FC1C20FFF779FB1D20F7
:104A5000FFF776FB1020A06208210020FFF72CFC56
:104A60000A2006F087FD0A210020FFF725FC01211E
:104A70000846FFF721FC01210220FFF71DFC03215E
:104A80000846FFF719FCFF210420FFF715FC094C2D
:104A90000520A178FFF710FC27210620FFF70CFC6A
:104AA0000521E01CFFF79CFB0522E11C0020FFF71D
:104AB0008BFB10BD4003002010B504460020FFF71B
:104AC0003FFB0146002C02D0012C03D004E041083A
:104AD000490001E0012001430020FFF7EDFB10BD7C
:104AE00010B510200921C9068862FF202D3006F07C
:104AF00041FDFF21E120FFF7DFFBFF210720FFF74A
:104B0000DBFB094C0520A178FFF7D6FB2721062007
:104B1000FFF7D2FB0521E01CFFF762FB0522E11C39
:104B20000020FFF751FB10BD4003002030B587B0D7
:104B3000002568460595057645761E4C857605AABE
:104B400029462046FEF79CFE05A9002000F040F80B
:104B500068460095017E0171417E4171817E6A4601
:104B6000891C81711F210174134802900021039553
:104B70002046FEF7BFFDE06880210840FF388238FC
:104B8000E0600E4A88025061CA2060625320606271
:104B9000A0684A011043A060A0684A001043A060CA
:104BA000E0680840FF388238E060FF20606207B0AC
:104BB00030BD0000002800400080808000040140DB
:104BC00001090A2200075143000F4018C0B2704784
:104BD00070B5144A034610680C463F21090408408A
:104BE0008002800E207111687F252D022940490422
:104BF000490E617111684906490EA17111680122BF
:104C0000920511402160002B0AD1FFF7D9FF2071D6
:104C10006079FFF7D5FF6071A079FFF7D1FFA07130
:104C200070BD00000028004010B50848C16880220F
:104C30001140FF398239C160054990024861FF2067
:104C400005F0FEFA03490020087010BD002800405E
:104C5000000401404D01002010B50F48426B0121B6
:104C60000A434263426B9207D20FFBD0426BF82398
:104C70009A4380231A434263426A0A434262416A6A
:104C80008907C90FFBD00548FEF7D2FC044801692B
:104C900004221143016110BD00100240006CDC02CF
:104CA00000E000E002480021417550210176704784
:104CB000E201002010B5012109060E4C00282068F1
:104CC00009D00A12904320602068884320600020A9
:104CD000FEF7F4FC10BD0843206020688001C00F7F
:104CE000FBD00220FEF7EAFC0C216068084008288F
:104CF000FBD110BD00100240F8B5214E00257078A0
:104D0000012802D0002802D002E0682500E05C25DE
:104D10001C48FF210079353148431B494018FF30BA
:104D20002130817C182901D3491C00E0891C174FD0
:104D3000CCB23978601C814202D1FF2003F092FC92
:104D40007078009012A314A207210420FFF7CAFC78
:104D5000002003F087FC3878A04204D105F0D6FC8F
:104D6000FF2003F07FFC707800900DA30EA20721B6
:104D70002846FFF7B7FC002003F074FCF8BD0000E4
:104D80004003002074010020E0040020CA0000203D
:104D9000B7B5BBD80000000052657475726E000094
:104DA000CFC2D2BBD2B300004E65787400000000C1
:104DB000704700000149487070470000550100200D
:104DC00001498870704700005501002001490870B2
:104DD000704700005501002001484169C1607047DB
:104DE0005C010020024901484881704770170000AB
:104DF0007401002070B5254CFF2101312046FEF7DB
:104E000008FC002841D002F01BFE012149020920C4
:104E1000C0068161A162490081621D4800250580AC
:104E20001C4C01202070A078002801D1FDF7D2F998
:104E300006F018FD1848017B002904D0057303F023
:104E4000C1FB06F03BFDFF2005F0ECF900F028F86F
:104E5000A570FFF76BFE1148056101200007FEF702
:104E600007FB04F063FD0120FFF724FF0121084642
:104E7000FEF708F90020FFF71DFF6078002802D038
:104E800072B6FFF7EFFA02F067FE70BD000400484B
:104E90002E0100204C0100204003002000E000E033
:104EA000F0B587B00120009001900020029003909F
:104EB00002200924E406049069462046FEF740FBE0
:104EC0000A4D2046294603F083FB094E0948314626
:104ED00003F07EFB084F0948394603F079FBA561D2
:104EE000064887610348866107B0F0BD731D000066
:104EF000FBFE000000040048FFFF00000014004813
:104F00001FB504460D480EA1827801A800F0DAFD15
:104F1000012101A8FDF75AFB08494C3149780029C5
:104F20000AD06421081A01210091C0B205A301AA88
:104F30002146FFF7D7FB1FBD6621F3E7F4020020EF
:104F40002564000020000000F0B522480121C2695C
:104F500091B089030A43C261C069002408401090DF
:104F600048101D4F059402250126009002940394D9
:104F70006946049601953846FEF7E2FAA8030594BF
:104F80000090029403946946049601953846FEF712
:104F9000D7FA032080030690FF20053007900720F2
:104FA000000208A961C1280211C10D940E940B4C96
:104FB00006A92046FEF7E8FC60681021884360607F
:104FC00060680821884360602068402108432060B1
:104FD00011B0F0BD0010024000040048003800404D
:104FE00003498A689207D20FFBD00873704700000C
:104FF0000038004010B50022064B07E0DC692406AB
:10500000E40FFBD0845C1C85521CD2B28A42F5D3DB
:1050100010BD0000004400407047000010B5224859
:10502000012102688A430A4302600068084039D0BF
:105030001E48016801221143016001688907C90FF8
:10504000FBD00268012109048A43026005224168FD
:10505000D2043D231B04994311434160C16A0909ED
:105060000901C16201680122120611430160016851
:105070008901C90FFBD04168F0229143416041682A
:105080000722120291434160426802219208920075
:105090000A4342600C22416811400829FBD1FFF706
:1050A000DBFD10BDFEE700000020024000100240C2
:1050B000134801680122114301604168114A1140FF
:1050C00041600168104A11400160016801229204A8
:1050D0009143016041683F22120491434160C16ADB
:1050E00009090901C162016BFF2214329143016376
:1050F000416B49084900416300218160704700000D
:10510000001002400CB8FF08FFFFF6FE10B50120AA
:105110000A49C043086101F027FA06F017FA04F0C3
:10512000BBFF05F059F8FFF7B9FB00F0A3F801F059
:1051300011FA06F055F900F097FC10BD0020004070
:1051400004480169C907C90F02D00121C94301619F
:1051500070470000004001407047000004480169AA
:10516000C907C90F02D00121C9430161704700007E
:10517000000400400EB50021019102910A2802D2DC
:1051800002460DA105E06428024601D20CA100E010
:105190000DA101A800F096FC012101A8FDF716FA67
:1051A000012100917E21081AC0B208A301AA0221A0
:1051B000FFF798FA0EBD0000202025642525000089
:1051C0002025642525000000256425250000000019
:1051D00008B57F2002220021C00501F011FA02204B
:1051E00001F0E4FA044800900B23322206212F201C
:1051F000FDF7BCFF08BD0000FF010000F3B51C482F
:1052000081B041780298FDF7E1F98021091ACA0FAF
:105210005118C9050C0E2018C6B20198224601018A
:1052200040181530C5B228460C30C7B200203B46A6
:1052300029460090FDF79AFF002000903B4680220F
:1052400029463046FDF792FF0948417802290BD0E4
:10525000062909D0032907D00091029B20461A464F
:105260000199FFF73FFAFEBD01200090F5E700002D
:10527000400300200349C88C002801D0401EC88488
:1052800070470000D0000020F1B53B4E0024728C26
:1052900084B00A2A01D239A102E0642A04D238A1DA
:1052A00001A800F00FFC08E07D20C000824204D27B
:1052B00033A101A800F006FC06243E20001BC10F0C
:1052C0000818451001272FA301AA00972846049922
:1052D000FFF708FA2C1920460C302BA20499FEF790
:1052E00051F8F2790A2A01D228A102E0642A03D2F5
:1052F00028A101A800F0E6FB2046123021A301AA54
:1053000000970499FFF7EEF92046243022A2049971
:10531000FEF738F8327A0A2A01D21CA102E0642A88
:1053200003D21CA101A800F0CDFB20462A3015A312
:1053300001AA00970499FFF7D5F920463C3017A23F
:105340000499FEF71FF80498002701014018153052
:10535000C6B233460C336A1E314638460097039373
:10536000FDF704FF20464230009780223146039B20
:10537000FDF7FCFE05B0F0BDD00000203025640034
:105380002564000020000000480000002030256453
:1053900000000000202564004D00000053000000C4
:1053A00010B50C4CA078002802D0FFF723FD10BDEB
:1053B000FF2101310848FEF72CF90028606804D06D
:1053C0000028F4D104F018FFEFE70028EFD104F033
:1053D00013FF10BD4C01002000040048F7B584B055
:1053E00000250195029504F051FE00284BD03E4C5B
:1053F0003E4E20780127642805D3592356224321A5
:105400002A20009657E03A48007B00283BD1FF2134
:1054100001313848FEF7EFF8002834D1069800280B
:1054200000D0A570049800282FD0334D4123582276
:10543000402128200095FDF799FE00244123E11822
:1054400029220E462820FCF74FFF2846FDF778FF5B
:105450004123582231465720FCF746FF2846FDF7E6
:105460006FFF641CE4B21A2CE8D35C2358225B2142
:1054700028200095FDF77AFE55235B22472158200E
:105480000095FDF773FE07B0F0BDA078C01CC0B258
:10549000A0702A2808D90320A07059235422432140
:1054A0002A200095FDF762FEA07859232730C0B26C
:1054B000C21C43210096FDF759FE22780FA101A8D6
:1054C00000F000FB012101A8FDF780F88021081AF7
:1054D000C10F0818C005000E09A301AA03210097F7
:1054E000FFF700F9CFE7000030010020FF010000C6
:1054F000400300200004004818C60000256425254C
:105500000000000010B50548C169C906C90F03D0E5
:105510001021016206F03AF810BD00000038014089
:1055200070B50A4CE06910258006C00F002804D031
:1055300000F07CF8206828432060E069C006C00FB6
:1055400002D0256206F05EF870BD00000044004005
:1055500070B531490A7831490B2A097806D0062AF4
:1055600003D1032901D1FDF7F1F970BD0229FCD166
:105570002B4CA37B002BF8D0FF226273294A012B0E
:1055800007D03B25022B19D0032B2BD000206073B2
:1055900070BD244BC507DB7E01D05B1C04E0800797
:1055A00003D5002B06D05B1ED376D07E022801D90E
:1055B0000220D076D07E02F0ABFF26E0194BC60762
:1055C0009B7E01D05B1C04E0800703D5002B05D037
:1055D0005B1E9376907E3B2800D99576907E03F0F3
:1055E000D7FA12E00F4BC6075B7E01D05B1C04E0CC
:1055F000800703D5002B05D05B1E5376507E3B28D9
:1056000000D95576507E04F075FD002001226073AC
:10561000114601F031FF70BDC9000020CA00002012
:10562000D0000020F4020020704700000649074A1D
:105630000878142805D2928C054B1A54401C087027
:105640007047908C70470000C40000200044004068
:10565000FC0100200448054902784A7500220270C6
:105660000120087570470000C4000020FC010020E4
:10567000F0B521480121C2698FB049040A43C261D3
:10568000C069012508400D9000240420022603274C
:1056900004956A4605950394C1C209206946C0066F
:1056A000FDF74EFF082004956A4605950394C1C294
:1056B00009206946C006FDF743FF00211C20FEF7C4
:1056C0008DFE0E4928070860E120400206900794ED
:1056D000089409940B940C940C20094C0A9006A988
:1056E0002046FEF723FA2068284320602068202106
:1056F000084320600FB0F0BD0010024000E100E060
:105700000044004004480549427E4A70827E8A7007
:10571000C07EC87070470000F4020020880100209D
:1057200038B53A4900220C78042C15D038490028A5
:105730000B78384907D0012845D002284CD00328DF
:105740005AD0042812D10A71002B01D00120087010
:1057500031A231A1072027E0354BFF25012806D0D3
:10576000022810D0032822D01878087038BD1C7089
:105770000D700092A023802215210020FDF7F6FC79
:105780002CA230A10AE01C700D700092A023802290
:1057900015210020FDF7EAFC2DA231A1032000F025
:1057A00037F932A234A1042000F032F938BD1C7060
:1057B0000D700092A023802215210020FDF7D6FC59
:1057C0002FA233A1EAE70120087100200870FF2012
:1057D00002F048FF17A207E00220087100200870BD
:1057E000FF2002F03FFF1AA216A1072000F010F9D7
:1057F000002002F037FF38BD032008710020087038
:10580000FF2002F02FFF1EA221A1EEE7C900002019
:10581000D5000020880100202020202020202020EA
:1058200020202020202020202020202000000000F8
:10583000D000002046696E64696E67204120706F59
:10584000696E7400D5FDD4DAD5D2C6F0B5E3000098
:1058500046696E64696E67204220706F696E7400DD
:10586000D5FDD4DAD5D2D6D5B5E30000506C65614C
:105870007365207761697400C7EBC9D4BAF300007F
:1058800046696E64696E67206F726967696E0000B1
:10589000D5FDD4DAD5D2D4ADB5E30000F0B587B0EC
:1058A000062001903648002400780B2866D1354E3A
:1058B000F2780A2A04D234A104A800F003F906E021
:1058C000642A32A1F8D304A800F0FCF806243E2094
:1058D000001BC10F0818451001272DA304AA00972B
:1058E00028460199FEF7FEFE2C1920460C3029A20D
:1058F0000199FDF747FDB2780A2A01D226A102E0FC
:10590000642A03D226A104A800F0DCF82046123055
:105910001FA304AA00970199FEF7E4FE2046243055
:1059200020A20199FDF72EFD72780A2A01D21AA150
:1059300002E0642A03D21AA104A800F0C3F82046AA
:105940002A3013A304AA00970199FEF7CBFE204644
:105950003C3015A20199FDF715FD00277B26872312
:105960006A1E314638460097FDF700FC204642305B
:105970008723802231460097FDF7F8FB07B0F0BD82
:10598000C900002088010020302564002564000043
:1059900020000000480000002030256400000000C6
:1059A000202564004D0000005300000070B514492C
:1059B00009780B2923D1134D297802291FD1124CC4
:1059C000A27B002A1BD0030703D5032A07D2521C4F
:1059D00004E0400713D5012A01D9521EA273FF200B
:1059E0000A4E6073F07E02F093FDB07E297803F0DA
:1059F000CFF8707E297804F07DFB0020607370BDC5
:105A0000C9000020CA000020D0000020F4020020BD
:105A100038B5104C0B46054661780020012902D0AC
:105A2000002903D006E00121104601E001211846BB
:105A3000FCF7CCFD8021081AC10F0818617800918D
:105A40000549C0050B68000E1A462946FEF74AFEB6
:105A500038BD0000400300203801002001480079D3
:105A6000704700008801002010B5144800780B280A
:105A700023D11348017800291FD0C1887D22491CF9
:105A800089B2D200C180914217D30021C1804178F0
:105A9000002902D0491E41700DE081783B22002987
:105AA00002D0491E817005E0C178002903D0491E4B
:105AB000C17082704270FFF7F1FE10BDC900002076
:105AC000880100200FB410B504A9074B02AA03985F
:105AD00000F0FAF8044602A9002000F091FC2046EC
:105AE00010BC08BC04B01847016400082021020C57
:105AF00001D010211046020A01D0104608390209CF
:105B000001D01046091F820801D01046891E4208A4
:105B100001D0881E7047081A704730B47446641E5E
:105B20002578641CAB4200D21D46635D5B00E31820
:105B300030BC184702E008C8121F08C1002AFAD179
:105B400070477047002001E001C1121F002AFBD1FD
:105B500070470000F0B51FB486B00998089A030D8D
:105B60000021024314D05148514A181850430514DB
:105B70001198012810981AD0281A401C00264D4F61
:105B80004D49009601910490002812DA444211E038
:105B90001198012449A3012801D11098C143069806
:105BA000119A84600360C26041600BB0F0BD404256
:105BB000E4E70446210500203F4A001C51410391BF
:105BC000029012E0E00707D032463B460199009868
:105BD000FCF7ACF90191009032463B46104619465D
:105BE000FCF7A4F906460F466410002CEAD104988D
:105BF000039B0028029A0999089806DAFCF796F99F
:105C0000019B009AFCF792F905E0FCF7F7F9019B7C
:105C1000009AFCF7F3F904460E460022284BFCF7E5
:105C200085FA03D80020C043014607E00022254B37
:105C300020463146FBF774FFFCF758FA102409E0C0
:105C4000002C0ADB0A220023FCF77CF8079B303289
:105C50001A55641E02460A43F2D11122641C079BA6
:105C6000121B1C19119B012B03D0012308430ED1D9
:105C70000AE0084304D0112010900020119077E72B
:105C80001098151A6D1E0BE01098824202DD002359
:105C90006D1C03E0824201DA00236D1E002BEED062
:105CA000069811998260C16030C07EE701FCFFFF59
:105CB000104D0000000014400000F03F30000000D4
:105CC0000000F0430000E03FFFB597B00646002516
:105CD00018E2252877D100242746FD49049400E0E6
:105CE0000443761C32780120203A90400842F7D1D4
:105CF00030782A280ED0022230780146303909291E
:105D000016D804990A235943303940181443761C95
:105D10000490F1E7189802C804911890002904DA59
:105D20000120400304434842049002200443761CAF
:105D300030782E2814D1042004437078761C2A2849
:105D400009D11898761C80C8189009E00A214F43A1
:105D5000303FC719761C3078014630390929F5D90A
:105D600030786C2810D006DC4C281AD068280ED069
:105D70006A2817D104E0742813D07A2812D110E0D1
:105D80000120400504430CE00121090501E0032145
:105D900009050C437178814203D1012000052418C4
:105DA000761C761C3078119066280BD013DC5828AE
:105DB0007DD009DC00287BD04528F6D04628F4D0D9
:105DC00047281AD1A5E118E0632835D0642870D09F
:105DD000652812D19DE170286CD008DC6728F1D0CD
:105DE00069287BD06E280DD06F2806D1BAE07328C1
:105DF0002ED0752871D0782859D01A9A19999047C1
:105E00006D1C7EE16002400F022809D003280DD0EE
:105E10000428189801680DD00D60001D189070E1DD
:105E20001898EA1701680D604A60F6E7189801684B
:105E30000D80F2E70D70F0E718986A46017811724C
:105E4000001D18900020507202A80090012005E06B
:105E5000189802C8189000200091C04361070DD522
:105E6000002101E00199491C0191B94212DA8142F5
:105E7000F8DB009A515C0029F4D10BE0002101E02D
:105E80000199491C01918142FADB019A0099895CD0
:105E90000029F5D1019904981A9B471A21463846E2
:105EA000199A00F097FA0199401945180BE04FE054
:105EB0002CE113E04EE0009800990078491C009115
:105EC0001A9A199990470198401E0190401CF2D1EE
:105ED000214638461A9B199A10E137E00A20002122
:105EE000009001916002410F022907D0189A01CA5F
:105EF0001892C2179446032908D00AE01898C01DCA
:105F0000C108C90005C91891944607E000B2C2173C
:105F10009446042902D140B2C1178C460022614642
:105F2000944506DA0A460021404291418C462D21D3
:105F300002E0210504D52B216A461173012103E0FB
:105F4000E10701D02021F7E7029155E00A200AE09D
:105F5000102008E01020009000210420044301914B
:105F6000082703E008200021019100906002410F02
:105F7000022907D0189A01CA1892002294460329D0
:105F800008D008E01898C01DC108C90005C91891BB
:105F9000944603E080B2042900D1C0B200210291EE
:105FA000210729D51199702906D0009A1021019B4B
:105FB0004A401A4305D00EE040216A461173012180
:105FC00008E06146014306D030216A4611731199F9
:105FD000517302210291009A0821019B4A401A4301
:105FE0000AD16146014301D1610705D530216A46D6
:105FF000117301217F1E02911199582904D035A1F6
:106000000E910DA90D910DE037A1F9E76146019BB5
:10601000009AFBF797FE0E9B8C469B5C0D9A521ED6
:106020000D92137061460143F0D10D9805A9081A2D
:1060300020300190600703D501200004844300E074
:1060400001270198874201DD381A00E000200199FC
:1060500000904118029809180498401A0490E0032F
:1060600006D421461A9B199A049800F0B3F94519F1
:10607000002706E003A81A9AC05D199990476D1C85
:106080007F1C02988742F5DBE0030CD521461A9B62
:10609000199A049800F09EF9451904E01A9A3020E4
:1060A000199990476D1C0099481E00900029F5DC55
:1060B00008E00D980D990078491C0D911A9A1999CC
:1060C00090476D1C0199481E01900029F1DC63E1A5
:1060D00009280100303132333435363738396162BE
:1060E0006364656600000000303132333435363782
:1060F00038394142434445460000000000F05AF957
:106100004519761C3078002800D0E2E528461BB0FF
:10611000F0BD600700D406271898C01DC108C9004B
:1061200048680A680831C30FDB071891190001D0CD
:106130009CA108E0210501D59BA104E0E10701D065
:106140009AA100E09AA1430011985B08109165287C
:106150000CD006DC452809D046281DD0472841D15F
:1061600041E0662818D067283CD13CE00021112F7F
:1061700001DB112000E0781C0191009008A911A812
:10618000FFF7E8FC139905910021119A15927F1CE5
:1061900012980197009150E00120C0070390012060
:1061A000019008A9009711A8FFF7D4FC139A14993D
:1061B00005920022119B009212981593059A019264
:1061C000002901D0104602E0791C40180190381ACD
:1061D00001D5019804E04042401E0090781C0190D7
:1061E000C01B029043E0012F00DA01270021112F8C
:1061F00001DD112000E038460191009008A911A8A6
:10620000FFF7A8FC13990591119A00211298159295
:106210000091019721070CD40599B94201DB01993E
:1062200000E00191012904DD159A491E515C3029D5
:1062300006D0B84201DA011D05DA0121029115E00C
:106240000199491EEDE7002805DC009941180091ED
:106250000199091A03E0019A411C914200DD019164
:106260000099401A401C02900120C00703902007AB
:1062700006D402990198814202DB0020C0430290BB
:1062800000206946C87707AF012103980337C90783
:10629000884224D0022011902B20129003980028CD
:1062A0000CDA404203902D20129007E00A21039857
:1062B000FBF718FB30317F1E039039701199481E8F
:1062C00011900029F2DC03980028EFD1791E129872
:1062D00008703078202108404530BF1E387006A86D
:1062E000C01BC01D039010980078002800D001202A
:1062F000019941180298C0170918039809180498C1
:10630000401A401E0490E00306D421461A9B199AB5
:10631000049800F05FF8451910980078002803D021
:106320001A9A199990476D1CE00324D521461A9BAF
:10633000199A049800F04EF845191CE000980028BE
:1063400007DB00990598884203DD1598405C199990
:1063500001E0199930201A9A904700986D1C401C52
:1063600000900298401E0290002804D11A9A2E2014
:10637000199990476D1C0199481E01900029DDDC98
:1063800005E038781A9A7F1C199990476D1C03997B
:10639000481E03900029F4DC21461A9B199A0498A0
:1063A000ACE600002D0000002B00000020000000E3
:1063B00000000000F8B5044600251E461746880474
:1063C00004D405E039462020B0476D1C641EF9D581
:1063D0002846F8BDFFB50446002581B01E46C80317
:1063E00001D5302700E02027880404D505E0384691
:1063F0000399B0476D1C641EF9D5284605B0F0BD61
:106400000A68531C0B60107070470000F8B5374CD9
:10641000054620780E46012809D0022807D00F280B
:1064200005D0122838D132480078002834D1FCF742
:10643000BDF8FF2830D00123FF272E492E4A002E19
:106440002BD06E070FD52478012C01D0022C02D15D
:106450005479002C20D19371284A5770162250434A
:106460004018437136E02D070AD52478012C01D05D
:10647000022C02D15479002C0ED19371022225E016
:1064800000249471162250434018437184710122F4
:106490000321002000F0F0FFF8BDEE070AD02478B9
:1064A000012C01D0022C02D19479002CF4D153712B
:1064B00003220BE0AD070FD52478012C01D0022C6C
:1064C00002D19479002CE7D153710422162358434A
:1064D000401842718771DAE70023537116240322B2
:1064E0006043401842718371D1E70000C900002069
:1064F000DE0000202B02002055010020F4020020C5
:1065000070B5124C02252078114E0F2809D00128B1
:1065100010D0022804D102220321002000F0ACFF99
:1065200070BD02220321002000F0A6FF032020708E
:10653000357008E002220321002000F09DFF257045
:10654000357000F01BF800F0E7FA70BDC9000020BC
:10655000CA00002003484168002901D0491E41605B
:10656000704700004C0100200349C888002801D072
:10657000401EC880704700005C01002002480021D6
:106580000185418570470000D00000203EB50446DB
:106590000A2901D3642902D20A4611A10DE07D2007
:1065A000C000814202D20A460FA106E010480A4606
:1065B000814201D20FA100E00FA101A8FFF782FAEA
:1065C000012101A8FCF702F87E21081A012100919F
:1065D000C0B20AA301AA2146FEF784F83EBD00001E
:1065E00020202025640000002020256400000000F9
:1065F0001027000020256400256400002000000012
:10660000F7B58AB0002516460446069503F03EFD10
:10661000002879D1434F012E08D02046FBF739FBE3
:10662000C4B20A2C0BD81F20C00209E03C780A2C07
:1066300002D81F20C00200E03B48F86001E03A4861
:106640003861FF21079001313848FCF7D4FF012859
:1066500004D0022E02D03878642809D320461221B3
:1066600048436421FBF73EF9C0B2314600F070F8B0
:106670000A2C02D222462EA105E0642C224601D229
:106680002DA100E02EA101A8FFF71CFA012101A80D
:10669000FBF79CFF0B9A012A02D0002A02D03AE0B5
:1066A000102538E0012E02D0022E04D033E0612202
:1066B000101AC5B22FE002252DE0FCF7CFFB06989B
:1066C0000B23205C6A1D2038C4B202212846FBF748
:1066D0000BFE0C2044431C48002620180490875DC4
:1066E00000240120A040384201D0079800E017485C
:1066F000FCF726FE641CE4B2062CF2D3761CF6B23C
:106700000C2E02D20498EAE70AE0AD1D0698EDB21D
:10671000401CC0B20690069801AC205C0028CCD189
:106720000DB0F0BD30010020FF0100000004004862
:106730002020256425250000202564252500000053
:106740002564252500000000B6CC000818C600000E
:10675000F8B5054600200C460146122D22D8124AF3
:10676000012C02D0022C03D004E06320D16801E0A8
:1067700011691C204619721E0091D2B20C2305210A
:10678000FCF7F4FC1220411BF0B24118491ECAB2BA
:106790000021012C01D0022C04D100910C230521F1
:1067A000FCF7E4FCF8BD000030010020F8B501283A
:1067B00002D0022805D00AE00E23792202216220AD
:1067C00003E00E23322202211B20FBF78DFD002661
:1067D000FCF744FB70003018002500900098411928
:1067E0000B480024475C0120A040384000D00948F5
:1067F000FCF7A6FD641CE4B2082CF4D36D1CEDB2CA
:10680000032DEBD3761CF6B20E2EE1D3F8BD0000BB
:106810008CCC000818C6000008B503F037FC00282F
:106820001CD187237F2228210090FCF79FFC0C4875
:10683000002100900F237F220846FCF797FC0120DF
:10684000FFF7B4FF074800900B237922062176203A
:10685000FCF78CFCFEF7BCFC00F05EF908BD000004
:1068600018C60000FF01000070B586B00446142170
:106870006846FBF766F81E4D2878002835D020784A
:106880004E2802D001211BA02DE00120694606E020
:106890000B18203B401CC0B2DA77142802D2225CCD
:1068A000002AF5D1091800262039CE7720188178E2
:1068B00040780C02044310A004F03EFE02466946F4
:1068C0000DA0FBF749F8002803D02E7001210DA080
:1068D00009E00720400384422E7002D8AA2001F06C
:1068E0002DFD012108A0FEF785FB06B070BD00005C
:1068F00054010020470000004C472D30362D4354F2
:10690000520000004E0000004600000038B5294A41
:10691000441C5278002A15D0012A30D101293DD0DB
:1069200002293DD003293DD004293DD005293DD081
:1069300006293DD0072922D11FA1FEF75FFCE0B256
:1069400022A120E001291BD002291BD003291DD040
:1069500004291DD005291DD006291DD007290ED1D7
:106960001FA1FEF74BFCE0B221A1FEF747FC01207E
:106970000090E1B21DA323A26020FDF7B3FE38BD55
:1069800021A100E025A1FEF739FC38BD28A1FAE7D6
:106990002CA1F8E730A1F6E734A1F4E738A1F2E73B
:1069A0003CA1F0E740A1EEE744A1ECE748A1EAE70B
:1069B0004CA1E8E7400300204661696C65642074DF
:1069C0006F2073657420412F42200000706F696E44
:1069D00074202020202020202020202020200000A3
:1069E000C9E8D6C34142B5E3CAA7B0DC0000000045
:1069F000C8CED2E2D2BBD6E1D0EBB4F3D3DA2020BA
:106A0000B6C8000031000000C9E8D6C3C2EBD6B555
:106A1000202020202020202020200000C9E8D6C3EC
:106A2000C2EBD6B5CDEAB3C920202020202000003B
:106A3000B6D4C2EBD6D02020202020202020202039
:106A400020200000B6D4C2EBCDEAB3C9202020201C
:106A50002020202020200000B6D4C2EBB3ACCAB165
:106A6000202020202020202020200000D5FDD4DA66
:106A7000D7D4B6AFD1B0D5D241204220B5E3000083
:106A800053657420436F646520202020202020203F
:106A900020200000436F6465205375636365737342
:106AA00066756C202020000050616972696E672E47
:106AB0002E2E2020202020202020000050616972EE
:106AC000204F4B20202020202020202020200000AC
:106AD00050616972696E67206F7665722020202090
:106AE0002020000046696E64696E67204142207074
:106AF0006F696E7420200000014908707047000023
:106B00007401002010B5FF2101310248FCF7AEF9F5
:106B100010BD00000004004810B502F025F905483A
:106B20000078002805D0112803D00348007803F02E
:106B3000C9FB10BDC9000020CA000020014600208A
:106B4000084A012905D0022907D0052904D19178E6
:106B500004E0117802E00120704751780329FAD04F
:106B6000704700005501002038B500F0DBFD0C4DEA
:106B7000E88C002813D10B48E8840B4800240470EB
:106B80000A48047002F0F0F8A0237F228C21002034
:106B90000094FCF7EBFA002002F08CF8AC7438BDDE
:106BA000D000002010270000CA000020C9000020EB
:106BB00010B50178032921D1417802291ED18178AD
:106BC00003291BD1C178042918D10179052915D1D0
:106BD0004179062912D1817907290FD1C179082974
:106BE0000CD1017A092909D1407A0A2806D1044931
:106BF00001200870014603A0FEF7FCF910BD00005B
:106C0000540100204700000010B500230B541A4621
:106C100004E08C5CE318521C9BB2D2B28242F8D3DF
:106C2000D8B210BD10B5FF2101310648FCF7DCFCDD
:106C3000002805D00448407B002801D0FEF7DAF890
:106C400010BD0000000400481A01002010B5002308
:106C50001A4604E0845CE318521C9BB2D2B28A420A
:106C6000F8D3405CDAB2904201D0002010BD012080
:106C700010BD000010B5B34909780B00FEF74DFFB9
:106C8000140B232D456317EB7C88EAE9F2CF9CB601
:106C90003BE7E6E5E417002877D00128FCD002287E
:106CA00002D0032804D005E0A7A1FEF7A7FA10BD83
:106CB000AAA1FAE70428EFD00528EDD00628EBD0EA
:106CC0000728E9D010BD0028E6D00128E4D002282A
:106CD000E2D00328EED1A6A1E7E70028DCD0012806
:106CE000DAD0022805D00328D6D00428E4D1A3A105
:106CF000DBE7A7A1D9E70028CED00128CCD0022815
:106D0000CAD00328D6D1A5A1CFE70028C4D0012836
:106D10000DD002280DD003280DD004280DD0052851
:106D20000DD006280DD00728CCD19FA1BDE7A2A188
:106D3000BBE7A5A1B9E7A8A1B7E7ABA1B5E7AEA1AD
:106D4000B3E7B1A1B1E700280ED001280ED0022888
:106D50000ED003280ED0042873D005285BD0062857
:106D600070D007286FD010BDABA19EE7AFA19CE704
:106D7000B3A19AE7B7A198E7002807D001288BD0E4
:106D8000022889D0032887D094E7D8E0B6A18CE701
:106D900000280FD001288ED002288CD003288AD05A
:106DA000042888D0052886D0062884D00728DAD180
:106DB000B0A17AE7B5A178E700280FD0012874D0F8
:106DC00002280DD0032877D004280BD005286FD0D7
:106DD000062809D00728C6D1B0A166E7B4A164E7A8
:106DE000B8A162E7BCA160E7C0A15EE700280ED0B1
:106DF00001280ED002280ED0032861D004280CD020
:106E00000528BCD0062800D05AE7BDA14DE7C1A196
:106E10004BE7C5A149E7C9A147E7CDA145E7002850
:106E20001AD00128ABD0022818D00328A7D00428F4
:106E3000A5D0052814D00628A1D0072893D1C7A132
:106E400033E73BE03CE02EE08DE27CE26CE267E081
:106E500008E037E04EE018E0C5A126E7C9A124E725
:106E6000CCA122E700280AD0012827D0022808D088
:106E7000032808D0042823D0052814D01EE7CAA16F
:106E800013E7CCA111E7D0A10FE700282AD00128F1
:106E90000ED002280ED003280ED004280ED00528CC
:106EA0000ED00628B0D1CDA1FFE656E204E0FFE700
:106EB000CEA1FAE6D2A1F8E6D6A1F6E6DAA1F4E68A
:106EC000DEA1F2E600280DD0012838D002280BD030
:106ED000032834D0042809D0052809D0062893D1E6
:106EE000D9A1E2E6DBA1E0E6DDA1DEE6E1A1DCE698
:106EF000E5A1DAE6002822D0012809D0022809D02D
:106F0000032809D0042809D00528B7D1E0A1CCE690
:106F1000E5A1CAE6EAA1C8E6EFA1C6E6F4A1C4E687
:106F200000280CD001280AD0022801D1F6A1BCE625
:106F3000032805D0042800D0BEE6F9A1B5E61DE27D
:106F40001AE20000C9000020C1ACBDD3D2D1B6CF37
:106F5000BFAA2020C7EBC9D4BAF30000D0C5BAC578
:106F6000C8F5C7EBBFBFBDFCD4C6CCA8000000006D
:106F70004120B5E3C9E8D6C300000000CBF9C9E859
:106F8000BDC7B6C8202020202020202000000000FF
:106F90004220B5E3C9E8D6C300000000D4ADB5E394
:106FA000C9E8D6C30000000020202020C9E8D6C3CD
:106FB00020202020000000002020D4ADB5E3C9E847
:106FC000D6C32020000000002020C8ABBEB0C4A360
:106FD000CABD2020000000002020BACFD3B0C4A337
:106FE000CABD2020000000002020CAD3C6B5C4A31B
:106FF000CABD2020000000002020D1D3CAB1C4A304
:10700000CABD2020000000002020CAD6B6AFC4A30D
:10701000CABD202000000000CFE0BBFAB7C5D6C330
:10702000202020202020202020200000BEB5CDB729
:10703000BDB9BEE0202020202020202020200000FC
:10704000D6D8B5FEC2CA2020202020202020202013
:1070500020200000BFECC3C5CAB1BCE42020202022
:107060002020202020200000C8ABBEB0C4A3CABD91
:1070700000000000200920202020202020202020A7
:10708000202020202020202000000000C8ABBEB01F
:10709000C4A3CABDB2CECAFD00000000202020203B
:1070A0002020202020202020202020202020000020
:1070B000C8ABBEB0C4A3CABDB2CECAFDC9E8D6C370
:1070C00000000000BFECC3C5B4CECAFD20202020C4
:1070D0002020202020200000BFECC3C5CBD9B6C89B
:1070E000202020202020202020200000D1D3CAB141
:1070F000CAB1BCE420202020202020202020000035
:10710000D5C5CAFDBCC6CAFD2020202020202020D5
:1071100020200000C8ABBEB0C4A3CABDC6F4B6AF41
:10712000BDE7C3E600000000B6A8CAB1BFAAC5C447
:10713000202020202020202020200000CAD6B6AF0A
:10714000BFECC3C5202020202020202020200000CC
:107150002020B2B9C5C4202000000000B0B4202017
:10716000B2CBB5A5BCFC2020CDCBB3F6000000000F
:10717000C8ABBEB0C4A3CABDB2B9C5C4BDE7C3E6FF
:1071800000000000B0B4B7BDCFF2BCFCD1A1D4F177
:1071900000000000C9CFD2BBD5C520202020CFC21F
:1071A000D2BBD5C500000000CAD3C6B5C4A3CABDB2
:1071B00000000000CAB1BCE42020202020202020B4
:1071C0002020202020200000D1ADBBB7202020208F
:1071D00020202020202020202020000020204142AC
:1071E000B5E3C9E8D6C3202000000000BBBACDA398
:1071F000CAB1BCE420202020202020202020000034
:10720000BFECC3C5202020202020202020202020CB
:1072100020200000D5C5CAFD2020202020202020CD
:107220002020202020200000B7BDCFF220202020E9
:107230002020202020202020202000002020C6F414
:10724000B6AF2020000000002020B7B5BBD820201A
:1072500000000000D1D3CAB1C4A3CABD0000000021
:10726000CDEAB3C9B6C8202020202020202020202D
:1072700020200000D5D5C6AC2020202020202020B2
:107280002020202020200000D4DDCDA3000000001D
:10729000B0E6B1BE20202020202020202020202069
:1072A0002020202000000000D3EFD1D42020202077
:1072B0002020202020202020D6D0CEC40000000096
:1072C000B3F5CABCBBAF20202020202020202020E6
:1072D0002020202000000000C1C1B6C820202020AE
