:020000040800F2
:1000000068060020C900000865120008A10C00085D
:1000100000000000000000000000000000000000E0
:10002000000000000000000000000000C5170008EC
:1000300000000000000000002D150008D517000882
:10004000DB00000800000000DB000008DB00000807
:10005000DB000008DB000008DB000008DB00000814
:1000600000000000E5090008E7090008EF090008A2
:10007000DB000008E1180008DB00000800000000B9
:10008000FD180008DB00000800000000C51800088B
:10009000DB000008DB000008DB000008DB000008D4
:1000A000DB000008DB000008DB0000089D190008E9
:1000B000B91900080348854600F006FC00480047CF
:1000C0001D2A0008680600200448804704480047AD
:1000D000FEE7FEE7FEE7FEE7FEE7FEE76918000839
:1000E000B500000830B50B4601460020202201244F
:1000F00009E00D46D5409D4205D31D469540491B5C
:100100002546954040191546521E002DF1DC30BDA4
:1001100003460B439B0703D009E008C9121F08C020
:10012000042AFAD203E00B78491C0370401C521ECB
:10013000F9D27047F8B502464A40D40F42004B004E
:1001400052085B089A4202D20246084611464A000B
:1001500023D0C30D4A00DDB2120EAD1A202D35DAC0
:1001600049020126490AF6058A19002C00D052429C
:1001700020214F1B1146B9402A411018C20D9A4246
:1001800021D0002C17D0012D08DCDA05801AD20FFF
:100190008019D207DBB200F0FDFAF8BDDA05801A4B
:1001A000012340001B06C01880185A428018CA0F4D
:1001B0001043490007E04908C2071143DA05801AD5
:1001C00080194008801800F0DDFAF8BD61000122B6
:1001D000511A001BF7E70122D2075140AAE701227A
:1001E000D2075040A6E7024670B54A40D30FDB075E
:1001F00040002DD04A002AD0010E140E0919000229
:100200001202400A520A8418E50104465443000AC7
:10021000120A2E045043A4194219200CC543AA18EF
:10022000120C01257F39521CAD035219120424040B
:1002300000D0521C104301D44000491EC2B20C062B
:10024000C0092018401C4008802A02D003E000208A
:1002500070BD40084000002900DA0020184370BD3E
:1002600070B502464A40D50F40004A00ED074008ED
:100270005208002814D0002A12D0C40DD30D410218
:100280000120C0055202490A520AE41A091812183C
:100290007D34914201D3641C00E04900002C01DA56
:1002A000002070BD0023914201D3891A0343400806
:1002B00049000028F7D100290AD0914202D101213A
:1002C000C90705E0914201D2012101E00121C943A2
:1002D000E005C018401900F055FA70BDF0B50746AA
:1002E0000846584087B0C00F049048000E46590099
:1002F00040084908BC1A884105D2384631461E4696
:1003000017460B46024658004008104303D13846B2
:10031000314607B0F0BD300D039040055900400D47
:10032000490D0590401A029040286DDA180301210A
:10033000000B09050843019004980092002805D09D
:100340000199524200208841009201900298402178
:100350000A1A0199009800F0E1F905460C46684632
:1003600007C800F0FCF9C0197141039A0E0D002373
:10037000D71756401A467A40164340D0049A002AAE
:1003800029D0029A012A039A11DC1205C01A914160
:1003900001263605001C7141D20F059ED20700933D
:1003A000019202962A46234600F03BFAB1E7160571
:1003B000224A0F46B218C01AB74101210905001C94
:1003C0004F4100187F41114618187941E20F104340
:1003D0006D19644113E0E2076D0815436408C20714
:1003E0001443039A01261205C01A91413605001CD8
:1003F0007141CE07400830434908C01851412A4690
:10040000234600F001FA84E7049801224000C11756
:10041000121A00238B4104983146C417381AA1419F
:10042000EFE730B40124E407634030BC56E730B452
:100430000124E407614030BC50E700000000E0FF09
:10044000F0B51FB488B00B99099800244840099969
:10045000C00F490049080991C0070B990090490055
:1004600049080B9109990898A646084303D00B99AF
:100470000A98084303D1002001460DB0F0BD099849
:1004800001244000420D4800410D09982405000355
:10049000000B204309900B980003000B20430B90A6
:1004A00050181A494018002201901446104601E0E5
:1004B000032801DA034600E003239C46C11A0AAE72
:1004C0000AE05F0008ADED5B4F00F75B7D4300275E
:1004D000AA187C415B1E491C6145F2DD410004AB5A
:1004E0005A522104120C0A43240C401C0828DFDB5A
:1004F000019802900099704601910090059B049A22
:100500000799069800F08DF9B7E700000DFCFFFF92
:10051000F0B50C465C4085B0E40FE40703944C0052
:100520000026640859009446490802460296224370
:1005300021D062460A431ED06200570D4A000E03C6
:100540002303550D012402462C492405781B1B0B5F
:10055000360B401823432643614600901C46501A30
:10056000B44103D30098401C009002E09218009818
:100570005B41002803DA0020014605B0F0BD0020F1
:10058000012109050746864611E064461D46141BF5
:10059000B54106D36546521BB341744607430C432D
:1005A000A646CD0740084908284392185B410546F6
:1005B0000D43EAD11046184313D060461946504007
:1005C0007140084303D100220123DB0709E06046A4
:1005D000101AB34102D20122002302E00122D243C9
:1005E0005310009874460105381C6141029C039D1C
:1005F0000019694100F008F9BFE70000FD030000A1
:1006000070B54B005B0803430BD04B005C0D00261C
:1006100033466542B341D417AD1AA34102DB002033
:10062000014670BD12053018514170BD10B5002251
:100630009623114600F0AEF810BD00000EB5054936
:100640000291002100910A460B46019100F0E9F861
:1006500003B000BD33040000410040020122400A03
:10066000D205090E80187F2901DA002070479629EB
:1006700003DC9622511AC84070479639884070476B
:100680004A0009030123090B1B051943094B10B547
:10069000520D9A4201DA002010BD064B34339A42C3
:1006A00003DC9A1A00F04AF810BD0349511888403B
:1006B00010BD0000FF030000CDFBFFFFC20FD207FB
:1006C000400040080BD0C10D0723DB01C9184002D0
:1006D0000905400A1143C208400711437047002032
:1006E00001467047CB0FDB07490010B549080246A9
:1006F0000A4307D00A0D07240903E401090B121B62
:10070000002A01DC002010BDC900440F0C43C100C9
:10071000E018D205801800F035F810BD10B5202A79
:1007200004DB0146203A9140002010BD9140202377
:100730009C1A0346E3401943904010BD10B5202A8F
:1007400004DB0846203AD040002110BD0B46D340C0
:10075000D0402024A21A91400843194610BD10B57C
:10076000202A06DBCB170846203A1041C1170B435D
:1007700006E00B461341D0402024A21A91400843C2
:10078000194610BD002904DA401C490001D1400877
:100790004000704770B40024050C05D110240004FB
:1007A00002D1002922D01124050E01D10834000203
:1007B000050F01D1241D0001850F01D1A41C80006B
:1007C000002801DB641C4000002908D020252E1BD6
:1007D0000D46F540A14000D00121294308431B1BD1
:1007E0000106DB1D000A002B02DA002070BC7047F6
:1007F000DB05181880180029F8DA401C4900F5D1EB
:1008000070BC40084000704710B5002B08DA002487
:10081000401C614192185B411A4301D140084000DD
:1008200010BDF0B51FB482B005460C0003D00846D9
:1008300001F0FCFA02E001F0F9FA203002460090E3
:1008400021462846FFF76AFF049B059A04460F4697
:1008500018431143084303D12046394607B0F0BD81
:100860001846104317D0009840210A1A18460599D7
:10087000FFF764FF05460E46009A05990498FFF7B6
:100880004DFF084301D0012000E00020C1170543BF
:100890000E432C43374300990E986305401A79059F
:1008A000E40A0A3000220C43FD0A002802DA002084
:1008B0000146D3E70105101969410C9C0D9D0019F3
:1008C0006941FFF7A1FFC9E7064C0125064E05E087
:1008D0002046E36807C82B4398471034B442F7D347
:1008E000FFF7ECFBA0380008C038000810B50C4B2F
:1008F00000219A681724A2435C0522439A600F23C3
:100900001B038268491CD20FD207994201D0002AEA
:10091000F7D18168002901DB006C10BD002010BDFB
:100920000024014010B500F005F800F01DF800F0BB
:1009300083F810BD00B50B480121826987B04902D8
:100940000A438261806908400690022000900320DB
:1009500001900020049009206946C00600F086FA44
:1009600007B000BD0010024010B51C4C0220A06270
:10097000E06818218843E060E06861148843084318
:10098000E060E068032189028843E060E06820219C
:100990008843E060E068042188430843E0606169BF
:1009A0000520C908C900014361612046FFF79EFF89
:1009B00001202060E168032081430143E160A168D8
:1009C00007480140491CA1602168C907C90FFBD035
:1009D000A1680140091DA16010BD00000024014074
:1009E000E8FFFF7F704710B500F012F810BD10B59A
:1009F00001F086F810BD10B500F094FF00F0AEFBDA
:100A000002F09AFB00F0C2FE032000F0A5FE10BD2C
:100A100010B5084C0221204600F074F920206060D7
:100A2000102060600221204600F060F900F08CFE8A
:100A300010BD00000000024038B52648012142697F
:100A40000A4342614069244C084025490090CB7F0D
:100A50002148224A08341A511F4BCC7F214A0C33BB
:100A6000E2500124CB7F021D9D582D0C2D042543FF
:100A70009D50CA7F83581C4C23408350CB7FC25863
:100A800003242403A243C250CB7FC2584024A24374
:100A9000C250CC7F025980239A431A430251CB7F24
:100AA0008415C25803252D02AA432243C250CA7F8F
:100AB00004158358AD00AB4323438350CC7F0259C8
:100AC00020239A431A430251C97F425801231A43F3
:100AD000425038BD00100240000002404024014056
:100AE000B037000804000020EFBFFFFFF0B50B2770
:100AF00006463F04384600F0ABF804280FD1084CF6
:100B0000206902252843206166612069402108434D
:100B10002061384600F09CF82169A9432161F0BDAD
:100B20000020024008490420CA68D20701D00120F1
:100B30007047CA68D20601D502207047C9684907C4
:100B4000FBD50320704700000020024002480169E5
:100B5000802211430161704700200240034801696F
:100B6000012252031143016170470000002002403E
:100B7000024801694215914301617047002002401B
:100B8000F0B50B2706463F04384600F061F804280C
:100B90001ED1104C20692025284320612069402166
:100BA00008432061384600F053F804280BD120692F
:100BB000A84320612069102528432061064806804B
:100BC000384600F045F8052802D02169A943216183
:100BD000F0BD00000020024000F8FF1F044801693A
:100BE000890503D40349816003498160704700008F
:100BF0000020024023016745AB89EFCDF0B50B27FC
:100C000006463F040D46384600F022F804280CD171
:100C1000064C20690121084320613580384600F0E8
:100C200017F82169490849002161F0BD0020024000
:100C300004480169090603D503494160034941603D
:100C4000704700000020024023016745AB89EFCDCB
:100C500000B50346FFF766FF02E0FFF763FF5B1E88
:100C6000012803D0002B00D1052000BD002BF4D1BA
:100C7000FAE700000249014808607047AAAA00008C
:100C80000030004000B587B00091002101220291A0
:100C9000039101920492694600F0E8F807B000BDA4
:100CA000FEE7000008B504494A6902434A61496900
:100CB0000140009108BD00000010024008B5044941
:100CC0004A6902434A6149690140009108BD000038
:100CD0000010024008B50449CA690243CA61C969E3
:100CE0000140009108BD000000100240044A511864
:100CF0002039C97F425852085200425070470000C4
:100D0000CA370008044A51182039C97F42580223C3
:100D10009A43425070470000CA370008044A5118ED
:100D20002039C97F425801231A43425070470000BE
:100D3000CA370008044A51182039C97F4258022393
:100D40001A43425070470000CA370008034A51183E
:100D50002039C97F001D085880B27047CA37000883
:100D6000054B10B559182039C97F43580324240373
:100D7000A3431343435010BDCA370008054B59180D
:100D80002039C97F001D0B581B0C1B0413430B504B
:100D900070470000CA370008054B10B559182039B4
:100DA000C97F4358034C23401343435010BD0000F8
:100DB000CA370008EFBFFFFF034B59182039C97F1E
:100DC0000C300A5070470000CA370008054B10B5B8
:100DD00059182039C97F43588024A34313434350F3
:100DE00010BD0000CA370008054B10B5591820394E
:100DF000C97F43580324A402A3431343435010BDA7
:100E0000CA370008054B10B559182039C97F435817
:100E10002024A3431343435010BD0000CA370008E9
:100E2000034B59182039C97F08300A507047000019
:100E3000CA370008054B10B559182039C97F4358E7
:100E40004024A3431343435010BD0000CA37000899
:100E5000054B10B559182039C97F43580324240283
:100E6000A3431343435010BDCA370008F0B5002414
:100E70003EE001232A46A3401A4038D04F68066856
:100E8000134653435D005D19AE435F433E43066026
:100E90004E68012E01D0022E05D18F6886685F430F
:100EA000AE433E4386600F69C668AE431D467D4330
:100EB0002E43C6604D68022D19D1FF2A0AD84E690B
:100EC000056A534353431A01D21A954373431D4392
:100ED00005620CE0130A1A465A435A435A43130157
:100EE0009E1A4D69436A6A43B34313434362641CC9
:100EF0000A681546E240BCD14A68012A01D0022A9C
:100F000006D1CB6841682A4691435A431143416058
:100F10000120F0BD0069814301D00020704701200D
:100F2000704710B5044600F01DFB206000F000FB88
:100F3000606000F00BFBA06010BD0000014610B522
:100F4000002000290FD110490A6B9207920F012A45
:100F50000AD0022A11D0032A09D000F003FB00F0C6
:100F6000E7FA00F0F3FA10BD00F0FCFA10BD0968D2
:100F70008907C90FFAD0054810BD096A8907C90F4A
:100F8000FAD00120C00310BD0010024000127A0008
:100F9000F0B50268194B1A4C984201D0A04203D117
:100FA0007025AA434D682A43164D174E174F984295
:100FB0000AD0A04208D0164CA04205D0A84203D0C7
:100FC000B04201D0B84204D103242402A243CC6829
:100FD000224302608A68C2620A888262984205D00F
:100FE000A84203D0B04201D0B84201D1097C0163CC
:100FF00041690122114341611046F0BD002C0140BE
:10100000000400400040014000440140004801400D
:101010000020004001290AD004290AD010290AD052
:1010200040290AD0CA1FF93A09D104210EE0002153
:101030000CE001210AE0022108E0032106E0012280
:101040009202914201D1052100E00621064A1830A2
:10105000525C054B1018DB1D5B5C0821026899404F
:101060000A43026070470000BC370008034610B511
:10107000002001290DD0102910D0FF39013912D0DC
:101080000F242402091B03D11146184600F014FA5C
:1010900010BD1146184600F035F910BD114618462E
:1010A00000F076F910BD1146184600F0B9F910BDF0
:1010B000FEB5044600680D460026C007C00F43D1A8
:1010C000E9686868AA6908432969114308432168E7
:1010D0001E4A114008432060A96860680322120379
:1010E0009043084360606969A06812119043084307
:1010F000A0601748844203D10020FFF71FFF06E0DD
:101100001448844220D16846FFF70BFF029800285C
:101110001AD02968002917D00126AA69F3039A4238
:101120000CD140004A088018FEF7DCFF81B20A4863
:1011300008400907490F0143E16005E04A0810181B
:10114000FEF7D0FF80B2E0603046FEBDF369FFFFDE
:101150000038014000440040F0FF000010B5064C8C
:10116000012149032046FFF78DFD01210903204697
:10117000FFF788FD10BD000000040048F0B595B0F1
:101180000220FFF7A7FD0021102000F077F80125CD
:10119000294928040860FF20F530694608800026A8
:1011A000264C0290019603962046FFF7F1FE206838
:1011B00080210843206049002046FFF72BFF602074
:1011C00005A961C1FA2008900220C101099005AA71
:1011D0002046FFF74BFF1A48184900791831184A82
:1011E0004018D21D127904273B4601689340994369
:1011F0000160A1152046FFF70DFF206880210843FC
:101200002060606C0902084360642068B84338437A
:101210002060E0682843E06002200E9003200D95D6
:101220000F9011950DA9109612950648FFF71EFE16
:1012300001F04AFD15B0F0BD00E100E000040040FF
:10124000BC3700080004004810B500F0C3FB00F0F4
:101250000DFC10BD10B500F077FD00F0CBFC00F0E8
:101260001DFD10BD70470000C106C90E0120884059
:10127000014908607047000000E100E08307FF2299
:10128000DB0E9A408907090E994000280BDA000707
:10129000000F0838830808489B001B18D869904342
:1012A0000843D8617047830804489B001B181868DE
:1012B000904308431860704700ED00E000E400E050
:1012C0008307FF22DB0E9A408907090E9940002808
:1012D0000BDA0007000F0838830808489B001B182A
:1012E000D86990430843D8617047830804489B003D
:1012F0001B181868904308431860704700ED00E021
:1013000000E400E030B5026A520852000262026A4C
:10131000436884697025A408A400AC430D682C437D
:101320000225AA430D692A4352084D6852002A43F8
:10133000134DA84208D0134DA84205D0124DA84223
:1013400002D0124DA84214D10825AA434D69AD0020
:101350002A430425AA438D68AD002A43FF250135A1
:10136000AB438D692B4301256D02AB43CD696D0005
:101370002B4343608461C96841630262012030BD30
:10138000002C014000400140004401400048014061
:1013900070B5026A1025AA430262026A4368846932
:1013A00073263602B4430E68360234432026B24315
:1013B0000E6936013243AA434D682D012A43144D6C
:1013C000A84208D0134DA84205D0134DA84202D020
:1013D000124DA84215D18025AA434D69AD012A437B
:1013E0004025AA438D68AD012A430125AD02AB43D8
:1013F0008D69AD002B430125ED02AB43CD69ED00B6
:101400002B4343608461C96881630262012070BD1F
:10141000002C0140004001400044014000480140D0
:1014200070B5026AFF250135AA430262026A436869
:10143000C4697026A408A400B4430E6834436E0047
:10144000B2430E6936023243AA434D682D022A4345
:10145000154DA84208D0154DA84205D0144DA842FC
:1014600002D0144DA84217D10125ED02AA434D69BF
:10147000AD022A430125AD02AA438D68AD022A437D
:1014800001252D03AB438D692D012B4301256D03F0
:10149000AB43CD696D012B434360C461C968C1632F
:1014A0000262012070BD0000002C0140004001409C
:1014B000004401400048014070B5026A01252D0337
:1014C000AA430262026A4468C36973263602B343C0
:1014D0000E68360233436E00B2430E693603324360
:1014E000AA434D682D032A430C4DA84208D00C4D49
:1014F000A84205D00B4DA84202D00B4DA84205D101
:101500000125AD03AC438D69AD012C434460C3613B
:10151000C96801640262012070BD0000002C014016
:101520000040014000440140004801407047000075
:1015300004494968F0221140034A0909515CC84036
:101540007047000000100240A437000803494968B2
:10155000034A4905490F515CC840704700100240DA
:10156000B437000810B5064841680C200140054812
:1015700005D0042903D0082901D100F005F810BDD9
:101580000010024000127A0010B50C4C6168012274
:1015900012040B48114002D0891A00D14000E16AC0
:1015A0000907090F491CFEF79DFD61680F2292048F
:1015B0001140890C891C484310BD000000100240F6
:1015C00000093D00F8B5544D0746A87C002876D0A8
:1015D000002028850126FFF74DFBB81984B20F2C97
:1015E0000BD8601CFFF722F84C49FEF7FCFD4C4974
:1015F000FEF736FE01464B486DE0132C0BD8601CFD
:10160000FFF714F84549FEF7EEFD4549FEF728FEC1
:10161000014645485FE0192C0BD8601CFFF706F81F
:101620003E49FEF7E0FD3E49FEF71AFE01463F48FF
:1016300051E0262C0BD8601CFEF7F8FF3749FEF767
:10164000D2FD3749FEF70CFE0146394843E02B2C0A
:101650000BD8601CFEF7EAFF3049FEF7C4FD3049A5
:10166000FEF7FEFD0146334835E03D2C0BD8601CEB
:10167000FEF7DCFF2949FEF7B6FD2949FEF7F0FD2C
:1016800001462D4827E04B2C0BD8601CFEF7CEFFFF
:101690002249FEF7A8FD2249FEF7E2FD0146274850
:1016A00019E05B2C0CD8601CFEF7C0FF1B49FEF74D
:1016B0009AFD1B49FEF7D4FD014621480BE024E0CA
:1016C000601CFEF7B3FF1549FEF78DFD1449FEF7C8
:1016D000C7FD01461B48FEF7C3FD0090288DFEF7AD
:1016E000A5FF0099FEF726FDFEF7B6FF2885FF2C23
:1016F00004D8761CF6B2FF2E00D26CE780B26430BC
:1017000028856879002801D0EF72F8BDFF20E872C3
:1017100001F01CFBF8BD0000080000200080FA4327
:1017200000803B47000016430000A04200007042CA
:101730000000204200000C420000F0410000A041E7
:10174000000070410000E0400248002101721421B5
:10175000C1727047C200002001220B499202012889
:1017600008D0022809D003280AD0042801D18861B2
:101770008A62704704208862FAE70420886101E0E9
:10178000042088628A6170470004004838B50B481D
:101790000121426989050A4342614069084C0840B9
:1017A000009040212046FFF76DFA80212046FFF788
:1017B00069FA4020A0628020A06138BD001002407C
:1017C00000140048704700000148FF210172704773
:1017D00098000020704700002148012102688A43D8
:1017E0000A4302600068084038D01E480168F822A9
:1017F000914380221143016001680122114301607D
:1018000001688907C90FFBD005224168D2043D2336
:101810001B04994311434160C16A09090901C1626E
:101820000168012212061143016001688901C90F94
:10183000FBD04168F02291434160416807221202C7
:101840009143416042680221920892000A4342603B
:101850000C22416811400829FBD17047FEE70000C7
:101860000020024000100240134801680122114389
:1018700001604168114A114041600168104A1140FD
:1018800001600168012292049143016041683F2296
:10189000120491434160C16A09090901C162016BE7
:1018A000FF22143291430163416B490849004163AF
:1018B0000021816070470000001002400CB8FF0852
:1018C000FFFFF6FE10B501200449C043086100F097
:1018D0004BFB01F095FE01F0D1FB10BD0020004054
:1018E00010B505480169C907C90F04D00121C943D2
:1018F000016101F041FB10BD002C014010B5012039
:101900000749C043086100F039F801F035FB01F0E8
:10191000DFFD00F0F9FA00F0EDFC00F0A9FE10BDCB
:101920000004004010B509208021C006FFF7AAF985
:10193000054C012189022046FFF7A4F90421204625
:10194000FFF7A0F910BD0000000400480A4810B5D8
:101950000246837851699269002B02D0914204D8E3
:1019600001E0914201D9FF2100E000214170C8B29D
:1019700001F08EF910BD0000300200200549C87C3E
:10198000022805D10120C87403494A6902434A610B
:1019900070470000080000200004004010B5054812
:1019A000C169C906C90F03D01021016201F058FEB8
:1019B00010BD00000038014010B50548C169C906D6
:1019C000C90F03D01021016201F094FE10BD000088
:1019D00000440040F0B52348012182698FB089039B
:1019E0000A4382618069012508400D904811022652
:1019F000032704956A46C1C200240920694605955B
:101A00000394C006FFF732FAA80204956A46C1C2E1
:101A10000920694605950394C006FFF727FA0021BF
:101A20001B20FFF74DFC1B20FFF71EFCE1204002AE
:101A300006900794089409940B940C940C200A4C7B
:101A40000A9006A92046FFF733FBA068402108430F
:101A5000A060A06880210843A0602068284320601F
:101A60000FB0F0BD001002400038014010B5012059
:101A7000FFF724F9204C1F4A02212046FFF7D0F936
:101A80001E4A02212046FFF797F910220221204624
:101A9000FFF774F9102202212046FFF77DF9012299
:101AA000520302212046FFF75BF900220221204663
:101AB000FFF7C0F9802202212046FFF787F90022B4
:101AC00002212046FFF7C4F9002202212046FFF739
:101AD0008BF9002202212046FFF794F92020606054
:101AE0001020606000210A20FFF7EAFB0A20FFF7C0
:101AF000BBFB10BD2838014000000240B6000020AA
:101B000010B5084C04212046FFF7FCF801204003E3
:101B100060604010606004212046FFF7E7F800F0A5
:101B2000B3F810BD0000024001481E21C172704789
:101B30001901002070B5002100F05EF900282AD1BB
:101B4000184CE07A002826D120460D3016224A4350
:101B50001218127D002A1FD003291CD216225143CD
:101B60000D18287DA07200F0E9F80E48A27A2946E7
:101B70000C38FEF7CDFAA27A0B4C04212046FFF771
:101B8000FDF804212046FFF7D5F804212046FFF791
:101B9000C5F80020287570BD491CC9B20329D5D3EA
:101BA00070BD0000190100200000024070B50E4E0B
:101BB00005213046FFF7CAF81025281A01060B4CFC
:101BC000090E61720ED005213046FFF78FF80848E4
:101BD0000168490849000160607A102800D96572DF
:101BE00000F0A6F870BD000000000240EF000020E9
:101BF0000044004010B50120FFF760F81D4C1C4A5E
:101C000005212046FFF70CF91B4A05212046FFF766
:101C1000D3F8102205212046FFF7B0F80022052155
:101C20002046FFF7B9F80122520305212046FFF7AD
:101C300097F8002205212046FFF7FCF880220521B5
:101C40002046FFF7C3F8002205212046FFF700F9E0
:101C5000002205212046FFF7C7F800220521204673
:101C6000FFF7D0F805212046FFF758F810BD000017
:101C70002444004000000240E3000020014800210D
:101C800001727047EF00002000B503480021017287
:101C9000FFF74AFF00BD00001901002070B50120C8
:101CA000FFF70CF8204C1F4A04212046FFF7B8F834
:101CB0001E4A04212046FFF77FF810220421204607
:101CC000FFF75CF8102204212046FFF765F8012594
:101CD0006D032A4604212046FFF742F80022042122
:101CE0002046FFF7A7F8802204212046FFF76EF870
:101CF000002204212046FFF7ABF8002204212046F1
:101D0000FFF772F8002204212046FFF77BF8656098
:101D1000A014606000210B20FFF7D2FA0B20FFF720
:101D2000A3FA70BD28440040000002400D010020CD
:101D30000148FF2101727047EF0000200148FF2198
:101D40000172704719010020F0B526480121C269CF
:101D50008FB049040A43C261C069012508400D9053
:101D600004200226032704956A46C1C200240920E4
:101D7000694605950394C006FFF778F80820049596
:101D80006A46C1C20920694605950394C006FFF75B
:101D90006DF800211C20FFF793FA1C20FFF764FA6E
:101DA0004B20C00106900794089409940B940C945E
:101DB0000C200D4C0A9006A92046FFF779F9A0687F
:101DC00040210843A060A06880210843A0602068EB
:101DD00028432060102020622168014321600FB059
:101DE000F0BD000000100240004400400148007AAD
:101DF00070470000EF0000200148007A70470000A3
:101E00001901002010B50748C07801F0A9FB80B285
:101E10000549FF2801D2FF2200E000228A74FFF763
:101E2000D1FB10BD30020020080000202021020C50
:101E300001D010211046020A01D0083910460209CB
:101E400001D0091F1046820801D0891E10464208A1
:101E500001D0881E7047081A704702E008C8121F98
:101E600008C1002AFAD170477047002001E001C183
:101E7000121F002AFBD1704770B51A4D1A4CA87A70
:101E800000281CD0012821D100F080FF0220A87278
:101E9000206AA061616900F061F8FF21F531002638
:101EA000E061884213D96E73FF210C2000F058FEC8
:101EB000FFF7A8FFFF20A070FFF748FD0FE000F03C
:101EC00065FF0120A87209486061206270BD002191
:101ED0000C2000F045FEAE72A6612662E66100F0BD
:101EE00055FF70BD0800002030020020FFFFFF7F7B
:101EF00010B50449487000F0CBFE642001F01CFBD3
:101F000010BD00003002002030B5124DE87B0028E3
:101F10000ED01148446983694278016A2846808B53
:101F20009C4209D9241AA14211D01818814208D024
:101F300030BD0220687030BD9C42FCD22418A14202
:101F400002D1002AF7D0F4E7181A8142F3D1FF2A10
:101F5000EFD130BD0800002030020020814201D9BD
:101F6000081A7047401A704703494888002801D072
:101F7000401E488070470000000000200849488B40
:101F8000172801D2962002E0222802D25020887021
:101F90007047372801D23C20F9E72820F7E70000F6
:101FA0000800002000B51A4A507B01281FD1507943
:101FB00000281CD01178002919D09078002816D15B
:101FC00014480023C078022902D0012907D01BE061
:101FD00001F0C6FA518B884215D9491C0EE05178A0
:101FE000002905D0518B7F2902D21370D17200BD18
:101FF00001F0B6FA518B884205D2491E88B250834F
:1020000000F0A4FE00E01370FFF7B8FF00BD000071
:102010000800002030020020F1B54D4D0020A883BB
:102020000126FEF727FE009884190F2C0BD8601CA0
:10203000FEF7FCFA4749FEF7D6F84749FEF710F9D4
:10204000014646486CE0132C0BD8601CFEF7EEFAF4
:102050004049FEF7C8F84049FEF702F901464048FA
:102060005EE0192C0BD8601CFEF7E0FA3949FEF748
:10207000BAF83949FEF7F4F801463A4850E0262C00
:102080000BD8601CFEF7D2FA3249FEF7ACF83249A1
:10209000FEF7E6F80146344842E02B2C0BD8601CD2
:1020A000FEF7C4FA2B49FEF79EF82B49FEF7D8F845
:1020B00001462E4834E03D2C0BD8601CFEF7B6FAE2
:1020C0002449FEF790F82449FEF7CAF8014628484B
:1020D00026E04B2C0BD8601CFEF7A8FA1D49FEF732
:1020E00082F81D49FEF7BCF80146224818E05B2C37
:1020F0000BD8601CFEF79AFA1649FEF774F81649D9
:10210000FEF7AEF801461C480AE0601CFEF78EFAA6
:102110001049FEF768F81049FEF7A2F80146174883
:10212000FEF79EF80746A88BFEF780FA3946FEF7C1
:1021300001F8FEF791FAA883FF2C04D8761CF6B2BA
:10214000FF2E00D26DE780B26430A883F8BD000096
:10215000080000200080FA4300803B47000016433F
:102160000000A042000070420000204200000C422B
:102170000000F0410000A041000070410000E0407C
:10218000F8B5584E584C30467378C2780127002570
:102190008078216C932B10D0032B0DD1012845D0D2
:1021A00004287CD005287BD006287AD0072803D1C4
:1021B000012A01D100F0AAFEF8BD012808D00228AA
:1021C00031D003282FD0042805D0052819D02AE0C3
:1021D00000F0BCFF27E0002A25D0F570E770A5735A
:1021E000A07A012802D0022809D101E0A57206E0F8
:1021F0003E48C069002802D000210B2011E0FF21D9
:10220000FBE7012A0FD13079012802D0022803D040
:1022100009E0FF20A07306E0A573607A002802D1D0
:10222000092000F09DFC7570B570F8BD2E48012A9C
:10223000407B10D0022A20D0032AF6D1062806D0EF
:1022400006206073A564657200F0A0FD6571012031
:1022500000F084FAF8BD012808D0677300F096FDFD
:102260000120234980038862E5732575A571657295
:10227000E571256465750020EAE7022814D0022084
:102280006073A564E573A56518482572408A884285
:1022900000D8256400F07AFD00F04EFC02E00FE06B
:1022A00011E015E000F0FCF9012000F057FA00F011
:1022B00013FB0920216C00F053FCA5756571F8BD76
:1022C00082210E2001E000210F2000F049FCF8BD22
:1022D000002AFCD000F05AFD65736571A571657226
:1022E000F8BD000068000020080000203002002037
:1022F00000040048F8B5224C607B03280CD0214D27
:10230000FF2728466A69A969006A00268A4204D91B
:10231000884206D9904208D2F8BD8A42FCD288424F
:1023200001D3AF7002E09042F6D8AE70FFF70EFB1B
:102330002670E07B002805D0E673667000F026FD6D
:102340001148E08328790028607B09D00128E3D177
:10235000687900280DD000F019FD66712675F8BD6A
:102360000128FCD1667100F011FD002000F0F6F9A3
:10237000F4E7A07C0028F2D001206070E772F8BD7D
:102380000800002030020020E903000010B500F032
:1023900001F810BDF8B52248012600783603214D1A
:1023A0007700214C002803D0FF2828D0AE61F8BD6B
:1023B000607A0028FBD11D4840790028F7D1092018
:1023C0001021C006FEF7A6FD002804D0AE62AF6162
:1023D0000020E075F8BDA08C0028FBD17D20C00056
:1023E000A084E07DC0430006000EE07502D0AE611F
:1023F000AF6201E0AE62AF61FF20A075F8BDA08CB6
:102400000028FBD1C820A084E07DC0430006000E58
:10241000E07502D0AE62AF61F8BDAF62AE62F8BDEA
:1024200000000020000400480800002030020020C6
:1024300010B50C4C606CFEF7F9F8616DFDF7CFFE3E
:10244000A16DFDF777FE7F21C905A065884205DDF6
:1024500001222272FDF7BFFEA06510BD0020207290
:1024600010BD00000800002010B51548417A002971
:1024700024D0C18C7D22491C89B2D200C1849142F2
:102480001CD30021C184417C002902D0491E417423
:102490000DE0017C3B22002903D0491E01744274E7
:1024A00005E0018C002902D0491E01840274817B61
:1024B000002903D1016C092000F052FB10BD00007F
:1024C0000800002070B51C4CA07A022821D31B4DB7
:1024D000688A00281DD0A0790026002821D001F0AC
:1024E00023F9688A216C884203D8E6712664A665C0
:1024F000267200F01FFAE07900280BD0012807D1DE
:10250000A879002801D0022002E000F033FCE07935
:10251000607270BD00F048FC0028FAD100F0AAF902
:1025200070BD607AE071012005496672800388629F
:1025300000F02CFC70BD00000800002030020020DC
:102540000004004810B50E483C22017AE1235143B3
:10255000C2791B015A438918427A3C238A180949D7
:10256000E1240A63C27A24015A43837A007B6343DD
:10257000D21810187D22D20048635043C86210BDA3
:102580003002002008000020F8B501F05DF8354C5D
:10259000A079002858D0607A002855D0324E002506
:1025A000022817D0314F03282BD004284CD1E16BDF
:1025B000A06B814248D3788A216C884245D86572E5
:1025C00000F0E4FBA571012000F0C8F8A07B002812
:1025D00035D038E0E16CE06B884235D3216C491C82
:1025E0002164A07B002802D1092000F0B9FA012063
:1025F0008003B0618010B0614000B0620320E563E9
:1026000028E0E16AE06B88421ED3FFF711FF042047
:10261000E56360720003B0628010B0624000B06198
:10262000788A216C88420FD8657200F0AFFB657123
:10263000A571012000F092F82564657503E009207A
:10264000216C00F08DFAE571F8BDE563B8790028DA
:1026500002D002206072F8BD0120607200F08AFB97
:10266000F8BD0000080000200004004830020020EF
:1026700000B50A4A507A01280ED1906C401C906433
:10268000137A516CC918814206D800F07FFB0220F2
:1026900050720020D063906400BD0000080000204C
:1026A000F8B5294C7D20656BC000454300F0DEFB8A
:1026B000264E274FB17900293FD04019FF30F53021
:1026C000244988420DD32448401BFDF7AFFF00F09A
:1026D00077F900F0CBFBB179002931D04019FF30F8
:1026E000F5307D22216BD2005143814224D2114624
:1026F000FDF7F8FC002900D0401CE1210901074644
:102700002063FDF7EFFCF07105463C213846FDF7EC
:10271000E9FC014628463C225043081A30725043D7
:10272000391AE122284612015043081A707201201A
:1027300000F014F800206075F8BD4019C019BFE71B
:102740004019C019CDE70000080000203002002029
:10275000DC05000098C7A400BCC1A400FEB53D4D37
:102760000024162060434019007D002803D0641C1B
:10277000E4B2032CF5D3032C6AD0374F3748797B6A
:1027800003794678022907D03A4652790292012904
:102790001FD006292DD055E0162161430222491988
:1027A0004A70427A8A70027ACA70C2790A71027BD0
:1027B0004A71C27A8A71827ACA71428A0A72120A8C
:1027C0004A728B728079C8720E73B87948730E2082
:1027D0000DE016216143012249194A70C2788A70BE
:1027E000CB70407908714E71029888710720087586
:1027F00028E0162262430D2157197970C189B970FA
:10280000090AF970018A0091E12109010098FDF798
:1028100069FCB87101903C210098FDF763FC0199B7
:102820003C225143401A787150430099E122091A21
:10283000019812015043081A3871FE7102983872DB
:1028400009203875162103204C432855FFF76CF9F1
:10285000FEBD0000260100200800002030020020FC
:1028600000B50348FEF742F9042800D0FEE700BD9A
:1028700000E4000810B50E4C607B022817D15720E9
:1028800000F05EFA01210B488903816189108161A2
:1028900049008162216C491C2164A07B002802D17F
:1028A000092000F05DF90020E0630320607210BD94
:1028B000080000200004004800B5FEF7B9F9FEF753
:1028C0008DF9BB20FEF75CF9FEF752F9FEF73EF9F1
:1028D000FEF744F900BD000070B5144C607D00287F
:1028E00023D1FF2060751248408A00281DD0216B3B
:1028F000401E4843616B4618E12109013046FDF74F
:10290000F1FB208405463C213046FDF7EBFB0146F8
:1029100028463C225043081A20745043311AE122C1
:10292000284612015043081A607470BD0800002048
:102930003002002070B5572000F002FA00F096FA3D
:10294000194C05467D21606BC9004843E062FFF7E2
:10295000C3FF16488279E06A002A0DD02918FF319A
:10296000F5317D23206BDB0058435B10002A07D034
:10297000884212D8A36314E00D4928184118F0E7E3
:102980007D22D200884201D8A36304E0E16A401BA3
:10299000401A801AA063E26470BDE16A401B401ACD
:1029A000A0630020E06470BD080000203002002019
:1029B000DC05000001490120087070476400002018
:1029C00070B5134D06465720EC6900F0C9FD401C58
:1029D000FDF734FE00220F4BFDF732FD00220E4BB7
:1029E000FDF796FDFDF77EFE01463046FDF738FC0B
:1029F00006462046FDF71AFE3146FDF731FCFDF78D
:102A00002BFEC0B2801C68820120FFF7A7FE70BDBC
:102A10003002002000507F400070E7403C4886B004
:102A2000826901210A438261806908400021009087
:102A3000481FFEF723FC0021881EFEF71FFC002123
:102A4000481EFEF71BFCFEF7C7FE01204004FEF700
:102A500029F901208004FEF725F910200921C90673
:102A6000886220208862402088628020886244003A
:102A70008C62284A0001906200018862C01088625E
:102A8000FDF7B9FF00F020F9FEF778FB2046FEF7CE
:102A900021F901211320FEF7F1FB01251E49E00277
:102AA00008601E486946088000201D4C0190039074
:102AB00002952046FEF76CFA206828432060E06803
:102AC0002843E060FEF7C6FBFEF7BEFBFDF72AFFDA
:102AD000154C14482060032060601448A060144D19
:102AE00025601448206000F0DFF8256000F058FAF7
:102AF000FFF758FA00F0EEF800F0D0FAFFF744FDC7
:102B0000FFF744FC00F0D0FDFFF714F8EDE70000FC
:102B1000001002400004004800E100E0BF5D00003A
:102B2000002000405555000000300040E204000045
:102B3000AAAA0000CCCC000010B5084CA07900284F
:102B40000AD10A21E069FDF7CDFA618A814200D9F4
:102B500060820120FFF702FE10BD0000300200205D
:102B6000F8B5444D06460024162060434019007D08
:102B7000002803D0641CE4B2032CF5D3032C78D0D6
:102B80003D48C278D20774D00327CAB2082E0FD0AE
:102B900009040B0E092E11D004210A2E1DD00B2E74
:102BA00022D00C2E29D00E2E27D00F2E2CD05BE059
:102BB0002046162148432E54401922E01621614335
:102BC00049194E708A70CB70427C0A71027C4A713E
:102BD000008C88710720087546E016206043401974
:102BE00046708270C37006E016206043401946703C
:102BF00082700122C270017536E0162060434019D0
:102C00004670827007752FE0006D1C490090884265
:102C100010DBFDF753FD1A4A1A4BFDF702FC0022A8
:102C2000D243FDF7EDFC0022174BFDF709FCFDF741
:102C300059FD00E00020162231466243561971709A
:102C4000FDF70AFDB0700098FDF706FDF0700F4922
:102C50000098FDF7C8FAFDF7FFFC80B26421FDF78C
:102C600041FA317105203075162044432F55FEF787
:102C70005BFFF8BD26010020080000209A99B940AA
:102C80003333333333331740000059400000C84218
:102C90000921C906002802D0802088617047802061
:102CA000886270477047000010B500F04BF900F0E3
:102CB0006DF8FFF747FCFFF70FFE02480021417156
:102CC000817110BD3002002010B500F05FF8FFF7F1
:102CD000E9FF10BD00B5184A507B01282BD1507870
:102CE000002828D01178002925D19178002922D1F7
:102CF0000023022802D001280DD01AE0D07AFF2844
:102D000002D2401CC0B20FE053705079002810D19D
:102D100000F03CF80DE00948C07800F021FCD17AC1
:102D2000884205D2491EC8B2D07200F00FF800E008
:102D3000537000F0D9F900BD0800002030020020D7
:102D400000B500F00DFC00F001F800BD07498862F5
:102D5000074AD07C002804D0012801D10220D07479
:102D600070474869012210434861704700040040E1
:102D7000080000200348026801210A43026002485B
:102D8000C174704700040040080000200448016836
:102D900049084900016003490020C87470470000D9
:102DA000000400400800002070B51549002488790F
:102DB000002801D0002070BD11484D690A6A83695E
:102DC000AA4201D19A4218D08E780024FF20002E0A
:102DD00002D0FF2E03D007E0AA4202D803E09A42B5
:102DE00001D9487000E04C70064A0124D07348783D
:102DF000FFF74EFF642000F09FFB204670BD0000EF
:102E0000300200200800002070B5134DC820EC8966
:102E10007D2144431148C9004464288A484321461F
:102E2000FDF760F9FDF702FC0D49FDF7DCF90D49EE
:102E3000FDF716FA7F21C905FDF7CDF9FDF70CFC6A
:102E40000F2801D20F202C82074988624A6901238A
:102E50001A434A6170BD00003002002008000020C3
:102E600000803B470080FA4300040040F8B5234847
:102E70000027C2693C46002A19D0418A002900D0A7
:102E80004C1E5720009200F06BFB401CFDF7D6FB58
:102E900000221B4BFDF7D4FA00221A4BFDF738FB3A
:102EA000054616480E468079002802D024E000200E
:102EB000F8BD002C1CD02046FDF7B8FB0746009853
:102EC000FDF7B4FB3946FDF7CBF90F4F7865FDF7F9
:102ED000C3FB786421460098FDF704F9FDF7AEFBCB
:102EE0002A463346FDF7ACFAFDF7CAFB074603E076
:102EF00005480021416441653846F8BD3002002094
:102F000000507F400070E740080000200C48FF217F
:102F100041706422C27001710021F022016242827C
:102F20004171C1710172032242728172C172012228
:102F3000027381717D21C900C18123210182704703
:102F40003002002010B50B4800F080F809480178E5
:102F5000AA290DD0002141617D2109018161AA21A9
:102F60000170FFF7D3FF034800F0F6FBFFF7A4FC66
:102F700010BD0000300200200748807A002809D0E8
:102F800006494A780846006A002A01D0401E00E03F
:102F9000401C08627047000008000020300200203A
:102FA000FEB5002000902048204C01906088002849
:102FB00032D1142060801E4DA088FDF737FB2946D2
:102FC000FDF711F91B49FDF74BF91B4F064631255B
:102FD000A800C1194039C96B39500098FDF7AAF80B
:102FE0006D1E2D0600902D0EF2D131463E60FDF78C
:102FF000A1F81249FDF734F96178491CC9B2617032
:10300000322909D965700199FDF7EDF80C4908607E
:103010000C49884201DC2570FEBD0B498842FADA72
:10302000FF202070FEBD00000000B840000000201E
:1030300000404E3F00007A446801002000004842F2
:10304000580000203333B3409A99C94070B5064602
:10305000084C3425FDF70EFE074A0021944202D2A7
:103060002088A41C7054491CC9B2A942F6D3FDF7AC
:1030700001FE70BD00E4000800EC00080649C87AB3
:10308000002801D0401EC87203485730C17A002979
:1030900001D0491EC1727047C200002000B511491D
:1030A000487B01281CD04A78002A19D0887800284B
:1030B00016D108460023C07A022A02D0012A04D081
:1030C0000CE0FF2809D2401C02E00D2805D9401E63
:1030D000C0B2C872FFF73AFE00E04B7000F004F88F
:1030E00000BD0000080000201249C87A0F2801D84E
:1030F000962002E0132802D85020887070471928C3
:1031000001D83C20F9E7262801D82820F5E72B280C
:1031100001D82320F1E73D2801D81E20EDE74B28F8
:1031200001D81420E9E75B2801D80F20E5E7072044
:10313000E3E700000800002010B5012189030248E0
:10314000FDF7A0FD10BD000000040048FEB5DB48FF
:103150000026C3780179DA4CDA4D4079012B31D061
:10316000D64A521C9646521ED2790092D34A97797B
:103170003C2201975743BC46E127009A3F017A431E
:10318000CE4F62447F79D2199446724657791279AC
:103190003F021743022B6FD0032B6ED0042B10D1AC
:1031A00001296BD002296AD0032969D0042908D1EA
:1031B000687100287AD001206872FFF725FEFFF7BA
:1031C000D9FDFEBDBF4ABD4F5278012910D002295A
:1031D0003FD003296BD004296AD00529F1D100F032
:1031E000A3FAE069002873D0A97A022970D186E099
:1031F0006428E6D8002A03D00020FFF7AFFAFEBD0E
:103200006979002920D0E178FEF7A8FE012817D9B6
:103210002878002808D0787900F0A2F9698B8842D4
:103220000AD30BE028700FE0E07800F099F968838A
:103230007879E178884201D90120F3E70220F1E7AB
:103240002E707879FFF77CFD7879E070FEF7DAFD73
:1032500024E16179002947D099496369A269096A23
:10326000934204D9994204D291420CD90DE099427B
:1032700007D8FF28C3D008E068E0D6E00DE110E1F0
:1032800014E1914201D30028B9D000F04DFA7879C9
:10329000A070FEF75BFBB879FF280AD00028AED1FA
:1032A000A87C00281CD0022068701BE002E121E00D
:1032B00022E0A87CFF2300280BD0287D002804D121
:1032C0002B751846EB72FFF741FD0120687003E093
:1032D0008BE0E078FFF734FDFFF74CFD6B71FEBD2E
:1032E000FFF754FD6E71FEBD002AFCD1A070FEF701
:1032F0002DFBFEBD2071FEBD60712E75FEBDFF2150
:10330000F531884271D3607900280BD001239B03EB
:103310007C799A106C485100002C13D08361826133
:103320008162FEBD78796871002802D000F0E6F96C
:10333000FEBDA87C002802D002206870FEBDFFF709
:1033400025FDFEBD836282628161FEBD5B4B3B2237
:10335000012911D0022927D0032942D0042945D0C0
:103360001F4605294AD00629EFD1E16900294FD02F
:10337000AA7A022A4CD147E0607201982072009824
:10338000E071524861462963844505D90221E17103
:1033900022726272286320E0FFF782F900F0E6F8FB
:1033A000FFF708FB6E75FEBD20730198E072009870
:1033B0004649A0726046891E68638C4506D9022082
:1033C000A072E27239202073696306E00028E3D11D
:1033D000A672E6720120207368630120FFF7BEF930
:1033E000DAE76782FFF7A8FBD6E711E0A0710028B3
:1033F000D9D1FFF755F900F0B9F8FEBD00F094F906
:103400007879A070607852E0FF22F532914208D2BC
:10341000AE726661A661FF210B202662FFF7A0FB5A
:10342000FEBDA871FFF74EF8FEBD687B032809D0EA
:1034300003206873FFF7AAFC6E71AE71AE7266610D
:10344000A66126621D48017901290AD002291AD0F5
:103450000329E9D00429E7D1AE726661A66126622C
:10346000FEBD4179012909D00229F9D180790028CE
:1034700000D164E70020FEF73BFDFEBD8079002807
:10348000F7D0FF20F7E7A87A022803D1AE72666171
:10349000A6612662FEF7F0FCFEBDE781FFF78AFA1F
:1034A000FEBD60462082FFF7AFFCF7E76070FFF7D4
:1034B000EFFBFEBDFFF76AFC6E72FEBD68000020E8
:1034C0003002002008000020000400482F2A0000DD
:1034D00030B51748417B012917D14179002914D013
:1034E00014494A79002A10D1827C002A0DD04D69F6
:1034F0008C694B780A6A0146098DA54209D96D1A73
:10350000AA4211D061188A4208D030BD0221417010
:1035100030BDA542FCD26D18AA4202D1002BF7D0D3
:10352000F4E7611A8A42F3D1FF2BEFD130BD0000DE
:10353000080000203002002010B500F011F8C0B2E1
:10354000FEF76AFD054BFF20D872FFF7FFFB012055
:103550005870FFF70FFCFFF7C7FD10BD08000020F3
:1035600001494000085A7047D4370008F8B5214D8A
:103570000024162060434019007D002803D0641CFD
:10358000E4B2032CF5D3032C33D01B48408A002827
:103590002FD01A49401E0A6B496B50434618E1214F
:1035A00009013046FCF79EFD07463C213046FCF7FA
:1035B00099FD014638463C2250430A1A3C205043AC
:1035C000311AE12338461B015843081A16214C438F
:1035D000092361194B70094B1B6C8B701B0ACB7054
:1035E00008714A718F710720087503202855FEF76E
:1035F0009BFAF8BD260100203002002008000020C0
:1036000010B51048418C002901D0491E41848178B1
:10361000002901D0491E8170818C002901D0491EEA
:103620008184C18B012901D9491EC183417A0129B5
:1036300004D9C16B4A1C01D0491CC163FEF714FFB9
:1036400010BD00000800002010B50448C18B0129FE
:1036500003D10021C183FFF70DF910BD0800002040
:1036600070B50E4E03213046FDF770FB1025281A69
:1036700001060B4C090E61720ED003213046FDF796
:1036800035FB08480168490849000160607A102844
:1036900000D96572FEF798F870BD00000000024086
:1036A000980000200038014010B5FEF79FFB00286D
:1036B00019D0FEF7E3FA0C480146427A0C398738F4
:1036C000FCF726FD09480168012211430160084CFE
:1036D000102205212046FDF751FB05212046FDF76C
:1036E0001DFBFEF74DFD10BDEF0000200044004023
:1036F0000000024010B5FEF759FA10BD10B500F0F9
:1037000013F80748817C002902D00121417003E0B1
:103710000448C078FFF714FBFFF72CFB10BD000036
:10372000080000203002002010B50548017800296B
:1037300004D000210170034800F00EF810BD000015
:10374000640000203002002000B5FDF757FA04287D
:1037500000D0FEE700BD0000F1B50F4D3426FDF7A7
:1037600067FA0E493420C860FFF77AF8FDF782FA4D
:103770000B4F0024BD4205D20098015D2846FFF79B
:10378000E3FFAD1C641CE4B2B442F3D3FDF772FA5C
:10379000FDF7DCF9F8BD000000E40008002002405D
:1037A00000EC00080000000000000000010203041B
:1037B00006070809000000000102030400000000E1
:1037C00004040400000800000008081C30445808E5
:1037D0001C3044588813A5086C083408FD07C70737
:1037E00092075E072B07F906C806980669063B068E
:1037F0000E06E205B7058D0564053C051505EF04C9
:10380000CA04A60483046104400420040104E30301
:10381000C603AB038F0375035C0343032A03120340
:10382000FB02E402D202C002AE029C028A027802CB
:10383000660254024302320221021002FF01EE012D
:10384000DD01CC01BB01AA01990188017801680161
:10385000580149013A012B011D010F010101F3003B
:10386000E600D900CD00C100B500AA009F00940079
:103870008A00800076006D0064005B0053004B00FE
:1038800044003D00370031002B00260021001D00C0
:1038900019001600130011000F000D000C000000AD
:1038A000C038000800000020680000005A1E000810
:1038B0002839000868000020000600006A1E000881
:1038C00000000000000000000000000000000000F8
:1038D00000000000000000000000000000000000E8
:1038E00000000000000000000000000000000000D8
:1038F00000000000000000000000000000000000C8
:1039000000000000000000000000000000000000B7
:1039100000000000000000000000000000000000A7
:0839200000000000000000009F
:04000005080000B53A
:00000001FF
